:020000040002F8
:10300000285F0020E9350200F1350200F3350200A7
:10301000F5350200F7350200F93502000000000026
:10302000000000000000000000000000FB3502006E
:10303000FD35020000000000FF35020001360200ED
:103040007D390200033602001D3D020003360200F6
:103050000336020003360200A537020003360200E1
:103060000336020003360200033602000336020074
:103070000336020003360200033602000336020064
:1030800003360200D539020003360200033602007F
:10309000F939020003360200FD390200033602004E
:1030A0000336020003360200033602000336020034
:1030B000033602000336020000000000000000009A
:1030C0000336020003360200033602000336020014
:1030D000033602000336020003360200000000003F
:1030E00000000000000000000000000000000000E0
:1030F00000000000000000000000000000000000D0
:1031000000000000000000000000000000000000BF
:1031100000000000000000000000000000000000AF
:10312000000000000000000000000000000000009F
:10313000000000000000000000000000000000008F
:10314000000000000000000000000000000000007F
:10315000000000000000000000000000000000006F
:10316000000000000000000000000000000000005F
:10317000000000000000000000000000000000004F
:10318000000000000000000000000000000000003F
:10319000000000000000000000000000000000002F
:1031A000000000000000000000000000000000001F
:1031B000000000000000000000000000000000000F
:1031C00000000000000000000000000000000000FF
:1031D00000000000000000000000000000000000EF
:1031E00000000000000000000000000000000000DF
:1031F00000000000000000000000000000000000CF
:10320000DFF80CD000F090FA004800470573020088
:10321000285F002030B4044654E8000F0D4644E80F
:103220000053002BF8D1156030BC704730B4044611
:1032300054E8000F40EA010544E80053002BF7D1A1
:10324000156030BC704730B4044654E8000F00EA03
:10325000010544E80053002BF7D1156030BC7047DE
:1032600030B4044654E8000F80EA010544E80053F6
:10327000002BF7D1156030BC704730B4044654E8D9
:10328000000F00EB010544E80053002BF7D1156057
:1032900030BC704730B4044654E8000FA0EB010581
:1032A00044E80053002BF7D1156030BC7047000094
:1032B00030B450E8012F93B2C48923448489A342D7
:1032C00028BF1B1B0489A34202BFBFF32F8F00201E
:1032D00007E0C3EA020340E80134002CE9D14FF0D3
:1032E00001000A6030BC704750E8012FC2EA024278
:1032F00040E801210029F7D1704730B450E8022F8F
:103300001FFAA2F3C488A34202BFBFF32F8F00208D
:103310000DE0C48923448489A34228BF1B1BC2EA51
:10332000034340E80234002CE8D14FF001000A606A
:1033300030BC704750E8022FC2EA224240E8022126
:103340000029F7D17047034653E8022FD988B2EB22
:10335000324F4FF0000017BF92B241EA014142EAFA
:10336000014104E05A68B2EB324F08BF012043E844
:103370000212002AE8D1704730B4044654E8000F26
:103380000D4644E80053002BF8D1156030BC70475F
:1033900030B4044654E8000F40EA010544E8005305
:1033A000002BF7D1156030BC704730B4044654E8A8
:1033B000000F00EA010544E80053002BF7D1156027
:1033C00030BC704730B4044654E8000F80EA010571
:1033D00044E80053002BF7D1156030BC704730B47F
:1033E000044654E8000F00EB010544E80053002BAD
:1033F000F7D1156030BC704730B4044654E8000F74
:10340000A0EB010544E80053002BF7D1156030BC58
:103410007047000030B4044654E8000F0D4644E8FD
:103420000053002BF8D1156030BC704730B404460F
:1034300054E8000F40EA010544E80053002BF7D19F
:10344000156030BC704730B4044654E8000F00EA01
:10345000010544E80053002BF7D1156030BC7047DC
:1034600030B4044654E8000F80EA010544E80053F4
:10347000002BF7D1156030BC704730B4044654E8D7
:10348000000F00EB010544E80053002BF7D1156055
:1034900030BC704730B4044654E8000FA0EB01057F
:1034A00044E80053002BF7D1156030BC7047000092
:1034B00030B4044654E8000F0D4644E80053002B96
:1034C000F8D1156030BC704730B4044654E8000FA2
:1034D00040EA010544E80053002BF7D1156030BCE9
:1034E000704730B4044654E8000F00EA010544E890
:1034F0000053002BF7D1156030BC704730B4044640
:1035000054E8000F80EA010544E80053002BF7D18E
:10351000156030BC704730B4044654E8000F00EB2F
:10352000010544E80053002BF7D1156030BC70470B
:1035300030B4044654E8000FA0EB010544E8005302
:10354000002BF7D1156030BC7047000030B4044642
:1035500054E8000F0D4644E80053002BF8D11560E5
:1035600030BC704730B4044654E8000F40EA01050F
:1035700044E80053002BF7D1156030BC704730B4DD
:10358000044654E8000F00EA010544E80053002B0C
:10359000F7D1156030BC704730B4044654E8000FD2
:1035A00080EA010544E80053002BF7D1156030BCD8
:1035B000704730B4044654E8000F00EB010544E8BE
:1035C0000053002BF7D1156030BC704730B404466F
:1035D00054E8000FA0EB010544E80053002BF7D19D
:1035E000156030BC70470000064880470648004719
:1035F000FEE7FEE7FEE7FEE7FEE7FEE7FEE7FEE7A3
:10360000FEE7FEE7013A0200013202002DE9F05F19
:103610000546002092469B46884606468146402441
:103620001BE0284641464746224600F06CF85346C8
:103630005A46C01A914110D311461846224600F04E
:1036400053F82D1A67EB01084F462246012000214E
:1036500000F04AF817EB00094E41201EA4F10104C6
:10366000DFDC484631462A464346BDE8F09F00006D
:1036700000487047DCC7020040EA01039B0703D003
:1036800009E008C9121F08C0042AFAD203E011F8A1
:10369000013B00F8013B521EF9D27047D2B201E063
:1036A00000F8012B491EFBD270470022F6E710B547
:1036B00013460A4604461946FFF7F0FF204610BDA0
:1036C000421C10F8011B0029FBD1801A704730B54D
:1036D00004460020034600E05B1C934203D2E05CFA
:1036E000CD5C401BF8D030BD202A04DB203A00FA24
:1036F00002F1002070479140C2F1200320FA03F349
:10370000194390407047202A04DB203A21FA02F046
:103710000021704721FA02F3D040C2F1200291400B
:103720000843194670470000064C074D06E0E06864
:1037300040F0010394E8070098471034AC42F6D3F8
:10374000FFF762FDD0CE0200F0CE020070B58C18FB
:1037500010F8015B15F0070301D110F8013B2A11A5
:1037600006D110F8012B03E010F8016B01F8016B92
:103770005B1EF9D12B0705D40023521E0DD401F88E
:10378000013BFAE710F8013BCB1A921C03E013F857
:10379000015B01F8015B521EF9D5A142D8D300208C
:1037A00070BD00002DE9F04700268CB0DFF8609175
:1037B000B0464FF48075012437460696284604F03B
:1037C0008FFD38B1D9F80403204203D0284604F015
:1037D0007DFD26432D1D64007F1CADB2082FEDD367
:1037E0004FF4BE74204604F07BFD48B1204604F03F
:1037F0006DFD46F0004606AA0121002004F052FDAE
:10380000444D16F0FF0F15D00127002437420DD08C
:1038100009EB8401D1F81005D1F81015C0F304208C
:1038200055F82420C1F3014102B190477F00641C88
:10383000082CEBD3002E67DA4FF0FF30CDE908807B
:1038400000263446281910F8507F90F9000027F020
:10385000C008401C44D009A9404603F045FF58B3B6
:103860004FEA9719404601F0BBFD55F820701FB193
:10387000B9F1030F03D00FE0B9F1030F30D108A85D
:103880004FEAD80208F00703815C4FF0010C0CFAF4
:1038900003FC41EA0C0181544FF0A04101EB880088
:1038A000D0F8000706A9C0F3014A404603F01CFF08
:1038B00018B1BAF1020F03D012E0BAF1030F0FD121
:1038C000B9F1030F08D1BAF1020F1BD00221404613
:1038D00004F0CCFC761CF6B217B149464046B84716
:1038E000641C042CAED3002E0ED06A4601210020A9
:1038F00004F0D8FC06990098884205D006900898F4
:1039000009909DE70321E2E70CB0BDE8F0870000D5
:1039100000600040A836002000F01F020121914005
:103920004009800000F1E020C0F88012704700F0EC
:103930001F02012191404009800000F1E020C0F801
:103940000011704700F01F020121914040098000E2
:1039500000F1E020C0F8001270474907090E002866
:1039600006DA00F00F0000F1E02080F8141D704727
:1039700000F1E02080F80014704700002DE9F041CC
:103980004FF48077384603F06DFF0124104EA507F1
:1039900048B1384603F06DFF0120C5F80803747084
:1039A000002001F063FD4FF48277384603F05AFFA0
:1039B00000280BD0384603F05CFF0220C5F808034E
:1039C000B470BDE8F041012001F050BDBDE8F081C8
:1039D0009436002007480021C0F84011C0F8441177
:1039E000C0F84811C0F84C11C0F80011C0F804111B
:1039F00007F0EEBF0010014007F038BF05F0CEB968
:103A0000F0B5B5480023021D0178101D01254FF0C7
:103A1000805406290BD11678360708D10678C6F3EC
:103A20000316032E06D0042E04D0052E02D006293C
:103A300007D00EE0B4F82463A84FC6F304263E6016
:103A400002E01678360704D10678C6F30316032E73
:103A500002D0062904D00FE0A24FA14E7E670EE0EF
:103A60001678360708D10678C6F30316032E06D05B
:103A7000042E04D0052E02D0062907D00EE0D4F87B
:103A80004462994FC6F342363E6002E0167836072C
:103A900004D10678C6F30316032E02D0062906D0F9
:103AA00011E0924E376827F0807737600EE0167885
:103AB000360708D10678C6F30316032E06D0042E67
:103AC00004D0052E02D006290AD011E04FF080461E
:103AD000C6F80C31C6F81031834E361F336002E051
:103AE0001678360704D10678C6F30316032E02D0E3
:103AF000062905D00CE07C4F032664373E600AE0BF
:103B00001678360704D10678C6F30316032E02D0C2
:103B100006290DD014E0764F05263E60744E7836A7
:103B20003560734E083633603F263F1D3E6002E02D
:103B30001678360704D10678C6F30316052E02D090
:103B4000062957D062E06B4E36686B4F3E60694E77
:103B5000361D36683F1D3E60664E083636683F1D8E
:103B60003E60644E0C3636683F1D3E60614E103636
:103B700036683F1D3E605F4E143636683F1D3E601E
:103B80005C4E183636685C4F20373E60594E1C3606
:103B900036683F1D3E60574E203636683F1D3E60FA
:103BA000544E243636683F1D3E60524E28363668E5
:103BB0003F1D3E604F4E2C3636683F1D3E604D4ED9
:103BC000303636684C4F40373E604A4E34363668A1
:103BD0003F1D3E60474E383636683F1D3E60454EBD
:103BE0003C3636683F1D3E60424E403636683F1DCB
:103BF0003E6002E01678360708D10678C6F3031651
:103C0000032E06D0042E04D0052E02D0062907D09C
:103C100019E0D4F85812394A01F04F01116002E05E
:103C2000117809070FD10078C0F30310032803D0DF
:103C3000042801D0052806D131480168C90702D0FF
:103C40006FF001010160D4F83001062808D1D4F8E2
:103C50003401062804D12B48016841F480610160D9
:103C600022487438016841F470010160BFF34F8F3E
:103C7000BFF36F8F4FF01021D1F80002002803DB53
:103C8000D1F80402002822DA1F4A15601F48046890
:103C9000002CFCD01524C1F800420568002DFCD092
:103CA000C1F8044201680029FCD0136001680029B2
:103CB000FCD0BFF34F8F0D48F0380168144A01F46F
:103CC000E06111430160BFF34F8F00BFFDE7124970
:103CD00010480860F0BD0000E00F00F040350140E2
:103CE0000DF0ADBA00C007403C050040FCED00E01F
:103CF000105600400404001020C50040E40E0040AF
:103D0000000400403C17004004E5014000E401408D
:103D10000400FA050090D003DC2D00200448017F48
:103D200004480029024901D007F0AFBF07F01EBFC9
:103D3000003700200020004002E008C8121F08C120
:103D4000002AFAD170477047002001E001C1121F1C
:103D5000002AFBD1704700000121202803DA8140AE
:103D60000548014003E0402802DA2038814009B1CB
:103D70000120704700207047FC06FFBD082806D2CE
:103D800028B1012803D0042801D001207047002069
:103D9000704710B560B159B102780B785208B2EB98
:103DA000530F05D10622401C491CFFF790FC08B1B7
:103DB000002010BD012010BD800701D000207047F9
:103DC00001207047C3688B4206D811440069491E20
:103DD000814201D8012070470020704770B5002350
:103DE0008D880C680DE0E618E15C7678864206D195
:103DF000E018801C491E10609180002070BD0B44AB
:103E00005B1C9D42EFD8052070BD10B50122022138
:103E1000002001F007F908B1072810D1072202217C
:103E2000012001F0FFF808B1072808D100210A227B
:103E3000084601F0F7F808B1072800D1002010BDAE
:103E400070B58CB015460E4600236C46C3F10F01C9
:103E5000415CE1545B1C102BF8D30D2104F11000E0
:103E6000FFF723FC0020C0F10F02315C2244401C0C
:103E700011740328F7D3684643DF0020C0F10F0117
:103E8000214491F820102954401C0328F6D30CB08B
:103E900070BD022000F0A4BF0149097900F0DCBB2D
:103EA000E02C002070B50024064D06E06868012172
:103EB00010F8340003F090FD641C28788442F5D398
:103EC000002070BD102D0020F8B515460C460646A2
:103ED000052A01D20720F8BD03F064FE18B903F0EB
:103EE00033FE0028F7D1104900204E600C70C1E964
:103EF00002500E4D08610DE006EBC40069680091A8
:103F000081788DF801100078094A694603F0B6FD02
:103F10000028E0D1641EE4B2EED2BDE8F840054AC4
:103F20000021024800F050B8102D0020ECC402001F
:103F3000B1630200B156020004F05EFC04F0ACFA7A
:103F40000028FBD1104C0121208801EB00400FA17B
:103F500004F09AFB10480068C00700D000BE20881B
:103F6000022101EB00400DA104F08EFBBFF34F8F47
:103F70000948E43801680D4A01F4E0611143016029
:103F8000BFF34F8F00BFFDE7602E002046617461D4
:103F90006C206572726F7200F0ED00E053797374FB
:103FA000656D207265736574000000000400FA05F9
:103FB0000EB500210091CDE901106A4644F20100DE
:103FC000FFF7BAFF0EBD0000074B9B7823B12AB163
:103FD00020B10068037C1BB10820704707207047A0
:103FE00041744261002070474037002070B506F0F0
:103FF000A7FD104800240B21047044700E4D817001
:1040000014206C602C706C70FFF786FC0721142064
:10401000FFF7A3FC1420FFF78AFC0848046007217F
:104020001120FFF79AFC0548001F0068A8600020D7
:1040300070BD000040370020242D002008150140ED
:104040002DE9FC47DFF8789099F8023073B368B334
:10405000052902D20720BDE8FC87436933B3437CBE
:10406000012B25D0002704460025884616468DF8EA
:104070000050684600F038F801A807F0F5FEC8B116
:10408000012101700F4944600968C0E90218C0E9C4
:1040900004769DF8040089F801009DF8000000F006
:1040A00047F81420FFF74EFC2846D4E70820D2E753
:1040B0000F46D8E704259DF8000000F039F8F3E733
:1040C00040370020041501400649897839B130B1E4
:1040D000416921B100210174022107F055BC08207B
:1040E000704700004037002030B5EFF3108172B602
:1040F0000D4A9468012324B10370002900D162B6EF
:1041000030BD93604FF0E023D3F88051074C254039
:104110001560C3F88041D3F8844154605A17C3F83E
:10412000842100220270E8E74C380020FC06FFBD25
:104130000B498A68002A11D000280FD1EFF31080B4
:1041400072B60B684FF0E022C2F800314B68C2F83B
:10415000043100228A60002800D162B67047000056
:104160004C3800202DE9F041064608680C46411CF9
:104170004FF0A0474FF0010506D005FA00F1C7F84F
:104180000815206804F057F86068411C02D000212F
:1041900004F048F83079204901EB4010A169007F14
:1041A00000283068C0F8241525D0607D227D316854
:1041B0001043C1F86C05D4E900123068C0F80C1542
:1041C000C0F8142524E0A068411C02D0002104F0AE
:1041D00029F8E068411C05D08540C7F80855E0681B
:1041E00004F029F8D4E902123068C0F80825C0F8B4
:1041F0001015BDE8F081607D217D32680843C2F86A
:104200006C05D4E900123068C0F81425C0F80C150C
:10421000207D0128D7D0ECE7003700202DE9F047BA
:10422000074600888EB0804600F0DAF90646404620
:1042300002F0D8FB824604462E4800252A46017823
:10424000404600F01FFA002E50D07879400734D550
:1042500001254FF6FF7603AB2A460721504605F0AD
:1042600063FA010004D0404606F048FF00252BE029
:10427000B1463146049802F008FB064648450FD087
:1042800004460146404602F097FB4046FFF704FE15
:1042900030B9404606F00CFF4046FFF7FDFD48B13F
:1042A00022460721504605F0D5FA010003D04046CA
:1042B00006F024FF00254E4506D0404605F038FCA8
:1042C00010B1504602F07AFB02208DF81800ADF8CC
:1042D0001A807879400701D5012000E002208DF88E
:1042E00020008DF8215006A801F0C2FB0EB0BDE8F9
:1042F000F0870000E02C002070B50A780C460546D7
:1043000072B119480321012A008801EB004026D030
:10431000022A27D1227915A1BDE8704004F0B8B96E
:104320006188221D00F092F808B1FFF741FE608815
:10433000002105F0CDFE082802D008B1FFF738FEB5
:10434000284600F05FF808B1FFF732FE284600F07B
:104350002DF8002806D0BDE87040FFF729BE22796D
:104360000AA1D9E770BD0000602E0020426174747C
:10437000657279204C6576656C20526561642061B8
:10438000732025642025252E0000000042617474EE
:10439000657279204C6576656C2072656365697617
:1043A00065642025642025252E00000070B518B313
:1043B0000288A2F57F41FF391CD0104C4388104D74
:1043C000206800EB8001401C00F00700206005EB36
:1043D000810102204B81C881081D086100248C8165
:1043E0000120087208714C710A80887007F02AFB5E
:1043F000204670BD082070BD0E2070BD002D00202D
:104400005435002010B5D8B10188A1F57F42FF3A9C
:1044100014D00C4B0C4C1A6802EB8201521C02F0B7
:10442000070204EB81011A6082888A800088088074
:104430000020887007F006FB002010BD082010BD8A
:104440000E2010BD002D00205435002030B1018019
:1044500012B11168C0F80210002070470E2070479A
:1044600008B598B191B101228DF8022041F60F02F2
:10447000ADF800204FF6FF72028000224280828059
:1044800009688160684600F015F908BD0E2008BD76
:104490001CB5002822D0002920D00288112A3DD046
:1044A000362A21D0382A1AD0392A17D10A460B8841
:1044B00081888B4212D143899488A3420ED1C3894B
:1044C000012B0BD1ADF8021001218DF80010007CFA
:1044D0008DF8040093686946104698471CBD09880A
:1044E00080888142FAD115E00A460B8881888B4288
:1044F000F4D130F80A3F9488A3420BD1ADF80210F2
:1045000002218DF8001080798DF8040093686946C7
:1045100010469847BDE81C4007F094BA0A88808886
:104520008242DBD14FF6FF700880002048808880EF
:104530001CBD00007CB50A78002A38D18A88A2F513
:10454000C0530F3B33D18A79012A30D100228DF834
:1045500000204A88ADF80220002242F619240B7A86
:1045600014E000BF02EBC20501EB4505ED89A54251
:104570000AD102EBC20201EB42010A8BADF8042022
:10458000C98AADF8061003E0521CD2B29342E9D8B2
:104590000188A1F57F42FF3A06D0418821B9818880
:1045A00011B90199C0F802108268694690477CBD34
:1045B00002494A6C091D06F02DBC0000282F00207E
:1045C00002460248016D001D06F011BC282F002094
:1045D0000249C86C896C084006F041BC282F0020B5
:1045E00070B50A4E054600242A46301D716C06F04F
:1045F000FEFB40B12A46301DF16C06F0F8FB08B115
:10460000022400E00124204670BD0000282F002075
:1046100010B50024204607F01BFC28B1641CE4B24E
:10462000182CF7D3182010BD03480122A2400168BE
:1046300011430160204610BD282F002010B504460C
:1046400007F006FC002803D0024800EB8400806DD0
:1046500010BD0000282F002070B505460C46084606
:1046600007F0F6FB002809D005482A4600EB840134
:10467000001D896DBDE8704006F0B9BB70BD00003B
:10468000282F002070B5064615460C46084607F050
:10469000DFFB00280AD006482B4600EB8401324697
:1046A000BDE87040001D583106F0E8BB70BD000049
:1046B000282F002070B540B10C4D297839B104463F
:1046C00006F018FA28B1002070BD0E2070BD082039
:1046D00070BDE868062807D20549226801EB800111
:1046E000401C0A60E860EEE7042070BD942C0020B6
:1046F000E02F002040B1054900220123CA600B7061
:10470000C1E90102104670470E207047942C00202A
:1047100070B504002DD000292BD020480078002847
:1047200027D020880D46112815D0302804D03228F3
:1047300007D033281ED109E0211D284604F0A0FD32
:1047400018E0211D284604F0D7FB13E0211D284660
:1047500004F0AAFC0EE0A088B5F8CA12884209D17C
:10476000002085F8C70285F8C8024FF6FF70A5F84B
:10477000CA0270BD95F8C8020028FAD020883028F7
:10478000F7D34F28F5D8A088B5F8CA128842F0D1DF
:104790002846BDE8704001F021B80000942C0020AC
:1047A00048B1084A137843B1D26832B190F8C722B1
:1047B0002AB1112070470E2070470820704701F081
:1047C0000DB80000942C00202DE9F04F0188041D45
:1047D00089B005464FF0000B1F2978D028DC7F4EAA
:1047E0004FF003071029308807EB00402AD0112929
:1047F0006ED01B296DD01D2939D1DFF8E4914FF01F
:10480000010A99F80000A8B376482379211D02789F
:104810005208B2EB530F2AD10622401C491CFEF766
:1048200056FF002823D130886FA107EB004083E0BA
:1048300021296FD03B296ED0562918D1A888132181
:1048400076DFC3E071A103F01FFF6548A9880E3031
:10485000FFF7A6FF08B1FFF7ABFB072000F004FC51
:1048600008B1FFF7A5FBFFF7B3FE00287BD009B026
:10487000BDE8F08FFFE75B48401EFEF721FF010017
:1048800005F1180004F1040129D00090C87B554DB2
:10489000C008ADF804006D1E06AA69460920FFF79E
:1048A0009DFAB8B106AA69460820FFF797FA0028D2
:1048B000DDD1BDF81C202846DDF81810FEF707FFF3
:1048C0000028D4D1308854A107EB004034E06CE0DC
:1048D00055E05AE0BDF81C2028460699EEE7069000
:1048E000C87B41F60D05C008ADF81C0001AA06A959
:1048F0000220FFF773FA30B101AA06A90320FFF7DF
:104900006DFA0028B3D100204FF6FF78D446BDF8E9
:10491000083030E04DE056E001990CEB4002895C34
:10492000019A08EA012112F810200A43AA4221D173
:10493000308842A107EB004003F0A6FE8BDF284839
:10494000284A801D01230178D21D21F00201017047
:104950000146201D8CDF020089F801B087D0318824
:104960000AEB014000E01BE009B03DA1BDE8F04FBB
:1049700003F08EBE401CB0EB530FCDD377E72A7AFD
:1049800041A103F085FE002068E72179012907D0C5
:104990000229F3D109B043A1BDE8F04F03F074BE82
:1049A00009B0BDE8F04F06F00FB92088211D75DF72
:1049B0000CE0CDF804B0A88801A98FDF0028DDD075
:1049C000FFF7F6FA53E7A888132176DF0028D5D041
:1049D00009B0BDE8F04FFFF7EBBA0000602E0020F1
:1049E000A0290020FDC20200416464726573732037
:1049F0006D617463682073656E6420636F6E6E65AD
:104A000063745F726571756573742E00436F6E6EAB
:104A100065637465642E00004E616D65206D617480
:104A200063682073656E6420636F6E6E6563745F88
:104A3000726571756573742E000000005555494408
:104A4000206D617463682073656E6420636F6E6EA1
:104A50006563745F726571756573742E0000000084
:104A6000436F6E6E656374696F6E20526571756514
:104A70007374204661696C65642C20726561736F84
:104A80006E2025642E000000446973636F6E6E65AE
:104A9000637465642C20726561736F6E20307825B5
:104AA000782E0000436F6E6E656374696F6E2052DE
:104AB0006571756573742074696D6564206F7574B4
:104AC0002E00000010B51A4C0188606810290ED025
:104AD00011292BD1401E606028D1FFF796F90028DC
:104AE00024D02168002921D0BDE810400847D0B962
:104AF00000210122084600F095FA08B107280FD1DD
:104B000007220221012000F08DFA08B1072807D101
:104B100004220221002000F085FA20B1072802D0EB
:104B2000216801B188476068401C606010BD0000CA
:104B30008C2C00202DE9F047044603883F480122D1
:104B4000A4B000F1480A102B09D0112B54D01A2B15
:104B500070D1217AB2EB111F53D2012352E0D0E978
:104B600011218A430546011D12A806F053F944227B
:104B700012A901A8FEF780FDDFF8C0900026374695
:104B800009F144090DF104080AE000BF08EB4600F2
:104B90001D2283884946281D009706F0EDF8761CF3
:104BA0000198B042F2D8686CA688C04306F006F9B6
:104BB000A0F57F41FF3917D005EB40000123868027
:104BC00032465146281D06F059F90123324649461E
:104BD000281D06F053F9E07B02280BD0002317496B
:104BE000A2884C31281D20E024B00420BDE8F04705
:104BF000FFF7DEB90123F2E70023A2885146001D2A
:104C000013E000230D490546A2885031001D06F02F
:104C100035F9207A0221B1EB101F01D2012300E007
:104C200000230649A2885431281D24B0BDE8F0476E
:104C300006F024B924B0BDE8F0870000282F00203A
:104C400010B504460748007800280AD0204601F035
:104C50004FFD204606F030FB2046BDE8104001F035
:104C600081BA10BDD02C002030B1018012B1116882
:104C7000C0F80210002070470E20704770B5E8B1F0
:104C80000F4C0288438820680E4D00EB8001401CC9
:104C900000F00700206005EB810102204B81C881F4
:104CA000081D086100248C810120087208714C7174
:104CB0000A80887006F0EAFE204670BD0E2070BDA6
:104CC000082D0020F435002008B598B191B10122DB
:104CD0008DF8022041F60D02ADF8002009688160D0
:104CE0004FF6FF7101800021418081806846FFF707
:104CF000E1FC08BD0E2008BD0A46014610001AD08E
:104D0000002918D00A88112A0BD0382A03D0392A52
:104D100011D104F07BBA0088898888420BD106F053
:104D2000B5BE028889888A4205D14FF6FF7101809D
:104D3000002141808180704730B50A788DB0002A0B
:104D400036D18A88A2F5C0530D3B31D18A79012A28
:104D50002ED18DF800204A88ADF80220002242F6BC
:104D600037240B7A13E000BF02EBC20501EB4505C7
:104D7000ED89A5420AD102EBC20201EB42010A8B86
:104D8000ADF80420C98AADF8061002E0521C934227
:104D9000EAD80188A1F57F42FF3A06D0418821B9BF
:104DA000818811B90199C0F802108268694690475C
:104DB0000DB030BD0149085C7047000010C302000F
:104DC0000649095C4FF0A040D0F81005C84010F02B
:104DD000010000D0012080F00100704710C30200E4
:104DE00007490B5C4FF0A041D1F804250120984001
:104DF00020EA0203C1F808351040C1F80C057047DD
:104E00000CC302000249085C012103F040BA000013
:104E10000CC302000249085C002103F038BA00000C
:104E20000CC302000649095C4FF0A040D0F804050D
:104E3000C84010F0010000D0012080F00100704750
:104E40000CC302007CB50024084E25460122305DCB
:104E5000009500231146019503F0A5F9641C042C6C
:104E6000F4D3BDE87C4000F003B800000CC302009E
:104E700010B500242046FFF7C5FF641C042CF9D3AD
:104E800010BD10B500242046FFF7C4FF641C042C9D
:104E9000F9D310BD10B50246064B4FF0FF3000218C
:104EA0005C5C944201D1084610BD491C0429F7D32B
:104EB00010BD000010C3020070B50C4E0C004FF086
:104EC000000530600BD0012000F06AF808B1022024
:104ED00004E0002000F064F800B10B20207070683E
:104EE00010B9FEF792FF0546284670BD8C2C0020B5
:104EF00010B5002000F0EAF908B1062806D101201B
:104F000000F0E4F908B1062800D1002010BD00002F
:104F10002DE9F0470D468146FFF7BCFF0446042803
:104F200036D2DFF874801B481C4EA8F10C0725B35D
:104F3000012D0ED0022D2BD104EB440030444578D6
:104F4000002D25D0B968002922D02846BDE8F047B9
:104F5000084704EB4401755C0E44717849B10E4A70
:104F60004FF40041093A8068FFF76AF808B987F8FA
:104F70000390B17808F80410E2E78068FFF7A4F81E
:104F800004EB4401314418F804008D78A842D7D0CE
:104F9000BDE8F08714C30200882C0020FC2E0020FE
:104FA000FFF70EBF10B5154C042808D0072811D004
:104FB0000A2821D1BDE81040002003F031BD1321A3
:104FC000A08876DF082817D0002815D0BDE810404B
:104FD000FEF7EEBF607800280ED109480321008853
:104FE00001EB004007A103F04FFB012060708BDF55
:104FF000BDE8104005F0E8BD10BD0000A02900206C
:10500000602E002057686974656C6973742074653C
:105010006D706F726172696C792064697361626C22
:1050200065642E0070B50023042810D20D4D00EBEE
:105030004004012A02D101290CD00022094E00EBC4
:105040004000304461B1012906D0022906D007236F
:10505000184670BD0E30C2B22A55F9E74270F7E724
:105060008270F5E7FC2E0020044A014600201279E8
:10507000D20702D0084600F04DB870477C2C0020C3
:1050800070B506461E480024C0E90161B00720D56E
:105090000025012211462846FFF7C4FF6D1C044677
:1050A000042D02D2002CF4D013E094B940F26662D1
:1050B00004211448FEF708FF04000AD1FEF7F2FEAF
:1050C000040006D10F48104A0021001FFEF77CFFA4
:1050D0000446F00701D0FFF7B5FE74B909480B4A42
:1050E00000210C38FEF770FF040006D10548084A7D
:1050F00001210838FEF768FF0446204670BD000015
:105100007C2C002020C3020075530200B96D020000
:10511000933E02002DE9F05F6A4C05460026607858
:10512000B34618B184F801B001F02EFE664F4FF47B
:105130007A694FF4C87A4FF00108182D62D2DFE87F
:1051400005F0AC0C0C31404D62676B746B74BE7D26
:105150007D7D7D7DACAFB2B5BEBE0020FFF762FEA7
:1051600000284FF0000008D0FFF74CFE022D02D1BE
:105170004FF4E16008E0484606E0FFF74BFE022DE1
:1051800001D1C82000E05046410CC0034FF4FA7230
:10519000801841F10001257052000023FEF736FA15
:1051A00001462AE00020FFF73DFE00284FF00000F6
:1051B00004D0FFF727FE4FF44870E5E7FFF72AFE1B
:1051C000DFE70020FFF72EFE00284FF0000002D09E
:1051D000FFF718FECFE7FFF71DFED4E70020FFF72B
:1051E00021FE00284FF0000002D0FFF70BFE01E087
:1051F000FFF710FE257041F69A1100223868FEF77D
:105200001FFF064646E00020FFF7EAFD257008E094
:10521000002051E025703DE084F801800120FFF777
:10522000DFFD002240F6CD41E8E784F8018001204F
:10523000FFF7D6FD00224FF48041DFE77868FEF7E4
:1052400043FF0646D5F1110000D02EB10220FFF732
:10525000D9FD84F802B01DE0012816D980B2C8211A
:105260004843C117C90341EA5041C0034FF4FA72E1
:10527000801841F1000152000023FEF7C7F90146F2
:1052800000227868FEF7DCFE06460220FFF7C2FD2A
:1052900084F802803046BDE8F09F01F075FDB9E763
:1052A00001F072FDB4E701F06FFD04E001F06CFD68
:1052B0000020FFF7AFFD0120FFF7ACFDAAE7FFF7E5
:1052C000E0FDA7E77C2C002014C3020010B5FFF717
:1052D00071FD032102F0B9FF002010BDF8B5871C55
:1052E00000208DF800000E4601256846FEF7FCFE02
:1052F000124C20683060D4E90001401AA168091AF4
:10530000BE1C06E001F0B4FFD4E90001401AA16818
:10531000091A491C8E42F5D8A1682068084004EBA0
:105320008000C16841F00301C160206838442060FA
:105330009DF80000FEF7FCFE2846F8BD043B002067
:1053400030B482680468531C8360A154D0E9011210
:105350008A4202D330BC02F034BD30BC704700003A
:10536000034803C8814201D10120704700207047E3
:10537000043B002000780221FFF7CABD05494FF029
:10538000FF32082841F8202002D3084480F8482042
:1053900070470000A8360020F0B54FF0FF3512B17D
:1053A0000023082601E008230C260C4C05E000BF72
:1053B00054F823707F1C04D05B1CB342F8D32846FA
:1053C000F0BD26185DB286F8305044F82310002A4C
:1053D000F5D1E11881F84800F1E70000A836002077
:1053E0000249084490F9300070470000A8360020B8
:1053F00008B5024690F8C6020B4600EB8001C1EBEF
:10540000801002EB400092F8C52242B1521ED2B287
:1054100002EBC20100EB4102518A491C00E0C18845
:10542000ADF800100089ADF802006946184696DF15
:1054300008BD70B504464FF6FF750A462846AC42D3
:1054400008D14FF480742146104604F031FFA04289
:1054500009D070BDFF2CFCD82146104604F01BFF7C
:1054600008B1204670BD284670BD000070B5084CDC
:10547000050009D010342168002907D00868206091
:10548000496828468847F6E70834F4E770BD00000D
:10549000943600202DE9F05F26484168F1B3DFF82B
:1054A00098B00E688146DBF8004087688078E11B81
:1054B00021F07F45ED1CB0B9DFF880804FF48030DB
:1054C000C8F84403C8F804031120FEF725FA112098
:1054D000FEF72DFA4FF0010AC8F800A02F2002F0C5
:1054E000D1F989F802A0B54200D23546124BE8192D
:1054F0003C3320F07F401860DBF800105A46091B4F
:1055000021F07F41001B20F07F40C91C81420FD950
:10551000106818602F2002F0B5F900E004E0BDE843
:10552000F05F1120FEF70EBABDE8F05F05F008BB92
:10553000BDE8F09F242D002004150140001001401B
:10554000F0B585B016460F4604461D4614220B4999
:105550006846FEF791F80A488DF80870ADF80240E9
:10556000ADF80A608DF80C50017800222046FFF754
:1055700089F8684600F07CFA05B0F0BDA8C40200C6
:10558000E02C002010B5044601460548FFF7D4FB87
:1055900021460348BDE810400C30FEF7CBBF0000A9
:1055A000902E00207FB50C4610B1012004B070BDD4
:1055B0002079002638B141F61D5501281BD002285C
:1055C00026D00F20F2E70220207102960396E068B1
:1055D0000190694601A805F0F3F950B1029881885D
:1055E000E18000882081BDF80010029805F066FA7D
:1055F000DCE70A20DAE70A4B6A460021A01D05F025
:105600009BF938B1064918398E61CE610A28CDD18F
:105610002846CBE702488188019805F04FFAF5E764
:10562000502D00202DE9F843054690F8C6020F469C
:1056300000EB8001C1EB801005EB400695F8C542F8
:10564000914604EBC40006EB40013279601C0A313C
:10565000904226D16B460022284601F05FFB18B32A
:1056600010E0401EA04201D1002004E004EBC40081
:1056700006EB40001C30804602466B46284601F08F
:105680004DFB30B1002038706946484697DFBDE8D1
:10569000F88395F8C5024146401C641C85F8C50294
:1056A000E4B23079A042DCD8012038700020EEE767
:1056B0002DE9F04100260125144C22E060682269A2
:1056C00000EBC607387805FA00F1114217D08A437B
:1056D000226102F02FFA02463878E36805FA00F1F9
:1056E000194002FA00F3994209D17978012901D0D1
:1056F000012100E0002151407A6802B19047761CF8
:10570000F6B220788642D9D3BDE8F081102D002072
:105710002DE9F047894690F8C612904601EB8102C8
:10572000C2EB811100EB4107384605F0E3F90600B2
:105730002FD0194CA06806282BD2184D762205EBE5
:10574000C0103946A0F80280001DFDF795FF002724
:10575000B9F1000F04D0A06805EBC010077004E099
:10576000A168022005EBC1110870A06805EBC0110B
:10577000401CCE67A060E16888420AD1002604E0A0
:1057800005EBC610C16F8847761CE0688642F7D3E8
:10579000A760BDE8F0870000942C0020F82F0020BF
:1057A00070B50E4690F8C612154601EB8102C2EBA9
:1057B0008111A0B000EB410005F09CF9040009D074
:1057C0007C2205496846FDF757FFADF80250684650
:1057D0000196A04720B070BD40C3020070B50E46D0
:1057E00004464FF43371FDF760FF11480025A4F81B
:1057F000CA62856084F8C9520E4884F8C65284F89B
:10580000C5520068206022460121304694DF012104
:10581000112806D0002809D184F8C71284F8C8528C
:1058200003E084F8C71284F8C812002070BD00009D
:10583000942C0020E02F00200E4910B50A784C78F7
:105840000023A24212D0521CD2B20A70022A00D106
:105850000B70084A0B780C3252F8232002608868DB
:10586000104420F07F408860012010BD03600020BC
:1058700010BD0000242D002013460A460021FFF72A
:105880005FBE00002DE9F843104D0F4680461E46CE
:1058900091466946286801F09CFE040014D01C2142
:1058A000FDF703FF01202071C4F81490380BC4F8F1
:1058B0000080C4E902606946286801F0ABFE04F08C
:1058C000D7FF0020BDE8F8830420FBE71CC50200D9
:1058D00010B503780022072B06D2DFE803F0050499
:1058E0000610202930000A7010BD01230B700389B7
:1058F0008B818388CB81C06888600A7410BD0222C6
:105900000A7002898A818288CA81C2688A60807D21
:10591000062802D00020087410BD0120FBE70322F6
:105920000A70C2888A810289CA81C068886010BDF5
:1059300004230B70C0888881CA818A6010BD05204D
:10594000087010BD70B5064D0646002455F82410A9
:1059500009B130468847641C042CF7D370BD0000A1
:105960006438002030B50446006885B00D46806874
:1059700000281CD014216846FDF797FE0195A06809
:105980000490207910B101280DD104E001208DF898
:105990000000206904E002208DF80000E0680003A8
:1059A000029060690390206881686846884705B066
:1059B00030BD70B586B015460C00064619D0112CC6
:1059C00017D0082C15D014216846FDF76EFEADF8EF
:1059D0000260304601F006F8ADF804000D2C0AD044
:1059E000862C1CD007208DF800000294684600F039
:1059F0004DF806B070BD03208DF8000025B1287861
:105A0000C00701D0012000E002208DF8080000202E
:105A10008DF80C0041F20110ADF80A00E6E706200F
:105A20008DF80000E2E7000010B50446408800F061
:105A3000D9FFA080024801682046BDE81040084711
:105A4000AC2C00202DE9F04107460024064E074DFE
:105A500005E000BF56F8241038468847641CE878F3
:105A60008442F7DBBDE8F08108350020D02C00200F
:105A700010B50446408800F0B5FFA08002480168D8
:105A80002046BDE8104008477CC40200014909686F
:105A900008470000E4C4020070B586B00446142133
:105AA0006846FDF702FEA0890026A0F54040ADF84B
:105AB000040020782D4D062835D2DFE800F03403AD
:105AC00003032E4EA08900F0C7F9012130B9E08907
:105AD00043F6FE72A0F54040904224D8A07B8DF89A
:105AE00008002078032810D05FF000008DF809002E
:105AF000A0680390606850B109208DF800006068CC
:105B00000490684603F0EEFE0DE00120EEE7082069
:105B10008DF800008DF81010F3E7A08900F09CF9D3
:105B200008B1E08938B16878002802D06E7004F0BE
:105B300009F806B070BD606838B10B208DF8000020
:105B40006E70AE7003F0FEFFDBE70A208DF80000F8
:105B5000BDF8040004F086F8F2E713208DF8000089
:105B60004FF6FF70ADF80400CBE70000BC2C00201E
:105B700038B504460E480078A8B1A4F57F40FF3838
:105B80000FD0684604F0AEFD78B105210170012107
:105B90000171C480684604F0B3FD04F059FE002092
:105BA00038BD042038BD022038BD082038BD0000B3
:105BB000582D00200C4808B5007888B1684604F0DC
:105BC00091FD78B106210170684604F099FD0748FF
:105BD000017809B10121017304F03AFE002008BDEB
:105BE000022008BD082008BD582D002028390020BB
:105BF000F0B589B014216846FDF757FD2C4C20788C
:105C000018B16846FFF79EFE50E0201D012105AA4D
:105C1000FDF70CFBB8BB4FF010204169000402698E
:105C200040694B1C01D100FB02F1224800220161B6
:105C3000A1F54051C160204902F0E3F9002820D1CC
:105C40001F481C238C221D49006801F0AFFC03F0A3
:105C5000FDFB050014D0022D12D000270126062DD1
:105C600012D006A804F03EFD88B106700C2D18D2A3
:105C7000DFE805F0170F170F171617161711131176
:105C80000B2009B0F0BD11E026706760B9E708206D
:105C9000F7E7077105E0032100E00221017100E050
:105CA000067106A804F02CFD04F0D2FD0020E8E700
:105CB000582D0020E02D00202CC502007438002053
:105CC000F4C4020038B5040014D0694604F078FE2C
:105CD000A0B1BDF8000000EB8001094800EB810095
:105CE000C16849B1A17A39B1C168491EC1600020BB
:105CF000A07238BD052038BD062038BD0A2038BD49
:105D0000003900201FB501A9684604F015FE04B053
:105D100010BD07B513460A466946002004F00CFE84
:105D20000EBD07B513460A460021684604F004FE7E
:105D30000EBD20B119B10068086000207047052031
:105D4000704700007CB50D46040019D0C5B1694606
:105D500004F036FEB0B1BDF800000B4900EB800046
:105D600001EB8000012101AA0C306668FDF785FA7D
:105D70002E6060680C3068600120A07200207CBD3D
:105D800005207CBD0A207CBD0039002018B103230A
:105D9000002206F08BB9052070470223002206F08E
:105DA00085B912B1022306F081B9052070470000C1
:105DB000094908B50A69042A0BD0084A096942F85A
:105DC00021000548012110306A46FDF756FA0020EF
:105DD00008BD0C2008BD0000382D002064380020CC
:105DE00038B5044609480D46007858B164B1694693
:105DF000284606F055FA002803D1BDF8001021808E
:105E0000658038BD022038BD052038BD582D0020E2
:105E100010B504460E48007898B1A4B12188022933
:105E200013D80C4A01EB810002EB80026088528992
:105E3000C31C934209D806F027FA00202080608016
:105E400010BD022010BD052010BD042010BD0000B3
:105E5000582D00200039002043F6FE71A0F5404087
:105E6000884201D8012070470020704710B50446D1
:105E70000078182802D1FEF7CBFB207010BD10B5BA
:105E800004460078182802D1FEF7C2FB207010BD2E
:105E900070B51346002206461546862902D0112900
:105EA00002D002E0012200E001250D4C73B1A1797E
:105EB000FEF7E8FB2A4661793046FEF7E3FB002255
:105EC000A1783046FEF7DEFB002203E0A178FEF762
:105ED000D9FB2A4661783046BDE87040FEF7D2BB58
:105EE000E82C0020406804F013BC00000C480A882D
:105EF00003230088A2F5206203EB0040773A09D023
:105F000002F6FD72B2F5604F08D10B794A8805A1FF
:105F100002F0C5BB8B884A880EA1F9E770470000E4
:105F2000602E002044617461206C656E6774682087
:105F3000666F7220636F6E6E656374696F6E20307A
:105F4000782578207570646174656420746F2025ED
:105F5000642E00004741545420415454204D545560
:105F6000206F6E20636F6E6E656374696F6E203094
:105F7000782578206368616E67656420746F2025DA
:105F8000642E000070B508B1012070BD194C0025C9
:105F9000207B08B1257301E000F0A0F820780828E4
:105FA00026D2DFE800F02504080C10251420BDE8F7
:105FB000704000F021B8BDE8704000F07DB8BDE849
:105FC000704000F05FB8BDE8704000F03BB86088FA
:105FD000084900EB8000283901EB80004068BDE8EB
:105FE000704003F013BA6560BDE8704003F01CBA5E
:105FF0000F2070BD283900201149F0B48A1C002000
:106000000346A1F128050C18A67A4EB1A37200EB45
:10601000800405EB8404E66816B9247C012C0AD0C0
:10602000401C80B20228EED30B704B804B60F0BC5A
:1060300041F61D5070471080F0BC00F03DB80000E4
:10604000283900200C48418801EB8102A0F1280189
:1060500001EB8201CA6852B1052101700748022193
:106060008180016800230122054801F0A3BF0422BA
:1060700002704968F6E7000028390020602D0020F2
:10608000E02D002038B50A49084803240B6842680F
:10609000898803EB810153880470DB1C00201B04FA
:1060A00000909B0B034802F04BF838BD28390020C4
:1060B000602D0020E02D0020074910B54888091DFB
:1060C00004F0CEFC18B1BDE81040FFF7DBBFBDE81F
:1060D0001040FFF7B7BF000028390020F0B51F4877
:1060E0001F490125067802248B88A0F12802082E7A
:1060F00019D2DFE806F00418181B222F2F17018988
:10610000491C01810021418080F80C1001EB8103C2
:1061100012F8233043B100234418491C89B2A372FA
:106120000229F3D30570F0BD0123F5E742685288D8
:10613000D21C1A448A800470F0BD46880D6806EBB4
:10614000860602EB860256680E60556013818C80CD
:10615000062100E007210170F0BD00002839002071
:10616000602D002030B501888588224C85B05029EB
:1061700024D0522902D0542932D103E0284601F01C
:1061800021F82DE014221C496846FDF775FAADF898
:106190000250284600F026FCADF8040000F034F967
:1061A000002261792846FEF76DFA002221792846FF
:1061B000FEF768FA6846FFF737FC11E0017B01291A
:1061C0000ED1817A01290BD10089A0F52451023921
:1061D00006D10121284601F029F8A07803F03AFE03
:1061E000E07803F037FE207905B0BDE8304003F0D9
:1061F00031BE0000A42C0020F8C3020010B50446F4
:10620000007800280FD1608800F0DCFF608800F083
:10621000A3F9002807D00449608801220979BDE864
:106220001040FEF72FBA10BDA42C002010B5124C60
:1062300000202070FEF7ECF9A070FEF7E9F9E0709D
:10624000FEF7E6F92071FEF7E3F96071A1781829ED
:106250000FD0E17818290CD02179182909D01828F5
:1062600007D00121601C04F00FF8012020700020ED
:1062700010BD032010BD0000A42C00202DE9F0412A
:1062800092B000F0D9F86846FEF792F900246E4605
:106290000D4D4FF6FF780DE006EB4407B88800F08F
:1062A000A1FB404504D1B88801222979FEF7EAF91B
:1062B000641CA4B20098A042EED8287903F0CAFD6D
:1062C00012B0BDE8F0810000A42C00207CB504468B
:1062D00000781C4D08282FD1607A38BB207A4FF601
:1062E000FF7601280DD0072802D0082824D11EE00F
:1062F000A08800F061FAB0421ED0012100F096FFA4
:106300001AE0A0886A46012103F0E4F970B9019807
:10631000007858B1A08800F04FFAB0420CD00122AA
:106320002979FEF7AFF9287903F094FD04E00548D8
:106330000021401C03F0E3FFA878BDE87C4003F097
:1063400089BD0000A42C002010B504460A484178FD
:106350002046FEF781F968B10848002101EB4102AF
:1063600000EB82025288A24201D1C8B210BD491C82
:106370001429F3D3FF2010BDB62C0020F8320020E2
:1063800070B5094D094E002404EB440005EB800074
:1063900071784088FEF760F920B1641C142CF3D3A7
:1063A000FF2070BDE0B270BDF8320020B62C002096
:1063B0002DE9F041124E07460125BD403068FDF73A
:1063C00083FE00280DD10F4C2069284207D13846A2
:1063D00001F0B0FB0028E06805D0284304E0A843A2
:1063E0002061BDE8F081A843E06020692843206176
:1063F000A1683068BDE8F0410022FDF721BE000031
:10640000ECC40200102D00201CB5054AD2E902128E
:10641000CDE900120022694603F081F91CBD00009D
:1064200010C4020003484FF6FF7181800121017002
:1064300000207047B02C002010B54FF6FF7003F01D
:1064400001F903498880BDE8104004F07FBE0000D8
:10645000B02C00202DE9FC41804600F0C3FA002456
:1064600003250127A0F57F412646FF3908D06A465B
:10647000082103F02FF918B90198841D8688056852
:1064800032462B4621464046A9DF042804D008287E
:1064900004D00B2808D002E0112000E00020002FDB
:1064A00000D10B20BDE8FC810027A80701D50125FC
:1064B000E6E73443F5D0002426460325E0E72DE93E
:1064C000FC41804600F08EFA0646A0F57F40FF387A
:1064D0000ED001252A466D1C0027ADB26B4608215F
:1064E000304603F021F9040006D0072C25D025E022
:1064F00043F20200BDE8FC81019903230A1D0B60F1
:106500004046891DAADF040004D00C2C09D0052CBC
:1065100009D009E032460821104603F09BF90446F1
:106520000CE0012700E000240821304603F07EF94A
:1065300000B10324002FCDD100E00C242046D9E780
:1065400004488088A0F57F41FF3901D004F0FEBDEA
:1065500070470000B02C00200EB502A9019100F098
:1065600041FA6A46012103F0B5F808B100200EBDDA
:10657000019800780EBD00002DE9F04107464FF666
:10658000FF760A48ABDF10B10320BDE8F081074C6D
:1065900043F20305A41E324661883846A7DFA842AD
:1065A000F3D16088401C6080F5E70000B22C002029
:1065B000428800EB82020C328A4201D902207047E5
:1065C0008188A1F57F42FF3A03D0008808B10020FE
:1065D000704701207047884204D20068401C01D0F7
:1065E000012070470020704770B5054608780C46BA
:1065F000012810D0022832D119480321A28800882E
:1066000001EB004017A102F043F8A279002A26D03E
:10661000002108461FE06188221D2846FEF724FB62
:1066200008B1FDF7C5FC6088002103F051FD082882
:1066300002D008B1FDF7BCFC2846FEF71FFB00287E
:106640000DD0BDE87040FDF7B3BC00BF04EB4003C4
:10665000401C1B8919448242F8D8B1FBF2F070BD8E
:10666000602E002048656172742052617465203D7F
:106670002025642E000000003EB5027802230C465F
:10668000B3EB520F17D1B0F80110ADF80010C1787C
:106690008DF802108188ADF8041080798DF806001D
:1066A00002AA01A92046FDF7CBFB032202A96846F6
:1066B000FDF70DF808B100203EBD01203EBD0000F1
:1066C00010B50C46FFF740FEFF280CD0074900EB41
:1066D000400001EB8000416821600189A180807A3F
:1066E000A071002010BD052010BD0000F832002070
:1066F00070B5018892B0102959D1011D3422684625
:10670000FCF7BAFF9DF804004FF6FF7603213446EC
:106710006D46B1EB500F2AD003F052F99DF80400FA
:1067200040080ED001280CD0022820D118E00F9983
:10673000281D1131FDF72DFB18B100BFBDF8344005
:1067400015E00EAA0DA9072003F00EF90028EED1DE
:106750000DE00F99281D491CFFF78EFF0028EDD191
:106760000EAA0DA9072003F0FFF80028F1D1BDF80B
:106770000000291D00F0C4FEB44218D0BDF800008E
:10678000214600F019F9BDF80000ADF836000020F0
:10679000ADF83840074E8DF834000DAD044600BF0B
:1067A00056F8241028468847641C022CF8D312B0EF
:1067B00070BD000024C40200094A002101EB41031E
:1067C00032F82330834205D101EB410002EB800017
:1067D00040887047491C1429F0D34FF6FF7070476A
:1067E000F83200202DE9F041CEB00D46070019D057
:1067F000C5B10DF1B8085020CDE94B80B8216846ED
:10680000FCF753FF002042A94FEA0D06C0EBC0027F
:1068100002EB0012324441F82020401C0828F5D336
:1068200000242BE00022114610466FDF4EB0BDE879
:10683000F08150212EA8FCF738FF37F814004CAB3C
:106840004AAA072103F0C4F805280AD0072808D06F
:106850009DF8C900400806D0012804D043F2022068
:10686000E4E70520E2E7C4EBC40000EB0410304489
:10687000172208F10101FCF7FFFE641CAC42D8D3DB
:10688000EAB2002142A86FDFD0E73EB50C460546CC
:1068900003F096F80BE0BDF80000A04207D02846B0
:1068A000029900F02FF810B1BDF800003EBD01AA1A
:1068B0006946072003F058F80028ECD14FF6FF7026
:1068C0003EBD000010B50D4C18200D4A6070002030
:1068D0004FF6FF7100EB400302EB8303401C59802D
:1068E0001428F7D3FDF794FE6070182803D0012018
:1068F0002070002010BD032010BD0000B62C002029
:10690000F83200202DE9F0410C46054600F1110750
:1069100001F111061022491C401CFCF7D8FE48B9B1
:10692000681C00F021FA28B1601C00F01DFA08B1C3
:10693000012400E0002431463846FDF72AFA3B786E
:106940000222B2EB530F0CD00321B1EB530F08D04E
:106950003378B2EB530F04D0B1EB530F01D00121C8
:1069600000E00021084201D18C4302D00120BDE8A3
:10697000F0810020FBE7018811B9421892780AB132
:1069800001207047491C0829F7D30020704710B533
:106990000C460346FFF7EFFF00280AD0188821882D
:1069A000884205D10822A11C981CFCF790FE08B172
:1069B000002010BD012010BD03F0A8B970B5044639
:1069C000FFF7FAFE0546204602F087FE4FF6FF71FC
:1069D00004468D4203D014B9284603F097F92046A7
:1069E00070BD000010B5FFF7AFFCFF2805D00449CB
:1069F00000EB400031F8200010BD4FF6FF7010BDD5
:106A0000F83200203EB5044602F0DAFF0EE00199AC
:106A100020464631FFF7BBFF28B9019920462A31AD
:106A2000FFF7B5FF10B1BDF808003EBD6A4602A9E8
:106A3000072002F099FF0028E9D14FF6FF703EBD14
:106A40007CB514460A000A49897802D015688D423F
:106A500003D323B11D688D4201D204207CBDCDE952
:106A6000004313460246034803F094F97CBD00003E
:106A7000B62C0020E833002070B50C4606469AB0CC
:106A800010211848FCF711FE174800252EB324B337
:106A90008470620031461348FCF7EEFD382102A8ED
:106AA0001895FCF702FE009518AB02AA2146304665
:106AB000019503F06FF900280DD110AA0DF108011E
:106AC000C0EBC0030B4442F82030401C0828F7D329
:106AD000E1B210466EDF1AB070BD85700021084625
:106AE0006EDFF8E7E8330020B62C002038B5044606
:106AF0000A4801216A46FCF74BFC68B90848606007
:106B000002F05EF905491C238C22087404488C3974
:106B1000001F006800F04AFD002038BDD439002075
:106B200020C502002DE9F0412D4F002518B17D60F0
:106B30000120BDE8F0810879012258B1294E0128D1
:106B40000CD0274C4FF002080834022821D003282B
:106B500042D128E00A7102F067FC3BE05FF00000E0
:106B600000EB800116F82110022908D0401C80B2E9
:106B70000228F5D33A707D6041F61D50D9E700EB4D
:106B8000800006F8205006EB8000406802F03EFCD2
:106B900020E00D71A4F8048000230122124821682E
:106BA00001F008FA16E00D71206802F02FFC0D4983
:106BB00023682831498801EB810206EB8201D1F874
:106BC00004C0C4F800C04B60A3880B81A4F8048003
:106BD00006F822500028ACD07D600E20A9E7000006
:106BE000582D002000390020E02D00202DE9FC5F09
:106BF0000E008346DDE90C47C6F100009846924638
:106C0000814600D40846012503E000BF90FBFAF05E
:106C10006D1C5045FADAA84500D9454624B1002E2E
:106C200001DB780700D5641EB80702D5B8F1000F64
:106C30000AD0F80708D13CB1A54205D22021584618
:106C4000641EFEF77DFBF6E7002E02DA4E462D218C
:106C500002E0780703D52B215846FEF771FB07F0B9
:106C6000030002280BD1B8F1000F08D13CB1A542B6
:106C700005D230215846641EFEF762FBF6E7CDE9E7
:106C80000047434652463146584605F087F8BDE86E
:106C9000FC9F000070B50E460446007918494FF479
:106CA000A27501EB4010017F2068A1B14FF48871FB
:106CB00002F01CF94FF49071206802F017F94FF4BC
:106CC0009271206802F012F92946206802F00EF94C
:106CD0000C49206809E04FF48E7102F0F6F829465D
:106CE000206802F0F2F808492068C0F80413206810
:106CF00000F06FFE3146BDE8704000F04EBE00006F
:106D00000037002010030200800002000248007AD1
:106D1000002800D001207047D439002010B509891F
:106D20002AB1D088491C814218D1002010BD90F8AA
:106D3000C62202EB8204C4EB821200EB42021289EB
:106D40009142F2D0491C198090F8C61201EB8102E1
:106D5000C2EB811100EB4100008902E01980D0886C
:106D6000401E5880012010BD0021425C0AB1012064
:106D70007047491C1029F8D300207047800701D0C4
:106D800000207047012070470A4810B5807860B134
:106D9000002401E0022C06D02046FEF733F8641CE4
:106DA000042CF7D310BD0324F6E7BDE81040FEF72E
:106DB0005FB800007C2C002003480179C90702D08D
:106DC0000078FEF7A7B970477C2C00200649012007
:106DD000086006480168C1F300410029FAD104495E
:106DE00000208870704700000C000040180400402C
:106DF00094360020F7210180172141800021017184
:106E00004171FB2181711B21C17170472DE9FE4F3A
:106E10002A4D984691460F00824601D000260DE08B
:106E2000684600F099FB6A460021504602F0C1FB1B
:106E30002878009E10B99DF8090098B14A4631465D
:106E4000504604F09DFB0446014600225046FFF7E1
:106E50001FF8112C1AD008DC74B3082C2CD00D2C80
:106E600009D129E00520BDE8FE8F862C1AD0A4F5B3
:106E70004050023820D00325B8F1000F04D032462C
:106E800021465046FEF795FD2846ECE73A4629791B
:106E90005046FDF7F7FB4A46E9785046FDF7F2FB0E
:106EA0000025E9E73A4629795046FDF7EBFB4A46CB
:106EB000E9785046FDF7E6FB2546DDE7E82C0020A3
:106EC0007CB50D4606466A460721284602F002FCBC
:106ED000040005D0052C0FD0112C1DD003241BE07D
:106EE000019C94F84400183410F0010001D0019C7A
:106EF00034340CB110B106E011240DE004F112009D
:106F0000FFF739FD38B1224604F11201304685DF22
:106F100004000FD000E00B2400210022304604F0D2
:106F200093F84CB1002200232946304604F070F853
:106F300020467CBD0121F0E70122F4E72DE9FC4762
:106F400016000D4681464FF002084FF0000710D0A2
:106F50003078C00720D04FF6FF744FF00108A542EB
:106F600003D102F0ADFB05460127A54206D103245B
:106F700017E0002148467EDF04461BE06B460122F5
:106F80000721284602F0D0FB04000AD10721284639
:106F900002F074FC040004D1314648467EDF040050
:106FA0001CD00721284602F041FC18B1052801D069
:106FB000032404E0042C01D084B100E0112400215A
:106FC0004246484604F040F854B100223B46294668
:106FD000484604F01DF82046BDE8FC870121EFE794
:106FE0000122F3E72DE9F041204F0E4615460446F5
:106FF0003978FDF731FB002835D0204602F0B4FA8D
:1070000050B32046FFF7EEFC80462046B978FDF7E6
:1070100023FB08B1012700E00227204602F088FD8B
:107020000028404602D0FFF7C9FC0DE0A8F57F41DB
:10703000FF3909D0072102F0F9FB010004D005292E
:1070400002D0204604F05AF82B46324639462046F4
:10705000BDE8F041FEF774BA2A4631462046BDE845
:10706000F041FEF709BCBDE8F0810000E02C0020F3
:107070002DE9F04391B08146FDF7E0FA002820D0D9
:107080006846FDF795FA00246E4617E006EB4405C6
:107090004946A888FDF7E0FA78B10B4FA888F9783F
:1070A000FDF7DAFA8046A8883979FDF7D5FA014666
:1070B000A88801234246FFF7A9FE641C0098A0425D
:1070C000E4D811B0BDE8F083E82C00202DE9F047AA
:1070D000394E002780463D46DFF8E090D6F804A000
:1070E00057E003D00446D0F81C8035E099F8002022
:1070F00002EB4201521CD2B289F8002009EBC10117
:1071000099F80230091D9A4201D189F80050486867
:107110000A780446012A12D0022A02D0032A3BD15F
:1071200008E004F001FC00B10127257434E0057487
:10713000C06900E070680028F9D170602CE0207C04
:1071400050BB88686060C868A0600869E0604869F2
:10715000A061F07800B165606268B168184B501AA0
:1071600020F07F40984202D2A168084406E0881AC5
:10717000A16820F07F40814202D9081A206000E017
:10718000256065600120A56020742046E56104F05B
:10719000ADFBB8F10000A4D199F8001099F80100F6
:1071A0008142A3D117B97168514502D00120BDE8D1
:1071B000F0870020FBE70000242D0020403700204E
:1071C000FFFF7F0030B585B00546002414216846D6
:1071D000FCF76BFAA5F57F40ADF80250FF3815D0EB
:1071E0002846FFF737F998B10B2815D0112811D090
:1071F000A0F54051023903D00146284603F06AFF4A
:1072000009482246C1782846FDF73CFA05B030BD52
:107210000E2002E00124F3E70F208DF800006846FD
:10722000FEF702FCECE70000A42C00200A4602490D
:107230008978FDF727BA0000A42C0020F8B5054690
:1072400000780C46002620420FD100208DF8000067
:107250006846FCF749FF2878204202D12043287075
:1072600001269DF80000FCF763FF3046F8BD0000E2
:1072700070B588B0214800F0D8F92048001F0646B4
:1072800000F0D3F91E4DD5E9014105E0C0F38912A4
:1072900002EB9050641C044404EA010005EB8000FA
:1072A000C0688207F2D000200DF1080204EA010351
:1072B00005EB8303641CDB6842F82030401C022885
:1072C000F4D3029800F00300012808D002280AD164
:1072D0000298032101EB905004EB900403E0029824
:1072E000C0F3831004443046002101AAFCF747F99B
:1072F000002800D06C6008B070BD00001C3F00206A
:10730000043B002008B5FCF771FE08B1FCF750FE05
:1073100001F050FB08B1FCF74BFE39490320FDF7A3
:10732000AFFE08B1FCF744FE69460020FDF7C4FD3E
:1073300008B1FCF73DFE9DF80000022854D000245F
:10734000002001F013FA08B1FCF732FE01F096F8C4
:1073500001F0EEFC08B1FCF72BFE0020009069461E
:10736000012001F087FB08B1FCF722FE684601F01E
:107370002DFC08B1FCF71CFE2249234800F0BCF9A3
:1073800008B1FCF715FE02F0CFFC2048FDF7B2F97A
:1073900008B1FCF70DFE1E4800901B4869461838DE
:1073A000FDF792FC08B1FCF703FE1A48009016485E
:1073B00069460C38FDF754F808B1FCF7F9FD164D95
:1073C000032616A1288806EB004001F05DF96CB198
:1073D00028881CA106EB004001F056F903F0A8F83C
:1073E00030B1FCF7E5FD03E00124A9E703F0ECFB75
:1073F00001F052F80028FBD101F0F0FAF8E70000A4
:10740000A54F0200ED5E0200A82E00208555020067
:10741000E9650200F9420200602E002048656172B1
:1074200074205261746520636F6C6C6563746F7255
:10743000206578616D706C65207374617274656429
:107440002E000000457261736520626F6E647321C7
:10745000000000002DE9F047C7880446181D1646B5
:107460008946B0FBF7F1B0FBF7F207FB12009A195F
:107470003A44D21CB2FBF7F2DDF820A001E0246808
:10748000491E0029FBD13D1A8846B54216D818E09E
:10749000BAF1000F05D0211809EB08002A46091D92
:1074A00004E0204409EB08012A46001DFCF7E4F83B
:1074B00000202468761BA844B74201D9354600E075
:1074C0003D46002EE4D1BDE8F087000030B502460D
:1074D00069B101F079F90021084C0BE001EB41039F
:1074E00004EB830315685B88AB4202D11160002076
:1074F00030BD491C8142F1D3052030BDF42D002060
:1075000070B505460C004FF0FF0020D04FF6FF7617
:10751000B5421CD00E48012241782846FDF7B2F84A
:107520002846FEF711FFFF2803D1FEF729FFFF28A9
:107530000DD0084B00EB400203EB82014D8023F895
:10754000226022684A60A2880A81A2798A7270BD8C
:10755000B62C0020F8320020034A00219268C0E9CE
:107560000021816070470000E82C002070B54FF6C4
:10757000FF750E46A84201D1002000E0401C84B2F5
:1075800008E02146304602F0AEFE08B1204670BD4C
:10759000641CA4B2FF2CF4D9284670BD10B5FBF7CB
:1075A000D2FE08B1002010BD112010BD10B531B1C0
:1075B000B2FBF3F403FB14241CB1092010BD0E2010
:1075C00010BD01600021416081608281C381084655
:1075D00010BD70B50C460546FBF76AFE002802D0C8
:1075E00021882868084470BD10B50A8849888A42F5
:1075F00003D1FBF79FFE012010BD002010BD70B528
:107600000C460546FBF779FE002802D06188286801
:10761000084470BD10B50A8849888A4203D1FBF737
:1076200063FE012010BD002010BD08B501216A468F
:10763000FBF798FF009808BD08B56A46FBF71DFEEA
:10764000009808BD38B5044600258DF800506846FE
:10765000FCF74AFD21686268086890420ED9401E16
:1076600008600178238AE26801FB0325227A2168F9
:10767000101AC0B20A79824200D208719DF8000047
:10768000FCF756FD284638BD38B5054600208DF874
:1076900000000C466846FCF727FDE868298A201A96
:1076A000B0FBF1F12A681068431C136001709DF86B
:1076B0000000FCF73DFD38BD10B530B1017A4268DD
:1076C0000368891AC9B21A6006E00E2010BD03686B
:1076D0001A68541C1C601170491EC9B2F7D20068A8
:1076E00000210171084610BDC20800F00703012007
:1076F000895C98400840704710B560B10161F7217E
:1077000020F8021B20F8021BFB2100F8021BFFF7E8
:1077100071FB002010BD0E2010BD00002DE9F043CC
:10772000858895B00C46002D3DD10188DFF8248175
:107730000026DFF82491012724293CD006DC1029FB
:1077400009D011290CD023296DD150E03A290BD052
:10775000552968D12AE00146204601F057FC62E035
:10776000A01DFFF747FB5EE02246408934F8061F64
:10777000814200D808466080172800D21720608018
:10778000106970B1607960B1D8E90010CDE90310DB
:10779000ADF80E506088ADF81000136903A91046CB
:1077A00098476671267115B0BDE8F0830146204602
:1077B00001F0F2FC37E0011D342206A8FBF75CFF64
:1077C000BDF81800BDF81C2004EBC0014A73226903
:1077D0004AB3D8E90432CDE90432ADF81200487B4F
:1077E0008DF814002269204604A990471BE00496F6
:1077F000059630F8041F04EBC1020179127B8A421E
:1078000000D21146ADF81010ADF812100088002219
:1078100004A990DF020006D0B9F800000F4907EB79
:10782000004000F035FFA07A0028BCD0E18828464F
:107830009EDF02000BD0112AB5D0B9F8000015B0B8
:1078400007EB0040BDE8F043054900F021BFA672F8
:10785000E772A8E72CC40200002E002068C80200CE
:10786000E0C7020000F180400068002800D001203D
:10787000704708B500F18040002101600068009069
:1078800008BD000000283ED01F49204A096800BFFB
:1078900000BF00BF00BF00BF00BF00BF00BF9142DC
:1078A0002FD000BF00BF00BF00BF00BF00BF00BFA0
:1078B00000BF00BF00BF00BF00BF00BF00BF00BFD0
:1078C00000BF00BF00BF00BF00BF00BF00BF00BFC0
:1078D00000BF00BF00BF00BF00BF00BF00BF00BFB0
:1078E00000BF00BF00BF00BF00BF00BF00BF00BFA0
:1078F00000BF00BF00BF00BF00BF00BF00BF00BF90
:1079000000BF0138C3D17047DC2D00200024F400F3
:1079100070B50F4C0025207808B1852516E00021B0
:10792000A16061602161E1604FF0E020D0F80001CA
:10793000012610F0010F03D10721002000F02DF8DF
:1079400001F03EFA08B9034806602670284670BD6B
:10795000943600201805004008B500208DF800007E
:107960006846FCF7C1FB0648C168491EC160C06893
:1079700008B9FFF72BFA9DF80000FCF7D9FB08BD0A
:107980009436002000F01F02012191404009800040
:1079900000F1E020C0F8801170474907090E002867
:1079A00006DA00F00F0202F1E02282F8141D03E073
:1079B00000F1E02282F8001400F01F020121914042
:1079C0004009800000F1E020C0F88012C0F80011EA
:1079D0007047000B40B270472DE9F04188460546DC
:1079E00002F0A4FA234E002828461AD0FDF7F8FC2E
:1079F000304490F848008009032802D001280ED0B6
:107A000007E04FF0A040D0F81005E84010F0010F5B
:107A100005D003212846BDE8F04100F027BC022133
:107A2000F8E702F08FFA002822D02846FDF7D8FCAC
:107A300004464FF4807000EB84000F4F81B207EBD7
:107A40008400D0F8102542F00102C0F81025084645
:107A500000F03CFCB8F1000F0AD02846FDF7C0FC4E
:107A600056F82000002803D00120A040C7F80403E6
:107A7000BDE8F081A8360020006000402DE9FC41FF
:107A8000DFF8A480044608EB0400002790F93000DA
:107A90001346C0170E46401C01D0082741E0F2787B
:107AA00019462046FDF778FC0546401C38D0B078D2
:107AB00050B14FF0A04000EB8400D0F8001721F047
:107AC0000201C0F8001707E00021737820460091FA
:107AD0000A46019100F079FBF078C0B11348317883
:107AE00000EB8500D0F81025114B1A40C0F8102586
:107AF0004FF4F8524FF4403302EA042203EA014102
:107B00000A43D0F810150A43C0F8102509E008EB25
:107B10000500327810F8481F41EA8211017000E038
:107B200004273846BDE8FC81A836002000600040EC
:107B3000FFE0FCFF4FF0A041D1F81015C14011F05B
:107B4000010000D00120704770B5144D95F8540025
:107B500008B1082070BD0020411E2A18401CC0B288
:107B600082F830102028F8D300242046FDF706FCC8
:107B7000641CE4B20C2CF8D307210620FFF70DFF9C
:107B80004FF4BE7000F0A2FB05494FF00040C1F871
:107B90000403012085F85400002070BDA8360020A1
:107BA00000600040034890F85400002800D00120F5
:107BB00070470000A83600200121B1EB507F01D1B1
:107BC00001207047002070472DE9F04105460079FB
:107BD000164F904607EB40140E46E07E10B1082089
:107BE000BDE8F081707F20772846FCF7BBFA5FEA9A
:107BF000080060603169216003D0317F2846FFF7BB
:107C000049F8287907EB4010007F0028286801D048
:107C1000082100E00421C0F800150020E07520765E
:107C2000A0750121E176A076DAE700000037002098
:107C30002DE9F047054600793F4E904606EB40148B
:107C40000F46207F18B10846FFF7B6FF30B128462F
:107C500000F074F820B11120BDE8F0871020FBE798
:107C600084F81680A7600027A78228794FF00108C2
:107C700006EB40143E46207F0028286825D04FF4AC
:107C80009079494601F032F94FF4AC7A51462868B0
:107C900001F02CF92868A17DA268C0F84425C0F83D
:107CA00048152868C0F808806068F0B94946286817
:107CB00001F017F980465146286801F012F958EA98
:107CC0000001F3D058BBA7750FE04FF48E7A5146F0
:107CD00001F0FBF82868C0F808802146286803F006
:107CE000F9FE61684FF4807089B13046B4E75146BF
:107CF000286801F0E5F810B9A08A4845F7D1A08AB4
:107D0000484505D02146286803F0E4FE00E081469E
:107D1000A08AA17D8842EAD3A08A484501D10F26D6
:107D2000D1E75146286801F0CBF80028F9D028683F
:107D3000C0F80C80C7E70000003700200079044934
:107D400001EB4010807D002800D00120704700002A
:107D50000037002070B5044600791149002601EB78
:107D6000401520682A7FC0F80065686888B12079CE
:107D700001EB4010007F0028206801D0094901E094
:107D800008498C39C0F808132068FFF722FEFFF776
:107D9000F9FD204602F0E2F8EE766E6070BD00005C
:107DA00000370020100302000FB408B50399002922
:107DB00004D004AA00926A4600F00FF801B05DF802
:107DC00014FB10B582680446002A05D0D4E90403E8
:107DD000216898470020A06010BD2DE9FC4791461E
:107DE0000C00804676D014F8011B39B125290ED03D
:107DF0004046FDF7A5FA20780028F4D198F80C0049
:107E0000002867D04046BDE8FC47FFF7DABF0020F6
:107E1000012221782B291BD02D2902D0302908D10D
:107E200002E040F0010001E040F00200641C002A82
:107E3000EFD100252A290ED02178A1F130020A2A9B
:107E400011D205EB850201EB4205641C303DF1E7E0
:107E500040F00400EAE7D9F800100B1DC9F8003023
:107E60000968641C0D44217800232E290BD114F8D5
:107E7000011FA1F130020A2A05D203EB830201EBB4
:107E80004203303BF3E76C290DD068290BD06929F8
:107E900021D00BDC252918D0582931D063290ED0E8
:107EA000642915D117E014F8011FECE7702969D097
:107EB000732932D075291BD0782909D120E0D9F84F
:107EC0000000011DC9F8001001784046FDF738FA9E
:107ED000641C90E76CE0D9F800100A1DC9F8002076
:107EE0000968CDE900500A224046FEF77FFEEFE721
:107EF000D9F800100A1DC9F8002009680A2206E016
:107F0000D9F800100A1DC9F8002009681022CDE92F
:107F10000050404603F042FFDAE7D9F8001000278E
:107F20000A1DC9F800200E68C00705D112E04046BE
:107F3000761C7F1CFDF704FA31780029F7D104E0A4
:107F4000202140466D1EFDF7FBF9BD42C0D9002D32
:107F5000F6D1BDE74EB13046FBF7B2FB074604E071
:107F6000202140466D1EFDF7EBF9BD4206D9002DDC
:107F7000F6D103E04046761CFDF7E2F9317800299E
:107F8000F8D1A5E7D9F80000011DC9F8001005686F
:107F900030214046FDF7D4F978214046FDF7D0F96D
:107FA00008200021CDE90001034610222946B0E750
:107FB000BDE8FC872DE9F0411F46154604000E463A
:107FC00016D02068B8B1C5B160680268501E304252
:107FD00015D16A432046FBF7F5FE80B120683B4689
:107FE0002A46D0F810C031462046BDE8F04160472F
:107FF0000E20BDE8F0810820FBE70920F9E71020FA
:10800000F7E720B119B101600B68114618470E203F
:10801000704700002DE9F04128B1016819B1C96924
:10802000BDE8F04108470D4D0D480024461B1427BC
:108030000DE000BF04EB840005EB8000016829B16E
:10804000C969884710B10120BDE8F081641CB6FB06
:10805000F7F0A042EED80020F6E70000E02D002067
:10806000F42D0020044801214174007A08B1002059
:108070007047012070470000D4390020012801D04A
:10808000032808D10449002201284A7400D00020A6
:10809000087402F091BB7047D439002070B5254CAC
:1080A0000246207A012837D0022841D122480023F5
:1080B000022A006802D0032A2ED11BE0E360017976
:1080C00011B1012928D10DE0D0E90565711B4FF4EC
:1080D0008056B14200D33146294481614569A942A5
:1080E0000ED019E00169491C01614269914213D126
:1080F000237217E0E168491CE16008290CD9E360AC
:108100002372022A0ED00D21FDF72CFC0B480A49E0
:10811000091D0068FFF768FA607C28B1BDE870406F
:1081200000F054BE0021EFE7BDE8704002F044BB10
:1081300070BD0000D4390020682D00201CC502004D
:108140002DE9F8431D46089F1646884604000DD0C9
:1081500066B1206860B135B160684068B5FBF0F188
:1081600000FB115030B10920BDE8F8830E20FBE779
:108170000820F9E74046FBF71FFE90B13046FBF7B9
:108180001BFE70B12A4641462046FBF71BFE40B15C
:10819000009720682B463246C76841462046B847BC
:1081A000E2E71020E0E770B541EA4201DDE904565C
:1081B0004FF0A04441EA830141EA052104EB80002D
:1081C00041EA0641C0F8001770BD70B541EA4201AE
:1081D000DDE904564FF0A04441EA830141EA05215C
:1081E00004EB800041EA0641C0F8001770BD70B58D
:1081F00041EA4201DDE904564FF0A04441EA83011F
:1082000041EA052104EB800041EA0641C0F800176D
:1082100070BD1CB5002100910B4601220191FFF7B2
:10822000E6FF1CBD1CB500220B46009211460192D0
:10823000FFF7DDFF1CBD1CB5002100910B4601229C
:1082400001911146FFF7D3FF1CBD4FF0A04202EB96
:108250008000D0F8002722F44032C0F80027D0F880
:10826000002742EA0141C0F8001770474FF0A042D2
:1082700002EB8000D0F8002722F44032C0F800273B
:10828000D0F8002742EA0141C0F8001770470122E8
:108290004FF0A043824011B1C3F808257047C3F8DE
:1082A0000C25704718B5084B6C4601441B680093B9
:1082B00006E000BF54F82030D3F81035401C08C247
:1082C0008142F7D818BD0000E8C40200034908B590
:1082D0000844002101600068009008BD0060004073
:1082E00002494058012800D000207047006000403B
:1082F00030B5124B01460020D3F81044224609E065
:10830000157A854205D1401C0A28F7DB4FF0FF3073
:1083100030BD5268002AF3D1421CF9D00872D3F85C
:1083200010242AB152684A60D3F81024516030BD3D
:108330000022C3F810144A6030BD0000043B002046
:10834000F0B595B01C4615460F4608461A9E00F03B
:108350000BFB182109A8FBF7A8F90E96CDE90954E3
:108360000023082203A9384600F018FB0598069060
:108370000498ADF81C0000208DF820000398082612
:1083800000F00300012802D002281DD03CE0039831
:108390003346850AC0F3C2008DF81E0003980FA96A
:1083A000C0F380008DF81F000398C0F38314A2006F
:1083B000384600F0F3FA09A8009006AB22460FA950
:1083C000284600F02DFA1FE00398840DC0F3C20088
:1083D0008DF81E000398C0F380008DF81F00082C54
:1083E00001D2254600E0082533462A460FA9384623
:1083F00000F0D4FA2E44641B09AB06AA29460FA844
:1084000000F05EF9002CEAD1384600F0B6FA15B05B
:10841000F0BD7047012003F081BB000010B5044897
:10842000FFF798FCBDE81040002003F077BB000088
:108430007C2D002008B5034A00924023024AFFF732
:108440007FFF08BD25B10200043A00200A4A012935
:1084500002EBC00007D0022907D0032907D0042966
:1084600007D0002070470220704704207047007931
:108470007047407970470000F0CE020010B5FFF75A
:10848000C9FF04210348FFF733FF02490120487266
:1084900010BD0000842D00202DE9F04F8DB0FCF7B9
:1084A0005FFF18B100200DB0BDE8F08F74480021C7
:1084B000C0F81814BFF34F8FD0E9014604EA060153
:1084C00000EB81014FF000090AE000BFC1F38912FF
:1084D00002EB9151641C0C4404EA060100EB81019B
:1084E000C9688A07F2D0002103AA804604EA060080
:1084F00008EB8000641CC06842F82100491C434618
:108500000229F3D3039800F00300022806D00128C3
:1085100003984FD0C04380077ED0ACE00398502230
:10852000810D8A46B2EB905F00D850210D4665F36D
:108530009F5003900831534800F0CDF907006CD0EC
:1085400000F012FA4B46082203A9384600F02CFA34
:1085500004EA0601701A8000001D09F1080B85422B
:1085600021D9474E0C3630B1C2B208EB8101281A2E
:1085700091460C3104E03146EAB20026914630467D
:10858000C5B25B46384600F00FFA0BEB09032EB17B
:108590002A4631464FEA070000F006FA0AF10300C6
:1085A00004EB90043BE008EB81015B462A46384629
:1085B0000C31F1E7C0F38310062800D3062003999D
:1085C00060F38911C1F38310801C039181002D4851
:1085D00000F081F907004ED000F0C6F94B460822A2
:1085E00003A9384600F0E0F909F1080900250DE07B
:1085F00004EA060008EB80014B46042238460C31A1
:10860000641C00F0D1F909F104096D1C0398C0F352
:108610008310A842ECD801E00BE02CE05FB3D8F85F
:108620001054D8F81804464690B1384600F0A5F921
:1086300021E0D3F8180400283FF435AF1BE0687A36
:10864000012804D1296828460A68394690476D6890
:10865000002DF4D1384600F090F900208DF800008C
:108660006846FBF741FDD6F8180400B974609DF820
:108670000000FBF75DFDFCF773FE80F0010012E7E0
:10868000043B0020A0C6020000231A4603F0A6B84F
:1086900008B5012300926A4603F0A0F808BD1CB596
:1086A000CDE9002302236A4603F098F81CBD3EB5CD
:1086B000069C8DE81C0003236A4603F08FF83EBD3C
:1086C0002DE9F0470E4680461C46924608293ED8C2
:1086D00094F80C90002020731946104601F0D4FF46
:1086E0000025B54206D218F805201AA12046FFF74A
:1086F0005BFB03E019A12046FFF756FB6D1C082D1C
:10870000EFD317A12046FFF74FFB0025B54210D24B
:1087100018F80570FAF7ACFF0068C05D10F03E0F66
:1087200001D03A4600E02E220EA12046FFF73CFB86
:1087300003E00DA12046FFF737FB6D1C082DE5D3A4
:1087400001222146504601F081FF84F80C90BDE8DB
:10875000F087000020253032780000002020200023
:108760007C0000002563000020000000114810B5C7
:10877000FF218160002101604160C0F81814C0F839
:10878000141480F81C140C4800F0F5F800280FD1E0
:108790000A480B490B4B401AC108002005E000BFF6
:1087A00000EB400223F82200401C8842F8D300204E
:1087B00010BD0000043B0020A0C6020058CF0200FC
:1087C000F0CE0200F42D002002480349401AC008F0
:1087D0007047000058CF0200F0CE020013B5684683
:1087E000FEF774FE08B100201CBD0248009950F845
:1087F00031001CBDF0CE020070B508480125D0F84C
:10880000104480F81C5405E06572216820464968D0
:1088100088476468002CF7D170BD0000043B00203D
:108820002DE9FF4781460C9D00200C462F7B2873C5
:10883000984616462946184601F026FF072E42D2D2
:10884000DFE806F004090F161F2A360049462846BD
:10885000FFF7AAFA37E0494628462268FFF7A4FA4C
:1088600031E0D4E9002349462846FFF79DFA2AE083
:10887000A0680090D4E9002349462846FFF794FAFF
:1088800021E0D4E90201CDE90001D4E90023494601
:108890002846FFF789FA16E004F1080007C88DE8BA
:1088A0000700D4E9002349462846FFF77DFA0AE08D
:1088B00004F108000FC88DE80F00D4E900234946F1
:1088C0002846FFF771FA00222946404601F0BEFE15
:1088D0002F73BDE8FF872DE9F041058A80462D1FE3
:1088E0004819C01CB0FBF5F0C6B24046FEF7AAFE20
:1088F000040019D00020207101206071E58000275C
:108900002546761EC4F800800BE04046FEF79AFE2E
:1089100060B16179491C6171286005467F1CC0F80F
:108920000080B742F1D32046BDE8F081204600F038
:1089300002F80020F8E72DE9F041457901466B1E69
:10894000002201E00968521C9A42FBD30F680146DD
:10895000002605E038460C68FEF796FE2146761C98
:10896000AE42F7D3BDE8F08108B501216A46001D8B
:10897000FAF783FD08BDFEF79FBE38B50446001D1B
:1089800001216A46FAF786FD009810F0FF0F04D126
:108990002046BDE83840FFF7CEBF38BD38B50124CA
:1089A0000094FEF757FD38BD38B500240094FEF75B
:1089B00051FD38BD064910B500204870091D0860FA
:1089C000BFF35F8F0349044800F02CFA002010BD6C
:1089D000702D002064C50200F839002008B5002081
:1089E0008DF800006846FBF77FFBF1EE100A20F0DF
:1089F0009F00E1EE100ABFF35F8F08494020C1F8E5
:108A000080029DF80000FBF793FB00F0D9F908B154
:108A10003EDF08BD20BF40BF20BF08BD04E000E02E
:108A2000F8B504460D4801216A46FAF741FDBFF347
:108A30005F8F002500280AD10121084E042C09D09F
:108A4000301F427822B100BFBFF35F8F3560F8BDA1
:108A50000470417002F0F2FBF6E70000742D002074
:108A600020B1034909680160002070470E2070475B
:108A70002CC702002DE9FE4305460E460846FFF7C7
:108A8000EFFF00287ED18046CDF80080CDF804802D
:108A900001244FF4A0708DF80050ADF80400CDF81B
:108AA00008808DF8024069462020326869DF404F17
:108AB00040B100F0FBF9024638883E4904EB004023
:108AC000FFF7E6FDCDF800808DF800808DF80140BD
:108AD000CDF80480CDF808808DF80240694640202A
