:020000040002F8
:10300000A87F00204D3502005535020057350200DB
:10301000593502005B3502005D35020000000000FA
:103020000000000000000000000000005F3502000A
:1030300061350200000000006335020065350200C2
:10304000CD390200673502006D3D02006735020090
:103050006735020067350200F53702006735020068
:1030600067350200673502006735020067350200E8
:1030700067350200673502006735020067350200D8
:1030800067350200253A0200673502006735020005
:10309000493A0200673502004D3A020067350200E6
:1030A00067350200673502006735020067350200A8
:1030B00067350200673502000000000000000000D4
:1030C0006735020067350200673502006735020088
:1030D0006735020067350200673502000000000016
:1030E00000000000000000000000000000000000E0
:1030F00000000000000000000000000000000000D0
:1031000000000000000000000000000000000000BF
:1031100000000000000000000000000000000000AF
:10312000000000000000000000000000000000009F
:10313000000000000000000000000000000000008F
:10314000000000000000000000000000000000007F
:10315000000000000000000000000000000000006F
:10316000000000000000000000000000000000005F
:10317000000000000000000000000000000000004F
:10318000000000000000000000000000000000003F
:10319000000000000000000000000000000000002F
:1031A000000000000000000000000000000000001F
:1031B000000000000000000000000000000000000F
:1031C00000000000000000000000000000000000FF
:1031D00000000000000000000000000000000000EF
:1031E00000000000000000000000000000000000DF
:1031F00000000000000000000000000000000000CF
:10320000DFF80CD000F050FA00480047997A02002D
:10321000A87F002030B4044654E8000F0D4644E86F
:103220000053002BF8D1156030BC704730B4044611
:1032300054E8000F40EA010544E80053002BF7D1A1
:10324000156030BC704730B4044654E8000F00EA03
:10325000010544E80053002BF7D1156030BC7047DE
:1032600030B4044654E8000F80EA010544E80053F6
:10327000002BF7D1156030BC704730B4044654E8D9
:10328000000F00EB010544E80053002BF7D1156057
:1032900030BC704730B4044654E8000FA0EB010581
:1032A00044E80053002BF7D1156030BC7047000094
:1032B00030B450E8012F93B2C48923448489A342D7
:1032C00028BF1B1B0489A34202BFBFF32F8F00201E
:1032D00007E0C3EA020340E80134002CE9D14FF0D3
:1032E00001000A6030BC704750E8012FC2EA024278
:1032F00040E801210029F7D1704730B450E8022F8F
:103300001FFAA2F3C488A34202BFBFF32F8F00208D
:103310000DE0C48923448489A34228BF1B1BC2EA51
:10332000034340E80234002CE8D14FF001000A606A
:1033300030BC704750E8022FC2EA224240E8022126
:103340000029F7D17047034653E8022FD988B2EB22
:10335000324F4FF0000017BF92B241EA014142EAFA
:10336000014104E05A68B2EB324F08BF012043E844
:103370000212002AE8D1704730B4044654E8000F26
:103380000D4644E80053002BF8D1156030BC70475F
:1033900030B4044654E8000F40EA010544E8005305
:1033A000002BF7D1156030BC704730B4044654E8A8
:1033B000000F00EA010544E80053002BF7D1156027
:1033C00030BC704730B4044654E8000F80EA010571
:1033D00044E80053002BF7D1156030BC704730B47F
:1033E000044654E8000F00EB010544E80053002BAD
:1033F000F7D1156030BC704730B4044654E8000F74
:10340000A0EB010544E80053002BF7D1156030BC58
:103410007047000030B4044654E8000F0D4644E8FD
:103420000053002BF8D1156030BC704730B404460F
:1034300054E8000F40EA010544E80053002BF7D19F
:10344000156030BC704730B4044654E8000F00EA01
:10345000010544E80053002BF7D1156030BC7047DC
:1034600030B4044654E8000F80EA010544E80053F4
:10347000002BF7D1156030BC704730B4044654E8D7
:10348000000F00EB010544E80053002BF7D1156055
:1034900030BC704730B4044654E8000FA0EB01057F
:1034A00044E80053002BF7D1156030BC7047000092
:1034B00030B4044654E8000F0D4644E80053002B96
:1034C000F8D1156030BC704730B4044654E8000FA2
:1034D00040EA010544E80053002BF7D1156030BCE9
:1034E000704730B4044654E8000F00EA010544E890
:1034F0000053002BF7D1156030BC704730B4044640
:1035000054E8000F80EA010544E80053002BF7D18E
:10351000156030BC704730B4044654E8000F00EB2F
:10352000010544E80053002BF7D1156030BC70470B
:1035300030B4044654E8000FA0EB010544E8005302
:10354000002BF7D1156030BC70470000064880475B
:1035500006480047FEE7FEE7FEE7FEE7FEE7FEE778
:10356000FEE7FEE7FEE7FEE7513A02000132020005
:103570002DE9F05F0546002092469B4688460646A8
:10358000814640241BE0284641464746224600F03B
:103590007AF853465A46C01A914110D3114618463C
:1035A000224600F061F82D1A67EB01084F462246CB
:1035B0000120002100F058F817EB00094E41201EB1
:1035C000A4F10104DFDC484631462A464346BDE803
:1035D000F09F00000048704708D7020010B5431A5A
:1035E000934209D28318881803E010F8011D03F8EC
:1035F000011D521EF9D210BD40EA01039B0703D002
:1036000009E008C9121F08C0042AFAD203E011F821
:10361000013B00F8013B521EF9D210BDD2B201E0CD
:1036200000F8012B491EFBD270470022F6E710B5C7
:1036300013460A4604461946FFF7F0FF204610BD20
:10364000421C10F8011B0029FBD1801A704730B5CD
:1036500004460020034600E05B1C934203D2E05C7A
:10366000CD5C401BF8D030BD202A04DB203A00FAA4
:1036700002F1002070479140C2F1200320FA03F3C9
:10368000194390407047202A04DB203A21FA02F0C7
:103690000021704721FA02F3D040C2F1200291408C
:1036A0000843194670470000064C074D06E0E068E5
:1036B00040F0010394E8070098471034AC42F6D379
:1036C000FFF7A2FD5CDE02007CDE020070B58C1804
:1036D00010F8015B15F0070301D110F8013B2A1126
:1036E00006D110F8012B03E010F8016B01F8016B13
:1036F0005B1EF9D12B0705D40023521E0DD401F80F
:10370000013BFAE710F8013BCB1A921C03E013F8D7
:10371000015B01F8015B521EF9D5A142D8D300200C
:1037200070BD00007FB500EB80010E480E4D00EB30
:1037300081040326288834F80E2C06EB00400BA1E8
:10374000143C05F03FFCA07863792279E1788DE89C
:103750000F0028886378227806EB00400EA105F060
:1037600053FC7FBD784F00208C4D00206465766946
:10377000636520636F6E6E65647465642068616E56
:10378000646C6520256420697320646973636F6EBF
:103790006E656374656420006465766963652064A2
:1037A0006973636F6E6E6564746564206D61632018
:1037B00061646472202530327820253032782025EB
:1037C000303278202530327820253032782025306C
:1037D0003278200000EB800205484FF6FF7100EBC5
:1037E000820222F80E1C10F8A01F491E01707047BB
:1037F000784F00202DE9F04700268CB0DFF860916B
:10380000B0464FF48075012437460696284605F0E9
:1038100001FA38B1D9F80403204203D0284605F054
:10382000EFF926432D1D64007F1CADB2082FEDD3A8
:103830004FF4BE74204605F0EDF948B1204605F07E
:10384000DFF946F0004606AA0121002005F0C4F980
:10385000444D16F0FF0F15D00127002437420DD03C
:1038600009EB8401D1F81005D1F81015C0F304203C
:1038700055F82420C1F3014102B190477F00641C38
:10388000082CEBD3002E67DA4FF0FF30CDE908802B
:1038900000263446281910F8507F90F9000027F0D0
:1038A000C008401C44D009A9404604F0ABFB58B303
:1038B0004FEA9719404602F06DF955F820701FB194
:1038C000B9F1030F03D00FE0B9F1030F30D108A80D
:1038D0004FEAD80208F00703815C4FF0010C0CFAA4
:1038E00003FC41EA0C0181544FF0A04101EB880038
:1038F000D0F8000706A9C0F3014A404604F082FB55
:1039000018B1BAF1020F03D012E0BAF1030F0FD1D0
:10391000B9F1030F08D1BAF1020F1BD002214046C2
:1039200005F03DF9761CF6B217B149464046B84756
:10393000641C042CAED3002E0ED06A460121002058
:1039400005F04AF906990098884205D00690089833
:1039500009909DE70321E2E70CB0BDE8F087000085
:10396000006000401857002000F01F020121914024
:103970004009800000F1E020C0F88012704700F09C
:103980001F02012191404009800000F1E020C0F8B1
:103990000011704700F01F02012191404009800092
:1039A00000F1E020C0F8001270474907090E002816
:1039B00006DA00F00F0000F1E02080F8141D7047D7
:1039C00000F1E02080F80014704700002DE9F0417C
:1039D0004FF48077384604F0EFFB0124104EA50722
:1039E00048B1384604F0EFFB0120C5F808037470B5
:1039F000002002F015F94FF48277384604F0DCFB22
:103A000000280BD0384604F0DEFB0220C5F808037E
:103A1000B470BDE8F041012002F002B9BDE8F081C8
:103A20000457002007480021C0F84011C0F8441195
:103A3000C0F84811C0F84C11C0F80011C0F80411CA
:103A400008F0A8BE0010014008F0F2BD05F018BE55
:103A5000F0B5B5480023021D0178101D01254FF077
:103A6000805406290BD11678360708D10678C6F39C
:103A70000316032E06D0042E04D0052E02D00629EC
:103A800007D00EE0B4F82463A84FC6F304263E60C6
:103A900002E01678360704D10678C6F30316032E23
:103AA00002D0062904D00FE0A24FA14E7E670EE09F
:103AB0001678360708D10678C6F30316032E06D00B
:103AC000042E04D0052E02D0062907D00EE0D4F82B
:103AD0004462994FC6F342363E6002E016783607DC
:103AE00004D10678C6F30316032E02D0062906D0A9
:103AF00011E0924E376827F0807737600EE0167835
:103B0000360708D10678C6F30316032E06D0042E16
:103B100004D0052E02D006290AD011E04FF08046CD
:103B2000C6F80C31C6F81031834E361F336002E000
:103B30001678360704D10678C6F30316032E02D092
:103B4000062905D00CE07C4F032664373E600AE06E
:103B50001678360704D10678C6F30316032E02D072
:103B600006290DD014E0764F05263E60744E783657
:103B70003560734E083633603F263F1D3E6002E0DD
:103B80001678360704D10678C6F30316052E02D040
:103B9000062957D062E06B4E36686B4F3E60694E27
:103BA000361D36683F1D3E60664E083636683F1D3E
:103BB0003E60644E0C3636683F1D3E60614E1036E6
:103BC00036683F1D3E605F4E143636683F1D3E60CE
:103BD0005C4E183636685C4F20373E60594E1C36B6
:103BE00036683F1D3E60574E203636683F1D3E60AA
:103BF000544E243636683F1D3E60524E2836366895
:103C00003F1D3E604F4E2C3636683F1D3E604D4E88
:103C1000303636684C4F40373E604A4E3436366850
:103C20003F1D3E60474E383636683F1D3E60454E6C
:103C30003C3636683F1D3E60424E403636683F1D7A
:103C40003E6002E01678360708D10678C6F3031600
:103C5000032E06D0042E04D0052E02D0062907D04C
:103C600019E0D4F85812394A01F04F01116002E00E
:103C7000117809070FD10078C0F30310032803D08F
:103C8000042801D0052806D131480168C90702D0AF
:103C90006FF001010160D4F83001062808D1D4F892
:103CA0003401062804D12B48016841F48061016089
:103CB00022487438016841F470010160BFF34F8FEE
:103CC000BFF36F8F4FF01021D1F80002002803DB03
:103CD000D1F80402002822DA1F4A15601F48046840
:103CE000002CFCD01524C1F800420568002DFCD042
:103CF000C1F8044201680029FCD013600168002962
:103D0000FCD0BFF34F8F0D48F0380168144A01F41E
:103D1000E06111430160BFF34F8F00BFFDE712491F
:103D200010480860F0BD0000E00F00F04035014091
:103D30000DF0ADBA00C007403C050040FCED00E0CE
:103D4000105600400404001020C50040E40E00405E
:103D5000000400403C17004004E5014000E401403D
:103D60000400FA050090D003FC4C00200448017FB9
:103D700004480029024901D008F093BE08F002BEB1
:103D8000705700200020004002E008C8121F08C140
:103D9000002AFAD170477047002001E001C1121FCC
:103DA000002AFBD1704700000121202803DA81405E
:103DB0000548014003E0402802DA2038814009B17B
:103DC0000120704700207047FC06FFBD082806D27E
:103DD00028B1012803D0042801D001207047002019
:103DE000704710B560B159B102780B785208B2EB48
:103DF000530F05D10622401C491CFFF728FC08B1CF
:103E0000002010BD012010BD800701D000207047A8
:103E100001207047C3688B4206D811440069491ECF
:103E2000814201D8012070470020704770B50023FF
:103E30000D884C680DE0E618E15C7678864206D184
:103E4000E018801C491E50601180002070BD0B449A
:103E50005B1C9D42EFD8052070BD000010B500200E
:103E600004F082FD002811D107F07AFD002001F056
:103E70000FFC0321064800F037FD002806D0BDE8FE
:103E8000104004A240F24F1100F078B910BD0000BC
:103E9000A04E00202E2E5C2E2E5C2E2E5C6D6169B5
:103EA0006E2E630010B501220221002001F0A8FC53
:103EB00008B1072810D107220221012001F0A0FC3F
:103EC00008B1072808D100210A22084601F098FC11
:103ED00008B1072800D1002010BD000000B5A9B02E
:103EE000A0216846FFF7A1FB02208DF80000012108
:103EF0008DF802100622ADF810008DF803200D4851
:103F000005904FF496702290B42023900A488DF8C3
:103F10007C1026906946094800F0FEFB20B1084A53
:103F200040F2A95100F02AF90121044800F0F1FB08
:103F300029B000BD7240002071980200A04E002000
:103F40001C7C020070B58CB015460E4600236C46F2
:103F5000C3F10F01415CE1545B1C102BF8D30D2120
:103F600004F11000FFF761FB0020C0F10F02315C8B
:103F70002244401C11740328F7D3684643DF002015
:103F8000C0F10F01214491F820102954401C03284E
:103F9000F6D30CB070BD022001F060BB0149097975
:103FA00000F010BE184C002070B50024064D06E04D
:103FB0006868012110F8340004F0B8F9641C28780E
:103FC0008442F5D3002070BD384C0020F8B515466A
:103FD0000C460646052A01D20720F8BD04F08CFAEB
:103FE00018B904F05BFA0028F7D1104900204E60A0
:103FF0000C70C1E902500E4D08610DE006EBC400E3
:104000006968009181788DF801100078094A694645
:1040100004F0DEF90028E0D1641EE4B2EED2BDE87F
:10402000F840054A0021024800F0E6B8384C00206C
:104030003CD40200D16C0200A55F02002DE9FC41D6
:1040400014468846074605F089F800BF04F0BEFE16
:104050000028FBD10125234E012F27D06FF480507B
:10406000381828D0B0F5405F2CD06FF44051C842CA
:1040700008D13088238805EB00401BA1626804F05A
:10408000A8FF06E03088424605EB00401DA104F081
:1040900099FF22480068C00700D000BE224602B047
:1040A00041463846BDE8F04100F074B830881CA1A4
:1040B00005EB004003E0308821A105EB004004F04F
:1040C0007DFFE6E7A06805F085FB03462188606870
:1040D000CDE90001308823A105EB0040A26804F07F
:1040E00089FFD6E78C4D0020415353455254494F28
:1040F0004E204641494C45442061742025733A25A1
:1041000075000000554E4B4E4F574E204641554CC2
:10411000542061742030782530385800F0ED00E0EC
:10412000534F46544445564943453A20415353451D
:104130005254494F4E204641494C4544000000002E
:10414000534F46544445564943453A20494E5641FB
:104150004C4944204D454D4F52592041434345530E
:10416000530000004552524F52202575205B2573A5
:104170005D2061742025733A257500000EB5ADF8F9
:104180000010CDE901206A46002144F20100FFF74A
:1041900055FF0EBD08B501238DF800309DF80030A5
:1041A000144B186059609A606FF48041401807D032
:1041B00001280FD1DA60D86800889861D86807E0D4
:1041C0001A611869806858611869008898611869CF
:1041D0004068D861186858689868D868186958693C
:1041E0009869D86972B600BF9DF800000028FBD11D
:1041F00062B608BDB0570020074B9B7823B12AB1A7
:1042000020B10068037C1BB108207047072070476D
:104210004174426100207047D057002070B507F00C
:104220000BFB104800240B21047044700E4D81706C
:1042300014206C602C706C70FFF796FB0721142023
:10424000FFF7B3FB1420FFF79AFB0848046007212F
:104250001120FFF7AAFB0548001F0068A860002096
:1042600070BD0000D05700204C4C002008150140C4
:104270002DE9FC47DFF8789099F8023073B368B302
:10428000052902D20720BDE8FC87436933B3437C8C
:10429000012B25D0002704460025884616468DF8B8
:1042A0000050684600F038F801A808F021FDC8B1B8
:1042B000012101700F4944600968C0E90218C0E992
:1042C00004769DF8040089F801009DF8000000F0D4
:1042D00047F81420FFF75EFB2846D4E70820D2E712
:1042E0000F46D8E704259DF8000000F039F8F3E701
:1042F000D0570020041501400649897839B130B102
:10430000416921B100210174022108F01FBA08207F
:1043100070470000D057002030B5EFF3108172B61F
:104320000D4A9468012324B10370002900D162B6BC
:1043300030BD93604FF0E023D3F88051074C254007
:104340001560C3F88041D3F8844154605A17C3F80C
:10435000842100220270E8E7DC580020FC06FFBD43
:104360000B498A68002A11D000280FD1EFF3108082
:1043700072B60B684FF0E022C2F800314B68C2F809
:10438000043100228A60002800D162B67047000024
:10439000DC5800202DE9F041064608680C46411C17
:1043A0004FF0A0474FF0010506D005FA00F1C7F81D
:1043B0000815206804F0E9FB6068411C02D0002168
:1043C00004F0DAFB3079204901EB4010A169007F4D
:1043D00000283068C0F8241525D0607D227D316822
:1043E0001043C1F86C05D4E900123068C0F80C1510
:1043F000C0F8142524E0A068411C02D0002104F07C
:10440000BBFBE068411C05D08540C7F80855E06853
:1044100004F0BBFBD4E902123068C0F80825C0F8EC
:104420001015BDE8F081607D217D32680843C2F837
:104430006C05D4E900123068C0F81425C0F80C15DA
:10444000207D0128D7D0ECE7705700202DE9F047F8
:10445000074600888EB0804600F078FB064640464E
:1044600002F0B4FE824604462E4800252A46017812
:10447000404600F0BDFB002E50D07879400734D57F
:1044800001254FF6FF7603AB2A460721504606F07A
:1044900035F8010004D0404607F0B8FC00252BE0B9
:1044A000B1463146049802F0E5FD064648450FD076
:1044B00004460146404602F073FE4046FFF76EFD9B
:1044C00030B9404607F074FC4046FFF767FD48B13D
:1044D00022460721504606F0A7F8010003D04046C7
:1044E00007F094FC00254E4506D0404606F00AFA37
:1044F00010B1504602F056FE02208DF81800ADF8BB
:104500001A807879400701D5012000E002208DF85B
:1045100020008DF8215006A801F030FF0EB0BDE854
:10452000F0870000184C00202DE9FC470025178873
:104530000646158090F82D001446894630B13A465B
:104540002146484600F0F6FB050009D1B0784FF04F
:104550000C0A18B32088C846001DB84202D950463C
:10456000BDE8FC87684679DF0028F9D1208803215F
:1045700008F8001020881921401C80B2208008F81B
:1045800000102088401C80B2208000EB0801BDF89C
:10459000000008F0FEFA218808442080F07802220A
:1045A000C8B1218896F9033001F1030C4846BC4597
:1045B000D5D8425421884FF0010C491C89B2218082
:1045C00000F801C02188491C89B2218009F8013016
:1045D0002088401C20807068B8B1218890F9003094
:1045E00001F1030C4846BC45B9D8425421880A223F
:1045F000491C89B2218042542188491C89B22180FA
:1046000009F801302088401C2080308950B1CDE964
:1046100000474B460622022106F1080008F080FB05
:1046200005009DD1308A50B1CDE900474B460722A5
:10463000032106F1100008F073FB050090D1308BC8
:1046400050B1CDE900474B461522142106F1180060
:1046500008F066FB050083D1306A30B13B46224644
:10466000494601F047FB0500DBD1706A30B13B469B
:104670002246494603F0FCFA0500D2D196F82C00F8
:1046800038B13B4622464946304607F053FC050008
:10469000C7D1307838B13B4622464946304603F010
:1046A0006FFB0500BDD128465AE7F0B50C4693B024
:1046B0001F210726ADF80010ADF80410002750B1F7
:1046C000C17849070DD56A4602A9FFF72DFF0028DA
:1046D00008D102AD02E00025ADF800706CB1E078C1
:1046E00010B1304613B0F0BD01AA0AA92046FFF769
:1046F0001BFF0028F6D10AAA02E00022ADF80470E0
:10470000BDF80400C3B2BDF80000C1B2284672DF94
:10471000E8E780F82410704770B50D00044653D0C8
:10472000F4B3012020700026E670202205F1780104
:10473000201DFEF753FF84F82460D5F89800C4F8D4
:10474000CC00D5F89C00C4F8D0004FF6FF70A4F858
:10475000C800C4F82560A4F8296084F82B6004F12F
:1047600030003C210646FEF760FF287884F83000D0
:10477000A87884F83200E87884F83300687884F800
:104780003100D5E90401C4E91001D5E90201C4E909
:104790000E01D5E90601C4E9120195F82D0000E0EB
:1047A00012E084F85D00686AD8B104F1780104F180
:1047B0006C0061676065696A09880180686A616D7B
:1047C00080888880002008E00E2070BD696A221869
:1047D0008968095C82F87810401C616D8988814283
:1047E000F4D8A86AE8B104F1A400C4F8A0000C3819
:1047F000A065A96A89888180A86AA16D008808805F
:10480000002006E0A96A22188968095C82F8A410D1
:10481000401CA16D89888142F4D895F82C0084F859
:104820005C00286A48B104F1C4002065296A4988FF
:104830004180286A216D00880880686800B1606343
:1048400005F13C013046BDE87040FFF72EBF10B5C2
:104850000288102A1AD0112A1FD01B2A1CD1007AD4
:104860000C46002818D1E0780521401CB0FBF1F27D
:1048700001FB1201204600F037F800280CD0D4F8D4
:10488000D010002908D0BDE810400847C27B012A9B
:1048900002D18088A1F8C80010BD0C46002184F820
:1048A000D4108088B4F8C8108842F5D12079002847
:1048B000F2D10121DEE710B50C46022801D0032811
:1048C00011D1607800280ED000206070E178204679
:1048D00000F00AF8002806D0D4F8D010002902D041
:1048E000BDE81040084710BD2DE9FF470446007899
:1048F0000F4638B1E770002004F036F8012628B1E1
:104900006670D2E0082004B0BDE8F0870025C4F846
:104910002550A4F8295084F82B50A07910B1E078E4
:10492000012806D0E07970B1E078012801D0022892
:1049300009D1D4F8CC1021B184F82C600820884724
:1049400001E084F82C5004F1260100200A5C0AB131
:10495000304603E0401C0628F8D300204FF0020840
:104960004FF0030A4FF00409012F06D0022F09D09F
:10497000032F0CD0042F12D10DE0A17911B108B191
:1049800030460DE0E17911B108B1404608E0207AE7
:1049900008B1504604E0607A08B1484600E0284675
:1049A000E070D4F8CC1041B1032801D0042804D120
:1049B000607910B194F8D400A8B184F8D55000956E
:1049C0000295019503958DF800508DF80850E17817
:1049D00004F1250004F13002052958D2DFE801F086
:1049E000670A131F3B0084F8D65084F8D56007206F
:1049F0008847E4E7A67001908DF80060ADF80C5090
:104A0000ADF80A5043E084F8028001908DF8006010
:104A1000208AADF80C00A089ADF80A0037E0A08A22
:104A2000ADF80A00208BADF80C00607980B194F8E5
:104A3000D40068B994F8D60050B18DF8088084F895
:104A4000339000211046FFF730FE00BB05211AE02D
:104A500084F802A01BE0A08BADF80A00208CADF812
:104A60000C00607988B194F8D40070B994F8D6003D
:104A700058B18DF8088084F8339000211046FFF774
:104A800014FE20B90621A17001E084F80290E078BC
:104A900030B194F82410684673DF00287FF433AFF8
:104AA000D4F8CC1009B1A078884700202BE7A57076
:104AB000F6E7000070B5040012D001461C2214482D
:104AC000FEF78CFD1248134D0560206850B17ADF67
:104AD000002806D12068016829604068686005E008
:104AE0000E2070BD0B487BDF0028FAD108484FF636
:104AF000FF711438084A20F8041B05493439016055
:104B00000021FFF779FB0028EBD0032070BD0000E7
:104B1000BC500020C44B002071CC020002494A6CFA
:104B2000091D06F0F7BF0000D850002002460248D9
:104B3000016D001D06F0DBBFD85000200249C86C93
:104B4000896C084007F00BB8D850002070B50A4EA9
:104B5000054600242A46301D716C06F0C8FF40B19E
:104B60002A46301DF16C06F0C2FF08B1022400E0B5
:104B70000124204670BD0000D850002010B500244C
:104B8000204608F0A9F828B1641CE4B2182CF7D329
:104B9000182010BD03480122A240016811430160A2
:104BA000204610BDD850002010B5044608F094F8F7
:104BB000002803D0024800EB8400806D10BD000087
:104BC000D850002070B505460C46084608F084F819
:104BD000002809D005482A4600EB8401001D896D94
:104BE000BDE8704006F083BF70BD0000D8500020C3
:104BF00070B5064615460C46084608F06DF80028C4
:104C00000AD006482B4600EB84013246BDE87040CE
:104C1000001D583106F0B2BF70BD0000D850002012
:104C200070B540B10C4D297839B1044606F0DEFD6F
:104C300028B1002070BD0E2070BD082070BDE8684E
:104C4000062807D20549226801EB8001401C0A6052
:104C5000E860EEE7042070BDCC4B002090510020AE
:104C600040B1054900220123CA600B70C1E901026D
:104C7000104670470E207047CC4B002070B50400E2
:104C80002DD000292BD020480078002827D020885C
:104C90000D46112815D0302804D0322807D03328EB
:104CA0001ED109E0211D284605F0D4F918E0211D88
:104CB000284605F045F813E0211D284605F018F9AF
:104CC0000EE0A088B5F8CA12884209D1002085F804
:104CD000C70285F8C8024FF6FF70A5F8CA0270BD7A
:104CE00095F8C8020028FAD020883028F7D34F283A
:104CF000F5D8A088B5F8CA128842F0D12846BDE898
:104D0000704001F0F1B90000CC4B002048B1084AD6
:104D1000137843B1D26832B190F8C7222AB111207A
:104D200070470E2070470820704701F0DDB9000081
:104D3000CC4B00207CB5054608880C4609309042D3
:104D400001D90C207CBD68466DDF0028FAD121888E
:104D50000820685420881B21401C80B220802954E0
:104D60002088401C80B220802844DDF801100160BA
:104D7000BDF8051081802088801D80B220809DF8BC
:104D80000010490800D0012129542088401C2080AF
:104D900000207CBD10B504468088FFF7D7FE0128AF
:104DA0000DD021881B2901D1227A42B1022801D0DD
:104DB0001D2909D12046BDE8104004F0DFBD204682
:104DC000BDE8104004F01ABF10BD000010B51A4C29
:104DD0000188606810290ED011292BD1401E606017
:104DE00028D1FFF75FF8002824D02168002921D0BE
:104DF000BDE810400847D0B900210122084600F064
:104E0000FFFC08B107280FD107220221012000F082
:104E1000F7FC08B1072807D104220221002000F086
:104E2000EFFC20B1072802D0216801B188476068F3
:104E3000401C606010BD0000BC4B00202DE9F04715
:104E400001883B4E40F2F3194FF6FF7510291BD035
:104E500011293ED0122954D0502946D1C188F28957
:104E6000841D914241D1618902293ED18688304614
:104E700002F05AFA050038D004F10C0000F0B8FB3B
:104E8000A8B3294630464EE0C17B878804460129F5
:104E90002BD1A846284602F047FA050017D02F80EC
:104EA00000202872234843464A460168C5F80A1084
:104EB0004068C5F80E0004F1100105F10A0002F087
:104EC000D5FA6872F08900280FD129462AE004201B
:104ED00013E0808802F028FA040006D06068FFF72B
:104EE0000BFA08B106F076FF2580BDE8F087FFE7F2
:104EF0006868FFF701FA0028F7D0BDE8F04706F030
:104F000069BF87880646384602F00EFA0400ECD0E6
:104F10002B464A4606F1080104F10A0002F0A6FAFF
:104F2000607221463846BDE8F04700F035BF00000A
:104F3000BC500020C44B00202DE9F04704460388F4
:104F400040480122A4B000F1480A102B09D0112BCF
:104F500056D01A2B72D1217AB2EB111F55D20123F0
:104F600054E0D0E911218A430546011D12A806F03C
:104F7000D1FD442212A901A8FEF730FBDFF8C4904E
:104F80000026374609F144090DF104080AE000BF84
:104F900008EB46001D2283884946281D009706F02D
:104FA0006BFD761C0198B042F2D8686CA688C043AD
:104FB00006F084FDA0F57F41FF3917D005EB4000D6
:104FC0000123868032465146281D06F0D7FD012375
:104FD00032464946281D06F0D1FDE07B02280DD05F
:104FE00000231849A2884C31281D22E024B0E52175
:104FF000BDE8F04714A20420FFF7C0B80123F0E792
:105000000023A2885146001D13E000230D490546E8
:10501000A2885031001D06F0B1FD207A0221B1EBCB
:10502000101F01D2012300E000230649A288543159
:10503000281D24B0BDE8F04706F0A0BD24B0BDE8AF
:10504000F0870000D85000202E2E5C2E2E5C2E2ED5
:105050005C2E2E5C2E2E5C2E2E5C2E2E5C636F6DD5
:10506000706F6E656E74735C626C655C636F6D6DA2
:105070006F6E5C626C655F636F6E6E5F737461749C
:10508000652E630010B504460748007800280AD052
:10509000204601F075FF204606F090FF2046BDE84F
:1050A000104001F0EFBC10BD084C00202DE9F04786
:1050B0004A4E81460C4630880978032707EB0040AA
:1050C00081B101292BD002297AD145A103F076FFC5
:1050D0003088B9F8022007EB0040BDE8F04744A152
:1050E00003F070BF4AA103F069FF618804F10E026A
:1050F000484600F037F920B14AA240F2D551FFF7F7
:105100003DF8484600F0D8F920B146A240F2DB5104
:10511000FFF734F8308847A107EB004058E000253E
:1051200009E0A0684FA1425D308807EB004003F022
:1051300049FF6D1CEDB2207BA842F2D8DFF82CA10C
:105140000025B84631880AEB051708EB01407A883C
:1051500047A103F037FF3188FA6808EB014048A106
:1051600003F030FF6D1CEDB2042DEBD330884546C3
:1051700008EB004046A103F021FF3088B9F8022077
:1051800005EB00404FA103F01DFF308852A105EB55
:105190000040D9F80C2003F015FF3088A28805EBF9
:1051A000004053A103F00EFF3088227B05EB004046
:1051B00055A103F007FF3088628805EB004000E04E
:1051C0000AE056A103F0FEFE308859A105EB00402D
:1051D000BDE8F04703F0F2BEBDE8F0878C4D00203B
:1051E000446973636F6E6E65637465642E000000BE
:1051F000646973636F6E6E656374656420636F6E5C
:105200006E5F68616E646C6520256420000000009C
:10521000446973636F7665727920636F6D706C6536
:1052200074652E002E2E5C2E2E5C2E2E5C6D616918
:105230006E2E6300436F6E6E656374656420746FD9
:10524000206465766963652077697468204E6F72A3
:1052500064696320554152542053657276696365D1
:105260002E000000646174613A256300104E002036
:10527000636F6E6E5F68616E646C6520256400000C
:105280006576745F68616E646C652025640000005B
:105290006E75732D2D2D2D2D2D2D2D2D2D2D2D2D6F
:1052A0002D2D2D2D2D2D2D2D73746172742D2D2DE1
:1052B0002D2D2D2D2D2D2D2D2D2D2D2D2D2D2D2D1E
:1052C0002D2D2D006E757320636F6E6E5F68616E9D
:1052D000646C653A256400006E75735F63206576C3
:1052E000656E742068616E646C653A256400000028
:1052F0006E75732064617461206D6178206C656ED9
:10530000203A2564000000006E75732064617461AA
:10531000206C656E203A2564000000006E75735F96
:105320006576656E742068616E646C653A2564000C
:105330006E75732D2D2D2D2D2D2D2D2D2D2D2D2DCE
:105340002D2D2D2D2D2D2D2D656E642D2D2D2D2DDD
:105350002D2D2D2D2D2D2D2D2D2D2D2D2D2D2D2D7D
:105360002D00000048B141802AB15188C1801188C8
:10537000818091880181002070470E2070470000D5
:1053800030B5114B0D4604000FCB85B08DE80F00F2
:1053900018D0BDB12146684662DF002810D12078C0
:1053A0008DF812000120ADF810004FF6FF706080FC
:1053B0002868E0600020A080208104A8FFF730FC6E
:1053C00005B030BD0E20FBE7F0D3020010B5024659
:1053D00086B008002ED0002A2CD041884FF6FF73EB
:1053E000994202D09488A14224D11488112C14D05F
:1053F000392C1FD1818800291CD053898B4219D1A7
:10540000C168002916D001218DF8001002F11001A9
:105410000291917B8DF80C1009E092888A4209D1A3
:10542000C168002906D002218DF800104380C268AF
:105430006946904706B010BD30B585B00C460546AC
:1054400014216846FEF7F1F8207804F10E010028D7
:1054500030D1A08801282DD1A0792A78904229D175
:10546000002217E002EBC20031F81030022B02D00C
:10547000032B0ED105E001EB40000089ADF81200CE
:1054800007E001EB40000389ADF80E304089ADF82C
:105490001000521C207A9042E4D8E868002809D015
:1054A0006088ADF8020000208DF80000EA686946C7
:1054B0002846904705B030BD1FB5010019D0488877
:1054C000A0F57F42FF3A16D0C988A1B101228DF81C
:1054D0000C200A4B00228DF80D20D3E90423CDE9DE
:1054E0000023ADF8021003A9029169469CDF04B0C5
:1054F00010BD0E20FBE70820F9E70000F0D3020002
:1055000030B5174B0D4604000FCB85B08DE80F006A
:1055100023D015B34FF6FF70A0822868A061002049
:10552000A0752146684662DF002814D120788DF8E6
:1055300012000120ADF81000A21C04A9A0DF002871
:1055400009D12946204606F0AEF9002803D12946A4
:10555000204607F069F905B030BD0E20FBE70000DA
:1055600028D402007FB5002917D0002815D0028862
:10557000102A0DD0112A0DD0502A0FD0572A0CD145
:105580001A4B1868D3E902238DE80F0089692AE0D5
:10559000808801E04FF6FF7088827FBD01910C4644
:1055A000821DC3880989002512308B4202D151899E
:1055B00002290CD0A1898B42EFD1A1690029ECD03E
:1055C00002905089ADF80C008DF800500AE000F010
:1055D0000FF818B10120A075022001E0A575032085
:1055E0008DF80000A169684688477FBD18D4020085
:1055F000007800F00100704708B504F017F820B1FA
:105600000D4A40F29541FEF7B9FD00200090694631
:10561000012003F08BFE20B1074A40F29B41FEF7C8
:10562000ADFD684603F02EFF002804D0024A40F288
:105630009F41FEF7A3FD08BD1C7C02000649095CE2
:105640004FF0A040D0F81005C84010F0010000D085
:10565000012080F00100704718D2020007490B5C5E
:105660004FF0A041D1F804250120984020EA020320
:10567000C1F808351040C1F80C05704714D202007B
:105680000249085C012103F09BBA000014D2020019
:105690000249085C002103F093BA000014D2020012
:1056A0000649095C4FF0A040D0F80405C84010F04E
:1056B000010000D0012080F00100704714D20200E8
:1056C0007CB50024084E25460122305D009500235C
:1056D0001146019503F011FA641C042CF4D3BDE8C3
:1056E0007C4000F003B8000014D2020010B5002482
:1056F0002046FFF7C5FF641C042CF9D310BD10B57C
:1057000000242046FFF7C4FF641C042CF9D310BD0D
:1057100010B50246064B4FF0FF3000215C5C94420E
:1057200001D1084610BD491C0429F7D310BD000063
:1057300018D2020070B50C4E0C004FF0000530601E
:105740000BD0012000F05AF808B1022004E000203C
:1057500000F054F800B10B202070706810B9FEF70B
:10576000A1FB0546284670BDBC4B00202DE9F04743
:105770000D468146FFF7CCFF0446042836D2DFF8F9
:1057800074801B481C4EA8F10C0725B3012D0ED0C8
:10579000022D2BD104EB440030444578002D25D058
:1057A000B968002922D02846BDE8F047084704EB35
:1057B0004401755C0E44717849B10E4A4FF40041C2
:1057C000093A8068FEF754FD08B987F80390B1786C
:1057D00008F80410E2E78068FEF78EFD04EB440150
:1057E000314418F804008D78A842D7D0BDE8F0877E
:1057F0001CD20200B84B00205C500020FFF71EBFF7
:1058000070B50023042810D20D4D00EB4004012A8E
:1058100002D101290CD00022094E00EB4000304497
:1058200061B1012906D0022906D00723184670BDB0
:105830000E30C2B22A55F9E74270F7E78270F5E7F9
:105840005C50002070B506461E480024C0E9016186
:10585000B00720D50025012211462846FFF7D0FFCA
:105860006D1C0446042D02D2002CF4D013E094B930
:1058700040F2666204211448FEF7A8FB04000AD136
:10588000FEF792FB040006D10F48104A0021001FCA
:10589000FEF7B2FC0446F00701D0FFF711FF74B920
:1058A00009480B4A00210C38FEF7A6FC040006D17B
:1058B0000548084A01210838FEF79EFC04462046A8
:1058C00070BD0000AC4B002028D20200295B020012
:1058D0004D750200973F02002DE9F05F6A4C0546C6
:1058E00000266078B34618B184F801B001F016FEC6
:1058F000664F4FF47A694FF4C87A4FF00108182DBB
:1059000062D2DFE805F0AC0C0C31404D62676B747D
:105910006B74BE7D7D7D7D7DACAFB2B5BEBE00201B
:10592000FFF7BEFE00284FF0000008D0FFF7A8FEEA
:10593000022D02D14FF4E16008E0484606E0FFF78F
:10594000A7FE022D01D1C82000E05046410CC00343
:105950004FF4FA72801841F10001257052000023C3
:10596000FDF706FE01462AE00020FFF799FE002819
:105970004FF0000004D0FFF783FE4FF44870E5E7D6
:10598000FFF786FEDFE70020FFF78AFE00284FF0D2
:10599000000002D0FFF774FECFE7FFF779FED4E7EF
:1059A0000020FFF77DFE00284FF0000002D0FFF737
:1059B00067FE01E0FFF76CFE257041F69A110022A8
:1059C0003868FEF755FC064646E00020FFF746FE25
:1059D000257008E0002051E025703DE084F801804A
:1059E0000120FFF73BFE002240F6CD41E8E784F8B6
:1059F00001800120FFF732FE00224FF48041DFE7F3
:105A00007868FEF779FC0646D5F1110000D02EB17A
:105A10000220FFF735FE84F802B01DE0012816D9F8
:105A200080B2C8214843C117C90341EA5041C003AD
:105A30004FF4FA72801841F1000152000023FDF783
:105A400097FD014600227868FEF712FC0646022008
:105A5000FFF71EFE84F802803046BDE8F09F01F09B
:105A60005DFDB9E701F05AFDB4E701F057FD04E030
:105A700001F054FD0020FFF70BFE0120FFF708FEA8
:105A8000AAE7FFF73CFEA7E7AC4B00201CD20200C0
:105A9000F8B5871C00208DF800000E4601256846E9
:105AA000FEF73AFC124C20683060D4E90001401A3D
:105AB000A168091ABE1C06E001F0A4FFD4E90001A8
:105AC000401AA168091A491C8E42F5D8A1682068BD
:105AD000084004EB8000C16841F00301C160206808
:105AE000384420609DF80000FEF73AFC2846F8BDD7
:105AF000885B002030B482680468531C8360A15422
:105B0000D0E901128A4202D330BC02F004BE30BC9C
:105B100070470000034803C8814201D1012070474B
:105B200000207047885B002000780221FFF71EBE2E
:105B300005494FF0FF32082841F8202002D30844DD
:105B400080F848207047000018570020F0B54FF04B
:105B5000FF3512B10023082601E008230C260C4C67
:105B600005E000BF54F823707F1C04D05B1CB342D7
:105B7000F8D32846F0BD26185DB286F8305044F8B8
:105B80002310002AF5D1E11881F84800F1E7000060
:105B9000185700200249084490F93000704700006F
:105BA0001857002008B5024690F8C6020B4600EBD5
:105BB0008001C1EB801002EB400092F8C52242B197
:105BC000521ED2B202EBC20100EB4102518A491CC3
:105BD00000E0C188ADF800100089ADF80200694608
:105BE000184696DF08BD70B504464FF6FF750A46A5
:105BF0002846AC4208D14FF480742146104605F087
:105C0000FDF9A04209D070BDFF2CFCD821461046FA
:105C100005F0E7F908B1204670BD284670BD0000C8
:105C200070B5084C050009D010342168002907D050
:105C300008682060496828468847F6E70834F4E792
:105C400070BD0000045700202DE9F05F2648416830
:105C5000F1B3DFF898B00E688146DBF80040876842
:105C60008078E11B21F07F45ED1CB0B9DFF8808022
:105C70004FF48030C8F84403C8F804031120FDF73E
:105C800073FE1120FDF77BFE4FF0010AC8F800A05B
:105C90002F2002F0A1FA89F802A0B54200D23546C1
:105CA000124BE8193C3320F07F401860DBF80010FD
:105CB0005A46091B21F07F41001B20F07F40C91C80
:105CC00081420FD9106818602F2002F085FA00E099
:105CD00004E0BDE8F05F1120FDF75CBEBDE8F05FB9
:105CE00005F0AABDBDE8F09F4C4C00200415014012
:105CF000001001402DE9F04117880646B81D1446F2
:105D00000D46984202D90C20BDE8F0813188072267
:105D100006290AD34FF4486C4FF6FF73614501D949
:105D2000994202D17088062801D21046ECE76045FE
:105D300001D99842F9D1994203D0984201D08142C9
:105D4000F3D80520E85520881221401C80B220801D
:105D500029542088401C80B220804119308806F0E8
:105D600018FF2188084480B220804119708806F00D
:105D700010FF2188084420800020C5E702A240F2DD
:105D80000511FEF7FBB900002E2E5C2E2E5C2E2E88
:105D90005C6D61696E2E630038B54A7A0F4B62B153
:105DA00000220A725969002906D001228DF80020CC
:105DB000ADF802006846884738BD0A7A62B19B6830
:105DC0004C68024619462046FEF752FA0028F3D0E6
:105DD000BDE8384005F0FEBF5B68F1E7BC5000202D
:105DE000F0B585B016460F4604461D4614220B49F1
:105DF0006846FDF7F3FB0A488DF80870ADF80240DD
:105E0000ADF80A608DF80C50017800222046FEF7AC
:105E1000EFFE684600F0B2FA05B0F0BDB0D3020064
:105E2000184C002010B50446428809480321134647
:105E3000008801EB004007A103F0CBF8608815490A
:105E400001EB00102146BDE810401038FFF7F4BA0E
:105E50008C4D002063616C6C20746F20626C655FF8
:105E60006C62735F6F6E5F64625F646973635F65CA
:105E7000767420666F7220696E7374616E6365203C
:105E8000256420616E64206C696E6B203078257803
:105E900021000000104E00207FB50C4610B10120FB
:105EA00004B070BD2079002638B141F61D55012897
:105EB0001BD0022826D00F20F2E702202071029684
:105EC0000396E0680190694601A805F0F5FB50B122
:105ED00002988188E18000882081BDF80010029836
:105EE00005F068FCDCE70A20DAE70A4B6A46002185
:105EF000A01D05F09DFB38B1064918398E61CE61B1
:105F00000A28CDD12846CBE702488188019805F0C0
:105F100051FCF5E7784C00202DE9F843054690F850
:105F2000C6020F4600EB8001C1EB801005EB400676
:105F300095F8C542914604EBC40006EB4001327966
:105F4000601C0A31904226D16B460022284601F09F
:105F5000AFFA18B310E0401EA04201D1002004E0C7
:105F600004EBC40006EB40001C30804602466B4642
:105F7000284601F09DFA30B1002038706946484645
:105F800097DFBDE8F88395F8C5024146401C641CC4
:105F900085F8C502E4B23079A042DCD8012038701F
:105FA0000020EEE72DE9F04100260125144C22E007
:105FB0006068226900EBC607387805FA00F11142E3
:105FC00017D08A43226102F05FFA02463878E3680C
:105FD00005FA00F1194002FA00F3994209D17978E3
:105FE000012901D0012100E0002151407A6802B16D
:105FF0009047761CF6B220788642D9D3BDE8F0816E
:10600000384C0020044890F8A000042801D2012058
:106010007047002070470000784F00202DE9F047BE
:10602000894690F8C612904601EB8102C2EB8111BD
:1060300000EB4107384605F0D9FB06002FD0194C7C
:10604000A06806282BD2184D762205EBC0103946E1
:10605000A0F80280001DFDF7C1FA0027B9F1000F7A
:1060600004D0A06805EBC010077004E0A16802200E
:1060700005EBC1110870A06805EBC011401CCE678C
:10608000A060E16888420AD1002604E005EBC61052
:10609000C16F8847761CE0688642F7D3A760BDE8E9
:1060A000F0870000CC4B0020A851002070B50E46B0
:1060B00090F8C612154601EB8102C2EB8111A0B027
:1060C00000EB410005F092FB040009D07C22054959
:1060D0006846FDF783FAADF8025068460196A0477E
:1060E00020B070BD48D2020070B50E4604464FF491
:1060F0003371FDF79AFA11480025A4F8CA62856049
:1061000084F8C9520E4884F8C65284F8C552006813
:10611000206022460121304694DF0121112806D05B
:10612000002809D184F8C71284F8C85203E084F823
:10613000C71284F8C812002070BD0000CC4B0020AC
:10614000905100200E4910B50A784C780023A242E5
:1061500012D0521CD2B20A70022A00D10B70084A27
:106160000B780C3252F8232002608868104420F02B
:106170007F408860012010BD0360002010BD00003A
:106180004C4C002013460A460021FFF729BE0000B0
:106190002DE9F843104D0F4680461E46914669464C
:1061A000286801F0A4FE040014D01C21FDF73DFA7C
:1061B00001202071C4F81490380BC4F80080C4E9A1
:1061C00002606946286801F0B3FE05F0CDF90020B1
:1061D000BDE8F8830420FBE76CD4020010B5037817
:1061E0000022072B06D2DFE803F005040610202961
:1061F00030000A7010BD01230B7003898B818388E6
:10620000CB81C06888600A7410BD02220A700289BE
:106210008A818288CA81C2688A60807D062802D00D
:106220000020087410BD0120FBE703220A70C28819
:106230008A810289CA81C068886010BD04230B70FE
:10624000C0888881CA818A6010BD0520087010BD91
:1062500070B5064D0646002455F8241009B13046A5
:106260008847641C042CF7D370BD0000F45800204C
:1062700030B50446006885B00D46806800281CD003
:1062800014216846FDF7D1F90195A06804902079A2
:1062900010B101280DD104E001208DF80000206923
:1062A00004E002208DF80000E068000302906069BD
:1062B0000390206881686846884705B030BD70B596
:1062C00086B015460C00064619D0112C17D0082CA4
:1062D00015D014216846FDF7A8F9ADF802603046E4
:1062E00000F074FFADF804000D2C0AD0862C1CD0F1
:1062F00007208DF800000294684600F04DF806B0C3
:1063000070BD03208DF8000025B12878C00701D0AA
:10631000012000E002208DF8080000208DF80C001C
:1063200041F20110ADF80A00E6E706208DF8000002
:10633000E2E7000010B50446408800F047FFA08067
:10634000024801682046BDE810400847E44B0020A1
:106350002DE9F04107460024064E074D05E000BF39
:1063600056F8241038468847641CE8788442F7DBE6
:10637000BDE8F081B8560020084C002010B5044656
:10638000408800F023FFA080024801682046BDE855
:106390001040084784D302000149096808470000FB
:1063A000ECD3020070B586B0044614216846FDF7B0
:1063B0003CF9A0890026A0F54040ADF80400207803
:1063C0002D4D062835D2DFE800F0340303032E4EAE
:1063D000A08900F0C7F9012130B9E08943F6FE72C7
:1063E000A0F54040904224D8A07B8DF8080020788A
:1063F000032810D05FF000008DF80900A06803901A
:10640000606850B109208DF800006068049068460B
:1064100004F052F90DE00120EEE708208DF80000AD
:106420008DF81010F3E7A08900F09CF908B1E0891D
:1064300038B16878002802D06E7004F06DFA06B0AA
:1064400070BD606838B10B208DF800006E70AE70C2
:1064500004F062FADBE70A208DF80000BDF80400C2
:1064600004F0EAFAF2E713208DF800004FF6FF700F
:10647000ADF80400CBE70000F44B002038B504462B
:106480000E480078A8B1A4F57F40FF380FD06846C9
:1064900004F0A4FF78B10521017001210171C480CD
:1064A000684604F0A9FF05F04FF8002038BD04202D
:1064B00038BD022038BD082038BD0000804C0020C7
:1064C0000C4808B5007888B1684604F087FF78B1B9
:1064D00006210170684604F08FFF0748017809B172
:1064E0000121017305F030F8002008BD022008BD2D
:1064F000082008BD804C0020B8590020F0B589B0B4
:1065000014216846FDF791F82C4C207818B16846A4
:10651000FFF79EFE50E0201D012105AAFCF786FE34
:10652000B8BB4FF0102041690004026940694B1C60
:1065300001D100FB02F1224800220161A1F5405186
:10654000C160204902F007FA002820D11F481C230F
:106550008C221D49006801F0B7FC03F061FE0500C4
:1065600014D0022D12D000270126062D12D006A825
:1065700004F034FF88B106700C2D18D2DFE805F066
:10658000170F170F17161716171113110B2009B035
:10659000F0BD11E026706760B9E70820F7E70771E2
:1065A00005E0032100E00221017100E0067106A868
:1065B00004F022FF04F0C8FF0020E8E7804C002030
:1065C000004D00207CD402000459002044D4020075
:1065D00038B5040014D0694605F06EF8A0B1BDF8D6
:1065E000000000EB8001094800EB8100C16849B15F
:1065F000A17A39B1C168491EC1600020A07238BDBE
:10660000052038BD062038BD0A2038BD905900202D
:106610001FB501A9684605F00BF804B010BD07B519
:1066200013460A466946002005F002F80EBD07B57C
:1066300013460A460021684604F0FAFF0EBD20B159
:1066400019B10068086000207047052070470000FD
:106650007CB50D46040019D0C5B1694605F02CF88B
:10666000B0B1BDF800000B4900EB800001EB8000E9
:10667000012101AA0C306668FCF7FFFD2E606068FE
:106680000C3068600120A07200207CBD05207CBD1C
:106690000A207CBD9059002018B10323002206F087
:1066A00085BC052070470223002206F07FBC12B192
:1066B000022306F07BBC052070470000094908B59D
:1066C0000A69042A0BD0084A096942F821000548E2
:1066D000012110306A46FCF7D0FD002008BD0C20D7
:1066E00008BD0000604C0020F458002038B5044676
:1066F00009480D46007858B164B16946284606F04D
:106700004FFD002803D1BDF800102180658038BD01
:10671000022038BD052038BD804C002010B504464D
:106720000E48007898B1A4B12188022913D80C4AE8
:1067300001EB810002EB800260885289C31C934206
:1067400009D806F021FD00202080608010BD0220C5
:1067500010BD052010BD042010BD0000804C00209D
:106760009059002043F6FE71A0F54040884201D8C0
:10677000012070470020704710B5044600781828A3
:1067800002D1FEF7FBF9207010BD10B50446007869
:10679000182802D1FEF7F2F9207010BD70B513462B
:1067A000002206461546862902D0112902D002E0B1
:1067B000012200E001250D4C73B1A179FEF718FA12
:1067C0002A4661793046FEF713FA0022A178304656
:1067D000FEF70EFA002203E0A178FEF709FA2A4636
:1067E00061783046BDE87040FEF702BA204C0020C8
:1067F000406804F009BE00000EB516A19DF808001F
:1068000020F00F00401C20F0F00010308DF8080040
:106810000C2202A87CDF20B1124A40F2F941FDF7B8
:10682000ADFC0020009001900621ADF80400ADF809
:1068300000104FF4C8701821ADF80600ADF8021032
:1068400068467ADF002804D0064A40F20351FDF77B
:1068500095FC0EBD534F4D5055544F4E5F3038414F
:10686000000000001C7C02000888A0F52061773938
:1068700007D104480321008801EB004002A102F087
:106880009DBB70478C4D0020415454204D545520E1
:1068900065786368616E676520636F6D706C6574A1
:1068A00065642E0070B508B1012070BD194C00253B
:1068B000207B08B1257301E000F0A0F820780828BB
:1068C00026D2DFE800F02504080C10251420BDE8CE
:1068D000704000F021B8BDE8704000F07DB8BDE820
:1068E000704000F05FB8BDE8704000F03BB86088D1
:1068F000084900EB8000283901EB80004068BDE8C2
:10690000704003F06DBC6560BDE8704003F076BC7C
:106910000F2070BDB85900201149F0B48A1C002026
:106920000346A1F128050C18A67A4EB1A37200EB1C
:10693000800405EB8404E66816B9247C012C0AD097
:10694000401C80B20228EED30B704B804B60F0BC31
:1069500041F61D5070471080F0BC00F03DB80000BB
:10696000B85900200C48418801EB8102A0F12801B0
:1069700001EB8201CA6852B105210170074802216A
:106980008180016800230122054801F0BDBF042277
:1069900002704968F6E70000B8590020884C0020D2
:1069A000004D002038B50A49084803240B684268A6
:1069B000898803EB810153880470DB1C00201B04D1
:1069C00000909B0B034802F065F838BDB8590020D1
:1069D000884C0020004D0020074910B54888091D4B
:1069E00004F0BAFE18B1BDE81040FFF7DBBFBDE808
:1069F0001040FFF7B7BF0000B8590020F0B51F489E
:106A00001F490125067802248B88A0F12802082E50
:106A100019D2DFE806F00418181B222F2F1701895E
:106A2000491C01810021418080F80C1001EB810399
:106A300012F8233043B100234418491C89B2A372D1
:106A40000229F3D30570F0BD0123F5E742685288AF
:106A5000D21C1A448A800470F0BD46880D6806EB8B
:106A6000860602EB860256680E60556013818C80A4
:106A7000062100E007210170F0BD0000B859002098
:106A8000884C002030B501888588224C85B050297B
:106A900024D0522902D0542932D103E0284600F0F4
:106AA0005BFF2DE014221C496846FCF797FDADF80A
:106AB0000250284600F08AFBADF8040000F034F9DB
:106AC000002261792846FEF793F8002221792846B2
:106AD000FEF78EF86846FFF72DFC11E0017B0129D7
:106AE0000ED1817A01290BD10089A0F524510239F8
:106AF00006D10121284600F063FFA07804F040F899
:106B0000E07804F03DF8207905B0BDE8304004F0AD
:106B100037B80000DC4B002000D3020010B504465B
:106B2000007800280FD1608800F016FF608800F020
:106B3000A3F9002807D00449608801220979BDE83B
:106B40001040FEF755B810BDDC4B002010B5124CBC
:106B500000202070FEF712F8A070FEF70FF8E0702A
:106B6000FEF70CF82071FEF709F86071A17818297A
:106B70000FD0E17818290CD02179182909D01828CC
:106B800007D00121601C04F025FA012020700020AC
:106B900010BD032010BD0000DC4B00202DE9F041AA
:106BA00092B000F0D9F86846FDF7B8FF00246E46B1
:106BB0000D4D4FF6FF780DE006EB4407B88800F066
:106BC00005FB404504D1B88801222979FEF710F869
:106BD000641CA4B20098A042EED8287903F0D0FF3C
:106BE00012B0BDE8F0810000DC4B00207CB504460B
:106BF00000781C4D08282FD1607A38BB207A4FF6D8
:106C0000FF7601280DD0072802D0082824D11EE0E5
:106C1000A08800F019FAB0421ED0012100F0D0FE89
:106C20001AE0A0886A46012103F03EFC70B9019881
:106C3000007858B1A08800F007FAB0420CD00122C9
:106C40002979FDF7D5FF287903F09AFF04E005487C
:106C50000021401C04F0F9F9A878BDE87C4003F05D
:106C60008FBF0000DC4B002010B504460A48417875
:106C70002046FDF7A7FF68B10848002101EB41025B
:106C800000EB82025288A24201D1C8B210BD491C59
:106C90001429F3D3FF2010BDEE4B0020A854002090
:106CA00070B5094D094E002404EB440005EB80004B
:106CB00071784088FDF786FF20B1641C142CF3D353
:106CC000FF2070BDE0B270BDA8540020EE4B002044
:106CD0002DE9F041124E07460125BD403068FDF711
:106CE0000BFB00280DD10F4C2069284207D13846F4
:106CF00001F0CAFB0028E06805D0284304E0A8435F
:106D00002061BDE8F081A843E0602069284320614C
:106D1000A1683068BDE8F0410022FDF7A9BA000083
:106D20003CD40200384C00201CB5054AD2E90212BE
:106D3000CDE900120022694603F0DBFB1CBD000018
:106D400018D3020003484FF6FF71818001210170C2
:106D500000207047E84B002010B54FF6FF7003F09D
:106D60005BFB03498880BDE8104005F07BB800005C
:106D7000E84B00202DE9FC41804600F027FA002472
:106D800003250127A0F57F412646FF3908D06A4632
:106D9000082103F089FB18B90198841D86880568CD
:106DA00032462B4621464046A9DF042804D0082855
:106DB00004D00B2808D002E0112000E00020002FB2
:106DC00000D10B20BDE8FC810027A80701D50125D3
:106DD000E6E73443F5D0002426460325E0E72DE915
:106DE000FC41804600F0F2F90646A0F57F40FF38EE
:106DF0000ED001252A466D1C0027ADB26B46082136
:106E0000304603F07BFB040006D0072C25D025E09C
:106E100043F20200BDE8FC81019903230A1D0B60C7
:106E20004046891DAADF040004D00C2C09D0052C93
:106E300009D009E032460821104603F0F5FB04466C
:106E40000CE0012700E000240821304603F0D8FBC5
:106E500000B10324002FCDD100E00C242046D9E757
:106E600004488088A0F57F41FF3901D004F0FABFC3
:106E700070470000E84B00200EB502A9019100F018
:106E8000A5F96A46012103F00FFB08B100200EBDF1
:106E9000019800780EBD00002DE9F04107464FF63D
:106EA000FF760A48ABDF10B10320BDE8F081074C44
:106EB00043F20305A41E324661883846A7DFA84284
:106EC000F3D16088401C6080F5E70000EA4B0020A9
:106ED000428800EB82020C328A4201D902207047BC
:106EE0008188A1F57F42FF3A03D0008808B10020D5
:106EF000704701207047884204D20068401C01D0CE
:106F000001207047002070473EB5027802230C46EE
:106F1000B3EB520F17D1B0F80110ADF80010C178E3
:106F20008DF802108188ADF8041080798DF8060084
:106F300002AA01A92046FDF705F8032202A9684626
:106F4000FCF785FB08B100203EBD01203EBD0000DE
:106F500010B50C46FFF788FEFF280CD0074900EB60
:106F6000400001EB8000416821600189A180807AA6
:106F7000A071002010BD052010BD0000A854002005
:106F800070B5018892B0102959D1011D342268468C
:106F9000FCF724FB9DF804004FF6FF7603213446EE
:106FA0006D46B1EB500F2AD003F0F4FB9DF80400BE
:106FB00040080ED001280CD0022820D118E00F99EB
:106FC000281D1131FCF70DFF18B100BFBDF834408A
:106FD00015E00EAA0DA9072003F0B0FB0028EED1A2
:106FE0000DE00F99281D491CFFF78EFF0028EDD1F9
:106FF0000EAA0DA9072003F0A1FB0028F1D1BDF8CE
:107000000000291D00F00AFFB44218D0BDF80000AE
:10701000214600F0C5F8BDF80000ADF836000020AC
:10702000ADF83840074E8DF834000DAD044600BF72
:1070300056F8241028468847641C022CF8D312B056
:1070400070BD00002CD30200094A002101EB41036E
:1070500032F82330834205D101EB410002EB80007E
:1070600040887047491C1429F0D34FF6FF707047D1
:10707000A85400203EB50C46054603F08BFB0BE000
:10708000BDF80000A04207D02846029900F02EF873
:1070900010B1BDF800003EBD01AA6946072003F00B
:1070A0004DFB0028ECD14FF6FF703EBD10B50D4CE6
:1070B00018200D4A607000204FF6FF7100EB40036E
:1070C00002EB8303401C59801428F7D3FDF756FDCB
:1070D0006070182803D001202070002010BD03200C
:1070E00010BD0000EE4B0020A85400202DE9F04117
:1070F0000C46054600F1110701F111061022491C4A
:10710000401CFCF7A4FA48B9681C00F0F7F928B154
:10711000601C00F0F3F908B1012400E000243146BE
:107120003846FCF75EFE3B780222B2EB530F0CD0E0
:107130000321B1EB530F08D03378B2EB530F04D0D7
:10714000B1EB530F01D0012100E00021084201D131
:107150008C4302D00120BDE8F0810020FBE70188CC
:1071600011B9421892780AB101207047491C0829C8
:10717000F7D30020704710B50C460346FFF7EFFF2A
:1071800000280AD018882188884205D10822A11C2D
:10719000981CFCF75CFA08B1002010BD012010BD5E
:1071A00003F09EBC70B50446FFF74EFF054620462F
:1071B00003F07DF94FF6FF7104468D4203D014B9F8
:1071C000284603F08DFC204670BD000010B5FFF787
:1071D0004BFDFF2805D0044900EB400031F82000AA
:1071E00010BD4FF6FF7010BDA85400203EB50446F8
:1071F00003F0D0FA0EE0019920464631FFF7BBFFBD
:1072000028B9019920462A31FFF7B5FF10B1BDF822
:1072100008003EBD6A4602A9072003F08FFA002845
:10722000E9D14FF6FF703EBD38B504460A4801214A
:107230006A46FCF7ADF868B90848606002F032FAB7
:1072400005491C238C22087404488C39001F0068EF
:1072500000F03AFE002038BD645A002070D40200CD
:107260002DE9F0412D4F002518B17D600120BDE8CA
:10727000F0810879012258B1294E01280CD0274C01
:107280004FF002080834022821D0032842D128E018
:107290000A7102F0B3FF3BE05FF0000000EB8001F9
:1072A00016F82110022908D0401C80B20228F5D31C
:1072B0003A707D6041F61D50D9E700EB800006F87A
:1072C000205006EB8000406802F08AFF20E00D713C
:1072D000A4F80480002301221248216801F014FB65
:1072E00016E00D71206802F07BFF0D4923682831FC
:1072F000498801EB810206EB8201D1F804C0C4F891
:1073000000C04B60A3880B81A4F8048006F82250CB
:107310000028ACD07D600E20A9E70000804C002042
:1073200090590020004D00200146034802888A42FF
:1073300000D0002070470000A85000202DE9FC5F1D
:107340000E008346DDE90C47C6F1000098469246E0
:10735000814600D40846012503E000BF90FBFAF007
:107360006D1C5045FADAA84500D9454624B1002ED7
:1073700001DB780700D5641EB80702D5B8F1000F0D
:107380000AD0F80708D13CB1A54205D220215846C1
:10739000641EFEF7AFFBF6E7002E02DA4E462D2103
:1073A00002E0780703D52B215846FEF7A3FB07F030
:1073B000030002280BD1B8F1000F08D13CB1A5425F
:1073C00005D230215846641EFEF794FBF6E7CDE95E
:1073D0000047434652463146584605F0EFFBBDE8AC
:1073E000FC9F000070B50E460446007918494FF422
:1073F000A27501EB4010017F2068A1B14FF48871A4
:1074000002F008FA4FF49071206802F003FA4FF48A
:107410009271206802F0FEF92946206802F0FAF91C
:107420000C49206809E04FF48E7102F0E2F9294618
:10743000206802F0DEF908492068C0F804132068CB
:1074400000F071FF3146BDE8704000F050BF000011
:107450007057002010030200800002000248007AEA
:10746000002800D001207047645A0020F0B58488BD
:10747000A518944200D82246A41AC288D6189A4267
:1074800000D81346D21A4B880788BB420CD34088D9
:10749000834209D88888A04206D3A84204D8C88865
:1074A000904201D3B04201D90020F0BD0120F0BDCF
:1074B00010B509892AB1D088491C814218D1002011
:1074C00010BD90F8C62202EB8204C4EB821200EBDE
:1074D000420212899142F2D0491C198090F8C612DA
:1074E00001EB8102C2EB811100EB4100008902E057
:1074F0001980D088401E5880012010BD0021425CB8
:107500000AB101207047491C1029F8D300207047A8
:10751000800701D000207047012070470A4810B54D
:10752000807860B1002401E0022C06D02046FEF7EE
:10753000A7F8641C042CF7D310BD0324F6E7BDE8BC
:107540001040FEF7D3B80000AC4B0020034801798F
:10755000C90702D00078FEF7BFB97047AC4B0020D6
:1075600006490120086006480168C1F3004100296E
:10757000FAD1044900208870704700000C000040D8
:107580001804004004570020552101801721418034
:10759000002101714171592181711B21C171704715
:1075A0002DE9FE4F2A4D984691460F00824601D0A4
:1075B00000260DE0684600F05DFC6A46002150465A
:1075C00002F0E1FE2878009E10B99DF8090098B1FC
:1075D0004A463146504604F04FFE0446014600221A
:1075E0005046FFF7DBF8112C1AD008DC74B3082CD6
:1075F0002CD00D2C09D129E00520BDE8FE8F862C6A
:107600001AD0A4F54050023820D00325B8F1000F5D
:1076100004D0324621465046FEF751FE2846ECE79C
:107620003A4629795046FDF7E3FA4A46E97850464A
:10763000FDF7DEFA0025E9E73A4629795046FDF7DD
:10764000D7FA4A46E9785046FDF7D2FA2546DDE7F3
:10765000204C00207CB50D4606466A460721284688
:1076600002F022FF040005D0052C0FD0112C1DD0F4
:1076700003241BE0019C94F84400183410F001002E
:1076800001D0019C34340CB110B106E011240DE09E
:1076900004F11200FFF763FD38B1224604F1120134
:1076A000304685DF04000FD000E00B2400210022CB
:1076B000304604F049FB4CB10022002329463046F5
:1076C00004F026FB20467CBD0121F0E70122F4E70F
:1076D0002DE9FC4716000D4681464FF002084FF099
:1076E000000710D03078C00720D04FF6FF744FF05D
:1076F0000108A54203D102F0CDFE05460127A542AF
:1077000006D1032417E0002148467EDF04461BE033
:107710006B4601220721284602F0F0FE04000AD140
:107720000721284602F094FF040004D13146484660
:107730007EDF04001CD00721284602F061FF18B14B
:10774000052801D0032404E0042C01D084B100E01A
:10775000112400214246484604F0F6FA54B10022B2
:107760003B462946484604F0D3FA2046BDE8FC874C
:107770000121EFE70122F3E72DE9F041204F0E460A
:10778000154604463978FDF71DFA002835D0204605
:1077900002F0D4FD50B32046FFF718FD8046204686
:1077A000B978FDF70FFA08B1012700E0022720465B
:1077B00003F0A8F80028404602D0FFF7F3FC0DE0E4
:1077C000A8F57F41FF3909D0072102F019FF010018
:1077D00004D0052902D0204604F018FB2B4632467F
:1077E00039462046BDE8F041FEF7FABA2A4631464E
:1077F0002046BDE8F041FEF7C5BCBDE8F0810000C1
:10780000184C00202DE9F04391B08146FDF7CCF9EA
:10781000002820D06846FDF781F900246E4617E065
:1078200006EB44054946A888FDF7CCF978B10B4F23
:10783000A888F978FDF7C6F98046A8883979FDF758
:10784000C1F90146A88801234246FFF7A9FE641C3E
:107850000098A042E4D811B0BDE8F083204C00208D
:107860002DE9F047394E002780463D46DFF8E0908D
:10787000D6F804A057E003D00446D0F81C8035E0C9
:1078800099F8002002EB4201521CD2B289F8002084
:1078900009EBC10199F80230091D9A4201D189F81A
:1078A000005048680A780446012A12D0022A02D001
:1078B000032A3BD108E004F019FF00B10127257429
:1078C00034E00574C06900E070680028F9D1706088
:1078D0002CE0207C50BB88686060C868A0600869A4
:1078E000E0604869A061F07800B165606268B168E5
:1078F000184B501A20F07F40984202D2A1680844E9
:1079000006E0881AA16820F07F40814202D9081A57
:10791000206000E0256065600120A560207420469D
:10792000E56104F0C5FEB8F10000A4D199F800109B
:1079300099F801008142A3D117B97168514502D06D
:107940000120BDE8F0870020FBE700004C4C002040
:10795000D0570020FFFF7F0030B585B005460024DA
:1079600014216846FBF761FEA5F57F40ADF8025093
:10797000FF3815D02846FFF7FDF998B10B2815D030
:10798000112811D0A0F54051023903D001462846F4
:1079900004F028FA09482246C1782846FDF728F95C
:1079A00005B030BD0E2002E00124F3E70F208DF872
:1079B00000006846FEF7BEFCECE70000DC4B002050
:1079C0000A4602498978FDF713B90000DC4B002014
:1079D000F8B5054600780C46002620420FD100205D
:1079E0008DF800006846FCF797FC2878204202D109
:1079F0002043287001269DF80000FCF7B1FC3046BA
:107A0000F8BD000070B588B0214800F09CFA20480D
:107A1000001F064600F097FA1E4DD5E9014105E02A
:107A2000C0F3891202EB9050641C044404EA010084
:107A300005EB8000C0688207F2D000200DF108023B
:107A400004EA010305EB8303641CDB6842F8203081
:107A5000401C0228F4D3029800F00300012808D04B
:107A600002280AD10298032101EB905004EB900404
:107A700003E00298C0F3831004443046002101AAB9
:107A8000FBF72FFD002800D06C6008B070BD00002F
:107A9000A05F0020885B002088B0002001F018FB68
:107AA00020B15EA240F2B451FCF768FB01F080F90E
:107AB000FCF7B4FB20B159A240F2BF51FCF75EFBCA
:107AC00000210320FDF7BEFE20B154A24FF49C61BB
:107AD000FCF754FB69460020FDF72CFE20B14FA2B5
:107AE00040F2E341FCF74AFB9DF8000002287CD0FD
:107AF0005FF00006FDF780FDFEF77EFE4B494C4827
:107B000000F094FA20B145A240F21951FCF736FB7F
:107B10005521474800F07EFA20B140A240F21C51A6
:107B2000FCF72CFB1C216846FBF77FFD00204FF47F
:107B30002031CDE900014FF47021032502918DF829
:107B40000C504FF6FF710590ADF80E103948012129
:107B500006908DF810106846FCF7ACFF20B12FA2FC
:107B600040F23451FCF70AFB3348FDF779F820B1B5
:107B70002AA240F25C51FCF701FB02F0BFFF2C4F40
:107B80002E4800245C3F40F21468009007EB04107C
:107B90006946FDF7F5FB18B120A24146FCF7EEFA65
:107BA000641CE4B2042CF1D32548009020486946B7
:107BB0001C38FDF7A5FC20B118A240F25761FCF774
:107BC000DDFAFCF78BF91F4C8EB120881EA105EB66
:107BD000004001F0F3F903F047FB50B10FA240F26F
:107BE000D141FCF7CBFA04E0FFE7012682E7FCF77E
:107BF00035F9208818A105EB004001F0DFF94FF4BA
:107C0000B96400BF01F0E2F80028FBD13EDF002894
:107C1000F8D002A22146FCF7B1FAF3E72E2E5C2E33
:107C20002E5C2E2E5C6D61696E2E63006968020009
:107C30006C4E00207D5D0200255E0200AD5002000A
:107C4000219802008C4D0020457261736520626F9F
:107C50006E6473210000000052656C6179206578C4
:107C6000616D706C6520737461727465642E0000C0
:107C700070B5144682880E4605462088111D0144C1
:107C8000921C994201D8FE2A01D90C2070BD521CC9
:107C900032542088FF21401C80B22080315420883B
:107CA000401C80B220808119288804F072FF21884E
:107CB000084480B22080AA8842B1A96841B130440A
:107CC000FBF78CFC2088A98808442080002070BD28
:107CD000072070BD2DE9F047C7880446181D1646D9
:107CE0008946B0FBF7F1B0FBF7F207FB12009A19D7
:107CF0003A44D21CB2FBF7F2DDF820A001E0246880
:107D0000491E0029FBD13D1A8846B54216D818E015
:107D1000BAF1000F05D0211809EB08002A46091D09
:107D200004E0204409EB08012A46001DFBF756FC3D
:107D300000202468761BA844B74201D9354600E0EC
:107D40003D46002EE4D1BDE8F087000030B5024684
:107D500069B101F0EBF90021084C0BE001EB4103A4
:107D600004EB830315685B88AB4202D111600020ED
:107D700030BD491C8142F1D3052030BD144D002097
:107D8000F8B50E46017814460546012901D16878F8
:107D900030B12088821C9A422DD8012902D006E0F9
:107DA0000720F8BD69780144891C994223D8181A24
:107DB000801E87B2ADF800702188B01C0844694667
:107DC0007DDF0028EDD12878022805D1BDF800100C
:107DD000B94201D809210AE00821012805D16878B3
:107DE000B84202D8ADF8000001E0ADF80070BDF86F
:107DF0000000FE2801D90C20F8BD2288401CB05498
:107E00002088401C80B2208031542088401C208073
:107E1000BDF80010084420800020F8BD70B505466C
:107E20000C004FF0FF0020D04FF6FF76B5421CD07B
:107E30000E48012241782846FCF7DAFE2846FEF774
:107E400013FFFF2803D1FEF72BFFFF280DD0084BAF
:107E500000EB400203EB82014D8023F82260226890
:107E60004A60A2880A81A2798A7270BDEE4B002016
:107E7000A8540020034A00219268C0E900218160D3
:107E800070470000204C002070B54FF6FF750E467D
:107E9000A84201D1002000E0401C84B208E0214645
:107EA000304603F0C6F808B1204670BD641CA4B289
:107EB000FF2CF4D9284670BD10B5FBF744FA08B181
:107EC000002010BD112010BD10B531B1B2FBF3F48C
:107ED00003FB14241CB1092010BD0E2010BD01604D
:107EE0000021416081608281C381084610BD70B568
:107EF0000C460546FBF7DCF9002802D021882868EB
:107F0000084470BD10B50A8849888A4203D1FBF73E
:107F100011FA012010BD002010BD70B50C460546B9
:107F2000FBF7EBF9002802D061882868084470BD8F
:107F300010B50A8849888A4203D1FBF7D5F9012098
:107F400010BD002010BD08B501216A46FBF7BCFA40
:107F5000009808BD08B56A46FBF78FF9009808BD80
:107F600038B5044600258DF800506846FCF7D4F972
:107F700021686268086890420ED9401E0860017846
:107F8000238AE26801FB0325227A2168101AC0B215
:107F90000A79824200D208719DF80000FCF7E0F9EE
:107FA000284638BD38B5054600208DF800000C463F
:107FB0006846FCF7B1F9E868298A201AB0FBF1F1AC
:107FC0002A681068431C136001709DF80000FCF7DC
:107FD000C7F938BD10B530B1017A42680368891A13
:107FE000C9B21A6006E00E2010BD03681A68541C5E
:107FF0001C601170491EC9B2F7D2006800210171DE
:10800000084610BDC20800F007030120895C9840B3
:108010000840704728B1A1F117023F2A03D3072077
:1080200070470E20704741800020704770B50400F3
:1080300010D05520216320806080592020710025B8
:1080400004EBC500801DFFF79FFA6D1C052DF7D3CB
:10805000002070BD0E2070BD2DE9F047858890B0DE
:108060000C46052D7ED20188DFF83C910026DFF812
:108070003CA14FF0010824293ED006DC102909D08C
:1080800011290CD0232972D152E03A290DD055295B
:108090006DD12CE00146204601F0DCFE67E004EBE8
:1080A000C500801DFFF770FA61E0294604EBC107A7
:1080B000408937F8062F824200D81046788017286A
:1080C00000D217207880206B70B1787960B1D9E93F
:1080D0000020CDE90020ADF802107888ADF804004A
:1080E000226B2046694690477E713E713FE0014613
:1080F000204601F075FF3AE0011D34226846FBF787
:108100006DFABDF80000BDF8042004EBC0014A730D
:10811000226B42B3D9E90432CDE90D32ADF8360015
:10812000487B8DF83800226B20460DA990471EE051
:108130000096019630F8041F04EBC1020179127B0E
:108140008A4200D21146ADF80010ADF80210008846
:108150000022694690DF020009D0BAF8001008EB4F
:10816000014001E01CE002E0114900F02BFF04EBAC
:10817000C504A07A002813D0E18828469EDF0200BB
:108180000BD0112A0CD0BAF8001010B008EB014047
:10819000BDE8F047074900F015BFA67284F80B80D0
:1081A00010B0BDE8F087000034D30200204D00205D
:1081B00094D702000CD7020000F18040006800282C
:1081C00000D00120704708B500F180400021016017
:1081D0000068009008BD000000283ED01F49204ADA
:1081E000096800BF00BF00BF00BF00BF00BF00BFE5
:1081F00000BF91422FD000BF00BF00BF00BF00BF33
:1082000000BF00BF00BF00BF00BF00BF00BF00BF76
:1082100000BF00BF00BF00BF00BF00BF00BF00BF66
:1082200000BF00BF00BF00BF00BF00BF00BF00BF56
:1082300000BF00BF00BF00BF00BF00BF00BF00BF46
:1082400000BF00BF00BF00BF00BF00BF00BF00BF36
:1082500000BF00BF00BF0138C3D17047FC4C0020F5
:108260000024F40070B50F4C0025207808B1852556
:1082700016E00021A16061602161E1604FF0E02023
:10828000D0F80001012610F0010F03D107210020D2
:1082900000F02DF801F006FA08B9034806602670D0
:1082A000284670BD045700201805004008B500207E
:1082B0008DF800006846FCF72FF80648C168491E93
:1082C000C160C06808B9FFF74BF99DF80000FCF7E2
:1082D00047F808BD0457002000F01F02012191401B
:1082E0004009800000F1E020C0F880117047490784
:1082F000090E002806DA00F00F0202F1E02282F8EF
:10830000141D03E000F1E02282F8001400F01F02C7
:10831000012191404009800000F1E020C0F8801266
:10832000C0F800117047000B40B270472DE9F041D2
:108330008846054602F090FC234E002828461AD0B5
:10834000FDF728FC304490F848008009032802D04B
:1083500001280ED007E04FF0A040D0F81005E8400B
:1083600010F0010F05D003212846BDE8F04100F0D0
:1083700016BC0221F8E702F07BFC002822D0284638
:10838000FDF708FC04464FF4807000EB84000F4FAB
:1083900081B207EB8400D0F8102542F00102C0F84A
:1083A0001025084600F02CFCB8F1000F0AD0284632
:1083B000FDF7F0FB56F82000002803D00120A04074
:1083C000C7F80403BDE8F0811857002000600040A2
:1083D0002DE9FC41DFF8A480044608EB04000027E7
:1083E00090F930001346C0170E46401C01D00827F4
:1083F00041E0F27819462046FDF7A8FB0546401CEF
:1084000038D0B07850B14FF0A04000EB8400D0F8E5
:10841000001721F00201C0F8001707E0002173786F
:10842000204600910A46019100F079FBF078C0B136
:108430001348317800EB8500D0F81025114B1A4015
:10844000C0F810254FF4F8524FF4403302EA0422EA
:1084500003EA01410A43D0F810150A43C0F8102579
:1084600009E008EB0500327810F8481F41EA821154
:10847000017000E004273846BDE8FC811857002051
:1084800000600040FFE0FCFF4FF0A041D1F8101564
:10849000C14011F0010000D00120704770B5144DAB
:1084A00095F8540008B1082070BD0020411E2A181C
:1084B000401CC0B282F830102028F8D30024204697
:1084C000FDF736FB641CE4B20C2CF8D30721062020
:1084D000FFF70DFF4FF4BE7000F092FB05494FF01F
:1084E0000040C1F80403012085F85400002070BD4D
:1084F0001857002000600040034890F854000028FE
:1085000000D0012070470000185700200121B1EB76
:10851000507F01D101207047002070472DE9F041C4
:1085200005460079164F904607EB40140E46E07E54
:1085300010B10820BDE8F081707F20772846FBF756
:1085400029FF5FEA080060603169216003D0317F54
:108550002846FEF747FF287907EB4010007F0028E8
:10856000286801D0082100E00421C0F8001500208F
:10857000E0752076A0750121E176A076DAE70000AB
:10858000705700202DE9F047054600793F4E904690
:1085900006EB40140F46207F18B10846FFF7B6FFE0
:1085A00030B1284600F074F820B11120BDE8F08702
:1085B0001020FBE784F81680A7600027A78228799F
:1085C0004FF0010806EB40143E46207F0028286843
:1085D00025D04FF49079494601F01CF94FF4AC7A5C
:1085E0005146286801F016F92868A17DA268C0F8F4
:1085F0004425C0F848152868C0F808806068F0B9BC
:108600004946286801F001F980465146286801F082
:10861000FCF858EA0001F3D058BBA7750FE04FF4FF
:108620008E7A514601F0E5F82868C0F808802146A6
:10863000286804F0E9F861684FF4807089B1304629
:10864000B4E75146286801F0CFF810B9A08A484530
:10865000F7D1A08A484505D02146286804F0D4F80F
:1086600000E08146A08AA17D8842EAD3A08A4845DD
:1086700001D10F26D1E75146286801F0B5F800284E
:10868000F9D02868C0F80C80C7E7000070570020B8
:108690000079044901EB4010807D002800D00120C2
:1086A000704700007057002070B5044600791149EA
:1086B000002601EB401520682A7FC0F80065686835
:1086C00088B1207901EB4010007F0028206801D09C
:1086D000094901E008498C39C0F808132068FFF700
:1086E00022FEFFF7F9FD204602F0CEFAEE766E602C
:1086F00070BD000070570020100302000FB408B5D1
:108700000399002904D004AA00926A4600F00FF8E9
:1087100001B05DF814FB10B582680446002A05D04C
:10872000D4E90403216898470020A06010BD2DE91A
:10873000FC4791460C00804676D014F8011B39B1F5
:1087400025290ED04046FDF7D5F920780028F4D130
:1087500098F80C00002867D04046BDE8FC47FFF7BA
:10876000DABF0020012221782B291BD02D2902D02D
:10877000302908D102E040F0010001E040F00200A1
:10878000641C002AEFD100252A290ED02178A1F1FE
:1087900030020A2A11D205EB850201EB4205641C66
:1087A000303DF1E740F00400EAE7D9F800100B1D76
:1087B000C9F800300968641C0D44217800232E2973
:1087C0000BD114F8011FA1F130020A2A05D203EBE4
:1087D000830201EB4203303BF3E76C290DD068299B
:1087E0000BD0692921D00BDC252918D0582931D08C
:1087F00063290ED0642915D117E014F8011FECE7A6
:10880000702969D0732932D075291BD0782909D1F4
:1088100020E0D9F80000011DC9F800100178404699
:10882000FDF768F9641C90E76CE0D9F800100A1DA8
:10883000C9F800200968CDE900500A224046FEF739
:108840007DFDEFE7D9F800100A1DC9F8002009687E
:108850000A2206E0D9F800100A1DC9F800200968AC
:108860001022CDE90050404604F0A8F9DAE7D9F823
:10887000001000270A1DC9F800200E68C00705D1A6
:1088800012E04046761C7F1CFDF734F93178002950
:10889000F7D104E0202140466D1EFDF72BF9BD42C3
:1088A000C0D9002DF6D1BDE74EB13046FAF7C8FE6B
:1088B000074604E0202140466D1EFDF71BF9BD422E
:1088C00006D9002DF6D103E04046761CFDF712F9DB
:1088D00031780029F8D1A5E7D9F80000011DC9F8C1
:1088E0000010056830214046FDF704F97821404624
:1088F000FDF700F908200021CDE900010346102210
:108900002946B0E7BDE8FC872DE9F0411F46154632
:1089100004000E4616D02068B8B1C5B16068026880
:10892000501E304215D16A432046FBF773FA80B1DE
:1089300020683B462A46D0F810C031462046BDE8A4
:10894000F04160470E20BDE8F0810820FBE70920D8
:10895000F9E71020F7E720B119B101600B68114663
:1089600018470E20704700002DE9F04128B101683A
:1089700019B1C969BDE8F04108470D4D0D48002403
:10898000461B14270DE000BF04EB840005EB8000BC
:10899000016829B1C969884710B10120BDE8F0819B
:1089A000641CB6FBF7F0A042EED80020F6E700000A
:1089B000004D0020144D0020044801214174007A2C
:1089C00008B100207047012070470000645A002061
:1089D000012801D0032808D10449002201284A7443
:1089E00000D00020087402F063BD7047645A002074
:1089F00070B5254C0246207A012837D0022841D193
:108A000022480023022A006802D0032A2ED11BE04C
:108A1000E360017911B1012928D10DE0D0E90565A4
:108A2000711B4FF48056B14200D331462944816115
:108A30004569A9420ED019E00169491C01614269EA
:108A4000914213D1237217E0E168491CE1600829C3
:108A50000CD9E3602372022A0ED00D21FDF708FC29
:108A60000B480A49091D0068FFF74CFA607C28B1E1
:108A7000BDE8704000F01CBE0021EFE7BDE870408B
:108A800002F016BD70BD0000645A0020904C00201A
:108A90006CD402002DE9F8431D46089F164688460F
:108AA00004000DD066B1206860B135B160684068DF
:108AB000B5FBF0F100FB115030B10920BDE8F8839F
:108AC0000E20FBE70820F9E74046FBF79DF990B13F
:108AD0003046FBF799F970B12A4641462046FBF72C
