:020000040002F8
:1030000088A90020153402001D3402001F3402007C
:1030100021340200233402002534020000000000A5
:103020000000000000000000000000002734020043
:1030300029340200000000002B3402002D3402006D
:10304000CD3B02002F3402009D3F02002F340200CE
:103050002F3402002F340200A13902002F34020065
:103060002F3402002F3402002F3402002F340200CC
:103070002F3402002F3402002F3402002F340200BC
:103080002F340200253C02002F3402002F340200AE
:10309000493C02002F3402004D3C02002F34020054
:1030A0002F3402002F3402002F3402002F3402008C
:1030B0002F3402002F340200000000000000000046
:1030C0002F3402002F3402002F3402002F3402006C
:1030D0002F3402002F3402002F34020000000000C1
:1030E00000000000000000000000000000000000E0
:1030F00000000000000000000000000000000000D0
:1031000000000000000000000000000000000000BF
:1031100000000000000000000000000000000000AF
:10312000000000000000000000000000000000009F
:10313000000000000000000000000000000000008F
:10314000000000000000000000000000000000007F
:10315000000000000000000000000000000000006F
:10316000000000000000000000000000000000005F
:10317000000000000000000000000000000000004F
:10318000000000000000000000000000000000003F
:10319000000000000000000000000000000000002F
:1031A000000000000000000000000000000000001F
:1031B000000000000000000000000000000000000F
:1031C00000000000000000000000000000000000FF
:1031D00000000000000000000000000000000000EF
:1031E00000000000000000000000000000000000DF
:1031F00000000000000000000000000000000000CF
:10320000DFF80CD000F0AEF900480047357E020030
:1032100088A9002030B4044654E8000F0D4644E865
:103220000053002BF8D1156030BC704730B4044611
:1032300054E8000F40EA010544E80053002BF7D1A1
:10324000156030BC704730B4044654E8000F00EA03
:10325000010544E80053002BF7D1156030BC7047DE
:1032600030B4044654E8000F80EA010544E80053F6
:10327000002BF7D1156030BC704730B4044654E8D9
:10328000000F00EB010544E80053002BF7D1156057
:1032900030BC704730B4044654E8000FA0EB010581
:1032A00044E80053002BF7D1156030BC7047000094
:1032B00030B450E8012F93B2C48923448489A342D7
:1032C00028BF1B1B0489A34202BFBFF32F8F00201E
:1032D00007E0C3EA020340E80134002CE9D14FF0D3
:1032E00001000A6030BC704750E8012FC2EA024278
:1032F00040E801210029F7D1704730B450E8022F8F
:103300001FFAA2F3C488A34202BFBFF32F8F00208D
:103310000DE0C48923448489A34228BF1B1BC2EA51
:10332000034340E80234002CE8D14FF001000A606A
:1033300030BC704750E8022FC2EA224240E8022126
:103340000029F7D17047034653E8022FD988B2EB22
:10335000324F4FF0000017BF92B241EA014142EAFA
:10336000014104E05A68B2EB324F08BF012043E844
:103370000212002AE8D1704730B4044654E8000F26
:103380000D4644E80053002BF8D1156030BC70475F
:1033900030B4044654E8000F40EA010544E8005305
:1033A000002BF7D1156030BC704730B4044654E8A8
:1033B000000F00EA010544E80053002BF7D1156027
:1033C00030BC704730B4044654E8000F80EA010571
:1033D00044E80053002BF7D1156030BC704730B47F
:1033E000044654E8000F00EB010544E80053002BAD
:1033F000F7D1156030BC704730B4044654E8000F74
:10340000A0EB010544E80053002BF7D1156030BC58
:10341000704700000648804706480047FEE7FEE781
:10342000FEE7FEE7FEE7FEE7FEE7FEE7FEE7FEE774
:103430005D3C0200013202002DE9F05F05460020EC
:1034400092469B4688460646814640241BE0284615
:1034500041464746224600F075F853465A46C01A80
:10346000914110D311461846224600F05CF82D1AFF
:1034700067EB01084F4622460120002100F053F877
:1034800017EB00094E41201EA4F10104DFDC484681
:1034900031462A464346BDE8F09F10B5431A934291
:1034A00009D28318881803E010F8011D03F8011DE4
:1034B000521EF9D210BD40EA01039B0703D009E078
:1034C00008C9121F08C0042AFAD203E011F8013B10
:1034D00000F8013B521EF9D210BDD2B201E000F853
:1034E000012B491EFBD270470022F6E710B51346A8
:1034F0000A4604461946FFF7F0FF204610BD421C5D
:1035000010F8011B0029FBD1801A704730B5044622
:103510000020034600E05B1C934203D2E05CCD5CDC
:10352000401BF8D030BD202A04DB203A00FA02F11B
:10353000002070479140C2F1200320FA03F31943A1
:1035400090407047202A04DB203A21FA02F0002143
:10355000704721FA02F3D040C2F1200291400843A3
:1035600019467047064C074D06E0E06840F001033D
:1035700094E8070098471034AC42F6D3FFF744FEB6
:10358000BCCB0200DCCB020070B58C1810F8015BDC
:1035900015F0070301D110F8013B2A1106D110F8EC
:1035A000012B03E010F8016B01F8016B5B1EF9D1F0
:1035B0002B0705D40023521E0DD401F8013BFAE776
:1035C00010F8013BCB1A921C03E013F8015B01F8E1
:1035D000015B521EF9D5A142D8D3002070BD000076
:1035E0002DE9FC410F4604005AD0207818B1082874
:1035F00056D2002518E0002020743968C4F80A105B
:10360000B988E181012121706070A07048E000BF9D
:10361000C5EBC5010819062239460A30FFF776FFC7
:1036200000283ED06D1CEDB26078401CA842EFD857
:1036300000251AE0C5EBC5010E1906F10A000622A5
:103640003946FFF763FF00282BD0D6F80A00009018
:10365000F189ADF80410317C8DF80610019900F065
:1036600087F9012805D06D1CEDB26078801CA84256
:10367000E0D82078C5EBC501401C207008190574FE
:103680003968C0F80A10B988C1816078A84200D8AA
:1036900065702178601C0D542178A01C00F057F84B
:1036A0000020BDE8FC81F8B51446DDE906621F463E
:1036B0000B460546392939D013DC302B36D008DCCF
:1036C000222B3AD0232923D12046BDE8F84007F029
:1036D000C5BF312B2AD035291AD1BDE8F84002F0F8
:1036E000A8BB4AF23201581A8B4212D008DC402B98
:1036F00028D003F5FF53B3F5404F09D1002022E055
:10370000052805D1234631462846009703F0B6FC2C
:10371000F8BD3146284602F089F8E8B202F008FE0A
:10372000E8B23146BDE8F84002F0F0BD3A46214625
:103730001846BDE8F84000F044B8BDE8F840012064
:1037400003F082BC2046BDE8F84002F0A9BCF0B509
:1037500000234E1E11E00022CC1A641E0AE000EB8A
:10376000020C855C9CF80170BD4202D987548CF82C
:103770000150521C9442F2DC5B1CB342EBDBF0BD07
:10378000017849B942783AB982782AB9C2781AB927
:1037900002790AB9427982B1FF290ED14178FF2915
:1037A0000BD18178FF2908D1C178FF2905D1017992
:1037B000FF2902D14079FF2801D001207047002065
:1037C0007047704770B5124A002454701AE000BF69
:1037D00010F8013B9370D4705378957883EA05060E
:1037E000F60705D083F018035B0843F0800300E080
:1037F0005B0853706B089370D3785B1CDBB2D3709B
:10380000082BE9D3491EC9B2E2D2507870BD00003E
:103810008472002037B514460A2A11D809480621B7
:1038200000EB0415DDF8010045F8100CBDF80500AB
:1038300025F80C0CA5F1100002F078FA25F80A4CD6
:103840003EBD0000C4770020044A02EB001050F88F
:10385000102D0A608088888070470000C47700209F
:103860002DE9F0410E4604004CD0307850B9707804
:1038700040B9B07830B9F07820B9307910B97079A2
:10388000002840D02078002708B100250DE067709F
:10389000A77037E0C5EBC5010819062231460A308A
:1038A000FFF734FE48B16D1CEDB26078401CA842B1
:1038B000F0D822780020511C17E0C5EBC50108198B
:1038C000C0F80A70C78107742078401E2070F0E7A6
:1038D00023189B78AB4206D1A11C2044535C837013
:1038E0002078475403E0401CC0B28142F0D82178D0
:1038F000A01CFFF72CFF2178601C085C61788842CF
:1039000000D860700020BDE8F081000008494FF643
:10391000FF7301EB001222F80A3C91F8800010B10D
:10392000401E81F88000002042F8100D9080704702
:10393000C4770020F0B50D4D002001464FF6FF770B
:1039400005F1840305EB0014E28842B1BA4206D0C7
:1039500003EB8106491C7280A27A3271C9B2401C05
:10396000C0B20828EED31970F0BD0000C477002063
:10397000C1F3074282B910F0FF0F0DD1C0F3072247
:1039800052B9C0F307423AB9000E05D111F0FF0F4A
:1039900002D1C1F3072008B1002070470120704711
:1039A0002DE9F04700268CB0DFF86091B0464FF467
:1039B0008075012437460696284605F05DFA38B131
:1039C000D9F80403204203D0284605F04BFA2643D9
:1039D0002D1D64007F1CADB2082FEDD34FF4BE74D3
:1039E000204605F049FA48B1204605F03BFA46F07A
:1039F000004606AA0121002005F020FA444D16F0E9
:103A0000FF0F15D00127002437420DD009EB8401A8
:103A1000D1F81005D1F81015C0F3042055F8242072
:103A2000C1F3014102B190477F00641C082CEBD325
:103A3000002E67DA4FF0FF30CDE9088000263446CB
:103A4000281910F8507F90F9000027F0C008401C9A
:103A500044D009A9404604F02AFC58B34FEA97190C
:103A6000404602F0A1F955F820701FB1B9F1030FDB
:103A700003D00FE0B9F1030F30D108A84FEAD80204
:103A800008F00703815C4FF0010C0CFA03FC41EADB
:103A90000C0181544FF0A04101EB8800D0F80007E1
:103AA00006A9C0F3014A404604F001FC18B1BAF17E
:103AB000020F03D012E0BAF1030F0FD1B9F1030FD7
:103AC00008D1BAF1020F1BD00221404605F09AF945
:103AD000761CF6B217B149464046B847641C042C20
:103AE000AED3002E0ED06A460121002005F0A6F9C3
:103AF00006990098884205D00690089809909DE79D
:103B00000321E2E70CB0BDE8F08700000060004050
:103B1000F485002070B516460D4A04981D46918024
:103B2000352914DD4AF23202914210DA39290ED0D9
:103B300040290CD104F0B6FA064C2A4631462080C2
:103B40000120A070E01CFFF7A8FC84F8355070BD80
:103B500088720020AE7B002028B1A0F57F41FF399C
:103B600001D0012070470020704700F01F020121A2
:103B700091404009800000F1E020C0F880127047B9
:103B800000F01F02012191404009800000F1E02077
:103B9000C0F80011704700F01F0201219140400958
:103BA000800000F1E020C0F8001270474907090EBC
:103BB000002806DA00F00F0000F1E02080F8141D64
:103BC000704700F1E02080F8001470472DE9F041C3
:103BD0004FF48077384604F049FC0124104EA507C5
:103BE00048B1384604F049FC0120C5F80803747058
:103BF000002002F01FF94FF48277384604F036FCBB
:103C000000280BD0384604F038FC0220C5F8080321
:103C1000B470BDE8F041012002F00CB9BDE8F081BC
:103C2000E085002007480021C0F84011C0F8441189
:103C3000C0F84811C0F84C11C0F80011C0F80411C8
:103C400008F0F4B80010014008F03EB805F00ABAD8
:103C5000014908607047000080720020F0B5B54847
:103C60000023021D0178101D01254FF08054062904
:103C70000BD11678360708D10678C6F30316032E43
:103C800006D0042E04D0052E02D0062907D00EE05F
:103C9000B4F82463A84FC6F304263E6002E0167809
:103CA000360704D10678C6F30316032E02D0062980
:103CB00004D00FE0A24FA14E7E670EE016783607C3
:103CC00008D10678C6F30316032E06D0042E04D0BE
:103CD000052E02D0062907D00EE0D4F84462994F91
:103CE000C6F342363E6002E01678360704D1067805
:103CF000C6F30316032E02D0062906D011E0924E19
:103D0000376827F0807737600EE01678360708D1DD
:103D10000678C6F30316032E06D0042E04D0052E13
:103D200002D006290AD011E04FF08046C6F80C31C7
:103D3000C6F81031834E361F336002E0167836071E
:103D400004D10678C6F30316032E02D0062905D047
:103D50000CE07C4F032664373E600AE01678360795
:103D600004D10678C6F30316032E02D006290DD01F
:103D700014E0764F05263E60744E78363560734EFB
:103D8000083633603F263F1D3E6002E01678360756
:103D900004D10678C6F30316052E02D0062957D0A3
:103DA00062E06B4E36686B4F3E60694E361D36687A
:103DB0003F1D3E60664E083636683F1D3E60644ECD
:103DC0000C3636683F1D3E60614E103636683F1D2A
:103DD0003E605F4E143636683F1D3E605C4E1836BE
:103DE00036685C4F20373E60594E1C3636683F1DA2
:103DF0003E60574E203636683F1D3E60544E243696
:103E000036683F1D3E60524E283636683F1D3E6084
:103E10004F4E2C3636683F1D3E604D4E303636686C
:103E20004C4F40373E604A4E343636683F1D3E6048
:103E3000474E383636683F1D3E60454E3C36366844
:103E40003F1D3E60424E403636683F1D3E6002E0F8
:103E50001678360708D10678C6F30316032E06D067
:103E6000042E04D0052E02D0062907D019E0D4F87C
:103E70005812394A01F04F01116002E01178090728
:103E80000FD10078C0F30310032803D0042801D019
:103E9000052806D131480168C90702D06FF0010139
:103EA0000160D4F83001062808D1D4F8340106287E
:103EB00004D12B48016841F48061016022487438C4
:103EC000016841F470010160BFF34F8FBFF36F8F42
:103ED0004FF01021D1F80002002803DBD1F80402D2
:103EE000002822DA1F4A15601F480468002CFCD005
:103EF0001524C1F800420568002DFCD0C1F8044229
:103F000001680029FCD0136001680029FCD0BFF3D0
:103F10004F8F0D48F0380168144A01F4E0611143F5
:103F20000160BFF34F8F00BFFDE7124910480860E2
:103F3000F0BD0000E00F00F0403501400DF0ADBADB
:103F400000C007403C050040FCED00E0105600407A
:103F50000404001020C50040E40E004000040040AE
:103F60003C17004004E5014000E401400400FA056C
:103F70000090D00394730020074910B50346CA7817
:103F80008C780020A24206D0481D105C1870C878BA
:103F9000401CC870012010BDBE7D00200448017F78
:103FA00004480029024901D008F0F9B808F068B8BF
:103FB0004C8600200020004006494A1D8B7898540A
:103FC0008878401CC0B28870CA78904201D1401EE7
:103FD00088707047BE7D002070470000FEB5002647
:103FE0008DF8086002A8FFF7C7FF002827D03A4CD9
:103FF0003A4801226178D1B1217800F1C805491C05
:10400000C9B221709DF808304354A378C3B12A88FF
:10401000931C8B4213D8521CD1B2401CFFF7D2FB29
:104020002988A5F1C607CA5D90423AD035E09DF8CF
:1040300008103A2903D1267001706270A670FEBD87
:104040000C29FCD1C17A037B43EA112169804378B2
:10405000877847EA13232B8003792B711F4BCA33D0
:10406000A3F5807555F83B7F43F8037FAD889D80AD
:10407000C078012811D1402911D041290FD04229FF
:104080000DD032290BD0202909D0222907D023298D
:1040900005D0302903D0372901D06670FEBDA2704B
:1040A000FEBDD4F808C0BCF1000F0BD00B482A7934
:1040B000CD30CDE900200B398BB2A0F1C002698868
:1040C0000020E0476E80667028881421C65503489A
:1040D000FFF70AFAFEBD000088720020E47B002092
:1040E00002E008C8121F08C1002AFAD170477047C1
:1040F000002001E001C1121F002AFBD1704700001F
:104100000121202803DA81400548014003E04028CE
:1041100002DA2038814009B1012070470020704741
:10412000FC06FFBD082806D228B1012803D00428C8
:1041300001D0012070470020704710B560B159B11F
:1041400002780B785208B2EB530F05D10622401CBF
:10415000491CFFF7DBF908B1002010BD012010BD9C
:10416000800701D00020704701207047C3688B4250
:1041700006D811440069491E814201D801207047C8
:104180000020704770B500230D884C680DE0E618DC
:10419000E15C7678864206D1E018801C491E5060AA
:1041A0001180002070BD0B445B1C9D42EFD80520A0
:1041B00070BD10B5002004F013FD002806D106F0F4
:1041C0002FFFBDE81040002001F0ACBB10BD000087
:1041D00010B50321064800F081FD002806D0BDE897
:1041E000104004A240F2731100F0E4B810BD0000CA
:1041F000DC7600202E2E5C2E2E5C2E2E5C6D6169EE
:104200006E2E630010B501220221002001F042FC55
:1042100008B1072810D107220221012001F03AFC41
:1042200008B1072808D100210A22084601F032FC13
:1042300008B1072800D1002010BD000000B5A9B0CA
:10424000A0216846FFF750F902208DF800000121F7
:104250008DF802100622ADF810008DF803200D48ED
:1042600005904FF496702290B42023900A488DF860
:104270007C1026906946094800F048FC20B1084AA5
:1042800040F2B25100F096F80121044800F03BFCE6
:1042900029B000BDFA5B002001930200DC7600200B
:1042A000F441020070B58CB015460E4600236C46F2
:1042B000C3F10F01415CE1545B1C102BF8D30D21BD
:1042C00004F11000FFF710F90020C0F10F02315C7B
:1042D0002244401C11740328F7D3684643DF0020B2
:1042E000C0F10F01214491F820102954401C0328EB
:1042F000F6D30CB070BD022001F0FABA0149097979
:1043000000F05ABE0073002070B50024064D06E090
:104310006868012110F8340004F058F9641C28780A
:104320008442F5D3002070BD20730020F8B51546F7
:104330000C460646052A01D20720F8BD04F02CFAE7
:1043400018B904F0FBF90028F7D1104900204E609D
:104350000C70C1E902500E4D08610DE006EBC4007F
:104360006968009181788DF801100078094A6946E2
:1043700004F07EF90028E0D1641EE4B2EED2BDE87C
:10438000F840054A0021024800F07AB82073002066
:10439000A8CA02005D710200AD620200044B30B495
:1043A0001B68DB0700D000BE30BC00F00FB8000077
:1043B000F0ED00E00EB5ADF80010CDE901206A4641
:1043C000002144F20100FFF7E9FF0EBD08B501230B
:1043D0008DF800309DF80030144B186059609A60D9
:1043E0006FF48041401807D001280FD1DA60D868F7
:1043F00000889861D86807E01A6118698068586178
:1044000018690088986118694068D8611868586808
:104410009868D868186958699869D86972B600BFF1
:104420009DF800000028FBD162B608BD8C860020F4
:1044300010B58268C368934203D002F06FFB00207E
:1044400010BD052010BD29B112B1531E134203D077
:10445000092070470E207047016083800021816031
:10446000C1600846704710B58268C3689A1A83888D
:104470009A4203D802F05CFB002010BD042010BD5E
:10448000074B9B7823B12AB120B10068037C1BB194
:104490000820704707207047417442610020704730
:1044A000AC86002070B506F017FD104800240B21E3
:1044B000047044700E4D817014206C602C706C7010
:1044C000FFF753FB07211420FFF770FB1420FFF7C1
:1044D00057FB0848046007211120FFF767FB0548D8
:1044E000001F0068A860002070BD0000AC8600209E
:1044F00034730020081501402DE9FC47DFF878905F
:1045000099F8023073B368B3052902D20720BDE8D9
:10451000FC87436933B3437C012B25D00027044635
:104520000025884616468DF80050684600F0ECF8E5
:1045300001A807F001FFC8B1012101700F494460D3
:104540000968C0E90218C0E904769DF8040089F8FA
:1045500001009DF8000000F0FBF81420FFF71BFBA2
:104560002846D4E70820D2E70F46D8E704259DF86F
:10457000000000F0EDF8F3E7AC86002004150140E0
:104580000649897839B130B1416921B100210174FE
:10459000022107F027BC082070470000AC860020ED
:1045A00070B50B4E01460B48B578FFF741FF044646
:1045B0005DB10020B070711C0122C81D04F032F9F9
:1045C00018B105A2D521FFF7F5FE204670BD000009
:1045D00080730020648900202E2E5C2E2E5C2E2EEF
:1045E0005C2E2E5C2E2E5C2E2E5C2E2E5C636F6D50
:1045F000706F6E656E74735C6C696272617269650E
:10460000735C756172745C6170705F756172745F08
:104610006669666F2E630000F0B5284E89B01F46AC
:104620000D00044672603BD0A888296882B22448F5
:10463000FFF709FF002834D1A889A96882B2204871
:104640001030FFF700FF00282BD120221D496846BB
:10465000FEF723FF60690690207C00B101208DF8F1
:1046600014008DF81C70607C00B10E208DF81500D0
:10467000E0680290A0680390206801906068009054
:104680000E48114A6946083004F098F8002808D10D
:10469000B0702068401C04D09DF81D0018B106E0E1
:1046A000072009B0F0BD0548083004F013F90349AC
:1046B0000122491CC81D04F0B5F8F2E78073002000
:1046C00064890020F8CA0200E1BF020010B501466B
:1046D0000B48FFF7C8FE040010D10A4804F044FA62
:1046E00060B9084906480839FFF7A2FE30B9054904
:1046F00001220839034804F0B1F90446204610BDF0
:10470000748900208873002030B5EFF3108172B6F1
:104710000D4A9468012324B10370002900D162B6C8
:1047200030BD93604FF0E023D3F88051074C254013
:104730001560C3F88041D3F8844154605A17C3F818
:10474000842100220270E8E7B8870020FC06FFBD44
:104750000B498A68002A11D000280FD1EFF310808E
:1047600072B60B684FF0E022C2F800314B68C2F815
:10477000043100228A60002800D162B67047000030
:10478000B88700202DE9F041064608680C46411C18
:104790004FF0A0474FF0010506D005FA00F1C7F829
:1047A0000815206804F024FB6068411C02D0002139
:1047B00004F015FB3079204901EB4010A169007F1E
:1047C00000283068C0F8241525D0607D227D31682E
:1047D0001043C1F86C05D4E900123068C0F80C151C
:1047E000C0F8142524E0A068411C02D0002104F088
:1047F000F6FAE068411C05D08540C7F80855E06826
:1048000004F0F6FAD4E902123068C0F80825C0F8BE
:104810001015BDE8F081607D217D32680843C2F843
:104820006C05D4E900123068C0F81425C0F80C15E6
:10483000207D0128D7D0ECE74C8600202DE9F047F9
:10484000074600888EB0804600F07AFB0646404658
:1048500002F002FF824604462E4800252A460178CF
:10486000404600F0BFFB002E50D07879400734D589
:1048700001254FF6FF7603AB2A460721504605F087
:104880003FFA010004D0404606F028FE00252BE048
:10489000B1463146049802F033FE064648450FD033
:1048A00004460146404602F0C1FE4046FFF726FDA1
:1048B00030B9404606F0DCFD4046FFF71FFD48B129
:1048C00022460721504605F0B1FA010003D04046C8
:1048D00006F004FE00254E4506D0404605F014FCC7
:1048E00010B1504602F0A4FE02208DF81800ADF879
:1048F0001A807879400701D5012000E002208DF868
:1049000020008DF8215006A801F014FF0EB0BDE87C
:10491000F08700000073002001F0D2BB2DE9FC47B6
:10492000002517880646158090F82D001446894604
:1049300030B13A462146484600F0F6FB050009D161
:10494000B0784FF00C0A18B32088C846001DB84252
:1049500002D95046BDE8FC87684679DF0028F9D1C6
:104960002088032108F8001020881921401C80B2FB
:10497000208008F800102088401C80B2208000EBC6
:104980000801BDF8000007F082FC2188084420805F
:10499000F0780222C8B1218896F9033001F1030CA6
:1049A0004846BC45D5D8425421884FF0010C491CDB
:1049B00089B2218000F801C02188491C89B2218078
:1049C00009F801302088401C20807068B8B1218827
:1049D00090F9003001F1030C4846BC45B9D8425467
:1049E00021880A22491C89B2218042542188491C0D
:1049F00089B2218009F801302088401C208030894C
:104A000050B1CDE900474B460622022106F10800CD
:104A100007F0AAFC05009DD1308A50B1CDE90047CE
:104A20004B460722032106F1100007F09DFC05000C
:104A300090D1308B50B1CDE900474B46152214215F
:104A400006F1180007F090FC050083D1306A30B100
:104A50003B462246494601F057FA0500DBD1706A11
:104A600030B13B462246494603F0E4FA0500D2D174
:104A700096F82C0038B13B4622464946304606F0AF
:104A8000A9FD0500C7D1307838B13B4622464946DA
:104A9000304603F023FB0500BDD128465AE7F0B5A8
:104AA0000C4693B01F210726ADF80010ADF8041096
:104AB000002750B1C17849070DD56A4602A9FFF712
:104AC0002DFF002808D102AD02E00025ADF80070EE
:104AD0006CB1E07810B1304613B0F0BD01AA0AA95C
:104AE0002046FFF71BFF0028F6D10AAA02E00022A9
:104AF000ADF80470BDF80400C3B2BDF80000C1B247
:104B0000284672DFE8E780F82410704770B50D0082
:104B1000044653D0F4B3012020700026E670202212
:104B200005F17801201DFEF7B8FC84F82460D5F863
:104B30009800C4F8CC00D5F89C00C4F8D0004FF61B
:104B4000FF70A4F8C800C4F82560A4F8296084F8B0
:104B50002B6004F130003C210646FEF7C5FC2878A6
:104B600084F83000A87884F83200E87884F83300BC
:104B7000687884F83100D5E90401C4E91001D5E969
:104B80000201C4E90E01D5E90601C4E9120195F854
:104B90002D0000E012E084F85D00686AD8B104F1ED
:104BA000780104F16C0061676065696A09880180B9
:104BB000686A616D80888880002008E00E2070BDE2
:104BC000696A22188968095C82F87810401C616D56
:104BD00089888142F4D8A86AE8B104F1A400C4F835
:104BE000A0000C38A065A96A89888180A86AA16D97
:104BF00000880880002006E0A96A22188968095CFC
:104C000082F8A410401CA16D89888142F4D895F8DF
:104C10002C0084F85C00286A48B104F1C4002065C7
:104C2000296A49884180286A216D0088088068685F
:104C300000B1606305F13C013046BDE87040FFF70C
:104C40002EBF10B50288102A1AD0112A1FD01B2A95
:104C50001CD1007A0C46002818D1E0780521401CB0
:104C6000B0FBF1F201FB1201204600F037F80028FA
:104C70000CD0D4F8D010002908D0BDE81040084767
:104C8000C27B012A02D18088A1F8C80010BD0C4661
:104C9000002184F8D4108088B4F8C8108842F5D177
:104CA00020790028F2D10121DEE710B50C46022858
:104CB00001D0032811D1607800280ED00020607048
:104CC000E178204600F00AF8002806D0D4F8D01089
:104CD000002902D0BDE81040084710BD2DE9FF476C
:104CE000044600780F4638B1E770002003F078FFE3
:104CF000012628B16670D2E0082004B0BDE8F08734
:104D00000025C4F82550A4F8295084F82B50A07928
:104D100010B1E078012806D0E07970B1E078012880
:104D200001D0022809D1D4F8CC1021B184F82C602C
:104D30000820884701E084F82C5004F12601002067
:104D40000A5C0AB1304603E0401C0628F8D3002074
:104D50004FF002084FF0030A4FF00409012F06D06C
:104D6000022F09D0032F0CD0042F12D10DE0A1790E
:104D700011B108B130460DE0E17911B108B14046FA
:104D800008E0207A08B1504604E0607A08B148464D
:104D900000E02846E070D4F8CC1041B1032801D0DF
:104DA000042804D1607910B194F8D400A8B184F833
:104DB000D55000950295019503958DF800508DF81A
:104DC0000850E17804F1250004F13002052958D299
:104DD000DFE801F0670A131F3B0084F8D65084F81F
:104DE000D56007208847E4E7A67001908DF8006041
:104DF000ADF80C50ADF80A5043E084F80280019001
:104E00008DF80060208AADF80C00A089ADF80A008A
:104E100037E0A08AADF80A00208BADF80C0060796D
:104E200080B194F8D40068B994F8D60050B18DF8E8
:104E3000088084F8339000211046FFF730FE00BB55
:104E400005211AE084F802A01BE0A08BADF80A004F
:104E5000208CADF80C00607988B194F8D40070B95A
:104E600094F8D60058B18DF8088084F8339000216A
:104E70001046FFF714FE20B90621A17001E084F866
:104E80000290E07830B194F82410684673DF00286F
:104E90007FF433AFD4F8CC1009B1A0788847002054
:104EA0002BE7A570F6E7000070B5040012D00146AC
:104EB0001C221448FEF7F1FA1248134D05602068D1
:104EC00050B17ADF002806D1206801682960406867
:104ED000686005E00E2070BD0B487BDF0028FAD12A
:104EE00008484FF6FF711438084A20F8041B05499A
:104EF000343901600021FFF7C3FA0028EBD003200A
:104F000070BD0000987F0020AC720020B9C2020082
:104F100002494A6C091D06F05DB90000B47F00200B
:104F200002460248016D001D06F041B9B47F002021
:104F30000249C86C896C084006F071B9B47F002042
:104F400070B50A4E054600242A46301D716C06F0E5
:104F50002EF940B12A46301DF16C06F028F908B14F
:104F6000022400E00124204670BD0000B47F002030
:104F700010B50024204607F0D3F928B1641CE4B230
:104F8000182CF7D3182010BD03480122A240016855
:104F900011430160204610BDB47F002010B50446C7
:104FA00007F0BEF9002803D0024800EB8400806DB2
:104FB00010BD0000B47F002070B505460C460846C1
:104FC00007F0AEF9002809D005482A4600EB840115
:104FD000001D896DBDE8704006F0E9B870BD0000A5
:104FE000B47F002070B5064615460C46084607F00B
:104FF00097F900280AD006482B4600EB8401324678
:10500000BDE87040001D583106F018B970BD0000B1
:10501000B47F002070B540B10C4D297839B10446F9
:1050200005F034FF28B1002070BD0E2070BD0820AF
:1050300070BDE868062807D20549226801EB8001A7
:10504000401C0A60E860EEE7042070BDB4720020E6
:105050006C80002040B1054900220123CA600B701A
:10506000C1E90102104670470E207047B47200205B
:1050700070B504002DD000292BD0204800780028DE
:1050800027D020880D46112815D0302804D032288A
:1050900007D033281ED109E0211D284604F0DCFB8F
:1050A00018E0211D284604F0A3FA13E0211D28462C
:1050B00004F05AFB0EE0A088B5F8CA12884209D164
:1050C000002085F8C70285F8C8024FF6FF70A5F8E2
:1050D000CA0270BD95F8C8020028FAD0208830288E
:1050E000F7D34F28F5D8A088B5F8CA128842F0D176
:1050F0002846BDE8704001F0D3B90000B47200202A
:1051000048B1084A137843B1D26832B190F8C72247
:105110002AB1112070470E2070470820704701F017
:10512000BFB90000B47200207CB5054608880C4663
:105130000930904201D90C207CBD68466DDF002803
:10514000FAD121880820685420881B21401C80B295
:10515000208029542088401C80B220802844DDF81B
:1051600001100160BDF8051081802088801D80B28B
:1051700020809DF80010490800D001212954208882
:10518000401C208000207CBD10B504468088FFF7BD
:10519000D7FE01280DD021881B2901D1227A42B1E6
:1051A000022801D01D2909D12046BDE8104004F095
:1051B000F9B82046BDE8104004F09EB910BD0000CB
:1051C00010B51A4C0188606810290ED011292BD116
:1051D000401E606028D1FFF715F8002824D0216810
:1051E000002921D0BDE810400847D0B90021012294
:1051F000084600F04FFC08B107280FD10722022112
:10520000012000F047FC08B1072807D10422022141
:10521000002000F03FFC20B1072802D0216801B136
:1052200088476068401C606010BD0000A4720020C8
:105230002DE9F04701883B4E40F2F3194FF6FF7518
:1052400010291BD011293ED0122954D0502946D103
:10525000C188F289841D914241D1618902293ED1E0
:105260008688304602F0A6FA050038D004F10C001A
:1052700000F0B6FAA8B3294630464EE0C17B8788D5
:10528000044601292BD1A846284602F093FA0500CE
:1052900017D02F8000202872234843464A460168D1
:1052A000C5F80A104068C5F80E0004F1100105F1B8
:1052B0000A0002F0CDFA6872F08900280FD1294661
:1052C0002AE0042013E0808802F074FA040006D07B
:1052D0006068FFF755F908B106F0DCF82580BDE8F5
:1052E000F087FFE76868FFF74BF90028F7D0BDE8C3
:1052F000F04706F0CFB887880646384602F05AFADB
:105300000400ECD02B464A4606F1080104F10A00DD
:1053100002F09EFA607221463846BDE8F04700F080
:1053200045BE0000987F0020AC7200202DE9F047B8
:105330000446038840480122A4B000F1480A102B1B
:1053400009D0112B56D01A2B72D1217AB2EB111F32
:1053500055D2012354E0D0E911218A430546011DAD
:1053600012A805F037FF442212A901A8FEF795F80C
:10537000DFF8C4900026374609F144090DF104080E
:105380000AE000BF08EB46001D2283884946281D1D
:10539000009705F0D1FE761C0198B042F2D8686CF7
:1053A000A688C04305F0EAFEA0F57F41FF3917D07B
:1053B00005EB40000123868032465146281D05F04A
:1053C0003DFF012332464946281D05F037FFE07BAB
:1053D00002280DD000231849A2884C31281D22E054
:1053E00024B0E521BDE8F04714A20420FEF7E2BF97
:1053F0000123F0E70023A2885146001D13E000239B
:105400000D490546A2885031001D05F017FF207A8E
:105410000221B1EB101F01D2012300E00023064955
:10542000A2885431281D24B0BDE8F04705F006BF1E
:1054300024B0BDE8F0870000B47F00202E2E5C2E43
:105440002E5C2E2E5C2E2E5C2E2E5C2E2E5C2E2E96
:105450005C636F6D706F6E656E74735C626C655CBF
:10546000636F6D6D6F6E5C626C655F636F6E6E5FB8
:1054700073746174652E630010B5044607480078A4
:1054800000280AD0204601F0C1FF204606F0E8F8C7
:105490002046BDE8104001F0C9BC10BDF0720020EC
:1054A00070B5054608780C4668B1012827D1688890
:1054B000FEF752FB002822D0227B6888A168BDE855
:1054C000704003F079BE618804F10E02284600F0B6
:1054D00021F820B10AA240F20E61FEF76BFF2846C8
:1054E00000F0E2F820B106A240F21161FEF762FF7F
:1054F000074901204870BDE8704000F037BF70BD1B
:105500002E2E5C2E2E5C2E2E5C6D61696E2E63003D
:10551000F05B002048B141802AB15188C1801188D8
:10552000818091880181002070470E207047000023
:1055300030B5114B0D4604000FCB85B08DE80F0040
:1055400018D0BDB12146684662DF002810D120780E
:105550008DF812000120ADF810004FF6FF7060804A
:105560002868E0600020A080208104A8FFF752FD99
:1055700005B030BD0E20FBE75CCA020010B5024644
:1055800086B008002ED0002A2CD041884FF6FF7339
:10559000994202D09488A14224D11488112C14D0AD
:1055A000392C1FD1818800291CD053898B4219D1F5
:1055B000C168002916D001218DF8001002F11001F8
:1055C0000291917B8DF80C1009E092888A4209D1F2
:1055D000C168002906D002218DF800104380C268FE
:1055E0006946904706B010BD30B585B00C460546FB
:1055F00014216846FDF778FF207804F10E01002899
:1056000030D1A08801282DD1A0792A78904229D1C3
:10561000002217E002EBC20031F81030022B02D05A
:10562000032B0ED105E001EB40000089ADF812001C
:1056300007E001EB40000389ADF80E304089ADF87A
:105640001000521C207A9042E4D8E868002809D063
:105650006088ADF8020000208DF80000EA68694615
:105660002846904705B030BD3EB518B1522A03D93F
:1056700007203EBD0E203EBD4388A3F57F44FF3C7E
:105680000DD0084D38CD8DE8380003890291ADF872
:105690000230ADF80620408869469CDF3EBD0820F8
:1056A0003EBD000078CA02001FB5010019D048882D
:1056B000A0F57F42FF3A16D0C988A1B101228DF82A
:1056C0000C200A4B00228DF80D20D3E90423CDE9EC
:1056D0000023ADF8021003A9029169469CDF04B0D3
:1056E00010BD0E20FBE70820F9E700005CCA0200AD
:1056F00030B5174B0D4604000FCB85B08DE80F0079
:1057000023D015B34FF6FF70A0822868A061002057
:10571000A0752146684662DF002814D120788DF8F4
:1057200012000120ADF81000A21C04A9A0DF00287F
:1057300009D12946204605F006FC002803D1294658
:10574000204606F0BDFB05B030BD0E20FBE7000093
:1057500094CA02007FB5002917D0002815D002880E
:10576000102A0DD0112A0DD0502A0FD0572A0CD153
:105770001A4B1868D3E902238DE80F0089692AE0E3
:10578000808801E04FF6FF7088827FBD01910C4652
:10579000821DC3880989002512308B4202D15189AC
:1057A00002290CD0A1898B42EFD1A1690029ECD04C
:1057B00002905089ADF80C008DF800500AE000F01E
:1057C0000FF818B10120A075022001E0A575032093
:1057D0008DF80000A169684688477FBD84CA020031
:1057E000007800F00100704708B503F011FC20B10B
:1057F0000D4A40F29E41FEF7DDFD00200090694613
:10580000012003F04BFB20B1074A40F2A441FEF710
:10581000D1FD684603F092FB002804D0024A4FF401
:105820009561FEF7C7FD08BDF4410200092919D2B0
:10583000DFE801F005080B0E1811181814001146C6
:1058400009480DE0114609480AE01146084807E0FA
:105850001146084804E01146074801E01146074890
:10586000FDF7BEBE70470000C279002056790020C7
:10587000457A0020B87A00206B7B0020F378002066
:1058800010B58EB004463A208DF8000000218DF846
:1058900001100B208DF8020001208DF803008DF817
:1058A0000410CDF80510ADF8091032208DF80B105A
:1058B0008DF80C000C210DF10100FDF783FF8DF830
:1058C0000D000E226946204605F0ECFD0EB010BD1D
:1058D0000649095C4FF0A040D0F81005C84010F010
:1058E000010000D0012080F00100704784C8020050
:1058F00007490B5C4FF0A041D1F8042501209840E6
:1059000020EA0203C1F808351040C1F80C057047C1
:1059100080C802000249085C012103F084BA00003B
:1059200080C802000249085C002103F07CBA000034
:1059300080C802000649095C4FF0A040D0F8040579
:10594000C84010F0010000D0012080F00100704735
:1059500080C802007CB50024084E25460122305D37
:10596000009500231146019503F003FA641C042CF2
:10597000F4D3BDE87C4000F003B8000080C802000A
:1059800010B500242046FFF7C5FF641C042CF9D392
:1059900010BD10B500242046FFF7C4FF641C042C82
:1059A000F9D310BD10B50246064B4FF0FF30002171
:1059B0005C5C944201D1084610BD491C0429F7D310
:1059C00010BD000084C8020070B50C4E0C004FF0F2
:1059D000000530600BD0012000F05AF808B1022019
:1059E00004E0002000F054F800B10B202070706833
:1059F00010B9FEF707FC0546284670BDA4720020CA
:105A00002DE9F0470D468146FFF7CCFF04460428F8
:105A100036D2DFF874801B481C4EA8F10C0725B362
:105A2000012D0ED0022D2BD104EB440030444578DB
:105A3000002D25D0B968002922D02846BDE8F047BE
:105A4000084704EB4401755C0E44717849B10E4A75
:105A50004FF40041093A8068FEF74EFD08B987F817
:105A60000390B17808F80410E2E78068FEF788FD3B
:105A700004EB4401314418F804008D78A842D7D0D3
:105A8000BDE8F08788C80200A0720020387F00209F
:105A9000FFF71EBF70B50023042810D20D4D00EB98
:105AA0004004012A02D101290CD00022094E00EB4A
:105AB0004000304461B1012906D0022906D00723F5
:105AC000184670BD0E30C2B22A55F9E74270F7E7AA
:105AD0008270F5E7387F002070B506461E48002426
:105AE000C0E90161B00720D50025012211462846F2
:105AF000FFF7D0FF6D1C0446042D02D2002CF4D019
:105B000013E094B940F2666204211448FEF70EFCDB
:105B100004000AD1FEF7F8FB040006D10F48104A32
:105B20000021001FFEF7ACFC0446F00701D0FFF790
:105B300011FF74B909480B4A00210C38FEF7A0FC8C
:105B4000040006D10548084A01210838FEF798FCF0
:105B50000446204670BD00009472002094C80200E4
:105B6000255D020031790200F74202002DE9F05F65
:105B70006A4C054600266078B34618B184F801B037
:105B800001F0BEFE664F4FF47A694FF4C87A4FF0C9
:105B90000108182D62D2DFE805F0AC0C0C31404D45
:105BA00062676B746B74BE7D7D7D7D7DACAFB2B57D
:105BB000BEBE0020FFF7BEFE00284FF0000008D058
:105BC000FFF7A8FE022D02D14FF4E16008E048463D
:105BD00006E0FFF7A7FE022D01D1C82000E05046E5
:105BE000410CC0034FF4FA72801841F10001257096
:105BF00052000023FDF720FC01462AE00020FFF7B9
:105C000099FE00284FF0000004D0FFF783FE4FF408
:105C10004870E5E7FFF786FEDFE70020FFF78AFE22
:105C200000284FF0000002D0FFF774FECFE7FFF727
:105C300079FED4E70020FFF77DFE00284FF000003A
:105C400002D0FFF767FE01E0FFF76CFE257041F61A
:105C50009A1100223868FEF74FFC064646E0002005
:105C6000FFF746FE257008E0002051E025703DE07A
:105C700084F801800120FFF73BFE002240F6CD4171
:105C8000E8E784F801800120FFF732FE00224FF49C
:105C90008041DFE77868FEF773FC0646D5F1110016
:105CA00000D02EB10220FFF735FE84F802B01DE0CF
:105CB000012816D980B2C8214843C117C90341EA57
:105CC0005041C0034FF4FA72801841F100015200B4
:105CD0000023FDF7B1FB014600227868FEF70CFCBB
:105CE00006460220FFF71EFE84F802803046BDE81B
:105CF000F09F01F005FEB9E701F002FEB4E701F004
:105D0000FFFD04E001F0FCFD0020FFF70BFE012089
:105D1000FFF708FEAAE7FFF73CFEA7E79472002012
:105D200088C8020000780221FFF76ABE0144491EBC
:105D300005E002780B7800F8013B01F80129884260
:105D4000F7D3704705494FF0FF32082841F820206B
:105D500002D3084480F8482070470000F4850020F2
:105D6000F0B54FF0FF3512B10023082601E00823FB
:105D70000C260C4C05E000BF54F823707F1C04D0A7
:105D80005B1CB342F8D32846F0BD26185DB286F8F6
:105D9000305044F82310002AF5D1E11881F848006A
:105DA000F1E70000F48500200249084490F9300032
:105DB00070470000F485002008B5024690F8C6023E
:105DC0000B4600EB8001C1EB801002EB400092F823
:105DD000C52242B1521ED2B202EBC20100EB410217
:105DE000518A491C00E0C188ADF800100089ADF867
:105DF00002006946184696DF08BD70B504464FF6A6
:105E0000FF750A462846AC4208D14FF480742146FB
:105E1000104604F067FCA04209D070BDFF2CFCD8EE
:105E20002146104604F051FC08B1204670BD2846BA
:105E300070BD704770B5084C050009D0103421685A
:105E4000002907D008682060496828468847F6E797
:105E50000834F4E770BD0000E08500202DE9F05F14
:105E600026484168F1B3DFF898B00E688146DBF848
:105E7000004087688078E11B21F07F45ED1CB0B9B8
:105E8000DFF880804FF48030C8F84403C8F804037A
:105E90001120FDF76AFE1120FDF772FE4FF0010A96
:105EA000C8F800A02F2002F0F1FA89F802A0B5424C
:105EB00000D23546124BE8193C3320F07F40186081
:105EC000DBF800105A46091B21F07F41001B20F02F
:105ED0007F40C91C81420FD9106818602F2002F042
:105EE000D5FA00E004E0BDE8F05F1120FDF753BEF5
:105EF000BDE8F05F04F0F0BFBDE8F09F3473002010
:105F000004150140001001402DE9F04117880646B4
:105F1000B81D14460D46984202D90C20BDE8F08108
:105F20003188072206290AD34FF4486C4FF6FF73D5
:105F3000614501D9994202D17088062801D21046E4
:105F4000ECE7604501D99842F9D1994203D09842D3
:105F500001D08142F3D80520E85520881221401C49
:105F600080B2208029542088401C80B220804119B2
:105F7000308806F08CF92188084480B220804119CD
:105F8000708806F084F92188084420800020C5E745
:105F900002A240F22111FEF70DBA00002E2E5C2E57
:105FA0002E5C2E2E5C6D61696E2E630038B54A7AC8
:105FB0000F4B62B100220A725969002906D00122F2
:105FC0008DF80020ADF802006846884738BD0A7A8F
:105FD00062B19B684C68024619462046FEF78CFA6F
:105FE0000028F3D0BDE8384005F054BA5B68F1E70B
:105FF000987F0020F0B585B016460F4604461D4632
:1060000014220B496846FDF748FA0A488DF80870D3
:10601000ADF80240ADF80A608DF80C50017800220E
:106020002046FEF7DFFF684600F084FB05B0F0BDB8
:106030001CCA02000073002070B58EB006461C46D4
:106040003A2013468DF8000000208DF8010004F17D
:106050000B028DF8022001228DF803208DF8041028
:10606000CDF80500ADF809008DF80B0040208DF843
:106070000C00224619460DF10D00FDF70EFA04F151
:106080000C00C1B26D46681CFDF79CFB291904F198
:106090000E0248736946304605F004FA0EB070BD32
:1060A0007047000010B50E210348FDF78BFB034934
:1060B000887000BF10BD000063720020F05B0020FC
:1060C0002DE9F0412D4D00260221AF782C4C012FF7
:1060D00000D121702B4B94F800C0A3F18402BCF1D5
:1060E000000F92F880000BD0BCF1010F21D0BCF161
:1060F000020F2DD18FB3288808282FD9AE703BE02E
:10610000002825D06178884210D903EB8100491C12
:106110008078617002EB001111F8021C002917D180
:10612000BDE8F041401EC0B2FFF7AABB01202070BD
:1061300011E000280CD0627890420BD903EB82006A
:106140008078401EC0B204F066FD6078401C60702C
:10615000BDE8F08121706670FAE70DE0401E95F809
:106160003530C0B2EA1C0021FFF766FFAE7095F82B
:106170003510E81CFDF7B8F92670E9E7AE7B002082
:1061800076720020487800204188044A02EB011210
:106190000146A2F11000FFF727BA0000EC750020BD
:1061A0007FB50C4610B1012004B070BD20790026E7
:1061B00038B141F61D5501281BD0022826D00F20EA
:1061C000F2E70220207102960396E068019069468A
:1061D00001A804F0C1FD50B102988188E1800088D7
:1061E0002081BDF80010029804F034FEDCE70A209C
:1061F000DAE70A4B6A460021A01D04F069FD38B1B8
:10620000064918398E61CE610A28CDD12846CBE7E0
:1062100002488188019804F01DFEF5E760730020B4
:106220002DE9F843054690F8C6020F4600EB8001C1
:10623000C1EB801005EB400695F8C542914604EB92
:10624000C40006EB40013279601C0A31904226D12D
:106250006B460022284601F01DFB18B310E0401EDB
:10626000A04201D1002004E004EBC40006EB400092
:106270001C30804602466B46284601F00BFB30B1CD
:10628000002038706946484697DFBDE8F88395F8E6
:10629000C5024146401C641C85F8C502E4B2307951
:1062A000A042DCD8012038700020EEE72DE9F04153
:1062B00000260125144C22E06068226900EBC60725
:1062C000387805FA00F1114217D08A43226102F0B2
:1062D0002BFA02463878E36805FA00F1194002FA11
:1062E00000F3994209D17978012901D0012100E018
:1062F000002151407A6802B19047761CF6B22078AE
:106300008642D9D3BDE8F08120730020024A02EB17
:10631000001000F8061C7047C4770020034A0021D3
:1063200002EB001000F8021C70470000C477002048
:10633000034A012102EB001000F8021C7047000024
:10634000C4770020084A10B502EB00120B2102F8B6
:10635000061C054A4FF6FF73843202EB800424F8D2
:10636000023C02F8201010BDC4770020044991F8C7
:106370008000082802D2401C81F88000704700008D
:10638000C4770020104A02EB001010F8060C0B280E
:1063900019D0092817D2DFE800F005070A0D1610FA
:1063A0001616120009480CE008486C3809E0074846
:1063B000833006E00548F63003E0054801E0034875
:1063C000CF38FDF74DBA7047C4770020C27900205E
:1063D0006B7B00202DE9F047894690F8C612904665
:1063E00001EB8102C2EB811100EB4107384604F05A
:1063F0004DFD06002FD0194CA06806282BD2184D51
:10640000762205EBC0103946A0F80280001DFDF78A
:1064100044F80027B9F1000F04D0A06805EBC010C4
:10642000077004E0A168022005EBC1110870A068A4
:1064300005EBC011401CCE67A060E16888420AD11C
:10644000002604E005EBC610C16F8847761CE068A3
:106450008642F7D3A760BDE8F0870000B472002041
:106460008480002070B50E4690F8C612154601EBE8
:106470008102C2EB8111A0B000EB410004F006FDE7
:10648000040009D07C2205496846FDF706F8ADF8FE
:10649000025068460196A04720B070BDB4C8020003
:1064A00070B50E4604464FF43371FDF71DF81148E0
:1064B0000025A4F8CA62856084F8C9520E4884F8A1
:1064C000C65284F8C5520068206022460121304639
:1064D00094DF0121112806D0002809D184F8C712C1
:1064E00084F8C85203E084F8C71284F8C812002068
:1064F00070BD0000B47200206C8000200E4910B501
:106500000A784C780023A24212D0521CD2B20A70F0
:10651000022A00D10B70084A0B780C3252F8232063
:1065200002608868104420F07F408860012010BD20
:106530000360002010BD00003473002013460A469B
:106540000021FFF757BD00002DE9F843104D0F461D
:1065500080461E4691466946286801F076FE040092
:1065600014D01C21FCF7C0FF01202071C4F8149046
:10657000380BC4F80080C4E902606946286801F05D
:1065800085FE04F019FB0020BDE8F8830420FBE73A
:10659000C8CA020010B503780022072B06D2DFE834
:1065A00003F005040610202930000A7010BD0123F5
:1065B0000B7003898B818388CB81C06888600A74E3
:1065C00010BD02220A7002898A818288CA81C2684B
:1065D0008A60807D062802D00020087410BD01204A
:1065E000FBE703220A70C2888A810289CA81C068D7
:1065F000886010BD04230B70C0888881CA818A60BE
:1066000010BD0520087010BD70B5064D064600246B
:1066100055F8241009B130468847641C042CF7D380
:1066200070BD0000D087002030B50446006885B0FA
:106630000D46806800281CD014216846FCF754FFE2
:106640000195A0680490207910B101280DD104E0D3
:1066500001208DF80000206904E002208DF8000080
:10666000E0680003029060690390206881686846D2
:10667000884705B030BD70B586B015460C0006469B
:1066800019D0112C17D0082C15D014216846FCF70E
:106690002BFFADF80260304600F0DEFFADF80400DD
:1066A0000D2C0AD0862C1CD007208DF800000294F7
:1066B000684600F04DF806B070BD03208DF800006C
:1066C00025B12878C00701D0012000E002208DF814
:1066D000080000208DF80C0041F20110ADF80A000E
:1066E000E6E706208DF80000E2E7000010B504465A
:1066F000408800F0B1FFA080024801682046BDE854
:1067000010400847CC7200202DE9F04107460024D4
:10671000064E074D05E000BF56F82410384688475E
:10672000641CE8788442F7DBBDE8F08194850020A2
:10673000F072002010B50446408800F08DFFA08064
:10674000024801682046BDE810400847F0C9020031
:10675000014909680847000058CA020070B586B0B0
:10676000044614216846FCF7BFFEA0890026A0F568
:106770004040ADF8040020782D4D062835D2DFE8E2
:1067800000F0340303032E4EA08900F0DAF9012152
:1067900030B9E08943F6FE72A0F54040904224D81B
:1067A000A07B8DF808002078032810D05FF000004F
:1067B0008DF80900A0680390606850B109208DF839
:1067C000000060680490684603F078FB0DE001204B
:1067D000EEE708208DF800008DF81010F3E7A0898F
:1067E00000F0AFF908B1E08938B16878002802D02C
:1067F0006E7003F093FC06B070BD606838B10B207A
:106800008DF800006E70AE7003F088FCDBE70A20A4
:106810008DF80000BDF8040003F010FDF2E713202E
:106820008DF800004FF6FF70ADF80400CBE70000D4
:10683000DC72002038B504460E480078A8B1A4F5F3
:106840007F40FF380FD0684604F0F0F878B105219A
:10685000017001210171C480684604F0F5F804F06C
:106860009BF9002038BD042038BD022038BD082027
:1068700038BD0000687300200C4808B5007888B166
:10688000684604F0D3F878B106210170684604F038
:10689000DBF80748017809B10121017304F07CF9A4
:1068A000002008BD022008BD082008BD6873002034
:1068B00094880020F0B589B014216846FCF714FED6
:1068C0002C4C207818B16846FFF79EFE50E0201D42
:1068D000012105AAFCF7AAFCB8BB4FF010204169C2
:1068E0000004026940694B1C01D100FB02F12248FF
:1068F00000220161A1F54051C160204902F067F911
:10690000002820D11F481C238C221D49006801F05B
:1069100089FC03F087F8050014D0022D12D000275F
:106920000126062D12D006A804F080F888B1067062
:106930000C2D18D2DFE805F0170F170F17161716D2
:10694000171113110B2009B0F0BD11E0267067601C
:10695000B9E70820F7E7077105E0032100E002210D
:10696000017100E0067106A804F06EF804F014F955
:106970000020E8E76873002098730020D8CA02005E
:10698000E0870020B0CA020038B5040014D0694680
:1069900004F0E2F9A0B1BDF8000000EB8001094865
:1069A00000EB8100C16849B1A17A39B1C168491EC3
:1069B000C1600020A07238BD052038BD062038BD5A
:1069C0000A2038BD6C8800201FB501A9684604F074
:1069D0007FF904B010BD07B513460A46694600208A
:1069E00004F076F90EBD07B513460A460021684645
:1069F00004F06EF90EBD20B119B1006808600020E6
:106A000070470520704700007CB50D46040019D082
:106A1000C5B1694604F0A0F9B0B1BDF800000B495A
:106A200000EB800001EB8000012101AA0C306668B8
:106A3000FCF723FC2E6060680C3068600120A072B7
:106A400000207CBD05207CBD0A207CBD6C88002018
:106A500018B10323002205F0CDBD052070470223A5
:106A6000002205F0C7BD12B1022305F0C3BD052009
:106A700070470000094908B50A69042A0BD0084A82
:106A8000096942F821000548012110306A46FCF7E7
:106A9000F4FB002008BD0C2008BD00004873002056
:106AA000D087002038B5044609480D46007858B113
:106AB00064B16946284605F097FE002803D1BDF869
:106AC00000102180658038BD022038BD052038BD0A
:106AD0006873002010B504460E48007898B1A4B140
:106AE0002188022913D80C4A01EB810002EB8002B5
:106AF00060885289C31C934209D805F069FE0020C2
:106B00002080608010BD022010BD052010BD042033
:106B100010BD0000687300206C88002082688388A4
:106B20001A4003689A5C0A708168491C816070474A
:106B3000C26883881A4003689954C168491CC160BF
:106B4000704743F6FE71A0F54040884201D801200D
:106B500070470020704710B504460078182802D10D
:106B6000FEF706FA207010BD10B50446007818280C
:106B700002D1FEF7FDF9207010BD000070B513467C
:106B8000002206461546862902D0112902D002E0CD
:106B9000012200E001250D4C73B1A179FEF722FA24
:106BA0002A4661793046FEF71DFA0022A178304668
:106BB000FEF718FA002203E0A178FEF713FA2A463E
:106BC00061783046BDE87040FEF70CBA08730020CB
:106BD000406803F041BF00000EB516A19DF8080003
:106BE00020F00F00401C20F0F00010308DF808005D
:106BF0000C2202A87CDF20B1124A40F20251FDF7BC
:106C0000D9FB0020009001900621ADF80400ADF8FA
:106C100000104FF4C8701821ADF80600ADF802104E
:106C200068467ADF002804D0064A40F20C51FDF78E
:106C3000C1FB0EBD534F4D5055544F4E5F30384140
:106C400000000000F44102007047000070B508B178
:106C5000012070BD194C0025207B08B1257301E08F
:106C600000F0A0F82078082826D2DFE800F02504FC
:106C7000080C10251420BDE8704000F021B8BDE8D4
:106C8000704000F07DB8BDE8704000F05FB8BDE82E
:106C9000704000F03BB86088084900EB800028395C
:106CA00001EB80004068BDE8704002F09BBE65606B
:106CB000BDE8704002F0A4BE0F2070BD9488002093
:106CC0001149F0B48A1C00200346A1F128050C18D4
:106CD000A67A4EB1A37200EB800405EB8404E6684B
:106CE00016B9247C012C0AD0401C80B20228EED3B5
:106CF0000B704B804B60F0BC41F61D50704710800C
:106D0000F0BC00F03DB80000948800200C48418899
:106D100001EB8102A0F1280101EB8201CA6852B1A6
:106D200005210170074802218180016800230122AA
:106D3000054801F025BF042202704968F6E700000B
:106D400094880020707300209873002038B50A4999
:106D5000084803240B684268898803EB8101538843
:106D60000470DB1C00201B0400909B0B034801F007
:106D7000CDFF38BD948800207073002098730020E8
:106D8000074910B54888091D04F036F818B1BDE868
:106D90001040FFF7DBBFBDE81040FFF7B7BF0000B2
:106DA00094880020F0B51F481F4901250678022469
:106DB0008B88A0F12802082E19D2DFE806F004180B
:106DC000181B222F2F170189491C018100214180A6
:106DD00080F80C1001EB810312F8233043B100233B
:106DE0004418491C89B2A3720229F3D30570F0BD7F
:106DF0000123F5E742685288D21C1A448A80047045
:106E0000F0BD46880D6806EB860602EB86025668E2
:106E10000E60556013818C80062100E0072101700F
:106E2000F0BD0000948800207073002030B5018808
:106E30008588224C85B0502924D0522902D054296B
:106E400032D103E0284600F079FF2DE014221C49DE
:106E50006846FCF722FBADF80250284600F0FCFB28
:106E6000ADF8040000F0A6F9002261792846FEF78B
:106E7000B9F8002221792846FEF7B4F86846FFF7F2
:106E800035FC11E0017B01290ED1817A01290BD15A
:106E90000089A0F52451023906D10121284600F0CD
:106EA00081FFA07803F06EFAE07803F06BFA2079A6
:106EB00005B0BDE8304003F065BA0000C4720020A0
:106EC0006CC9020010B50446007800280FD1608814
:106ED00000F034FF608800F015FA002807D004495C
:106EE000608801220979BDE81040FEF77BB810BD2B
:106EF000C472002010B5124C00202070FEF738F844
:106F0000A070FEF735F8E070FEF732F82071FEF75A
:106F10002FF86071A17818290FD0E17818290CD0CA
:106F20002179182909D0182807D00121601C03F005
:106F3000C5FB01202070002010BD032010BD000003
:106F4000C47200202DE9F04192B000F04BF9684680
:106F5000FDF7DEFF00246E460D4D4FF6FF780DE085
:106F600006EB4407B88800F077FB404504D1B888A9
:106F700001222979FEF736F8641CA4B20098A042D9
:106F8000EED8287903F0FEF912B0BDE8F0810000D8
:106F9000C47200207CB5044600781C4D08282FD10F
:106FA000607A38BB207A4FF6FF7601280DD007288B
:106FB00002D0082824D11EE0A08800F08BFAB0424D
:106FC0001ED0012100F0EEFE1AE0A0886A460121E1
:106FD00002F06CFE70B90198007858B1A08800F0FA
:106FE00079FAB0420CD001222979FDF7FBFF28790C
:106FF00003F0C8F904E005480021401C03F099FBA8
:10700000A878BDE87C4003F0BDB90000C472002040
:1070100010B504460A4841782046FDF7CDFF68B117
:107020000848002101EB410200EB82025288A24293
:1070300001D1C8B210BD491C1429F3D3FF2010BDE3
:10704000D6720020848300207047000070B5094D7F
:10705000094E002404EB440005EB80007178408861
:10706000FDF7AAFF20B1641C142CF3D3FF2070BDE0
:10707000E0B270BD84830020D672002070B51C463B
:10708000049D09294CD2DFE801F005131C294B357A
:107090004B4B4C0011462B4800F0A5FE08283FD86A
:1070A00028492A462A3901EB80002146801C44E009
:1070B0001146254800F097FE082831D82249213989
:1070C00009E01146214800F08EFE082828D81F4903
:1070D00000EB4000413901EB40002BE011461C4819
:1070E00000F081FE08281BD8194900EB4000313917
:1070F00008441FE01146174800F075FE08280FD815
:10710000144900EB4000713901EB80002A4621460A
:10711000401CFCF7C2F901E0401CC0B20C28FBD3B4
:1071200070BD11460C4800F05EFE0828F8D80A49E8
:10713000193908442A462146401CBDE87040FCF736
:10714000ACB90000C279002056790020457A0020B1
:10715000B87A00206B7B0020F37800202DE9F04105
:10716000124E07460125BD403068FDF709FA002898
:107170000DD10F4C2069284207D1384601F0D4FACE
:107180000028E06805D0284304E0A8432061BDE85A
:10719000F081A843E060206928432061A16830683D
:1071A000BDE8F0410022FDF7A7B90000A8CA02001F
:1071B000207300201CB5054AD2E90212CDE9001265
:1071C0000022694602F097FD1CBD000084C9020040
:1071D00003484FF6FF718180012101700020704744
:1071E000D072002010B54FF6FF7002F017FD034972
:1071F0008880BDE8104004F085B90000D0720020FE
:107200002DE9FC41804600F027FA002403250127E0
:10721000A0F57F412646FF3908D06A46082102F0D2
:1072200045FD18B90198841D8688056832462B46AD
:1072300021464046A9DF042804D0082804D00B28A2
:1072400008D002E0112000E00020002F00D10B2028
:10725000BDE8FC810027A80701D50125E6E73443F6
:10726000F5D0002426460325E0E72DE9FC418046C1
:1072700000F0F2F90646A0F57F40FF380ED0012558
:107280002A466D1C0027ADB26B460821304602F03D
:1072900037FD040006D0072C25D025E043F202007C
:1072A000BDE8FC81019903230A1D0B604046891D3E
:1072B000AADF040004D00C2C09D0052C09D009E069
:1072C00032460821104602F0B1FD04460CE00127C9
:1072D00000E000240821304602F094FD00B10324B0
:1072E000002FCDD100E00C242046D9E70448808847
:1072F000A0F57F41FF3901D004F004B970470000C8
:10730000D07200200EB502A9019100F0A5F96A46DD
:10731000012102F0CBFC08B100200EBD01980078DD
:107320000EBD00002DE9F04107464FF6FF760A48F2
:10733000ABDF10B10320BDE8F081074C43F2030539
:10734000A41E324661883846A7DFA842F3D1608880
:10735000401C6080F5E70000D2720020428800EBFC
:1073600082020C328A4201D9022070478188A1F53D
:107370007F42FF3A03D0008808B100207047012007
:107380007047884204D20068401C01D00120704739
:10739000002070473EB5027802230C46B3EB520F33
:1073A00017D1B0F80110ADF80010C1788DF80210B7
:1073B0008188ADF8041080798DF8060002AA01A931
:1073C0002046FCF76FFF032202A96846FCF79EF8EF
:1073D00008B100203EBD01203EBD000010B50C46A6
:1073E000FFF716FEFF280CD0074900EB400001EB29
:1073F0008000416821600189A180807AA07100200D
:1074000010BD052010BD00008483002070B50188E8
:1074100092B0102959D1011D34226846FCF73DF87D
:107420009DF804004FF6FF76032134466D46B1EB1C
:10743000500F2AD002F0B0FD9DF8040040080ED095
:1074400001280CD0022820D118E00F99281D1131F5
:10745000FCF773FE18B100BFBDF8344015E00EAA6A
:107460000DA9072002F06CFD0028EED10DE00F9968
:10747000281D491CFFF78EFF0028EDD10EAA0DA98B
:10748000072002F05DFD0028F1D1BDF80000291DA4
:1074900000F072FEB44218D0BDF80000214600F0A2
:1074A000C5F8BDF80000ADF836000020ADF8384052
:1074B000074E8DF834000DAD044600BF56F8241079
:1074C00028468847641C022CF8D312B070BD000017
:1074D00098C90200094A002101EB410332F8233028
:1074E000834205D101EB410002EB800040887047E8
:1074F000491C1429F0D34FF6FF7070478483002095
:107500003EB50C46054602F047FD0BE0BDF8000015
:10751000A04207D02846029900F02EF810B1BDF81D
:1075200000003EBD01AA6946072002F009FD0028BF
:10753000ECD14FF6FF703EBD10B50D4C18200D4A32
:10754000607000204FF6FF7100EB400302EB8303F5
:10755000401C59801428F7D3FDF70AFD60701828E5
:1075600003D001202070002010BD032010BD0000BA
:10757000D6720020848300202DE9F0410C46054698
:1075800000F1110701F111061022491C401CFBF704
:10759000BDFF48B9681C00F0A3F928B1601C00F0D9
:1075A0009FF908B1012400E0002431463846FCF779
:1075B000C4FD3B780222B2EB530F0CD00321B1EB98
:1075C000530F08D03378B2EB530F04D0B1EB530F05
:1075D00001D0012100E00021084201D18C4302D0FA
:1075E0000120BDE8F0810020FBE7018811B94218B5
:1075F00092780AB101207047491C0829F7D300206E
:10760000704710B50C460346FFF7EFFF00280AD07D
:1076100018882188884205D10822A11C981CFBF7F4
:1076200075FF08B1002010BD012010BD02F05ABE48
:1076300070B50446FFF74EFF0546204602F039FBC1
:107640004FF6FF7104468D4203D014B9284602F06C
:1076500049FE204670BD000010B5FFF7D9FCFF2899
:1076600005D0044900EB400031F8200010BD4FF672
:10767000FF7010BD848300203EB5044602F08CFCF0
:107680000EE0019920464631FFF7BBFF28B901996A
:1076900020462A31FFF7B5FF10B1BDF808003EBD06
:1076A0006A4602A9072002F04BFC0028E9D14FF6F8
:1076B000FF703EBD38B504460A4801216A46FBF713
:1076C00067FE68B90848606001F0DEFC05491C23CC
:1076D0008C22087404488C39001F006800F0A2FD59
:1076E000002038BD40890020CCCA02002DE9F041BD
:1076F0002D4F002518B17D600120BDE8F08108798B
:10770000012258B1294E01280CD0274C4FF0020815
:107710000834022821D0032842D128E00A7102F05F
:107720006FF93BE05FF0000000EB800116F82110DC
:10773000022908D0401C80B20228F5D33A707D603F
:1077400041F61D50D9E700EB800006F8205006EB0B
:107750008000406802F046F920E00D71A4F8048032
:10776000002301221248216801F00AFA16E00D7187
:10777000206802F037F90D4923682831498801EB68
:10778000810206EB8201D1F804C0C4F800C04B604E
:10779000A3880B81A4F8048006F822500028ACD0FE
:1077A0007D600E20A9E70000687300206C8800202F
:1077B000987300200146034802888A4200D00020C6
:1077C00070470000847F002070B50E4604460079A3
:1077D00018494FF4A27501EB4010017F2068A1B158
:1077E0004FF4887101F0E1FC4FF49071206801F0D2
:1077F000DCFC4FF49271206801F0D7FC2946206828
:1078000001F0D3FC0C49206809E04FF48E7101F0BF
:10781000BBFC2946206801F0B7FC08492068C0F885
:107820000413206800F0CEFE3146BDE8704000F041
:10783000ADBE00004C860020100302008000020054
:107840000248007A002800D00120704740890020BB
:10785000F0B58488A518944200D82246A41AC2889C
:10786000D6189A4200D81346D21A4B880788BB42D2
:107870000CD34088834209D88888A04206D3A84206
:1078800004D8C888904201D3B04201D90020F0BD8D
:107890000120F0BD10B509892AB1D088491C814268
:1078A00018D1002010BD90F8C62202EB8204C4EB70
:1078B000821200EB420212899142F2D0491C1980D7
:1078C00090F8C61201EB8102C2EB811100EB41007E
:1078D000008902E01980D088401E5880012010BD28
:1078E0000021425C0AB101207047491C1029F8D3DD
:1078F00000207047800701D00020704701207047AA
:107900000A4810B5807860B1002401E0022C06D04E
:107910002046FDF7FFFF641C042CF7D310BD0324A1
:10792000F6E7BDE81040FEF72BB800009472002087
:1079300003480179C90702D00078FEF717B97047EC
:107940009472002006490120086006480168C1F3CE
:1079500000410029FAD104490020887070470000D6
:107960000C00004018040040E085002055210180F3
:1079700017214180002101714171592181711B2121
:10798000C17170472DE9FE4F2A4D984691460F0070
:10799000824601D000260DE0684600F019FC6A46D8
:1079A0000021504602F0F1F82878009E10B99DF8A9
:1079B000090098B14A463146504603F0AFFF0446ED
:1079C000014600225046FFF7D9F8112C1AD008DCE6
:1079D00074B3082C2CD00D2C09D129E00520BDE86A
:1079E000FE8F862C1AD0A4F54050023820D00325F3
:1079F000B8F1000F04D0324621465046FEF73BFE58
:107A00002846ECE73A4629795046FDF7EBFA4A4614
:107A1000E9785046FDF7E6FA0025E9E73A46297984
:107A20005046FDF7DFFA4A46E9785046FDF7DAFAA4
:107A30002546DDE7087300207CB50D4606466A46FC
:107A40000721284602F032F9040005D0052C0FD09A
:107A5000112C1DD003241BE0019C94F84400183421
:107A600010F0010001D0019C34340CB110B106E0DB
:107A700011240DE004F11200FFF7B7FD38B12246E2
:107A800004F11201304685DF04000FD000E00B2422
:107A900000210022304603F0B7FC4CB10022002345
:107AA0002946304603F094FC20467CBD0121F0E7D6
:107AB0000122F4E72DE9FC4716000D4681464FF000
:107AC00002084FF0000710D03078C00720D04FF6E2
:107AD000FF744FF00108A54203D102F0DDF805461E
:107AE0000127A54206D1032417E0002148467EDF86
:107AF00004461BE06B4601220721284602F000F9EC
:107B000004000AD10721284602F0A4F9040004D198
:107B1000314648467EDF04001CD00721284602F08B
:107B200071F918B1052801D0032404E0042C01D018
:107B300084B100E0112400214246484603F064FC71
:107B400054B100223B462946484603F041FC2046FA
:107B5000BDE8FC870121EFE70122F3E72DE9F041C1
:107B6000204F0E46154604463978FDF725FA0028C1
:107B700035D0204601F0E4FF50B32046FFF76CFDFE
:107B800080462046B978FDF717FA08B1012700E0D2
:107B90000227204602F0B8FA0028404602D0FFF73C
:107BA00047FD0DE0A8F57F41FF3909D0072102F01C
:107BB00029F9010004D0052902D0204603F08EFCEB
:107BC0002B46324639462046BDE8F041FEF712BA50
:107BD0002A4631462046BDE8F041FEF7AFBCBDE87D
:107BE000F0810000007300202DE9F04391B0814640
:107BF000FDF7D4F9002820D06846FDF789F9002464
:107C00006E4617E006EB44054946A888FDF7D4F90F
:107C100078B10B4FA888F978FDF7CEF98046A8888F
:107C20003979FDF7C9F90146A88801234246FFF7D3
:107C3000A9FE641C0098A042E4D811B0BDE8F0830E
:107C4000087300202DE9F047394E002780463D4655
:107C5000DFF8E090D6F804A057E003D00446D0F84F
:107C60001C8035E099F8002002EB4201521CD2B290
:107C700089F8002009EBC10199F80230091D9A42E8
:107C800001D189F8005048680A780446012A12D0C8
:107C9000022A02D0032A3BD108E004F073F800B1B5
:107CA0000127257434E00574C06900E0706800287D
:107CB000F9D170602CE0207C50BB88686060C86897
:107CC000A0600869E0604869A061F07800B1656073
:107CD0006268B168184B501A20F07F40984202D277
:107CE000A168084406E0881AA16820F07F4081421C
:107CF00002D9081A206000E0256065600120A560B7
:107D000020742046E56104F01FF8B8F10000A4D10A
:107D100099F8001099F801008142A3D117B9716850
:107D2000514502D00120BDE8F0870020FBE70000AC
:107D300034730020AC860020FFFF7F0030B585B093
:107D40000546002414216846FBF7CEFBA5F57F40CD
:107D5000ADF80250FF3815D02846FFF751FA98B118
:107D60000B2815D0112811D0A0F54051023903D0AD
:107D70000146284603F09EFB09482246C178284662
:107D8000FDF730F905B030BD0E2002E00124F3E725
:107D90000F208DF800006846FEF7A8FCECE7000015
:107DA000C47200200A4602498978FDF71BB9000019
:107DB000C4720020F8B5054600780C460026204223
:107DC0000FD100208DF800006846FCF79DFC287854
:107DD000204202D12043287001269DF80000FCF7C4
:107DE000B7FC3046F8BD2DE9F04104460F460025AA
:107DF0000846FBF7C5FC4FF6FF7100B17CB9084699
:107E0000BDE8F0816019062286783946C6EBC600C7
:107E100020440A30FBF77AFB30B16D1CEDB22078BC
:107E2000A842EFD83846EBE7C6EBC6002044077CF3
:107E3000F8E700008AB003F01BFF1822704968467B
:107E4000FBF72BFB6F4806906F494FF48070CDE92C
:107E50000701099007236D4A06A96846FCF7DCFB79
:107E600020B16B4A40F22571FCF7A4FAFEF71AF92B
:107E700000210320FDF730FE20B1654A40F2E941C0
:107E8000FCF798FA69460020FDF79EFD20B1604A94
:107E900040F2EC41FCF78EFA9DF8000002287DD0FC
:107EA0005FF00005FDF7A0FCFEF796FE59495A4821
:107EB00000F011FA20B1564A40F22151FCF77AFA4B
:107EC0005521554800F0FBF920B1514A40F22451A8
:107ED000FCF770FA1C216846FBF706FB00204FF404
:107EE0002031CDE900014FF47021029103218DF87A
:107EF0000C104FF6FF710590ADF80E1047480121A8
:107F000006908DF810106846FCF7CEFF20B1404A6D
:107F100040F23C51FCF74EFA4148FDF79BF820B186
:107F20003B4A40F26551FCF745FA02F0E9F93A4E56
:107F30003C4800249C3E40F26167009006EB041030
:107F40006946FDF7F5FA18B1314A3946FCF732FABD
:107F5000641CE4B2082CF1D3334800902E486946E3
:107F60001C38FDF7C5FB20B1294A40F2C961FCF776
:107F700021FAFCF763F92D48FBF76AFE2C4800F064
:107F80008BF803F061FE5DB102F0E2FC50B1204AD3
:107F900040F2DA41FCF70EFA04E0FFE7012581E741
:107FA000FCF707F91220FCF791FB1220FCF78EFB7F
:107FB0001220FCF78BFB1220FCF788FB1220FCF749
:107FC00085FBFCF705F90E4C0022243C4FF4803170
:107FD0002068FCF791FA20B10D4A40F23471FCF7A9
:107FE000E9F9002221216068FCF786FA20B1084AED
:107FF0004FF4E761FCF7DEF9FBF7F0FFFCE7000068
:1080000068C80200EC730020EC740020B9BF0200C5
:10801000F4410200496C020088760020915F020062
:1080200089610200A1540200FD920200A7360200FD
:10803000153B020070B5144682880E46054620881E
:10804000111D0144921C994201D8FE2A01D90C202D
:1080500070BD521C32542088FF21401C80B2208009
:1080600031542088401C80B220808119288804F077
:108070000EF92188084480B22080AA8842B1A968FC
:1080800041B13044FBF709FA2088A98808442080D0
:10809000002070BD072070BD014988607047000056
:1080A0008872002030B50B2804D00B4A00211378C9
:1080B0005B1C0CE0FF2030BD02EB81052D79854271
:1080C00003D102EB8100448803E0491CC9B28B4212
:1080D000F2D8204630BD000048780020F8B50E46A2
:1080E000017814460546012901D1687830B120880D
:1080F000821C9A422DD8012902D006E00720F8BD43
:1081000069780144891C994223D8181A801E87B2C5
:10811000ADF800702188B01C084469467DDF002856
:10812000EDD12878022805D1BDF80010B94201D858
:1081300009210AE00821012805D16878B84202D84F
:10814000ADF8000001E0ADF80070BDF80000FE28B9
:1081500001D90C20F8BD2288401CB0542088401C56
:1081600080B2208031542088401C2080BDF800104F
:10817000084420800020F8BD70B505460C004FF083
:10818000FF0020D04FF6FF76B5421CD00E480122EA
:1081900041782846FCF726FF2846FEF739FFFF28DE
:1081A00003D1FEF753FFFF280DD0084B00EB400230
:1081B00003EB82014D8023F8226022684A60A28886
:1081C0000A81A2798A7270BDD67200208483002051
:1081D000034A00219268C0E90021816070470000D5
:1081E0000873002070B54FF6FF750E46A84201D106
:1081F000002000E0401C84B208E02146304602F036
:108200008CFA08B1204670BD641CA4B2FF2CF4D9CE
:10821000284670BD10B5FBF796F808B1002010BDD8
:10822000112010BD10B531B1B2FBF3F403FB1424DF
:108230001CB1092010BD0E2010BD0160002141605D
:1082400081608281C381084610BD70B50C46054629
:10825000FBF72EF8002802D021882868084470BD5A
:1082600010B50A8849888A4203D1FBF763F80120D8
:1082700010BD002010BD70B50C460546FBF73DF85B
:10828000002802D061882868084470BD10B50A88AB
:1082900049888A4203D1FBF727F8012010BD00204E
:1082A00010BD08B56A46FAF7E8FF009808BDC20895
:1082B00000F007030120895C98400840704728B10E
:1082C000A1F117023F2A03D3072070470E20704701
:1082D00041800020704770B5040010D05520216502
:1082E0002080608059202071002504EBC500801D8E
:1082F000FFF73CFB6D1C092DF7D3002070BD0E204D
:1083000070BD00002DE9F04385888FB00C46092D23
:108310007ED20188DFF850910027242962D006DC44
:10832000102909D011290CD0232909D179E03A2943
:108330000DD0552904D12CE00146204601F0E2F988
:1083400082E004EBC500801DFFF710FB7CE02946AE
:1083500004EBC106408936F8062F824200D8104649
:108360007080172800D217207080206D70B170794E
:1083700060B1D9E90020CDE90020ADF80210708885
:10838000ADF80400226D2046694690477771377139
:108390005AE02E46C08804EBC60808F106081728E4
:1083A00000D21720B8F80010814200D80846A8F87B
:1083B000020088F80470B8F800103046ADDF98F875
:1083C000050030BB206D20B3D9E90210CDE90010C3
:1083D000ADF80260B8F80200ADF804002046694626
:1083E000226D1CE0011D34226846FBF756F8BDF8EB
:1083F0000000BDF8042004EBC0014A73226D42B1B5
:10840000D9E90432CDE90D32ADF83600487B01E000
:1084100027E019E08DF83800226D20460DA990471D
:1084200012E00097019730F8041F04EBC1020179B4
:10843000127B8A4200D21146ADF80010ADF802104E
:1084400000880022694690DF04EBC504A07A00286A
:1084500007D0E18828469EDF002802D1A7720120BC
:10846000E0720FB0BDE8F083A0C9020000F18040C7
:108470000068002800D00120704708B500F1804056
:10848000002101600068009008BD000000283ED077
:108490001F49204A096800BF00BF00BF00BF00BFDE
:1084A00000BF00BF00BF91422FD000BF00BF00BF80
:1084B00000BF00BF00BF00BF00BF00BF00BF00BFC4
:1084C00000BF00BF00BF00BF00BF00BF00BF00BFB4
:1084D00000BF00BF00BF00BF00BF00BF00BF00BFA4
:1084E00000BF00BF00BF00BF00BF00BF00BF00BF94
:1084F00000BF00BF00BF00BF00BF00BF00BF00BF84
:1085000000BF00BF00BF00BF00BF0138C3D170472C
:10851000947300200024F40070B50F4C00252078DF
:1085200008B1852516E00021A16061602161E1604C
:108530004FF0E020D0F80001012610F0010F03D128
:108540000721002000F022F800F09EFD08B9034842
:1085500006602670284670BDE085002018050040A2
:1085600008B500208DF800006846FCF7CDF80648F5
:10857000C168491EC160C06808B9FFF7E3F99DF8FA
:108580000000FCF7E5F808BDE08500204907090E6A
:10859000002806DA00F00F0202F1E02282F8141D32
:1085A00003E000F1E02282F8001400F01F02012134
:1085B00091404009800000F1E020C0F88012C0F82E
:1085C00000117047000B40B2704700002DE9F041E8
:1085D0008846054601F042FF234E002828461AD05F
:1085E000FDF7E2FB304490F848008009032802D0F0
:1085F00001280ED007E04FF0A040D0F81005E84069
:1086000010F0010F05D003212846BDE8F04100F02D
:10861000F9BB0221F8E701F02DFF002822D02846FF
:10862000FDF7C2FB04464FF4807000EB84000F4F4F
:1086300081B207EB8400D0F8102542F00102C0F8A7
:108640001025084600F00EFCB8F1000F0AD02846AD
:10865000FDF7AAFB56F82000002803D00120A04017
:10866000C7F80403BDE8F081F485002000600040F5
:108670002DE9FC41DFF8A480044608EB0400002744
:1086800090F930001346C0170E46401C01D0082751
:1086900041E0F27819462046FDF762FB0546401C92
:1086A00038D0B07850B14FF0A04000EB8400D0F843
:1086B000001721F00201C0F8001707E000217378CD
:1086C000204600910A46019100F065FBF078C0B1A8
:1086D0001348317800EB8500D0F81025114B1A4073
:1086E000C0F810254FF4F8524FF4403302EA042248
:1086F00003EA01410A43D0F810150A43C0F81025D7
:1087000009E008EB0500327810F8481F41EA8211B1
:10871000017000E004273846BDE8FC81F4850020A4
:1087200000600040FFE0FCFF4FF0A041D1F81015C1
:10873000C14011F0010000D00120704770B5144D08
:1087400095F8540008B1082070BD0020411E2A1879
:10875000401CC0B282F830102028F8D300242046F4
:10876000FDF7F0FA641CE4B20C2CF8D307210620C4
:10877000FFF70CFF4FF4BE7000F074FB05494FF09B
:108780000040C1F80403012085F85400002070BDAA
:10879000F485002000600040034890F85400002851
:1087A00000D0012070470000F48500200121B1EBCA
:1087B000507F01D101207047002070472DE9F04122
:1087C00005460079164F904607EB40140E46E07EB2
:1087D00010B10820BDE8F081707F20772846FBF7B4
:1087E000D1FF5FEA080060603169216003D0317F0A
:1087F0002846FEF7E9FF287907EB4010007F0028A4
:10880000286801D0082100E00421C0F800150020EC
:10881000E0752076A0750121E176A076DAE7000008
:108820004C8600202DE9F04105460079284E9046FF
:1088300006EB40140F46207F18B10846FFF7B6FF3D
:1088400080B1626800234FF404704FF4017172B17B
:108850002A7906EB4212127F002A2A6805D0C2F854
:10886000080304E01020BDE8F081C2F80813E27D9F
:10887000B2B1227E7AB162685AB12A7906EB42120D
:10888000127F1AB12968C1F8040302E02868C0F811
:1088900004131120E7E72761012384F8188005E01D
:1088A00084F817800020E7606076207628794246B9
:1088B00006EB40103946007F0028284603D0BDE86B
:1088C000F04100F073B8BDE8F04100F01BB80000C3
:1088D0004C86002070B504460079094D05EB401028
:1088E000017F00290AD1807E002807D1204602F0AE
:1088F00087FB2179012005EB4111887670BD0000CE
:108900004C8600202DE9F05F04460079264901EBF2
:108910004015A87E184302D1204602F071FB68681A
:108920000028206806D04FF40171C0F8041300201D
:10893000BDE8F09F4FF4A276314600F025FCB14629
:108940004FF4927A4FF4847B5146206800F017FC74
:1089500006465946206800F012FC804649462068C9
:1089600000F00DFC074648EA07003043ECD056EA19
:10897000070007D12946206802F0CCFAE87D697E1D
:108980008842E1D80020E8750EB10320D0E70FB18E
:108990000F20CDE7A97E01200029216801D00860C1
:1089A000C5E74860C3E700004C8600202DE9F05F72
:1089B000894604464FF488759A469046002600681A
:1089C000294600F0F2FB4FF4A2773946206800F008
:1089D000ECFB2068C0F83495C0F838852068BAF1FF
:1089E000000F14D0D0F8001241F02001C0F800129E
:1089F0002179DFF8648008EB4110406850B12068AD
:108A00004FF40471C0F804133046BDE8F09F012113
:108A10000160EDE7AA46B9464FF4927B51462068C3
:108A200000F0BEFB07464946206800F0B9FB05464A
:108A30005946206800F0B4FB014647EA05000843A8
:108A4000ECD02379002208EB4310C27501B1032654
:108A5000002DD9D00F26D7E74C8600202DE9F0470E
:108A6000054600793F4E904606EB40140F46207FA6
:108A700018B10846FFF79AFE30B1284600F074F8A6
:108A800020B11120BDE8F0871020FBE784F81680A4
:108A9000A7600027A78228794FF0010806EB401451
:108AA0003E46207F0028286825D04FF4907949461B
:108AB00000F07BFB4FF4AC7A5146286800F075FB60
:108AC0002868A17DA268C0F84425C0F84815286828
:108AD000C0F808806068F0B94946286800F060FB7B
