:020000040002F8
:10300000F8600020153402001D3402001F34020055
:1030100021340200233402002534020000000000A5
:103020000000000000000000000000002734020043
:1030300029340200000000002B3402002D3402006D
:10304000B93702002F340200593B02002F3402002E
:103050002F3402002F340200E13502002F34020029
:103060002F3402002F3402002F3402002F340200CC
:103070002F3402002F3402002F3402002F340200BC
:103080002F340200113802002F3402002F340200C6
:10309000353802002F340200393802002F34020084
:1030A0002F3402002F3402002F3402002F3402008C
:1030B0002F3402002F340200000000000000000046
:1030C0002F3402002F3402002F3402002F3402006C
:1030D0002F3402002F3402002F34020000000000C1
:1030E00000000000000000000000000000000000E0
:1030F00000000000000000000000000000000000D0
:1031000000000000000000000000000000000000BF
:1031100000000000000000000000000000000000AF
:10312000000000000000000000000000000000009F
:10313000000000000000000000000000000000008F
:10314000000000000000000000000000000000007F
:10315000000000000000000000000000000000006F
:10316000000000000000000000000000000000005F
:10317000000000000000000000000000000000004F
:10318000000000000000000000000000000000003F
:10319000000000000000000000000000000000002F
:1031A000000000000000000000000000000000001F
:1031B000000000000000000000000000000000000F
:1031C00000000000000000000000000000000000FF
:1031D00000000000000000000000000000000000EF
:1031E00000000000000000000000000000000000DF
:1031F00000000000000000000000000000000000CF
:10320000DFF80CD000F0AEF90048004791740200DE
:10321000F860002030B4044654E8000F0D4644E83E
:103220000053002BF8D1156030BC704730B4044611
:1032300054E8000F40EA010544E80053002BF7D1A1
:10324000156030BC704730B4044654E8000F00EA03
:10325000010544E80053002BF7D1156030BC7047DE
:1032600030B4044654E8000F80EA010544E80053F6
:10327000002BF7D1156030BC704730B4044654E8D9
:10328000000F00EB010544E80053002BF7D1156057
:1032900030BC704730B4044654E8000FA0EB010581
:1032A00044E80053002BF7D1156030BC7047000094
:1032B00030B450E8012F93B2C48923448489A342D7
:1032C00028BF1B1B0489A34202BFBFF32F8F00201E
:1032D00007E0C3EA020340E80134002CE9D14FF0D3
:1032E00001000A6030BC704750E8012FC2EA024278
:1032F00040E801210029F7D1704730B450E8022F8F
:103300001FFAA2F3C488A34202BFBFF32F8F00208D
:103310000DE0C48923448489A34228BF1B1BC2EA51
:10332000034340E80234002CE8D14FF001000A606A
:1033300030BC704750E8022FC2EA224240E8022126
:103340000029F7D17047034653E8022FD988B2EB22
:10335000324F4FF0000017BF92B241EA014142EAFA
:10336000014104E05A68B2EB324F08BF012043E844
:103370000212002AE8D1704730B4044654E8000F26
:103380000D4644E80053002BF8D1156030BC70475F
:1033900030B4044654E8000F40EA010544E8005305
:1033A000002BF7D1156030BC704730B4044654E8A8
:1033B000000F00EA010544E80053002BF7D1156027
:1033C00030BC704730B4044654E8000F80EA010571
:1033D00044E80053002BF7D1156030BC704730B47F
:1033E000044654E8000F00EB010544E80053002BAD
:1033F000F7D1156030BC704730B4044654E8000F74
:10340000A0EB010544E80053002BF7D1156030BC58
:10341000704700000648804706480047FEE7FEE781
:10342000FEE7FEE7FEE7FEE7FEE7FEE7FEE7FEE774
:103430003D380200013202002DE9F05F0546002010
:1034400092469B4688460646814640241BE0284615
:1034500041464746224600F075F853465A46C01A80
:10346000914110D311461846224600F05CF82D1AFF
:1034700067EB01084F4622460120002100F053F877
:1034800017EB00094E41201EA4F10104DFDC484681
:1034900031462A464346BDE8F09F10B5431A934291
:1034A00009D28318881803E010F8011D03F8011DE4
:1034B000521EF9D210BD40EA01039B0703D009E078
:1034C00008C9121F08C0042AFAD203E011F8013B10
:1034D00000F8013B521EF9D210BDD2B201E000F853
:1034E000012B491EFBD270470022F6E710B51346A8
:1034F0000A4604461946FFF7F0FF204610BD421C5D
:1035000010F8011B0029FBD1801A704730B5044622
:103510000020034600E05B1C934203D2E05CCD5CDC
:10352000401BF8D030BD202A04DB203A00FA02F11B
:10353000002070479140C2F1200320FA03F31943A1
:1035400090407047202A04DB203A21FA02F0002143
:10355000704721FA02F3D040C2F1200291400843A3
:1035600019467047064C074D06E0E06840F001033D
:1035700094E8070098471034AC42F6D3FFF744FEB6
:1035800098BF0200B8BF020070B58C1810F8015B3C
:1035900015F0070301D110F8013B2A1106D110F8EC
:1035A000012B03E010F8016B01F8016B5B1EF9D1F0
:1035B0002B0705D40023521E0DD401F8013BFAE776
:1035C00010F8013BCB1A921C03E013F8015B01F8E1
:1035D000015B521EF9D5A142D8D3002070BD000076
:1035E0002DE9F04700268CB0DFF86091B0464FF42B
:1035F0008075012437460696284604F031FF38B11D
:10360000D9F80403204203D0284604F01FFF2643C4
:103610002D1D64007F1CADB2082FEDD34FF4BE7496
:10362000204604F01DFF48B1204604F00FFF46F08D
:10363000004606AA0121002004F0F4FE444D16F0D5
:10364000FF0F15D00127002437420DD009EB84016C
:10365000D1F81005D1F81015C0F3042055F8242036
:10366000C1F3014102B190477F00641C082CEBD3E9
:10367000002E67DA4FF0FF30CDE90880002634468F
:10368000281910F8507F90F9000027F0C008401C5E
:1036900044D009A9404604F0E6F858B34FEA971918
:1036A000404602F05FF855F820701FB1B9F1030FE2
:1036B00003D00FE0B9F1030F30D108A84FEAD802C8
:1036C00008F00703815C4FF0010C0CFA03FC41EA9F
:1036D0000C0181544FF0A04101EB8800D0F80007A5
:1036E00006A9C0F3014A404604F0BDF818B1BAF18A
:1036F000020F03D012E0BAF1030F0FD1B9F1030F9B
:1037000008D1BAF1020F1BD00221404604F06EFE30
:10371000761CF6B217B149464046B847641C042CE3
:10372000AED3002E0ED06A460121002004F07AFEAE
:1037300006990098884205D00690089809909DE760
:103740000321E2E70CB0BDE8F08700000060004014
:10375000643D002000F01F020121914040098000DB
:1037600000F1E020C0F88012704700F01F02012134
:1037700091404009800000F1E020C0F8001170473E
:1037800000F01F02012191404009800000F1E0207B
:10379000C0F8001270474907090E002806DA00F049
:1037A0000F0000F1E02080F8141D704700F1E020C8
:1037B00080F80014704700002DE9F0414FF4807745
:1037C000384604F023F90124104EA50748B13846C5
:1037D00004F023F90120C5F808037470002002F0FA
:1037E00007F84FF48277384604F010F900280BD020
:1037F000384604F012F90220C5F80803B470BDE899
:10380000F041012001F0F4BFBDE8F081503D0020FF
:1038100007480021C0F84011C0F84411C0F8481111
:10382000C0F84C11C0F80011C0F8041107F0C4BC76
:103830000010014007F00EBC04F0FCBEF0B5B54826
:103840000023021D0178101D01254FF08054062928
:103850000BD11678360708D10678C6F30316032E67
:1038600006D0042E04D0052E02D0062907D00EE083
:10387000B4F82463A84FC6F304263E6002E016782D
:10388000360704D10678C6F30316032E02D00629A4
:1038900004D00FE0A24FA14E7E670EE016783607E7
:1038A00008D10678C6F30316032E06D0042E04D0E2
:1038B000052E02D0062907D00EE0D4F84462994FB5
:1038C000C6F342363E6002E01678360704D1067829
:1038D000C6F30316032E02D0062906D011E0924E3D
:1038E000376827F0807737600EE01678360708D102
:1038F0000678C6F30316032E06D0042E04D0052E38
:1039000002D006290AD011E04FF08046C6F80C31EB
:10391000C6F81031834E361F336002E01678360742
:1039200004D10678C6F30316032E02D0062905D06B
:103930000CE07C4F032664373E600AE016783607B9
:1039400004D10678C6F30316032E02D006290DD043
:1039500014E0764F05263E60744E78363560734E1F
:10396000083633603F263F1D3E6002E0167836077A
:1039700004D10678C6F30316052E02D0062957D0C7
:1039800062E06B4E36686B4F3E60694E361D36689E
:103990003F1D3E60664E083636683F1D3E60644EF1
:1039A0000C3636683F1D3E60614E103636683F1D4E
:1039B0003E605F4E143636683F1D3E605C4E1836E2
:1039C00036685C4F20373E60594E1C3636683F1DC6
:1039D0003E60574E203636683F1D3E60544E2436BA
:1039E00036683F1D3E60524E283636683F1D3E60A9
:1039F0004F4E2C3636683F1D3E604D4E3036366891
:103A00004C4F40373E604A4E343636683F1D3E606C
:103A1000474E383636683F1D3E60454E3C36366868
:103A20003F1D3E60424E403636683F1D3E6002E01C
:103A30001678360708D10678C6F30316032E06D08B
:103A4000042E04D0052E02D0062907D019E0D4F8A0
:103A50005812394A01F04F01116002E0117809074C
:103A60000FD10078C0F30310032803D0042801D03D
:103A7000052806D131480168C90702D06FF001015D
:103A80000160D4F83001062808D1D4F834010628A2
:103A900004D12B48016841F48061016022487438E8
:103AA000016841F470010160BFF34F8FBFF36F8F66
:103AB0004FF01021D1F80002002803DBD1F80402F6
:103AC000002822DA1F4A15601F480468002CFCD029
:103AD0001524C1F800420568002DFCD0C1F804424D
:103AE00001680029FCD0136001680029FCD0BFF3F5
:103AF0004F8F0D48F0380168144A01F4E06111431A
:103B00000160BFF34F8F00BFFDE712491048086006
:103B1000F0BD0000E00F00F0403501400DF0ADBAFF
:103B200000C007403C050040FCED00E0105600409E
:103B30000404001020C50040E40E004000040040D2
:103B40003C17004004E5014000E401400400FA0590
:103B50000090D003043300200448017F044800296A
:103B6000024901D007F00FBD07F07EBCBC3D00202C
:103B70000020004002E008C8121F08C1002AFAD144
:103B800070477047002001E001C1121F002AFBD1DD
:103B9000704700000121202803DA814005480140D8
:103BA00003E0402802DA2038814009B10120704743
:103BB00000207047FC06FFBD082806D228B1012866
:103BC00003D0042801D0012070470020704710B5B1
:103BD00060B159B102780B785208B2EB530F05D19E
:103BE0000622401C491CFFF791FC08B1002010BDC3
:103BF000012010BD800701D00020704701207047D0
:103C0000C3688B4206D811440069491E814201D81D
:103C1000012070470020704770B500230D884C6864
:103C20000DE0E618E15C7678864206D1E018801C4B
:103C3000491E50601180002070BD0B445B1C9D42EA
:103C4000EFD8052070BD000010B5002004F0BCFACC
:103C5000002811D106F0F6FB002001F04DFB0321F6
:103C6000064800F097FD002806D0BDE8104004A2E9
:103C700040F2471100F0FCB810BD00009035002064
:103C80002E2E5C2E2E5C2E2E5C6D61696E2E6300D6
:103C900010B501220221002001F0E6FB08B107283F
:103CA00010D107220221012001F0DEFB08B1072814
:103CB00008D100210A22084601F0D6FB08B10728E6
:103CC00000D1002010BD000000B5A9B0A0216846B9
:103CD000FFF70AFC02208DF8000001218DF8021088
:103CE0000622ADF810008DF803200D4805904FF422
:103CF00096702290B42023900A488DF87C1026906C
:103D00006946094800F05EFC20B1084A4FF4B161F1
:103D100000F0AEF80121044800F051FC29B000BDCC
:103D2000642C00208987020090350020FC75020079
:103D300070B58CB015460E4600236C46C3F10F01DA
:103D4000415CE1545B1C102BF8D30D2104F11000F1
:103D5000FFF7CAFB0020C0F10F02315C2244401C77
:103D600011740328F7D3684643DF0020C0F10F0128
:103D7000214491F820102954401C0328F6D30CB09C
:103D800070BD022001F09EBA0149097900F070BEB1
:103D90007032002070B50024084D05E0686810F806
:103DA000340003F0E3FE641C28788442F6D3044810
:103DB0000068BDE8704000F041B90000903200207A
:103DC00084BE020070B50024064D06E0686801213B
:103DD00010F8340003F0EEFE641C28788442F5D31A
:103DE000002070BD90320020F8B515460C460646FE
:103DF000052A01D20720F8BD03F0C2FF18B903F06D
:103E000091FF0028F7D1104900204E600C70C1E9E5
:103E100002500E4D08610DE006EBC4006968009188
:103E200081788DF801100078094A694603F014FF83
:103E30000028E0D1641EE4B2EED2BDE8F840054AA5
:103E40000021024800F07AB89032002084BE0200BF
:103E500009680200115B0200044B30B41B68DB07E9
:103E600000D000BE30BC00F00FB80000F0ED00E064
:103E70000EB5ADF80010CDE901206A46002144F2EC
:103E80000100FFF7E9FF0EBD08B501238DF80030F2
:103E90009DF80030144B186059609A606FF48041AF
:103EA000401807D001280FD1DA60D86800889861DF
:103EB000D86807E01A611869806858611869008835
:103EC000986118694068D861186858689868D86817
:103ED000186958699869D86972B600BF9DF80000E2
:103EE0000028FBD162B608BDFC3D002010B58268F9
:103EF000C368934203D002F0DFF9002010BD052013
:103F000010BD29B112B1531E134203D009207047CE
:103F10000E2070470160838000218160C1600846E7
:103F2000704710B58268C3689A1A83889A4203D88A
:103F300002F0CCF9002010BD042010BD074B9B7887
:103F400023B12AB120B10068037C1BB1082070475F
:103F50000720704741744261002070471C3E0020DA
:103F600070B506F0CBF9104800240B2104704470A2
:103F70000E4D817014206C602C706C70FFF7EAFBA2
:103F800007211420FFF707FC1420FFF7EEFB084879
:103F9000046007211120FFF7FEFB0548001F0068A1
:103FA000A860002070BD00001C3E0020A43200204C
:103FB000081501402DE9FC47DFF8789099F80230A8
:103FC00073B368B3052902D20720BDE8FC874369B3
:103FD00033B3437C012B25D00027044600258846B7
:103FE00016468DF80050684600F0ECF801A807F07E
:103FF00097FBC8B1012101700F4944600968C0E90D
:104000000218C0E904769DF8040089F801009DF8C3
:10401000000000F0FBF81420FFF7B2FB2846D4E7BD
:104020000820D2E70F46D8E704259DF8000000F0ED
:10403000EDF8F3E71C3E002004150140064989789D
:1040400039B130B1416921B100210174022107F079
:104050008FB80820704700001C3E002070B50B4E42
:1040600001460B48B578FFF741FF04465DB10020DB
:10407000B070711C0122C81D03F0C8FE18B105A262
:10408000D521FFF7F5FE204670BD0000F03200207C
:10409000D44000202E2E5C2E2E5C2E2E5C2E2E5C0C
:1040A0002E2E5C2E2E5C2E2E5C636F6D706F6E65F7
:1040B0006E74735C6C69627261726965735C756160
:1040C00072745C6170705F756172745F6669666F4F
:1040D0002E630000F0B5284E89B01F460D0004463F
:1040E00072603BD0A888296882B22448FFF709FF94
:1040F000002834D1A889A96882B220481030FFF77F
:1041000000FF00282BD120221D496846FFF7C5F982
:1041100060690690207C00B101208DF814008DF8B4
:104120001C70607C00B10E208DF81500E0680290D4
:10413000A068039020680190606800900E48114AC2
:104140006946083003F02EFE002808D1B0702068C0
:10415000401C04D09DF81D0018B106E0072009B0EE
:10416000F0BD0548083003F0A9FE03490122491CAF
:10417000C81D03F04BFEF2E7F0320020D4400020CF
:10418000D4BE0200C9B3020010B501460B48FFF7C8
:10419000C8FE040010D10A4803F0DAFF60B90849EC
:1041A00006480839FFF7A2FE30B90549012208394F
:1041B000034803F047FF0446204610BDE4400020BA
:1041C000F832002030B5EFF3108172B60D4A9468D2
:1041D000012324B10370002900D162B630BD936081
:1041E0004FF0E023D3F88051074C25401560C3F809
:1041F0008041D3F8844154605A17C3F884210022C7
:104200000270E8E7283F0020FC06FFBD0B498A68E2
:10421000002A11D000280FD1EFF3108072B60B687E
:104220004FF0E022C2F800314B68C2F8043100229E
:104230008A60002800D162B670470000283F002045
:104240002DE9F041064608680C46411C4FF0A04796
:104250004FF0010506D005FA00F1C7F808152068EF
:1042600004F0BAF86068411C02D0002104F0ABF8F9
:104270003079204901EB4010A169007F00283068A7
:10428000C0F8241525D0607D227D31681043C1F827
:104290006C05D4E900123068C0F80C15C0F814257C
:1042A00024E0A068411C02D0002104F08CF8E068F2
:1042B000411C05D08540C7F80855E06804F08CF82B
:1042C000D4E902123068C0F80825C0F81015BDE81E
:1042D000F081607D217D32680843C2F86C05D4E925
:1042E00000123068C0F81425C0F80C15207D012894
:1042F000D7D0ECE7BC3D00202DE9F0470746008809
:104300008EB0804600F078FB0646404602F0FAFC8C
:10431000824604462E4800252A460178404600F091
:10432000BDFB002E50D07879400734D501254FF6DB
:10433000FF7603AB2A460721504604F01BFF01001D
:1043400004D0404606F0D4FA00252BE0B1463146B1
:10435000049802F02BFC064648450FD0044601465F
:10436000404602F0B9FC4046FFF70EFD30B940462A
:1043700006F090FA4046FFF707FD48B122460721B4
:10438000504604F08DFF010003D0404606F0B0FA1D
:1043900000254E4506D0404605F0F0F810B15046D5
:1043A00002F09CFC02208DF81800ADF81A80787994
:1043B000400701D5012000E002208DF820008DF893
:1043C000215006A801F084FD0EB0BDE8F087000082
:1043D000703200202DE9FC4700251788064615801D
:1043E00090F82D001446894630B13A462146484699
:1043F00000F0F6FB050009D1B0784FF00C0A18B3B5
:104400002088C846001DB84202D95046BDE8FC8746
:10441000684679DF0028F9D12088032108F80010C8
:1044200020881921401C80B2208008F800102088C4
:10443000401C80B2208000EB0801BDF8000007F0AE
:104440001AF9218808442080F0780222C8B1218816
:1044500096F9033001F1030C4846BC45D5D84254C7
:1044600021884FF0010C491C89B2218000F801C05D
:104470002188491C89B2218009F801302088401C1C
:1044800020807068B8B1218890F9003001F1030CE8
:104490004846BC45B9D8425421880A22491C89B2F1
:1044A000218042542188491C89B2218009F80130B9
:1044B0002088401C2080308950B1CDE900474B4610
:1044C0000622022106F1080007F042F905009DD1FD
:1044D000308A50B1CDE900474B460722032106F14F
:1044E000100007F035F9050090D1308B50B1CDE9BF
:1044F00000474B461522142106F1180007F028F951
:10450000050083D1306A30B13B462246494601F06E
:10451000D9F90500DBD1706A30B13B4622464946E5
:1045200003F086F80500D2D196F82C0038B13B464E
:1045300022464946304606F057FA0500C7D1307882
:1045400038B13B4622464946304603F0A3F8050001
:10455000BDD128465AE7F0B50C4693B01F21072677
:10456000ADF80010ADF80410002750B1C17849072C
:104570000DD56A4602A9FFF72DFF002808D102AD2C
:1045800002E00025ADF800706CB1E07810B1304663
:1045900013B0F0BD01AA0AA92046FFF71BFF0028AF
:1045A000F6D10AAA02E00022ADF80470BDF80400BA
:1045B000C3B2BDF80000C1B2284672DFE8E780F858
:1045C0002410704770B50D00044653D0F4B3012099
:1045D00020700026E670202205F17801201DFEF7EC
:1045E0005CFF84F82460D5F89800C4F8CC00D5F8B6
:1045F0009C00C4F8D0004FF6FF70A4F8C800C4F8BF
:104600002560A4F8296084F82B6004F130003C2177
:104610000646FEF769FF287884F83000A87884F809
:104620003200E87884F83300687884F83100D5E9FE
:104630000401C4E91001D5E90201C4E90E01D5E97C
:104640000601C4E9120195F82D0000E012E084F89B
:104650005D00686AD8B104F1780104F16C0061670B
:104660006065696A09880180686A616D80888880F0
:10467000002008E00E2070BD696A22188968095C74
:1046800082F87810401C616D89888142F4D8A86A4C
:10469000E8B104F1A400C4F8A0000C38A065A96A30
:1046A00089888180A86AA16D00880880002006E0C2
:1046B000A96A22188968095C82F8A410401CA16DBF
:1046C00089888142F4D895F82C0084F85C00286A27
:1046D00048B104F1C4002065296A49884180286AEC
:1046E000216D00880880686800B1606305F13C01B5
:1046F0003046BDE87040FFF72EBF10B50288102A83
:104700001AD0112A1FD01B2A1CD1007A0C4600286F
:1047100018D1E0780521401CB0FBF1F201FB120139
:10472000204600F037F800280CD0D4F8D01000292B
:1047300008D0BDE810400847C27B012A02D180881A
:10474000A1F8C80010BD0C46002184F8D410808860
:10475000B4F8C8108842F5D120790028F2D101219F
:10476000DEE710B50C46022801D0032811D160788D
:1047700000280ED000206070E178204600F00AF892
:10478000002806D0D4F8D010002902D0BDE810408F
:10479000084710BD2DE9FF47044600780F4638B1A1
:1047A000E770002003F010FD012628B16670D2E00A
:1047B000082004B0BDE8F0870025C4F82550A4F80F
:1047C000295084F82B50A07910B1E078012806D048
:1047D000E07970B1E078012801D0022809D1D4F83D
:1047E000CC1021B184F82C600820884701E084F8BF
:1047F0002C5004F1260100200A5C0AB1304603E087
:10480000401C0628F8D300204FF002084FF0030A9E
:104810004FF00409012F06D0022F09D0032F0CD02E
:10482000042F12D10DE0A17911B108B130460DE08D
:10483000E17911B108B1404608E0207A08B150464C
:1048400004E0607A08B1484600E02846E070D4F8F9
:10485000CC1041B1032801D0042804D1607910B1F3
:1048600094F8D400A8B184F8D5500095029501952C
:1048700003958DF800508DF80850E17804F125007B
:1048800004F13002052958D2DFE801F0670A131F4E
:104890003B0084F8D65084F8D56007208847E4E7C9
:1048A000A67001908DF80060ADF80C50ADF80A507C
:1048B00043E084F8028001908DF80060208AADF812
:1048C0000C00A089ADF80A0037E0A08AADF80A0014
:1048D000208BADF80C00607980B194F8D40068B9F1
:1048E00094F8D60050B18DF8088084F833900021F8
:1048F0001046FFF730FE00BB05211AE084F802A045
:104900001BE0A08BADF80A00208CADF80C0060799C
:1049100088B194F8D40070B994F8D60058B18DF8E5
:10492000088084F8339000211046FFF714FE20B968
:104930000621A17001E084F80290E07830B194F88B
:104940002410684673DF00287FF433AFD4F8CC100E
:1049500009B1A078884700202BE7A570F6E7000092
:1049600070B5040012D001461C221448FEF795FDD4
:104970001248134D0560206850B17ADF002806D137
:104980002068016829604068686005E00E2070BDFD
:104990000B487BDF0028FAD108484FF6FF71143826
:1049A000084A20F8041B0549343901600021FFF74B
:1049B000C5FA0028EBD0032070BD000008370020A6
:1049C0001C320020A1B6020002494A6C091D05F004
:1049D00013BE00002437002002460248016D001D6E
:1049E00005F0F7BD243700200249C86C896C0840E7
:1049F00005F027BE2437002070B50A4E0546002476
:104A00002A46301D716C05F0E4FD40B12A46301D88
:104A1000F16C05F0DEFD08B1022400E0012420461F
:104A200070BD00002437002010B50024204606F099
:104A30006BFE28B1641CE4B2182CF7D3182010BD0B
:104A400003480122A240016811430160204610BDC5
:104A50002437002010B5044606F056FE002803D087
:104A6000024800EB8400806D10BD00002437002058
:104A700070B505460C46084606F046FE002809D0EB
:104A800005482A4600EB8401001D896DBDE8704091
:104A900005F09FBD70BD00002437002070B50646AC
:104AA00015460C46084606F02FFE00280AD0064898
:104AB0002B4600EB84013246BDE87040001D5831A2
:104AC00005F0CEBD70BD00002437002070B540B1A8
:104AD0000C4D297839B1044605F0EAFB28B10020D5
:104AE00070BD0E2070BD082070BDE868062807D292
:104AF0000549226801EB8001401C0A60E860EEE78E
:104B0000042070BD24320020DC37002040B105496C
:104B100000220123CA600B70C1E9010210467047F0
:104B20000E2070472432002070B504002DD00029DB
:104B30002BD020480078002827D020880D46112847
:104B400015D0302804D0322807D033281ED109E0F0
:104B5000211D284604F0BAF818E0211D284603F06C
:104B600081FF13E0211D284604F038F80EE0A088EC
:104B7000B5F8CA12884209D1002085F8C70285F825
:104B8000C8024FF6FF70A5F8CA0270BD95F8C802BA
:104B90000028FAD020883028F7D34F28F5D8A088ED
:104BA000B5F8CA128842F0D12846BDE8704001F03D
:104BB00045B800002432002048B1084A137843B1B8
:104BC000D26832B190F8C7222AB1112070470E2066
:104BD00070470820704701F031B8000024320020EF
:104BE0007CB5054608880C460930904201D90C2056
:104BF0007CBD68466DDF0028FAD121880820685402
:104C000020881B21401C80B2208029542088401C11
:104C100080B220802844DDF801100160BDF8051045
:104C200081802088801D80B220809DF80010490876
:104C300000D0012129542088401C208000207CBD08
:104C400070B505468088FFF7D7FE012818D029885F
:104C50001B2901D12A7A9AB1022801D01D2914D129
:104C60000A4E002406EB0411284600F0E3F9641C08
:104C7000E4B2022CF6D32846BDE8704003F0D6BD5E
:104C80002846BDE8704003F071BE70BD303500208D
:104C900010B51A4C0188606810290ED011292BD14B
:104CA000401E606028D1FEF7F3FF002824D0216861
:104CB000002921D0BDE810400847D0B900210122C9
:104CC000084600F0D1FB08B107280FD107220221C6
:104CD000012000F0C9FB08B1072807D104220221F6
:104CE000002000F0C1FB20B1072802D0216801B1EB
:104CF00088476068401C606010BD000014320020CE
:104D00002DE9F04701883B4E40F2F3194FF6FF754D
:104D100010291BD011293ED0122954D0502946D138
:104D2000C188F289841D914241D1618902293ED115
:104D30008688304602F094F8050038D004F10C0063
:104D400000F08AFAA8B3294630464EE0C17B878836
:104D5000044601292BD1A846284602F081F8050017
:104D600017D02F8000202872234843464A46016806
:104D7000C5F80A104068C5F80E0004F1100105F1ED
:104D80000A0002F0BBF86872F08900280FD12946AA
:104D90002AE0042013E0808802F062F8040006D0C4
:104DA0006068FFF74BF908B105F086FD2580BDE886
:104DB000F087FFE76868FFF741F90028F7D0BDE802
:104DC000F04705F079BD87880646384602F048F876
:104DD0000400ECD02B464A4606F1080104F10A0013
:104DE00002F08CF8607221463846BDE8F04700F0CA
:104DF000B9BD0000083700201C3200202DE9F04723
:104E00000446038840480122A4B000F1480A102B50
:104E100009D0112B56D01A2B72D1217AB2EB111F67
:104E200055D2012354E0D0E911218A430546011DE2
:104E300012A805F0E1FB442212A901A8FEF72DFB00
:104E4000DFF8C4900026374609F144090DF1040843
:104E50000AE000BF08EB46001D2283884946281D52
:104E6000009705F07BFB761C0198B042F2D8686C85
:104E7000A688C04305F094FBA0F57F41FF3917D009
:104E800005EB40000123868032465146281D05F07F
:104E9000E7FB012332464946281D05F0E1FBE07B94
:104EA00002280DD000231849A2884C31281D22E089
:104EB00024B0E521BDE8F04714A20420FEF7D8BFD6
:104EC0000123F0E70023A2885146001D13E00023D0
:104ED0000D490546A2885031001D05F0C1FB207A1E
:104EE0000221B1EB101F01D2012300E0002306498B
:104EF000A2885431281D24B0BDE8F04705F0B0BBAE
:104F000024B0BDE8F0870000243700202E2E5C2E50
:104F10002E5C2E2E5C2E2E5C2E2E5C2E2E5C2E2ECB
:104F20005C636F6D706F6E656E74735C626C655CF4
:104F3000636F6D6D6F6E5C626C655F636F6E6E5FED
:104F400073746174652E630010B5044607480078D9
:104F500000280AD0204601F0AFFD204605F088FD6C
:104F60002046BDE8104001F029BB10BD6032002092
:104F700010B50446087838B101281ED002281CD18B
:104F8000BDE8104005F05EBA488801F10E02014606
:104F9000204600F01BF820B108A240F2B451FEF701
:104FA00067FF204600F0BCF8002806D0BDE810409E
:104FB00002A240F2B751FEF75BBF10BD2E2E5C2E51
:104FC0002E5C2E2E5C6D61696E2E630048B14180AF
:104FD0002AB15188C1801188818091880181002087
:104FE00070470E207047000030B5114B0D4604008D
:104FF0000FCB85B08DE80F0018D0BDB121466846B3
:1050000062DF002810D120788DF812000120ADF861
:1050100010004FF6FF7060802868E0600020A080DC
:10502000208104A8FFF752FD05B030BD0E20FBE73C
:1050300038BE020010B5024686B008002ED0002A05
:105040002CD041884FF6FF73994202D09488A14238
:1050500024D11488112C14D0392C1FD18188002917
:105060001CD053898B4219D1C168002916D0012167
:105070008DF8001002F110010291917B8DF80C1057
:1050800009E092888A4209D1C168002906D002212C
:105090008DF800104380C2686946904706B010BD85
:1050A00030B585B00C46054614216846FEF71CFA5B
:1050B000207804F10E01002830D1A08801282DD1DC
:1050C000A0792A78904229D1002217E002EBC20091
:1050D00031F81030022B02D0032B0ED105E001EB8A
:1050E00040000089ADF8120007E001EB40000389A1
:1050F000ADF80E304089ADF81000521C207A904275
:10510000E4D8E868002809D06088ADF802000020E3
:105110008DF80000EA6869462846904705B030BD22
:105120001FB5010019D04888A0F57F42FF3A16D07C
:10513000C988A1B101228DF80C200A4B00228DF8FC
:105140000D20D3E90423CDE90023ADF8021003A913
:10515000029169469CDF04B010BD0E20FBE70820D9
:10516000F9E7000038BE020030B5174B0D460400C9
:105170000FCB85B08DE80F0023D015B34FF6FF702D
:10518000A0822868A0610020A0752146684662DFE1
:10519000002814D120788DF812000120ADF81000FD
:1051A000A21C04A9A0DF002809D12946204605F049
:1051B000DCF8002803D12946204606F047F805B060
:1051C00030BD0E20FBE7000070BE02007FB5002955
:1051D00017D0002815D00288102A0DD0112A0DD022
:1051E000502A0FD0572A0CD11A4B1868D3E9022342
:1051F0008DE80F0089692AE0808801E04FF6FF7092
:1052000088827FBD01910C46821DC38809890025D3
:1052100012308B4202D1518902290CD0A1898B42D4
:10522000EFD1A1690029ECD002905089ADF80C00B3
:105230008DF800500AE000F00FF818B10120A075B9
:10524000022001E0A57503208DF80000A1696846E1
:1052500088477FBD60BE0200007800F00100704703
:1052600008B503F0BDF920B10D4A40F28A41FEF7BE
:10527000FFFD002000906946012003F003F920B1F2
:10528000074A4FF49261FEF7F3FD684603F03DF9DB
:10529000002804D0024A40F29441FEF7E9FD08BD1F
:1052A000FC7502000649095C4FF0A040D0F81005DB
:1052B000C84010F0010000D0012080F001007047CC
:1052C00060BC020007490B5C4FF0A041D1F80425F7
:1052D0000120984020EA0203C1F808351040C1F8C7
:1052E0000C0570475CBC02000249085C012103F018
:1052F0008EB800005CBC02000249085C002103F08B
:1053000086B800005CBC02000649095C4FF0A04072
:10531000D0F80405C84010F0010000D0012080F052
:10532000010070475CBC02007CB50024084E254695
:105330000122305D009500231146019503F00DF820
:10534000641C042CF4D3BDE87C4000F003B80000DA
:105350005CBC020010B500242046FFF7C5FF641CAA
:10536000042CF9D310BD10B500242046FFF7C4FF6C
:10537000641C042CF9D310BD10B50246064B4FF047
:10538000FF3000215C5C944201D1084610BD491CED
:105390000429F7D310BD000060BC020070B50C4EAC
:1053A0000C004FF0000530600BD0012000F05AF8DF
:1053B00008B1022004E0002000F054F800B10B20F6
:1053C0002070706810B9FEF763FC0546284670BD72
:1053D000143200202DE9F0470D468146FFF7CCFF3F
:1053E0000446042836D2DFF874801B481C4EA8F10E
:1053F0000C0725B3012D0ED0022D2BD104EB440058
:1054000030444578002D25D0B968002922D028469F
:10541000BDE8F047084704EB4401755C0E44717821
:1054200049B10E4A4FF40041093A8068FEF7C2FDC7
:1054300008B987F80390B17808F80410E2E78068AB
:10544000FEF7FCFD04EB4401314418F804008D78AC
:10545000A842D7D0BDE8F08764BC0200103200201B
:10546000A8360020FFF71EBF70B50023042810D215
:105470000D4D00EB4004012A02D101290CD000227D
:10548000094E00EB4000304461B1012906D00229E9
:1054900006D00723184670BD0E30C2B22A55F9E770
:1054A0004270F7E78270F5E7A836002070B506462F
:1054B0001E480024C0E90161B00720D50025012263
:1054C00011462846FFF7D0FF6D1C0446042D02D27A
:1054D000002CF4D013E094B940F266620421144821
:1054E000FEF782FC04000AD1FEF76CFC040006D132
:1054F0000F48104A0021001FFEF720FD0446F00768
:1055000001D0FFF711FF74B909480B4A00210C388C
:10551000FEF714FD040006D10548084A01210838A9
:10552000FEF70CFD0446204670BD0000043200204A
:1055300070BC0200F9560200DD6F0200833D0200DC
:105540002DE9F05F6A4C054600266078B34618B135
:1055500084F801B001F02AFD664F4FF47A694FF4E8
:10556000C87A4FF00108182D62D2DFE805F0AC0CC4
:105570000C31404D62676B746B74BE7D7D7D7D7DAB
:10558000ACAFB2B5BEBE0020FFF7BEFE00284FF0A4
:10559000000008D0FFF7A8FE022D02D14FF4E16011
:1055A00008E0484606E0FFF7A7FE022D01D1C8201B
:1055B00000E05046410CC0034FF4FA72801841F1EC
:1055C0000001257052000023FDF736FF01462AE056
:1055D0000020FFF799FE00284FF0000004D0FFF7ED
:1055E00083FE4FF44870E5E7FFF786FEDFE7002013
:1055F000FFF78AFE00284FF0000002D0FFF774FE8C
:10560000CFE7FFF779FED4E70020FFF77DFE002803
:105610004FF0000002D0FFF767FE01E0FFF76CFEDD
:10562000257041F69A1100223868FEF7C3FC064641
:1056300046E00020FFF746FE257008E0002051E01C
:1056400025703DE084F801800120FFF73BFE002239
:1056500040F6CD41E8E784F801800120FFF732FEF3
:1056600000224FF48041DFE77868FEF7E7FC06464A
:10567000D5F1110000D02EB10220FFF735FE84F8DD
:1056800002B01DE0012816D980B2C8214843C117D5
:10569000C90341EA5041C0034FF4FA72801841F146
:1056A000000152000023FDF7C7FE01460022786882
:1056B000FEF780FC06460220FFF71EFE84F80280FB
:1056C0003046BDE8F09F01F071FCB9E701F06EFCD7
:1056D000B4E701F06BFC04E001F068FC0020FFF788
:1056E0000BFE0120FFF708FEAAE7FFF73CFEA7E745
:1056F0000432002064BC020000780221FFF76ABE79
:1057000005494FF0FF32082841F8202002D3084411
:1057100080F8482070470000643D0020F0B54FF04D
:10572000FF3512B10023082601E008230C260C4C9B
:1057300005E000BF54F823707F1C04D05B1CB3420B
:10574000F8D32846F0BD26185DB286F8305044F8EC
:105750002310002AF5D1E11881F84800F1E7000094
:10576000643D00200249084490F930007047000071
:10577000643D002008B5024690F8C6020B4600EBD7
:105780008001C1EB801002EB400092F8C52242B1CB
:10579000521ED2B202EBC20100EB4102518A491CF7
:1057A00000E0C188ADF800100089ADF8020069463C
:1057B000184696DF08BD70B504464FF6FF750A46D9
:1057C0002846AC4208D14FF480742146104604F0BC
:1057D000C3F9A04209D070BDFF2CFCD82146104669
:1057E00004F0ADF908B1204670BD284670BD000038
:1057F00070B5084C050009D010342168002907D085
:1058000008682060496828468847F6E70834F4E7C6
:1058100070BD0000503D00202DE9F05F2648416832
:10582000F1B3DFF898B00E688146DBF80040876876
:105830008078E11B21F07F45ED1CB0B9DFF8808056
:105840004FF48030C8F84403C8F804031120FDF772
:1058500081FF1120FDF789FF4FF0010AC8F800A071
:105860002F2002F0E3F889F802A0B54200D23546B5
:10587000124BE8193C3320F07F401860DBF8001031
:105880005A46091B21F07F41001B20F07F40C91CB4
:1058900081420FD9106818602F2002F0C7F800E08D
:1058A00004E0BDE8F05F1120FDF76ABFBDE8F05FDE
:1058B00004F024BDBDE8F09FA4320020041501408F
:1058C000001001402DE9F04117880646B81D144626
:1058D0000D46984202D90C20BDE8F081318807229C
:1058E00006290AD34FF4486C4FF6FF73614501D97E
:1058F000994202D17088062801D21046ECE7604533
:1059000001D99842F9D1994203D0984201D08142FD
:10591000F3D80520E85520881221401C80B2208051
:1059200029542088401C80B220804119308805F01D
:10593000A2FE2188084480B220804119708805F0B9
:105940009AFE2188084420800020C5E701A2FD219D
:10595000FEF78EBA2E2E5C2E2E5C2E2E5C6D6169AB
:105960006E2E630038B54A7A0F4B62B100220A727C
:105970005969002906D001228DF80020ADF80200F7
:105980006846884738BD0A7A62B19B684C6802460F
:1059900019462046FEF70EFB0028F3D0BDE838403C
:1059A00004F08ABF5B68F1E708370020F0B585B0E6
:1059B00016460F4604461D4614220B496846FDF75D
:1059C0006CFD0A488DF80870ADF80240ADF80A6029
:1059D0008DF80C50017800222046FFF75FF86846EA
:1059E00000F076FA05B0F0BDF8BD0200703200207C
:1059F0004188034A02EB011201461046FFF750BBF3
:105A0000303500207FB50C4610B1012004B070BDC8
:105A10002079002638B141F61D5501281BD00228F7
:105A200026D00F20F2E70220207102960396E0684C
:105A30000190694601A804F0A1FB50B10298818849
:105A4000E18000882081BDF80010029804F014FC69
:105A5000DCE70A20DAE70A4B6A460021A01D04F0C1
:105A600049FB38B1064918398E61CE610A28CDD17B
:105A70002846CBE702488188019804F0FDFBF5E752
:105A8000D03200202DE9F843054690F8C6020F46B3
:105A900000EB8001C1EB801005EB400695F8C54294
:105AA000914604EBC40006EB40013279601C0A31D8
:105AB000904226D16B460022284601F041FA18B3E5
:105AC00010E0401EA04201D1002004E004EBC4001D
:105AD00006EB40001C30804602466B46284601F02B
:105AE0002FFA30B1002038706946484697DFBDE88C
:105AF000F88395F8C5024146401C641C85F8C50230
:105B0000E4B23079A042DCD8012038700020EEE702
:105B10002DE9F04100260125144C22E0606822693D
:105B200000EBC607387805FA00F1114217D08A4316
:105B3000226102F0EDF802463878E36805FA00F1D8
:105B4000194002FA00F3994209D17978012901D06C
:105B5000012100E0002151407A6802B19047761C93
:105B6000F6B220788642D9D3BDE8F0819032002089
:105B70002DE9F047894690F8C612904601EB810264
:105B8000C2EB811100EB4107384604F091FB06009F
:105B90002FD0194CA06806282BD2184D762205EB81
:105BA000C0103946A0F80280001DFDF776FC0027E2
:105BB000B9F1000F04D0A06805EBC010077004E035
:105BC000A168022005EBC1110870A06805EBC011A7
:105BD000401CCE67A060E16888420AD1002604E03C
:105BE00005EBC610C16F8847761CE0688642F7D384
:105BF000A760BDE8F087000024320020F4370020C1
:105C000070B50E4690F8C612154601EB8102C2EB44
:105C10008111A0B000EB410004F04AFB040009D060
:105C20007C2205496846FDF738FCADF8025068460D
:105C30000196A04720B070BD90BC020070B50E4622
:105C400004464FF43371FDF74FFC11480025A4F8CA
:105C5000CA62856084F8C9520E4884F8C65284F836
:105C6000C5520068206022460121304694DF0121A0
:105C7000112806D0002809D184F8C71284F8C85228
:105C800003E084F8C71284F8C812002070BD000039
:105C900024320020DC3700200E4910B50A784C78F9
:105CA0000023A24212D0521CD2B20A70022A00D1A2
:105CB0000B70084A0B780C3252F823200260886877
:105CC000104420F07F408860012010BD0360002058
:105CD00010BD0000A432002013460A460021FFF741
:105CE00065BE00002DE9F843104D0F4680461E4664
:105CF00091466946286801F084FD040014D01C21F7
:105D0000FDF7F2FB01202071C4F81490380BC4F8A1
:105D10000080C4E902606946286801F093FD04F040
:105D200085F90020BDE8F8830420FBE7A4BE02004B
:105D300010B503780022072B06D2DFE803F0050434
:105D40000610202930000A7010BD01230B70038952
:105D50008B818388CB81C06888600A7410BD022261
:105D60000A7002898A818288CA81C2688A60807DBD
:105D7000062802D00020087410BD0120FBE7032292
:105D80000A70C2888A810289CA81C068886010BD91
:105D900004230B70C0888881CA818A6010BD0520E9
:105DA000087010BD70B5064D0646002455F8241045
:105DB00009B130468847641C042CF7D370BD00003D
:105DC000403F002030B50446006885B00D4680682D
:105DD00000281CD014216846FDF786FB0195A068B9
:105DE0000490207910B101280DD104E001208DF834
:105DF0000000206904E002208DF80000E068000344
:105E0000029060690390206881686846884705B001
:105E100030BD70B586B015460C00064619D0112C61
:105E200017D0082C15D014216846FDF75DFBADF89E
:105E30000260304600F066FFADF804000D2C0AD079
:105E4000862C1CD007208DF800000294684600F0D4
:105E50004DF806B070BD03208DF8000025B12878FC
:105E6000C00701D0012000E002208DF808000020CA
:105E70008DF80C0041F20110ADF80A00E6E70620AB
:105E80008DF80000E2E7000010B50446408800F0FD
:105E900039FFA080024801682046BDE8104008474D
:105EA0003C3200202DE9F04107460024064E074D04
:105EB00005E000BF56F8241038468847641CE8788F
:105EC0008442F7DBBDE8F081043D00206032002011
:105ED00010B50446408800F015FFA0800248016814
:105EE0002046BDE810400847CCBD020001490968C2
:105EF0000847000034BE020070B586B00446142185
:105F00006846FDF7F1FAA0890026A0F54040ADF8FB
:105F1000040020782D4D062835D2DFE800F0340348
:105F200003032E4EA08900F0DAF9012130B9E0898F
:105F300043F6FE72A0F54040904224D8A07B8DF835
:105F400008002078032810D05FF000008DF80900C9
:105F5000A0680390606850B109208DF80000606867
:105F60000490684603F0E4F90DE00120EEE7082014
:105F70008DF800008DF81010F3E7A08900F0AFF95C
:105F800008B1E08938B16878002802D06E7003F05B
:105F9000FFFA06B070BD606838B10B208DF80000C4
:105FA0006E70AE7003F0F4FADBE70A208DF80000A3
:105FB000BDF8040003F07CFBF2E713208DF800002D
:105FC0004FF6FF70ADF80400CBE700004C32002024
:105FD00038B504460E480078A8B1A4F57F40FF38D4
:105FE0000FD0684603F05CFF78B1052101700121F4
:105FF0000171C480684603F061FF04F007F80020D7
:1060000038BD042038BD022038BD082038BD00004E
:10601000D83200200C4808B5007888B1684603F0F3
:106020003FFF78B106210170684603F047FF07483B
:10603000017809B10121017303F0E8FF002008BDD8
:10604000022008BD082008BDD832002004400020EE
:10605000F0B589B014216846FDF746FA2C4C20783B
:1060600018B16846FFF79EFE50E0201D012105AAE9
:10607000FDF7DCF8B8BB4FF010204169000402695D
:1060800040694B1C01D100FB02F122480022016152
:10609000A1F54051C160204902F08DF8002820D1BF
:1060A0001F481C238C221D49006801F097FB02F059
:1060B000F3FE050014D0022D12D000270126062D74
:1060C00012D006A803F0ECFE88B106700C2D18D291
:1060D000DFE805F0170F170F171617161711131112
:1060E0000B2009B0F0BD11E026706760B9E7082009
:1060F000F7E7077105E0032100E00221017100E0EC
:10610000067106A803F0DAFE03F080FF0020E8E73E
:10611000D832002008330020B4BE0200503F0020D7
:106120008CBE020038B5040014D0694604F026F88D
:10613000A0B1BDF8000000EB8001094800EB810030
:10614000C16849B1A17A39B1C168491EC160002056
:10615000A07238BD052038BD062038BD0A2038BDE4
:10616000DC3F00201FB501A9684603F0C3FF04B05F
:1061700010BD07B513460A466946002003F0BAFF72
:106180000EBD07B513460A460021684603F0B2FF6C
:106190000EBD20B119B100680860002070470520CD
:1061A000704700007CB50D46040019D0C5B16946A2
:1061B00003F0E4FFB0B1BDF800000B4900EB800034
:1061C00001EB8000012101AA0C306668FDF755F84B
:1061D0002E6060680C3068600120A07200207CBDD9
:1061E00005207CBD0A207CBDDC3F002018B10323C4
:1061F000002205F0F3BB052070470223002205F0C2
:10620000EDBB12B1022305F0E9BB05207047000089
:10621000094908B50A69042A0BD0084A096942F8F5
:1062200021000548012110306A46FDF726F80020BC
:1062300008BD0C2008BD0000B8320020403F0020FF
:1062400038B5044609480D46007858B164B169462E
:10625000284605F0BDFC002803D1BDF800102180C0
:10626000658038BD022038BD052038BDD8320020F9
:1062700010B504460E48007898B1A4B121880229CF
:1062800013D80C4A01EB810002EB8002608852892E
:10629000C31C934209D805F08FFC00202080608049
:1062A00010BD022010BD052010BD042010BD00004F
:1062B000D8320020DC3F0020826883881A400368BF
:1062C0009A5C0A708168491C81607047C268838843
:1062D0001A4003689954C168491CC160704743F66D
:1062E000FE71A0F54040884201D80120704700208F
:1062F000704710B504460078182802D1FEF794FBC9
:10630000207010BD10B504460078182802D1FEF7A1
:106310008BFB207010BD000070B5134600220646AE
:106320001546862902D0112902D002E0012200E0A0
:1063300001250D4C73B1A179FEF7B0FB2A466179B6
:106340003046FEF7ABFB0022A1783046FEF7A6FBF5
:10635000002203E0A178FEF7A1FB2A4661783046CF
:10636000BDE87040FEF79ABB78320020406803F029
:10637000ADBD00000EB516A19DF8080020F00F007D
:10638000401C20F0F00010308DF80800052202A813
:106390007CDF20B1104A40F2EE41FDF769FD00209C
:1063A000009001900621ADF80400ADF800104FF404
:1063B000C8701821ADF80600ADF8021068467ADF03
:1063C000002804D0044A4FF49F61FDF751FD0EBD33
:1063D00052656C6179000000FC75020070B508B16F
:1063E000012070BD194C0025207B08B1257301E008
:1063F00000F0A0F82078082826D2DFE800F0250475
:10640000080C10251420BDE8704000F021B8BDE84C
:10641000704000F07DB8BDE8704000F05FB8BDE8A6
:10642000704000F03BB86088084900EB80002839D4
:1064300001EB80004068BDE8704002F00DBD656072
:10644000BDE8704002F016BD0F2070BD0440002072
:106450001149F0B48A1C00200346A1F128050C184C
:10646000A67A4EB1A37200EB800405EB8404E668C3
:1064700016B9247C012C0AD0401C80B20228EED32D
:106480000B704B804B60F0BC41F61D507047108084
:10649000F0BC00F03DB80000044000200C484188EA
:1064A00001EB8102A0F1280101EB8201CA6852B11F
:1064B0000521017007480221818001680023012223
:1064C000054801F051BE042202704968F6E7000059
:1064D00004400020E03200200833002038B50A498B
:1064E000084803240B684268898803EB81015388BC
:1064F0000470DB1C00201B0400909B0B034801F080
:10650000F9FE38BD04400020E032002008330020AE
:10651000074910B54888091D03F080FE18B1BDE891
:106520001040FFF7DBBFBDE81040FFF7B7BF00002A
:1065300004400020F0B51F481F49012506780224B9
:106540008B88A0F12802082E19D2DFE806F0041883
:10655000181B222F2F170189491C0181002141801E
:1065600080F80C1001EB810312F8233043B10023B3
:106570004418491C89B2A3720229F3D30570F0BDF7
:106580000123F5E742685288D21C1A448A800470BD
:10659000F0BD46880D6806EB860602EB860256685B
:1065A0000E60556013818C80062100E00721017088
:1065B000F0BD000004400020E032002030B501882A
:1065C0008588224C85B0502924D0522902D05429E4
:1065D00032D103E0284600F005FF2DE014221C49CB
:1065E0006846FCF75AFFADF80250284600F08AFBD7
:1065F000ADF8040000F034F9002261792846FEF776
:106600004DFA002221792846FEF748FA6846FFF73E
:106610003BFC11E0017B01290ED1817A01290BD1CC
:106620000089A0F52451023906D10121284600F045
:106630000DFFA07803F0E0F8E07803F0DDF82079B2
:1066400005B0BDE8304003F0D7B800003432002078
:1066500048BD020010B50446007800280FD16088BC
:1066600000F0C0FE608800F0A3F9002807D00449BC
:10667000608801220979BDE81040FEF70FBA10BD0D
:106680003432002010B5124C00202070FEF7CCF9F7
:10669000A070FEF7C9F9E070FEF7C6F92071FEF7A9
:1066A000C3F96071A17818290FD0E17818290CD0AE
:1066B0002179182909D0182807D00121601C03F07E
:1066C00037FA01202070002010BD032010BD00000B
:1066D000343200202DE9F04192B000F0D9F868463C
:1066E000FEF772F900246E460D4D4FF6FF780DE06F
:1066F00006EB4407B88800F005FB404504D1B88894
:1067000001222979FEF7CAF9641CA4B20098A042BC
:10671000EED8287903F070F812B0BDE8F0810000DF
:10672000343200207CB5044600781C4D08282FD157
:10673000607A38BB207A4FF6FF7601280DD0072803
:1067400002D0082824D11EE0A08800F019FAB04237
:106750001ED0012100F07AFE1AE0A0886A460121CD
:1067600002F0DEFC70B90198007858B1A08800F002
:1067700007FAB0420CD001222979FEF78FF9287967
:1067800003F03AF804E005480021401C03F00BFA3E
:10679000A878BDE87C4003F02FB800003432002018
:1067A00010B504460A4841782046FEF761F968B101
:1067B0000848002101EB410200EB82025288A2420C
:1067C00001D1C8B210BD491C1429F3D3FF2010BD5C
:1067D00046320020F43A002070B5094D094E0024DD
:1067E00004EB440005EB800071784088FEF740F927
:1067F00020B1641C142CF3D3FF2070BDE0B270BD37
:10680000F43A0020463200202DE9F041124E0746AE
:106810000125BD403068FDF711FC00280DD10F4C5B
:106820002069284207D1384601F072FA0028E06852
:1068300005D0284304E0A8432061BDE8F081A843C7
:10684000E060206928432061A1683068BDE8F0411C
:106850000022FDF7AFBB000084BE02009032002092
:106860001CB5054AD2E90212CDE9001200226946A0
:1068700002F07BFC1CBD000060BD020003484FF627
:10688000FF7181800121017000207047403200209B
:1068900010B54FF6FF7002F0FBFB03498880BDE89E
:1068A000104004F039B80000403200202DE9FC41CE
:1068B000804600F027FA002403250127A0F57F4138
:1068C0002646FF3908D06A46082102F029FC18B98B
:1068D0000198841D8688056832462B46214640462D
:1068E000A9DF042804D0082804D00B2808D002E02F
:1068F000112000E00020002F00D10B20BDE8FC811A
:106900000027A80701D50125E6E73443F5D0002488
:1069100026460325E0E72DE9FC41804600F0F2F928
:106920000646A0F57F40FF380ED001252A466D1C93
:106930000027ADB26B460821304602F01BFC040074
:1069400006D0072C25D025E043F20200BDE8FC81EB
:10695000019903230A1D0B604046891DAADF04002C
:1069600004D00C2C09D0052C09D009E032460821AE
:10697000104602F095FC04460CE0012700E00024DC
:106980000821304602F078FC00B10324002FCDD15D
:1069900000E00C242046D9E704488088A0F57F4118
:1069A000FF3901D003F0B8BF70470000403200202B
:1069B0000EB502A9019100F0A5F96A46012102F085
:1069C000AFFB08B100200EBD019800780EBD00009D
:1069D0002DE9F04107464FF6FF760A48ABDF10B1CC
:1069E0000320BDE8F081074C43F20305A41E3246A4
:1069F00061883846A7DFA842F3D16088401C6080D8
:106A0000F5E7000042320020428800EB82020C329F
:106A10008A4201D9022070478188A1F57F42FF3A5E
:106A200003D0008808B100207047012070478842D9
:106A300004D20068401C01D001207047002070473C
:106A40003EB5027802230C46B3EB520F17D1B0F8D3
:106A50000110ADF80010C1788DF802108188ADF8F2
:106A6000041080798DF8060002AA01A92046FDF7DE
:106A70005FF9032202A96846FCF748FD08B100202F
:106A80003EBD01203EBD000010B50C46FFF788FE5C
:106A9000FF280CD0074900EB400001EB8000416863
:106AA00021600189A180807AA071002010BD05209D
:106AB00010BD0000F43A002070B5018892B0102992
:106AC00059D1011D34226846FCF7E7FC9DF804000B
:106AD0004FF6FF76032134466D46B1EB500F2AD0B6
:106AE00002F094FC9DF8040040080ED001280CD060
:106AF000022820D118E00F99281D1131FDF767F801
:106B000018B100BFBDF8344015E00EAA0DA907204A
:106B100002F050FC0028EED10DE00F99281D491C11
:106B2000FFF78EFF0028EDD10EAA0DA9072002F075
:106B300041FC0028F1D1BDF80000291D00F0F8FD4E
:106B4000B44218D0BDF80000214600F0C5F8BDF8E9
:106B50000000ADF836000020ADF83840074E8DF843
:106B600034000DAD044600BF56F82410284688476F
:106B7000641C022CF8D312B070BD000074BD02007A
:106B8000094A002101EB410332F82330834205D149
:106B900001EB410002EB800040887047491C14293A
:106BA000F0D34FF6FF707047F43A00203EB50C4624
:106BB000054602F02BFC0BE0BDF80000A04207D018
:106BC0002846029900F02EF810B1BDF800003EBD35
:106BD00001AA6946072002F0EDFB0028ECD14FF630
:106BE000FF703EBD10B50D4C18200D4A607000209E
:106BF0004FF6FF7100EB400302EB8303401C59800A
:106C00001428F7D3FDF710FF6070182803D0012077
:106C10002070002010BD032010BD0000463200206F
:106C2000F43A00202DE9F0410C46054600F1110729
:106C300001F111061022491C401CFCF767FC48B901
:106C4000681C00F0A3F928B1601C00F09FF908B19E
:106C5000012400E0002431463846FCF7B8FF3B78B9
:106C60000222B2EB530F0CD00321B1EB530F08D02B
:106C70003378B2EB530F04D0B1EB530F01D00121A5
:106C800000E00021084201D18C4302D00120BDE880
:106C9000F0810020FBE7018811B9421892780AB10F
:106CA00001207047491C0829F7D30020704710B510
:106CB0000C460346FFF7EFFF00280AD0188821880A
:106CC000884205D10822A11C981CFCF71FFC08B1C2
:106CD000002010BD012010BD02F03EBD70B504467D
:106CE000FFF74EFF0546204602F01DFA4FF6FF71F2
:106CF00004468D4203D014B9284602F02DFD2046EB
:106D000070BD000010B5FFF74BFDFF2805D004490A
:106D100000EB400031F8200010BD4FF6FF7010BDB1
:106D2000F43A00203EB5044602F070FB0EE00199F3
:106D300020464631FFF7BBFF28B9019920462A318A
:106D4000FFF7B5FF10B1BDF808003EBD6A4602A9C5
:106D5000072002F02FFB0028E9D14FF6FF703EBD5F
:106D600038B504460A4801216A46FCF711FB68B9A8
:106D70000848606001F070FC05491C238C220874EF
:106D800004488C39001F006800F028FD002038BD41
:106D9000B0400020A8BE02002DE9F0412D4F002593
:106DA00018B17D600120BDE8F0810879012258B159
:106DB000294E01280CD0274C4FF002080834022835
:106DC00021D0032842D128E00A7102F053F83BE0B9
:106DD0005FF0000000EB800116F82110022908D0B6
:106DE000401C80B20228F5D33A707D6041F61D50F8
:106DF000D9E700EB800006F8205006EB80004068E1
:106E000002F02AF820E00D71A4F80480002301228A
:106E10001248216801F0A8F916E00D71206802F00F
:106E20001BF80D4923682831498801EB810206EBE4
:106E30008201D1F804C0C4F800C04B60A3880B8164
:106E4000A4F8048006F822500028ACD07D600E2003
:106E5000A9E70000D8320020DC3F002008330020E2
:106E60000146034802888A4200D000207047000093
:106E7000F436002070B50E460446007918494FF4E8
:106E8000A27501EB4010017F2068A1B14FF4887119
:106E900001F073FC4FF49071206801F06EFC4FF428
:106EA0009271206801F069FC2946206801F065FCB8
:106EB0000C49206809E04FF48E7101F04DFC294621
:106EC000206801F049FC08492068C0F804132068D4
:106ED00000F048FE3146BDE8704000F027BE0000DB
:106EE000BC3D002010030200800002000248007A2E
:106EF000002800D001207047B0400020F0B5848801
:106F0000A518944200D82246A41AC288D6189A42DC
:106F100000D81346D21A4B880788BB420CD340884E
:106F2000834209D88888A04206D3A84204D8C888DA
:106F3000904201D3B04201D90020F0BD0120F0BD44
:106F400010B509892AB1D088491C814218D1002086
:106F500010BD90F8C62202EB8204C4EB821200EB53
:106F6000420212899142F2D0491C198090F8C6124F
:106F700001EB8102C2EB811100EB4100008902E0CC
:106F80001980D088401E5880012010BD0021425C2D
:106F90000AB101207047491C1029F8D3002070471E
:106FA000800701D000207047012070470A4810B5C3
:106FB000807860B1002401E0022C06D02046FEF764
:106FC00093F9641C042CF7D310BD0324F6E7BDE845
:106FD0001040FEF7BFB900000432002003480179D9
:106FE000C90702D00078FEF7ABBA70470432002020
:106FF00006490120086006480168C1F300410029E4
:10700000FAD1044900208870704700000C0000404D
:1070100018040040503D00201721018041800021CC
:10702000017141711B218171C17170472DE9FE4FC2
:107030002A4D984691460F00824601D000260DE069
:10704000684600F0A1FB6A460021504601F0D7FFD8
:107050002878009E10B99DF8090098B14A4631463B
:10706000504603F063FE0446014600225046FFF7F7
:1070700053F9112C1AD008DC74B3082C2CD00D2C29
:1070800009D129E00520BDE8FE8F862C1AD0A4F591
:107090004050023820D00325B8F1000F04D032460A
:1070A00021465046FEF7B5FE2846ECE73A462979D8
:1070B0005046FDF7F3FC4A46E9785046FDF7EEFCF2
:1070C0000025E9E73A4629795046FDF7E7FC4A46AC
:1070D000E9785046FDF7E2FC2546DDE778320020EE
:1070E0007CB50D4606466A460721284602F018F888
:1070F000040005D0052C0FD0112C1DD003241BE05B
:10710000019C94F84400183410F0010001D0019C57
:1071100034340CB110B106E011240DE004F112007A
:10712000FFF7B9FD38B1224604F11201304685DF80
:1071300004000FD000E00B2400210022304603F0B1
:1071400075FB4CB1002200232946304603F052FB68
:1071500020467CBD0121F0E70122F4E72DE9FC4740
:1071600016000D4681464FF002084FF0000710D080
:107170003078C00720D04FF6FF744FF00108A542C9
:1071800003D101F0C3FF05460127A54206D1032420
:1071900017E0002148467EDF04461BE06B460122D3
:1071A0000721284601F0E6FF04000AD107212846FE
:1071B00002F08AF8040004D1314648467EDF04001C
:1071C0001CD00721284602F057F818B1052801D035
:1071D000032404E0042C01D084B100E01124002138
:1071E0004246484603F022FB54B100223B46294662
:1071F000484603F0FFFA2046BDE8FC870121EFE78F
:107200000122F3E72DE9F041204F0E4615460446D2
:107210003978FDF72DFC002835D0204601F0CAFE54
:1072200050B32046FFF76EFD80462046B978FDF743
:107230001FFC08B1012700E00227204602F09EF95A
:107240000028404602D0FFF749FD0DE0A8F57F4138
:10725000FF3909D0072102F00FF8010004D00529F9
:1072600002D0204603F044FB2B46324639462046E6
:10727000BDE8F041FEF79ABB2A4631462046BDE8FC
:10728000F041FEF729BDBDE8F0810000703200201A
:107290002DE9F04391B08146FDF7DCFB002820D0BA
:1072A0006846FDF791FB00246E4617E006EB4405A7
:1072B0004946A888FDF7DCFB78B10B4FA888F97820
:1072C000FDF7D6FB8046A8883979FDF7D1FB01464A
:1072D000A88801234246FFF7A9FE641C0098A0423B
:1072E000E4D811B0BDE8F083783200202DE9F047F2
:1072F000394E002780463D46DFF8E090D6F804A0DE
:1073000057E003D00446D0F81C8035E099F80020FF
:1073100002EB4201521CD2B289F8002009EBC101F4
:1073200099F80230091D9A4201D189F80050486845
:107330000A780446012A12D0022A02D0032A3BD13D
:1073400008E003F0E5FE00B10127257434E0057480
:10735000C06900E070680028F9D170602CE0207CE2
:1073600050BB88686060C868A0600869E0604869D0
:10737000A061F07800B165606268B168184B501A7E
:1073800020F07F40984202D2A168084406E0881AA3
:10739000A16820F07F40814202D9081A206000E0F5
:1073A000256065600120A56020742046E56103F03A
:1073B00091FEB8F10000A4D199F8001099F80100ED
:1073C0008142A3D117B97168514502D00120BDE8AF
:1073D000F0870020FBE70000A43200201C3E0020C4
:1073E000FFFF7F0030B585B00546002414216846B4
:1073F000FCF77AF8A5F57F40ADF80250FF3815D0BC
:107400002846FFF753FA98B10B2815D0112811D050
:10741000A0F54051023903D00146284603F054FA42
:1074200009482246C1782846FDF738FB05B030BD33
:107430000E2002E00124F3E70F208DF800006846DB
:10744000FEF722FDECE70000343200200A46024934
:107450008978FDF723BB000034320020F8B50546DB
:1074600000780C46002620420FD100208DF8000045
:107470006846FCF7A7FE2878204202D120432870F6
:1074800001269DF80000FCF7C1FE3046F8BD000063
:107490008AB0FCF765FD20B158A240F29E51FCF77E
:1074A000E7FC182259496846FBF7F7FF5848069051
:1074B00058494FF48070CDE9070109900723564AD7
:1074C00006A96846FCF706FE20B14CA240F26161B5
:1074D000FCF7CEFC00210320FDF7E8FF20B147A216
:1074E00040F2D541FCF7C4FC69460020FDF756FF89
:1074F00020B142A24FF49B61FCF7BAFC9DF800005A
:1075000002286AD05FF00005FDF7AAFEFEF732FF01
:107510000021424800F0AFF920B138A240F20151F9
:10752000FCF7A6FC1C216846FBF7DEFF00204FF4A9
:107530002031CDE900014FF47021029103218DF833
:107540000C104FF6FF710590ADF80E103448012174
:1075500006908DF810106846FDF702FA20B127A2B8
:107560004FF4A361FCF784FC2E48FDF7CFFA20B15D
:1075700022A240F23B51FCF77BFC02F0FBF8274EC5
:10758000294800243C3E40F2D557009006EB0410F9
:107590006946FDF729FD18B118A23946FCF768FCC9
:1075A000641CE4B2022CF1D3204800901B486946C9
:1075B0001C38FDF7D9FD20B110A240F20F61FCF795
:1075C00057FCFCF781FB55B102F0FCFB48B10BA264
:1075D00040F2C641FCF74CFC03E0012594E7FCF7C0
:1075E00033FB7B20FCF7D0FD40F2A7543EDF0028A0
:1075F000FCD002A22146FCF73BFCF7E72E2E5C2EC6
:107600002E5C2E2E5C6D61696E2E630044BC020000
:10761000303300203034002045B302006C350020A8
:107620004D590200F1590200714F02008787020094
:1076300070B5144682880E4605462088111D014407
:10764000921C994201D8FE2A01D90C2070BD521C0F
:1076500032542088FF21401C80B220803154208881
:10766000401C80B220808119288804F004F8218809
:10767000084480B22080AA8842B1A96841B1304450
:10768000FBF70BFF2088A98808442080002070BDEC
:10769000072070BDF8B50E4601781446054601294D
:1076A00001D1687830B12088821C9A422DD80129F6
:1076B00002D006E00720F8BD69780144891C994290
:1076C00023D8181A801E87B2ADF800702188B01C2C
:1076D000084469467DDF0028EDD12878022805D1CD
:1076E000BDF80010B94201D809210AE0082101289B
:1076F00005D16878B84202D8ADF8000001E0ADF8D5
:107700000070BDF80000FE2801D90C20F8BD2288C9
:10771000401CB0542088401C80B220803154208806
:10772000401C2080BDF80010084420800020F8BDD7
:1077300070B505460C004FF0FF0020D04FF6FF76E5
:10774000B5421CD00E48012241782846FDF7A6F923
:107750002846FFF725F8FF2803D1FFF73DF8FF285B
:107760000DD0084B00EB400203EB82014D8023F863
:10777000226022684A60A2880A81A2798A7270BD5A
:1077800046320020F43A0020034A00219268C0E902
:1077900000218160704700007832002070B54FF6FC
:1077A000FF750E46A84201D1002000E0401C84B2C3
:1077B00008E02146304602F0EAF908B1204670BDE3
:1077C000641CA4B2FF2CF4D9284670BD10B5FBF799
:1077D000BAFD08B1002010BD112010BD10B531B1A7
:1077E000B2FBF3F403FB14241CB1092010BD0E20DE
:1077F00010BD01600021416081608281C381084623
:1078000010BD70B50C460546FBF752FD002802D0AE
:1078100021882868084470BD10B50A8849888A42C2
:1078200003D1FBF787FD012010BD002010BD70B50E
:107830000C460546FBF761FD002802D061882868E8
:10784000084470BD10B50A8849888A4203D1FBF705
:107850004BFD012010BD002010BD08B56A46FBF7A6
:107860000CFD009808BDC20800F007030120895CE8
:1078700098400840704770B5040010D0172021626E
:10788000208060801B202071002504EBC500801D36
:10789000FFF7C2FB6D1C032DF7D3002070BD0E2037
:1078A00070BD00002DE9F04385888FB00C46032D94
:1078B0007ED20188DFF850910027242962D006DCAF
:1078C000102909D011290CD0232909D179E03A29AE
:1078D0000DD0552904D12CE00146204601F04CF989
:1078E00082E004EBC500801DFFF796FB7CE0294693
:1078F00004EBC106408936F8062F824200D81046B4
:107900007080172800D217207080206A70B17079BB
:1079100060B1D9E90020CDE90020ADF802107088EF
:10792000ADF80400226A20466946904777713771A6
:107930005AE02E46C08804EBC60808F1060817284E
:1079400000D21720B8F80010814200D80846A8F8E5
:10795000020088F80470B8F800103046ADDF98F8DF
:10796000050030BB206A20B3D9E90210CDE9001030
:10797000ADF80260B8F80200ADF804002046694690
:10798000226A1CE0011D34226846FBF786FDBDF823
:107990000000BDF8042004EBC0014A73226A42B122
:1079A000D9E90432CDE90D32ADF83600487B01E06B
:1079B00027E019E08DF83800226A20460DA990478B
:1079C00012E00097019730F8041F04EBC10201791F
:1079D000127B8A4200D21146ADF80010ADF80210B9
:1079E00000880022694690DF04EBC504A07A0028D5
:1079F00007D0E18828469EDF002802D1A772012027
:107A0000E0720FB0BDE8F0837CBD020000F1804061
:107A10000068002800D00120704708B500F18040C0
:107A2000002101600068009008BD000000283ED0E1
:107A30001F49204A096800BF00BF00BF00BF00BF48
:107A400000BF00BF00BF91422FD000BF00BF00BFEA
:107A500000BF00BF00BF00BF00BF00BF00BF00BF2E
:107A600000BF00BF00BF00BF00BF00BF00BF00BF1E
:107A700000BF00BF00BF00BF00BF00BF00BF00BF0E
:107A800000BF00BF00BF00BF00BF00BF00BF00BFFE
:107A900000BF00BF00BF00BF00BF00BF00BF00BFEE
:107AA00000BF00BF00BF00BF00BF0138C3D1704797
:107AB000043300200024F40070B50F4C002520781A
:107AC00008B1852516E00021A16061602161E160B7
:107AD0004FF0E020D0F80001012610F0010F03D193
:107AE0000721002000F022F800F0B6FD08B9034895
:107AF00006602670284670BD503D002018050040E5
:107B000008B500208DF800006846FCF75BFB0648CE
:107B1000C168491EC160C06808B9FFF769FA9DF8DD
:107B20000000FCF773FB08BD503D00204907090E1B
:107B3000002806DA00F00F0202F1E02282F8141D9C
:107B400003E000F1E02282F8001400F01F0201219E
:107B500091404009800000F1E020C0F88012C0F898
:107B600000117047000B40B27047000010B504468A
:107B700001F0AEFE28B12046BDE81040002100F023
:107B800035BC204601F0B0FE00280FD02046FDF79E
:107B9000E9FD074A02EB8001D1F8103523F001031B
:107BA000C1F8103501218140C2F8081310BD000052
:107BB000006000402DE9F0418846054601F088FE4E
:107BC000234E002828461AD0FDF7CCFD304490F80B
:107BD00048008009032802D001280ED007E04FF0AA
:107BE000A040D0F81005E84010F0010F05D00321A7
:107BF0002846BDE8F04100F0F9BB0221F8E701F0AA
:107C000073FE002822D02846FDF7ACFD04464FF451
:107C1000807000EB84000F4F81B207EB8400D0F836
:107C2000102542F00102C0F81025084600F00EFCB5
:107C3000B8F1000F0AD02846FDF794FD56F8200051
:107C4000002803D00120A040C7F80403BDE8F0815C
:107C5000643D0020006000402DE9FC41DFF8A48075
:107C6000044608EB0400002790F930001346C017C3
:107C70000E46401C01D0082741E0F2781946204604
:107C8000FDF74CFD0546401C38D0B07850B14FF0A0
:107C9000A04000EB8400D0F8001721F00201C0F8EA
:107CA000001707E000217378204600910A460191F1
:107CB00000F065FBF078C0B11348317800EB850027
:107CC000D0F81025114B1A40C0F810254FF4F85287
:107CD0004FF4403302EA042203EA01410A43D0F898
:107CE00010150A43C0F8102509E008EB05003278AA
:107CF00010F8481F41EA8211017000E0042738465D
:107D0000BDE8FC81643D002000600040FFE0FCFF16
:107D10004FF0A041D1F81015C14011F0010000D082
:107D20000120704770B5144D95F8540008B1082033
:107D300070BD0020411E2A18401CC0B282F83010CD
:107D40002028F8D300242046FDF7DAFC641CE4B2B6
:107D50000C2CF8D307210620FFF7E8FE4FF4BE7085
:107D600000F074FB05494FF00040C1F80403012006
:107D700085F85400002070BD643D00200060004084
:107D8000034890F85400002800D0012070470000FC
:107D9000643D00200121B1EB507F01D101207047EB
:107DA000002070472DE9F04105460079164F9046B6
:107DB00007EB40140E46E07E10B10820BDE8F081CC
:107DC000707F20772846FCF73BFA5FEA0800606086
:107DD0003169216003D0317F2846FFF74BF82879BD
:107DE00007EB4010007F0028286801D0082100E040
:107DF0000421C0F800150020E0752076A07501214F
:107E0000E176A076DAE70000BC3D00202DE9F041E4
:107E100005460079284E904606EB40140F46207F19
:107E200018B10846FFF7B6FF80B1626800234FF42F
:107E300004704FF4017172B12A7906EB4212127F7D
:107E4000002A2A6805D0C2F8080304E01020BDE823
:107E5000F081C2F80813E27DB2B1227E7AB1626885
:107E60005AB12A7906EB4212127F1AB12968C1F879
:107E7000040302E02868C0F804131120E7E7276133
:107E8000012384F8188005E084F817800020E7605B
:107E9000607620762879424606EB40103946007F0E
:107EA0000028284603D0BDE8F04100F073B8BDE8D3
:107EB000F04100F01BB80000BC3D002070B5044646
:107EC0000079094D05EB4010017F00290AD1807E21
:107ED000002807D1204602F0A5FA2179012005EB00
:107EE0004111887670BD0000BC3D00202DE9F05F97
:107EF00004460079264901EB4015A87E184302D1BB
:107F0000204602F08FFA68680028206806D04FF4F7
:107F10000171C0F804130020BDE8F09F4FF4A27671
:107F2000314600F019FCB1464FF4927A4FF4847B4D
:107F30005146206800F00BFC06465946206800F0C8
:107F400006FC80464946206800F001FC074648EAE6
:107F500007003043ECD056EA070007D129462068D5
:107F600002F0EAF9E87D697E8842E1D80020E875F0
:107F70000EB10320D0E70FB10F20CDE7A97E01207D
:107F80000029216801D00860C5E74860C3E7000008
:107F9000BC3D00202DE9F05F894604464FF488750A
:107FA0009A46904600260068294600F0E6FB4FF40A
:107FB000A2773946206800F0E0FB2068C0F83495CD
:107FC000C0F838852068BAF1000F14D0D0F800123C
:107FD00041F02001C0F800122179DFF8648008EB3D
:107FE0004110406850B120684FF40471C0F8041388
:107FF0003046BDE8F09F01210160EDE7AA46B94691
:108000004FF4927B5146206800F0B2FB0746494688
:10801000206800F0ADFB05465946206800F0A8FB3B
:10802000014647EA05000843ECD02379002208EB1B
:108030004310C27501B10326002DD9D00F26D7E712
:10804000BC3D00202DE9F047054600793F4E9046A3
:1080500006EB40140F46207F18B10846FFF79AFE42
:1080600030B1284600F074F820B11120BDE8F08747
:108070001020FBE784F81680A7600027A7822879E4
:108080004FF0010806EB40143E46207F0028286888
:1080900025D04FF49079494600F06FFB4FF4AC7A4D
:1080A0005146286800F069FB2868A17DA268C0F8E5
:1080B0004425C0F848152868C0F808806068F0B901
:1080C0004946286800F054FB80465146286800F075
:1080D0004FFB58EA0001F3D058BBA7750FE04FF4EF
:1080E0008E7A514600F038FB2868C0F80880214697
:1080F000286803F09BF861684FF4807089B13046BE
:10810000B4E75146286800F022FB10B9A08A484520
:10811000F7D1A08A484505D02146286803F086F8A3
:1081200000E08146A08AA17D8842EAD3A08A484522
:1081300001D10F26D1E75146286800F008FB00283E
:10814000F9D02868C0F80C80C7E70000BC3D0020CB
:108150000079044901EB4010807D002800D0012007
:1081600070470000BC3D00202DE9F0411F46154638
:1081700004000E4616D02068B8B1C5B16068026828
:10818000501E304215D16A432046FBF739FD80B1BD
:1081900020683B462A46D0F810C031462046BDE84C
:1081A000F04160470E20BDE8F0810820FBE7092080
:1081B000F9E71020F7E720B119B101600B6811460B
:1081C00018470E20704700002DE9F04128B10168E2
:1081D00019B1C969BDE8F04108470D4D0D480024AB
:1081E000461B14270DE000BF04EB840005EB800064
:1081F000016829B1C969884710B10120BDE8F08143
:10820000641CB6FBF7F0A042EED80020F6E70000B1
:10821000083300201C330020044801214174007AF7
:1082200008B100207047012070470000B0400020D6
:10823000012801D0032808D10449002201284A74EA
:1082400000D00020087401F095BE7047B0400020B7
:1082500070B5254C0246207A012837D0022841D13A
:1082600022480023022A006802D0032A2ED11BE0F4
:10827000E360017911B1012928D10DE0D0E905654C
:10828000711B4FF48056B14200D3314629448161BD
:108290004569A9420ED019E00169491C0161426992
:1082A000914213D1237217E0E168491CE16008296B
:1082B0000CD9E3602372022A0ED00D21FDF782FD56
:1082C0000B480A49091D0068FFF7A6FA607C28B12F
:1082D000BDE8704000F0C6B90021EFE7BDE870408E
:1082E00001F048BE70BD0000B0400020E832002020
:1082F000A4BE02002DE9F8431D46089F1646884695
:1083000004000DD066B1206860B135B16068406886
:10831000B5FBF0F100FB115030B10920BDE8F88346
:108320000E20FBE70820F9E74046FBF763FC90B11D
:108330003046FBF75FFC70B12A4641462046FBF70A
:108340005FFC40B1009720682B463246C768414623
:108350002046B847E2E71020E0E770B541EA420165
:10836000DDE904564FF0A04441EA830141EA0521CA
:1083700004EB800041EA0641C0F8001770BD70B5FB
:1083800041EA4201DDE904564FF0A04441EA83018D
:1083900041EA052104EB800041EA0641C0F80017DC
:1083A00070BD70B541EA4201DDE904564FF0A044CA
:1083B00041EA830141EA052104EB800041EA0641DC
:1083C000C0F8001770BD1CB500220B460092114684
:1083D0000192FFF7E6FF1CBD1CB5002100910B4682
:1083E000012201911146FFF7DCFF1CBD4FF0A042B6
:1083F00002EB8000D0F8002722F44032C0F80027BA
:10840000D0F8002742EA0141C0F800177047012266
:108410004FF0A043824011B1C3F808257047C3F85C
:108420000C25704718B5084B6C4601441B68009337
:1084300006E000BF54F82030D3F81035401C08C2C5
:108440008142F7D818BD000080BE0200034908B57C
:108450000844002101600068009008BD00600040F1
:1084600002494058012800D00020704700600040B9
:1084700020B1034909680160002070470E20704751
:108480006CBF0200FEB502460C460846FFF7F0FF3F
:10849000002839D100250095032001958DF8002092
:1084A0008DF80200ADF8040002956946202022688C
:1084B00069DF009501268DF8006002208DF801002B
:1084C000019502958DF8026069464020226869DFB7
:1084D0000095019502958DF800606946012022689B
:1084E00069DF4FF4B0600090019502956946A120C4
:1084F000226869DF0095019502958DF80050694664
:10850000A020226869DF0020FEBD60DF7047000008
:1085100030B593B05FF03804ADF8444011A903A81A
:1085200061DF48B1052818D013B00DA2BDE8304076
:1085300040F22111FBF79CBC03AD1949684600F0DD
:10854000DFF806E0D0E9002128469047684600F0B1
:10855000EEF802980028DFD0F4E713B030BD000039
:108560002E2E5C2E2E5C2E2E5C2E2E5C2E2E5C2E45
:108570002E5C2E2E5C636F6D706F6E656E74735C17
:10858000736F66746465766963655C636F6D6D6F48
:108590006E5C6E72665F7364685F626C652E63000A
:1085A00070BF020010B50D4C2078A0B10120A07062
:1085B00001F0A6FF11280CD0022001F0B9FF11DF55
:1085C000002807D12070A07002F08AFC032001F07F
:1085D000AFFF002010BD082010BD000000330020B8
:1085E00038B5114C207808B1082038BD0125A57098
:1085F000002001F085FF112814D0002001F098FF21
:108600000A480B4900680090684610DF0028ECD14A
:108610002570A070607002F0E7FC02F09DFC012064
:1086200001F086FF002038BD0033002004BF0200A7
:10863000593E02000EB50749684600F061F805E0B2
:10864000D0E900108847684600F071F802980028C9
:10865000F6D10EBD20BF020001480078704700002F
:10866000003300200548817819B1007818B1FFF770
:1086700099BF08207047FFF7B3BF00000033002008
:108680001FB5684648DF40B1052816D004B00BA2DC
:10869000BDE810406B21FBF7EBBB184901A800F0C7
:1086A0002FF806E0D0E900210098904701A800F0DB
:1086B0003EF803980028E4D0F4E71FBD2E2E5C2E70
:1086C0002E5C2E2E5C2E2E5C2E2E5C2E2E5C2E2EE4
:1086D0005C636F6D706F6E656E74735C736F6674E0
:1086E0006465766963655C636F6D6D6F6E5C6E72F9
:1086F000665F7364685F736F632E63008CBF0200F4
:10870000016009684160AFF3008010B5D0E9002135
:108710005368994201D1002104E0D1E90034A34219
:1087200002D01946816010BD08314160F0E78168D0
:1087300000290BD0026892680A44826041684B6845
:108740009A4203D108314160FFF7DFBF70474058BC
:10875000002800D00120704708B500224250405840
:10876000009008BDD0F80403084000D001207047F5
:108770004058002800D00120704708B50022425020
:108780004058009008BD704710B530B1032811D192
:10879000BDE810400220FCF7AFBD03210648FBF7FF
:1087A000F9FF002806D0BDE8104004A240F22D4198
:1087B000FBF75EBB10BD0000903500202E2E5C2E16
:1087C0002E5C2E2E5C6D61696E2E630010B586B036
:1087D00000F1180100F108040491C07D01AAC0084D
:1087E000ADF80C0003A90920FBF716FA30B101AA75
:1087F00003A90820FBF710FA002813D10A48FAF75A
:108800007EFE00280ED0BDF8042007480299FAF732
:108810007DFE002806D1044A01231032A2F108018E
:1088200020468CDF06B010BD2CBC020038B5018894
:10883000041D1F296CD00BDC10291BD0112952D02C
:108840001B297CD01D297AD1BDE83840FFF7BEBF77
:10885000212968D03B2974D0562970D180881321F2
:1088600076DF00286BD03BA240F2B531BDE838403E
:10887000FBF7FEBA2088022805D336A240F2023167
:108880000020FBF7F5FA21883648002200EB0110A2
:10889000FCF79CFB20B12FA240F20731FBF7E8FA6E
:1088A0002188B320304A484302EB8000FCF784F96A
:1088B000112805D020B127A240F20D31FBF7D8FADC
:1088C0000120FCF719FDFCF78FF802284FF000009B
:1088D00005D0FCF711FDBDE8384001F0B3BDBDE89F
:1088E0003840FCF701BDFCF77FF850B9FBF752FAAE
:1088F00020B118A24FF45371FBF7BAFA0120FCF72C
:10890000F3FC01F09FFDBDE838400020FCF7F4BC0B
:108910002088211D75DF002811D00EA240F297316A
:10892000A4E70CE0FFE700210091808869468FDF13
:10893000002804D007A24FF46971FBF799FA38BDFB
:10894000FFE78088132176DF0028F8D001A240F2EB
:10895000AD318BE72E2E5C2E2E5C2E2E5C6D616968
:108960006E2E6300303500206C2C002010B50446BC
:10897000008888B0212824D00BDC012835D01028AD
:1089800016D0112862D108B00320BDE81040FCF7D2
:10899000ABBC3B2820D0512834D0562856D1A088D3
:1089A000132176DF002851D02AA24FF47C7124E0F5
:1089B0000220FCF799FC08B00320BDE81040FCF74A
:1089C0009BBC00200090A08869468FDF00283DD026
:1089D00020A240F2DF3137E0A088132176DF0028A3
:1089E00034D01CA24FF47A7107E0A088002166DF22
:1089F00000282BD017A240F2F53108B0BDE8104096
:108A0000FBF736BA1022A11D04A8FAF746FD9DF81F
:108A1000101000291AD09DF81800042803D0062849
:108A200001D0052812D1022912D001208DF80000B2
:108A30004FF4C170ADF80400A0886946A8DF002893
:108A400004D004A24FF48261FBF712FA08B010BD03
:108A50000220EBE72E2E5C2E2E5C2E2E5C6D6169C3
:108A60006E2E63002DE9F84F05460C460888B5F8D0
:108A7000CA12884259D195F8C602DFF8F8A000EB77
:108A80008001C1EB801005EB400160884FF00309C5
:108A90004FF00008F0BBE6880879A21DF3B250FA47
:108AA00086F6062E01D8034400E006230B7100264B
:108AB0001CE000BF00EBC00306EB860702EB470794
:108AC00001EB4303D7F802C0C3F80AC0D7F806C0C9
:108AD000C3F80EC07F895F82A3F81480A3F81680C4
