:020000040002F8
:10300000C8AC00204D35020055350200573502008E
:10301000593502005B3502005D35020000000000FA
:103020000000000000000000000000005F3502000A
:1030300061350200000000006335020065350200C2
:103040004D40020067350200F94302006735020077
:103050006735020067350200653E020067350200F1
:1030600067350200673502006735020067350200E8
:1030700067350200673502006735020067350200D8
:1030800067350200A540020067350200673502007F
:10309000C940020067350200CD40020067350200DA
:1030A00067350200673502006735020067350200A8
:1030B00067350200673502000000000000000000D4
:1030C0006735020067350200673502006735020088
:1030D0006735020067350200673502000000000016
:1030E00000000000000000000000000000000000E0
:1030F00000000000000000000000000000000000D0
:1031000000000000000000000000000000000000BF
:1031100000000000000000000000000000000000AF
:10312000000000000000000000000000000000009F
:10313000000000000000000000000000000000008F
:10314000000000000000000000000000000000007F
:10315000000000000000000000000000000000006F
:10316000000000000000000000000000000000005F
:10317000000000000000000000000000000000004F
:10318000000000000000000000000000000000003F
:10319000000000000000000000000000000000002F
:1031A000000000000000000000000000000000001F
:1031B000000000000000000000000000000000000F
:1031C00000000000000000000000000000000000FF
:1031D00000000000000000000000000000000000EF
:1031E00000000000000000000000000000000000DF
:1031F00000000000000000000000000000000000CF
:10320000DFF80CD000F04AFA00480047458702007A
:10321000C8AC002030B4044654E8000F0D4644E822
:103220000053002BF8D1156030BC704730B4044611
:1032300054E8000F40EA010544E80053002BF7D1A1
:10324000156030BC704730B4044654E8000F00EA03
:10325000010544E80053002BF7D1156030BC7047DE
:1032600030B4044654E8000F80EA010544E80053F6
:10327000002BF7D1156030BC704730B4044654E8D9
:10328000000F00EB010544E80053002BF7D1156057
:1032900030BC704730B4044654E8000FA0EB010581
:1032A00044E80053002BF7D1156030BC7047000094
:1032B00030B450E8012F93B2C48923448489A342D7
:1032C00028BF1B1B0489A34202BFBFF32F8F00201E
:1032D00007E0C3EA020340E80134002CE9D14FF0D3
:1032E00001000A6030BC704750E8012FC2EA024278
:1032F00040E801210029F7D1704730B450E8022F8F
:103300001FFAA2F3C488A34202BFBFF32F8F00208D
:103310000DE0C48923448489A34228BF1B1BC2EA51
:10332000034340E80234002CE8D14FF001000A606A
:1033300030BC704750E8022FC2EA224240E8022126
:103340000029F7D17047034653E8022FD988B2EB22
:10335000324F4FF0000017BF92B241EA014142EAFA
:10336000014104E05A68B2EB324F08BF012043E844
:103370000212002AE8D1704730B4044654E8000F26
:103380000D4644E80053002BF8D1156030BC70475F
:1033900030B4044654E8000F40EA010544E8005305
:1033A000002BF7D1156030BC704730B4044654E8A8
:1033B000000F00EA010544E80053002BF7D1156027
:1033C00030BC704730B4044654E8000F80EA010571
:1033D00044E80053002BF7D1156030BC704730B47F
:1033E000044654E8000F00EB010544E80053002BAD
:1033F000F7D1156030BC704730B4044654E8000F74
:10340000A0EB010544E80053002BF7D1156030BC58
:103410007047000030B4044654E8000F0D4644E8FD
:103420000053002BF8D1156030BC704730B404460F
:1034300054E8000F40EA010544E80053002BF7D19F
:10344000156030BC704730B4044654E8000F00EA01
:10345000010544E80053002BF7D1156030BC7047DC
:1034600030B4044654E8000F80EA010544E80053F4
:10347000002BF7D1156030BC704730B4044654E8D7
:10348000000F00EB010544E80053002BF7D1156055
:1034900030BC704730B4044654E8000FA0EB01057F
:1034A00044E80053002BF7D1156030BC7047000092
:1034B00030B4044654E8000F0D4644E80053002B96
:1034C000F8D1156030BC704730B4044654E8000FA2
:1034D00040EA010544E80053002BF7D1156030BCE9
:1034E000704730B4044654E8000F00EA010544E890
:1034F0000053002BF7D1156030BC704730B4044640
:1035000054E8000F80EA010544E80053002BF7D18E
:10351000156030BC704730B4044654E8000F00EB2F
:10352000010544E80053002BF7D1156030BC70470B
:1035300030B4044654E8000FA0EB010544E8005302
:10354000002BF7D1156030BC70470000064880475B
:1035500006480047FEE7FEE7FEE7FEE7FEE7FEE778
:10356000FEE7FEE7FEE7FEE7DD4002000132020073
:103570002DE9F05F0546002092469B4688460646A8
:10358000814640241BE0284641464746224600F03B
:1035900075F853465A46C01A914110D31146184641
:1035A000224600F05CF82D1A67EB01084F462246D0
:1035B0000120002100F053F817EB00094E41201EB6
:1035C000A4F10104DFDC484631462A464346BDE803
:1035D000F09F10B5431A934209D28318881803E06C
:1035E00010F8011D03F8011D521EF9D210BD40EA6A
:1035F00001039B0703D009E008C9121F08C0042A71
:10360000FAD203E011F8013B00F8013B521EF9D257
:1036100010BDD2B201E000F8012B491EFBD2704769
:103620000022F6E710B513460A4604461946FFF78E
:10363000F0FF204610BD421C10F8011B0029FBD1F1
:10364000801A704730B504460020034600E05B1C3A
:10365000934203D2E05CCD5C401BF8D030BD202A01
:1036600004DB203A00FA02F1002070479140C2F1D9
:10367000200320FA03F3194390407047202A04DB0B
:10368000203A21FA02F00021704721FA02F3D040DB
:10369000C2F120029140084319467047064C074D7D
:1036A00006E0E06840F0010394E807009847103412
:1036B000AC42F6D3FFF7A8FD5CEC02007CEC020004
:1036C00070B58C1810F8015B15F0070301D110F8E4
:1036D000013B2A1106D110F8012B03E010F8016B11
:1036E00001F8016B5B1EF9D12B0705D40023521E94
:1036F0000DD401F8013BFAE710F8013BCB1A921CFC
:1037000003E013F8015B01F8015B521EF9D5A142F9
:10371000D8D3002070BD00002DE9FC410F46040005
:1037200064D0207818B1082860D2002518E0002065
:1037300020743968C4F80A10B988E1810121217028
:103740006070A07052E000BFC5EBC50108190622E9
:1037500039460A30FFF776FF002848D06D1CEDB2DD
:103760006078401CA842EFD800251AE0C5EBC501DF
:103770000E1906F10A0006223946FFF763FF0028FA
:1037800035D0D6F80A000090F189ADF80410317CEC
:103790008DF80610019900F04DFB012805D06D1C35
:1037A000EDB26078801CA842E0D82078C5EBC50156
:1037B000401C2070081905743968C0F80A10B988CF
:1037C000C1816078A84200D865700A4803216378F7
:1037D00000882A4601EB004007A106F068FA21782C
:1037E000601C0D542178A01C00F0DCF80020BDE81E
:1037F000FC810000207400202D2D2D2D2D2D2D2D30
:103800002D2D2D2D2D2D2DD7EEB4F3CBF7D2FD2060
:1038100025642025642020002DE9F84F1E46DDE9AF
:103820000AB7002592460B46044635292AD010DCFB
:10383000232B6DD008DC202B22D022295FD1BDE8BC
:10384000F84F012003F096BF302B5AD0312B56D1C0
:1038500057E0392B55D0402B5FD0A1F52043DFF83E
:10386000C480323B4FF0030926D0052B47D11346C5
:103870003A465946009603F097FF47464C4610E0FB
:1038800000204BE0BDE8F84F02F01DBE38881AF862
:10389000053004EB00402A4623A106F008FA6D1C0F
:1038A000EDB2B542F2D338885A4604EB0040BDE889
:1038B000F84F24A106F0F4B93A46594602F0CAFA84
:1038C000E0B203F0B1F8E0B2594603F09BF8B8F863
:1038D000000045464E4609EB00405B4622461EA1CD
:1038E00006F0E5F9002428883B5D06EB00402246FF
:1038F00027A106F0DCF9641CE4B2062CF3D3BDE882
:10390000F88F324651461846BDE8F84F00F084B8AB
:10391000BDE8F84F104609F0D1B91046BDE8F84FA0
:1039200002F0D4BE20740020205245414C54494D31
:103930004520444154412025642030782530327898
:1039400020000000206465766963655F74797065A6
:103950002025642020000000424F4E445F434F4D1D
:103960004D414E44203A20636F6E6E5F68616E6415
:103970006C65203078253032782020646576696364
:10398000655F74797065203A307825303278200090
:103990006D6163205B25645D3A2030782530327894
:1039A00000000000F0B500234E1E11E00022CC1AEA
:1039B000641E0AE000EB020C855C9CF80170BD42BD
:1039C00002D987548CF80150521C9442F2DC5B1CE3
:1039D000B342EBDBF0BD017849B942783AB982785D
:1039E0002AB9C2781AB902790AB9427982B1FF2993
:1039F0000ED14178FF290BD18178FF2908D1C178F8
:103A0000FF2905D10179FF2902D14079FF2801D092
:103A100001207047002070477047000070B5124ABF
:103A2000002454701AE000BF10F8013B9370D4706A
:103A30005378957883EA0506F60705D083F01803D6
:103A40005B0843F0800300E05B0853706B089370E1
:103A5000D3785B1CDBB2D370082BE9D3491EC9B203
:103A6000E2D2507870BD000068720020F7B584B0D3
:103A700015460A2A29D81648062100EB0514DDF858
:103A8000110044F8100CBDF8150024F80C0CA4F13A
:103A9000100002F095FC0F4E24F80A5C03273088D2
:103AA0002A4607EB00400CA1103C06F0F9F8A0787C
:103AB00063792279E1788DE80F0030886378227885
:103AC00007EB004009A106F00DF907B0F0BD0000BA
:103AD000BC780020207400206465762E68616E64D6
:103AE0006C65203A253032782000000041444420A3
:103AF0004D41432061646472203A2530327820259C
:103B00003032782025303278202530327820253028
:103B100032782025303278002DE9FF410F461449D4
:103B2000144D01EB00140326288834F80A2C06EB08
:103B3000004011A1103C06F0B3F8A0786379227917
:103B4000E1788DE80F0028886378227806EB004042
:103B500014A106F0C7F82888A27A06EB004021A13C
:103B600006F09EF820683860A088B880BDE8FF8124
:103B7000BC7800202074002064657669636520634A
:103B80006F6E6E65647465642068616E646C652038
:103B9000256420697320646973636F6E6E65637456
:103BA0006564200064657669636520646973636F8A
:103BB0006E6E6564746564206D6163206164647217
:103BC0002025303278202530327820253032782078
:103BD0002530327820253032782025303278202068
:103BE000000000006465766963655F747970652024
:103BF000256420002DE9FF470D4604007DD02A787A
:103C000052B9687840B9A87830B9E87820B92879ED
:103C100010B96879002871D0A8786E792B79E97885
:103C20008DE84B00DFF8DC804FF003096B78B8F8C3
:103C3000000046464F4609EB004033A106F052F81B
:103C40003088227807EB00403EA106F029F8308842
:103C5000627807EB004045A106F022F820780027A3
:103C600008B1002615E0B8F8001009EB01404AA1A0
:103C700006F012F86770A7703FE000BFC6EBC60100
:103C80000819062229460A30FFF7DCFC48B1761CE9
:103C9000F6B26078401CB042F0D8217800204A1C6F
:103CA0001EE0B8F8001009EB01403EA105F0F4FF5A
:103CB000C6EBC6010819C0F80A70C78107742078DE
:103CC000401E2070E9E723189B78B34206D1A21C5E
:103CD00020448B5C83702078875403E0401CC0B282
:103CE0008242F0D82178A01CFFF75CFE2178601C8E
:103CF000085C6178884200D86070002004B0BDE89C
:103D0000F0870000207400202D2D2D2D2D2D2D2D20
:103D10002D2D2D2D2D4D4143203058253032782C1E
:103D20003058253032782C3058253032782C3058A5
:103D3000253032782C3058253032782C30582530C8
:103D4000327800002D2D2D2D2D2D2D2D2D2D2D2DAD
:103D50002D2DB6CFBFAAC1ACBDD3206465766963F3
:103D6000655F6E756D202025640000002D2D2D2DC2
:103D70002D2D2D2D2D2D2D2D2D2DB6CFBFAAC1AC26
:103D8000BDD3206D61785F696E6465785F6465633B
:103D90006963652020256400B4EDCEF3B7B5BBD8C8
:103DA000000000002D2D2D2D2D2D2D2D2D2D2D2DF7
:103DB0002D2D2D2D2D2D2D2D2D2D2D2DD2D1BEADD9
:103DC000C6A5C5E4CFE0CDACC9E8B1B8000000009D
:103DD00008494FF6FF7301EB001222F80A3C91F8F4
:103DE000800010B1401E81F88000002042F8100DC4
:103DF00090807047BC780020F0B50D4D0020014642
:103E00004FF6FF7705F1840305EB0014E28842B119
:103E1000BA4206D003EB8106491C7280A27A327145
:103E2000C9B2401CC0B20828EED31970F0BD000022
:103E3000BC780020C1F3074282B910F0FF0F0DD10A
:103E4000C0F3072252B9C0F307423AB9000E05D1B8
:103E500011F0FF0F02D1C1F3072008B10020704715
:103E6000012070472DE9F04700268CB0DFF8609103
:103E7000B0464FF48075012437460696284605F073
:103E800009FE38B1D9F80403204203D0284605F0D2
:103E9000F7FD26432D1D64007F1CADB2082FEDD326
:103EA0004FF4BE74204605F0F5FD48B1204605F0FC
:103EB000E7FD46F0004606AA0121002005F0CCFDF2
:103EC000444D16F0FF0F15D00127002437420DD0C6
:103ED00009EB8401D1F81005D1F81015C0F30420C6
:103EE00055F82420C1F3014102B190477F00641CC2
:103EF000082CEBD3002E67DA4FF0FF30CDE90880B5
:103F000000263446281910F8507F90F9000027F059
:103F1000C008401C44D009A9404604F0DBFF58B358
:103F20004FEA9719404602F089FA55F820701FB100
:103F3000B9F1030F03D00FE0B9F1030F30D108A896
:103F40004FEAD80208F00703815C4FF0010C0CFA2D
:103F500003FC41EA0C0181544FF0A04101EB8800C1
:103F6000D0F8000706A9C0F3014A404604F0B2FFAA
:103F700018B1BAF1020F03D012E0BAF1030F0FD15A
:103F8000B9F1030F08D1BAF1020F1BD0022140464C
:103F900005F046FD761CF6B217B149464046B847D3
:103FA000641C042CAED3002E0ED06A4601210020E2
:103FB00005F052FD06990098884205D006900898B1
:103FC00009909DE70321E2E70CB0BDE8F08700000F
:103FD000006000405484002028B1A0F57F41FF39E3
:103FE00001D0012070470020704700F01F0201211E
:103FF00091404009800000F1E020C0F88012704735
:1040000000F01F02012191404009800000F1E020F2
:10401000C0F80011704700F01F02012191404009D3
:10402000800000F1E020C0F8001270474907090E37
:10403000002806DA00F00F0000F1E02080F8141DDF
:10404000704700F1E02080F8001470472DE9F0413E
:104050004FF48077384605F017F80124104EA50775
:1040600048B1384605F017F80120C5F80803747008
:10407000002002F029FA4FF48277384605F004F860
:1040800000280BD0384605F006F80220C5F80803D2
:10409000B470BDE8F041012002F016BABDE8F0812D
:1040A0004084002007480021C0F84011C0F84411A6
:1040B000C0F84811C0F84C11C0F80011C0F8041144
:1040C00009F02CBA0010014009F076B906F078B872
:1040D000014908607047000064720020F0B5B548DF
:1040E0000023021D0178101D01254FF08054062980
:1040F0000BD11678360708D10678C6F30316032EBF
:1041000006D0042E04D0052E02D0062907D00EE0DA
:10411000B4F82463A84FC6F304263E6002E0167884
:10412000360704D10678C6F30316032E02D00629FB
:1041300004D00FE0A24FA14E7E670EE0167836073E
:1041400008D10678C6F30316032E06D0042E04D039
:10415000052E02D0062907D00EE0D4F84462994F0C
:10416000C6F342363E6002E01678360704D1067880
:10417000C6F30316032E02D0062906D011E0924E94
:10418000376827F0807737600EE01678360708D159
:104190000678C6F30316032E06D0042E04D0052E8F
:1041A00002D006290AD011E04FF08046C6F80C3143
:1041B000C6F81031834E361F336002E0167836079A
:1041C00004D10678C6F30316032E02D0062905D0C3
:1041D0000CE07C4F032664373E600AE01678360711
:1041E00004D10678C6F30316032E02D006290DD09B
:1041F00014E0764F05263E60744E78363560734E77
:10420000083633603F263F1D3E6002E016783607D1
:1042100004D10678C6F30316052E02D0062957D01E
:1042200062E06B4E36686B4F3E60694E361D3668F5
:104230003F1D3E60664E083636683F1D3E60644E48
:104240000C3636683F1D3E60614E103636683F1DA5
:104250003E605F4E143636683F1D3E605C4E183639
:1042600036685C4F20373E60594E1C3636683F1D1D
:104270003E60574E203636683F1D3E60544E243611
:1042800036683F1D3E60524E283636683F1D3E6000
:104290004F4E2C3636683F1D3E604D4E30363668E8
:1042A0004C4F40373E604A4E343636683F1D3E60C4
:1042B000474E383636683F1D3E60454E3C363668C0
:1042C0003F1D3E60424E403636683F1D3E6002E074
:1042D0001678360708D10678C6F30316032E06D0E3
:1042E000042E04D0052E02D0062907D019E0D4F8F8
:1042F0005812394A01F04F01116002E011780907A4
:104300000FD10078C0F30310032803D0042801D094
:10431000052806D131480168C90702D06FF00101B4
:104320000160D4F83001062808D1D4F834010628F9
:1043300004D12B48016841F480610160224874383F
:10434000016841F470010160BFF34F8FBFF36F8FBD
:104350004FF01021D1F80002002803DBD1F804024D
:10436000002822DA1F4A15601F480468002CFCD080
:104370001524C1F800420568002DFCD0C1F80442A4
:1043800001680029FCD0136001680029FCD0BFF34C
:104390004F8F0D48F0380168144A01F4E061114371
:1043A0000160BFF34F8F00BFFDE71249104808605E
:1043B000F0BD0000E00F00F0403501400DF0ADBA57
:1043C00000C007403C050040FCED00E010560040F6
:1043D0000404001020C50040E40E0040000400402A
:1043E0003C17004004E5014000E401400400FA05E8
:1043F0000090D003847300200448017F0448002902
:10440000024901D009F03EBB09F006BAAC84002095
:10441000002000400548032190F8802004480088CF
:1044200001EB004003A105F03BBC0000BC7800207C
:10443000207400206465765F696E666F2E64657611
:104440006963655F6E756D3A253032780000000053
:1044500002E008C8121F08C1002AFAD1704770474D
:10446000002001E001C1121F002AFBD170470000AB
:104470000121202803DA81400548014003E040285B
:1044800002DA2038814009B10120704700207047CE
:10449000FC06FFBD082806D228B1012803D0042855
:1044A00001D0012070470020704710B560B159B1AC
:1044B00002780B785208B2EB530F05D10622401C4C
:1044C000491CFFF7BFF808B1002010BD012010BD46
:1044D000800701D00020704701207047C3688B42DD
:1044E00006D811440069491E814201D80120704755
:1044F0000020704770B500230D884C680DE0E61869
:10450000E15C7678864206D1E018801C491E506036
:104510001180002070BD0B445B1C9D42EFD805202C
:1045200070BD10B5002005F069F9002806D108F02B
:10453000A7F8BDE81040002001F002BD10BD00004A
:1045400010B50321064800F01AFE002806D0BDE889
:10455000104004A240F2711100F078B910BD0000C3
:10456000E47700202E2E5C2E2E5C2E2E5C6D616971
:104570006E2E630010B501220221002001F098FD8B
:1045800008B1072810D107220221012001F090FD77
:1045900008B1072808D100210A22084601F088FD49
:1045A00008B1072800D1002010BD000000B5A9B057
:1045B000A0216846FFF734F802208DF800000121A1
:1045C0008DF802100622ADF810008DF803200D487A
:1045D00005904FF496702290B42023900A488DF8ED
:1045E0007C1026906946094800F0E1FC20B1084A99
:1045F00040F2DB5100F02AF90121044800F0D4FC1C
:1046000029B000BDFA5B0020E1A50200E47700209C
:104610006445020070B58CB015460E4600236C460A
:10462000C3F10F01415CE1545B1C102BF8D30D2149
:1046300004F11000FEF7F4FF0020C0F10F02315C1E
:104640002244401C11740328F7D3684643DF00203E
:10465000C0F10F01214491F820102954401C032877
:10466000F6D30CB070BD022001F050BC01490979AD
:1046700000F0F2BEE072002070B50024064D06E0A6
:104680006868012110F8340004F0AEFD641C28783D
:104690008442F5D3002070BD00730020F8B51546A4
:1046A0000C460646052A01D20720F8BD04F082FE1A
:1046B00018B904F051FE0028F7D1104900204E60CF
:1046C0000C70C1E902500E4D08610DE006EBC4000C
:1046D0006968009181788DF801100078094A69466F
:1046E00004F0D4FD0028E0D1641EE4B2EED2BDE8AF
:1046F000F840054A0021024800F00EB9007300207E
:1047000090E30200D9790200A56902002DE9FC417D
:1047100014468846074605F021FB00BF05F0C4F9A2
:104720000028FBD10125234E012F27D06FF48050A4
:10473000381828D0B0F5405F2CD06FF44051C842F3
:1047400008D13088238805EB00401BA1626805F082
:10475000AEFA06E03088424605EB00401DA105F0A8
:104760009FFA22480068C00700D000BE224602B06F
:1047700041463846BDE8F04100F074B830881CA1CD
:1047800005EB004003E0308821A105EB004005F077
:1047900083FAE6E7A06805F0BDFD0346218860685E
:1047A000CDE90001308823A105EB0040A26805F0A7
:1047B0008FFAD6E720740020415353455254494F95
:1047C0004E204641494C45442061742025733A25CA
:1047D00075000000554E4B4E4F574E204641554CEC
:1047E000542061742030782530385800F0ED00E016
:1047F000534F46544445564943453A204153534547
:104800005254494F4E204641494C45440000000057
:10481000534F46544445564943453A20494E564124
:104820004C4944204D454D4F525920414343455337
:10483000530000004552524F52202575205B2573CE
:104840005D2061742025733A257500000EB5ADF822
:104850000010CDE901206A46002144F20100FFF773
:1048600055FF0EBD08B501238DF800309DF80030CE
:10487000144B186059609A606FF48041401807D05B
:1048800001280FD1DA60D86800889861D86807E0FD
:104890001A611869806858611869008898611869F8
:1048A0004068D861186858689868D8681869586965
:1048B0009869D86972B600BF9DF800000028FBD146
:1048C00062B608BDEC84002010B58268C3689342CC
:1048D00003D002F09DFC002010BD052010BD29B1C1
:1048E00012B1531E134203D0092070470E207047A7
:1048F0000160838000218160C1600846704710B567
:104900008268C3689A1A83889A4203D802F08AFCA4
:10491000002010BD042010BD074B9B7823B12AB1A5
:1049200020B10068037C1BB1082070470720704746
:1049300041744261002070470C85002070B507F07B
:10494000FBFD104800240B21047044700E4D817053
:1049500014206C602C706C70FFF747FB072114204B
:10496000FFF764FB1420FFF74BFB084804600721A6
:104970001120FFF75BFB0548001F0068A8600020BE
:1049800070BD00000C850020147300200815014044
:104990002DE9FC47DFF8789099F8023073B368B3DB
:1049A000052902D20720BDE8FC87436933B3437C65
:1049B000012B25D0002704460025884616468DF891
:1049C0000050684600F0ECF801A809F029F9C8B1D8
:1049D000012101700F4944600968C0E90218C0E96B
:1049E00004769DF8040089F801009DF8000000F0AD
:1049F000FBF81420FFF70FFB2846D4E70820D2E786
:104A00000F46D8E704259DF8000000F0EDF8F3E725
:104A10000C850020041501400649897839B130B170
:104A2000416921B100210174022108F053BD082021
:104A3000704700000C85002070B50B4E01460B48F6
:104A4000B578FFF741FF04465DB10020B070711CDE
:104A50000122C81D04F0F4FC18B105A2D521FFF70E
:104A6000F5FE204670BD000060730020C487002062
:104A70002E2E5C2E2E5C2E2E5C2E2E5C2E2E5C2E70
:104A80002E5C2E2E5C636F6D706F6E656E74735C42
:104A90006C69627261726965735C756172745C6184
:104AA00070705F756172745F6669666F2E63000077
:104AB000F0B5284E89B01F460D00044672603BD009
:104AC000A888296882B22448FFF709FF002834D15A
:104AD000A889A96882B220481030FFF700FF00289B
:104AE0002BD120221D496846FEF773FD60690690B0
:104AF000207C00B101208DF814008DF81C70607CC2
:104B000000B10E208DF81500E0680290A0680390B7
:104B100020680190606800900E48114A694608308C
:104B200004F05AFC002808D1B0702068401C04D062
:104B30009DF81D0018B106E0072009B0F0BD05483A
:104B4000083004F0D5FC03490122491CC81D04F0BB
:104B500077FCF2E760730020C4870020E4E40200E1
:104B600079D7020010B501460B48FFF7C8FE0400D4
:104B700010D10A4804F006FE60B908490648083911
:104B8000FFF7A2FE30B9054901220839034804F0B5
:104B900073FD0446204610BDD487002068730020B2
:104BA00030B5EFF3108172B60D4A9468012324B139
:104BB0000370002900D162B630BD93604FF0E0234E
:104BC000D3F88051074C25401560C3F88041D3F8D5
:104BD000844154605A17C3F8842100220270E8E728
:104BE00018860020FC06FFBD0B498A68002A11D0F8
:104BF00000280FD1EFF3108072B60B684FF0E0225F
:104C0000C2F800314B68C2F8043100228A600028E3
:104C100000D162B670470000188600202DE9F041EF
:104C2000064608680C46411C4FF0A0474FF00105AE
:104C300006D005FA00F1C7F80815206804F0E6FE72
:104C40006068411C02D0002104F0D7FE3079204971
:104C500001EB4010A169007F00283068C0F82415DE
:104C600025D0607D227D31681043C1F86C05D4E900
:104C700000123068C0F80C15C0F8142524E0A068B4
:104C8000411C02D0002104F0B8FEE068411C05D0B0
:104C90008540C7F80855E06804F0B8FED4E9021270
:104CA0003068C0F80825C0F81015BDE8F081607DB7
:104CB000217D32680843C2F86C05D4E900123068DF
:104CC000C0F81425C0F80C15207D0128D7D0ECE7DA
:104CD000AC8400202DE9F047074600888EB080465E
:104CE00000F07EFB0646404603F0F4F88246044698
:104CF0002E4800252A460178404600F0C3FB002ECE
:104D000050D07879400734D501254FF6FF7603ABB4
:104D10002A460721504606F0D1FA010004D0404649
:104D200007F00CFF00252BE0B1463146049803F054
:104D300025F8064648450FD004460146404603F094
:104D4000B3F84046FFF792FC30B9404607F0C0FE8A
:104D50004046FFF78BFC48B122460721504606F03B
:104D600043FB010003D0404607F0E8FE00254E4516
:104D700006D0404606F0A6FC10B1504603F096F867
:104D800002208DF81800ADF81A807879400701D517
:104D9000012000E002208DF820008DF8215006A8A7
:104DA00002F042F80EB0BDE8F0870000E07200208B
:104DB00010B501F08DFCBDE8104008F0BDBD2DE937
:104DC000FC47002517880646158090F82D001446EC
:104DD000894630B13A462146484600F0F5FB0500C9
:104DE00009D1B0784FF00C0A18B32088C846001DCE
:104DF000B84202D95046BDE8FC87684679DF0028F2
:104E0000F9D12088032108F8001020881921401CBE
:104E100080B2208008F800102088401C80B22080DA
:104E200000EB0801BDF8000008F0A4FE218808444A
:104E30002080F0780222C8B1218896F9033001F170
:104E4000030C4846BC45D5D8425421884FF0010C8C
:104E5000491C89B2218000F801C02188491C89B20F
:104E6000218009F801302088401C20807068B8B18A
:104E7000218890F9003001F1030C4846BC45B9D8AF
:104E8000425421880A22491C89B221804254218837
:104E9000491C89B2218009F801302088401C2080FB
:104EA000308950B1CDE900474B460622022106F178
:104EB000080008F0CDFE05009DD1308A50B1CDE943
:104EC00000474B460722032106F1100008F0C0FE00
:104ED000050090D1308B50B1CDE900474B461522EB
:104EE000142106F1180008F0B3FE050083D1306AE2
:104EF00030B13B462246494601F050FB0500DBD16C
:104F0000706A30B13B462246494603F03FFD05003A
:104F1000D2D196F82C0038B13B462246494630465D
:104F200007F088FE0500C7D1307838B13B462246ED
:104F30004946304603F08BFE0500BDD128465AE7AE
:104F4000F0B50C4693B01F210726ADF80010ADF860
:104F50000410002750B1C17849070DD56A4602A94F
:104F6000FFF72DFF002808D102AD02E00025ADF8C3
:104F700000706CB1E07810B1304613B0F0BD01AAFA
:104F80000AA92046FFF71BFF0028F6D10AAA02E073
:104F90000022ADF80470BDF80400C3B2BDF80000F3
:104FA000C1B2284672DFE8E780F82410704770B578
:104FB0000D00044653D0F4B3012020700026E670A3
:104FC000202205F17801201DFEF703FB84F8246000
:104FD000D5F89800C4F8CC00D5F89C00C4F8D000EF
:104FE0004FF6FF70A4F8C800C4F82560A4F8296043
:104FF00084F82B6004F130003C210646FEF710FBDC
:10500000287884F83000A87884F83200E87884F8AA
:105010003300687884F83100D5E90401C4E910014F
:10502000D5E90201C4E90E01D5E90601C4E912017E
:1050300095F82D0000E012E084F85D00686AD8B1B0
:1050400004F1780104F16C0061676065696A0988A0
:105050000180686A616D80888880002008E00E20E9
:1050600070BD696A22188968095C82F87810401C52
:10507000616D89888142F4D8A86AE8B104F1A4007E
:10508000C4F8A0000C38A065A96A89888180A86A44
:10509000A16D00880880002006E0A96A22188968AE
:1050A000095C82F8A410401CA16D89888142F4D863
:1050B00095F82C0084F85C00286A48B104F1C4001B
:1050C0002065296A49884180286A216D0088088006
:1050D000686800B1606305F13C013046BDE870408E
:1050E000FFF72EBF10B50288102A1AD0112A1FD040
:1050F0001B2A1CD1007A0C46002818D1E078052123
:10510000401CB0FBF1F201FB1201204600F037F821
:1051100000280CD0D4F8D010002908D0BDE81040E9
:105120000847C27B012A02D18088A1F8C80010BDBF
:105130000C46002184F8D4108088B4F8C810884246
:10514000F5D120790028F2D10121DEE710B50C4617
:10515000022801D0032811D1607800280ED0002049
:105160006070E178204600F00AF8002806D0D4F8F4
:10517000D010002902D0BDE81040084710BD2DE92D
:10518000FF47044600780F4638B1E770002004F06E
:1051900035FB012628B16670D2E0082004B0BDE8D6
:1051A000F0870025C4F82550A4F8295084F82B5026
:1051B000A07910B1E078012806D0E07970B1E078EC
:1051C000012801D0022809D1D4F8CC1021B184F8EB
:1051D0002C600820884701E084F82C5004F1260157
:1051E00000200A5C0AB1304603E0401C0628F8D3D0
:1051F00000204FF002084FF0030A4FF00409012F7E
:1052000006D0022F09D0032F0CD0042F12D10DE0AD
:10521000A17911B108B130460DE0E17911B108B1C1
:10522000404608E0207A08B1504604E0607A08B1B0
:10523000484600E02846E070D4F8CC1041B103287D
:1052400001D0042804D1607910B194F8D400A8B139
:1052500084F8D55000950295019503958DF800507E
:105260008DF80850E17804F1250004F13002052999
:1052700058D2DFE801F0670A131F3B0084F8D650CC
:1052800084F8D56007208847E4E7A67001908DF880
:105290000060ADF80C50ADF80A5043E084F802808D
:1052A00001908DF80060208AADF80C00A089ADF85F
:1052B0000A0037E0A08AADF80A00208BADF80C0098
:1052C000607980B194F8D40068B994F8D60050B1F0
:1052D0008DF8088084F8339000211046FFF730FEE7
:1052E00000BB05211AE084F802A01BE0A08BADF8FA
:1052F0000A00208CADF80C00607988B194F8D400D5
:1053000070B994F8D60058B18DF8088084F83390BD
:1053100000211046FFF714FE20B90621A17001E01C
:1053200084F80290E07830B194F82410684673DF76
:1053300000287FF433AFD4F8CC1009B1A0788847A7
:1053400000202BE7A570F6E770B5040012D00146E7
:105350001C221448FEF73DF91248134D05602068E1
:1053600050B17ADF002806D12068016829604068C2
:10537000686005E00E2070BD0B487BDF0028FAD185
:1053800008484FF6FF711438084A20F8041B0549F5
:10539000343901600021FFF7BFFA0028EBD0032069
:1053A00070BD0000F87D00208C720020A1DB02009F
:1053B00002494A6C091D07F03DBA0000147E002026
:1053C00002460248016D001D07F021BA147E00203C
:1053D0000249C86C896C084007F051BA147E00205D
:1053E00070B50A4E054600242A46301D716C07F040
:1053F0000EFA40B12A46301DF16C07F008FA08B1E8
:10540000022400E00124204670BD0000147E00202C
:1054100010B50024204608F0F7FB28B1641CE4B264
:10542000182CF7D3182010BD03480122A2400168B0
:1054300011430160204610BD147E002010B50446C3
:1054400008F0E2FB002803D0024800EB8400806DE6
:1054500010BD0000147E002070B505460C460846BD
:1054600008F0D2FB002809D005482A4600EB840149
:10547000001D896DBDE8704007F0C9B970BD00001E
:10548000147E002070B5064615460C46084608F006
:10549000BBFB00280AD006482B4600EB84013246AD
:1054A000BDE87040001D583107F0F8B970BD00002C
:1054B000147E002070B540B10C4D297839B10446F6
:1054C00007F014F828B1002070BD0E2070BD082030
:1054D00070BDE868062807D20549226801EB800103
:1054E000401C0A60E860EEE7042070BD9472002062
:1054F000CC7E002040B1054900220123CA600B7018
:10550000C1E90102104670470E20704794720020D6
:1055100070B504002DD000292BD020480078002839
:1055200027D020880D46112815D0302804D03228E5
:1055300007D033281ED109E0211D284605F06AFC5A
:1055400018E0211D284605F0DBFA13E0211D28464E
:1055500005F0AEFB0EE0A088B5F8CA12884209D16A
:10556000002085F8C70285F8C8024FF6FF70A5F83D
:10557000CA0270BD95F8C8020028FAD020883028E9
:10558000F7D34F28F5D8A088B5F8CA128842F0D1D1
:105590002846BDE8704001F0FDBA0000947200207A
:1055A00048B1084A137843B1D26832B190F8C722A3
:1055B0002AB1112070470E2070470820704701F073
:1055C000E9BA0000947200207CB5054608880C46B4
:1055D0000930904201D90C207CBD68466DDF00285F
:1055E000FAD121880820685420881B21401C80B2F1
:1055F000208029542088401C80B220802844DDF877
:1056000001100160BDF8051081802088801D80B2E6
:1056100020809DF80010490800D0012129542088DD
:10562000401C208000207CBD10B504468088FFF718
:10563000D7FE01280DD021881B2901D1227A42B141
:10564000022801D01D2909D12046BDE8104005F0EF
:105650004DB82046BDE8104005F0B0B910BD0000BF
:1056600010B51A4C0188606810290ED011292BD171
:10567000401E606028D1FEF77DFF002824D02168FD
:10568000002921D0BDE810400847D0B900210122EF
:10569000084600F00DFD08B107280FD107220221AE
:1056A000012000F005FD08B1072807D104220221DE
:1056B000002000F0FDFC20B1072802D0216801B1D4
:1056C00088476068401C606010BD00008472002044
:1056D0002DE9F04701883B4E40F2F3194FF6FF7574
:1056E00010291BD011293ED0122954D0502946D15F
:1056F000C188F289841D914241D1618902293ED13C
:105700008688304602F094FC050038D004F10C0085
:1057100000F07AFBA8B3294630464EE0C17B87886B
:10572000044601292BD1A846284602F081FC050039
:1057300017D02F8000202872234843464A4601682C
:10574000C5F80A104068C5F80E0004F1100105F113
:105750000A0002F0BBFC6872F08900280FD12946CC
:105760002AE0042013E0808802F062FC040006D0E6
:105770006068FFF751F908B107F0BCF92580BDE872
:10578000F087FFE76868FFF747F90028F7D0BDE822
:10579000F04707F0AFB987880646384602F048FC64
:1057A0000400ECD02B464A4606F1080104F10A0039
:1057B00002F08CFC607221463846BDE8F04700F0EC
:1057C0003FBF0000F87D00208C7200202DE9F047DB
:1057D0000446038840480122A4B000F1480A102B77
:1057E00009D0112B56D01A2B72D1217AB2EB111F8E
:1057F00055D2012354E0D0E911218A430546011D09
:1058000012A807F017F8442212A901A8FDF7E1FE3B
:10581000DFF8C4900026374609F144090DF1040869
:105820000AE000BF08EB46001D2283884946281D78
:10583000009706F0B1FF761C0198B042F2D8686C70
:10584000A688C04306F0CAFFA0F57F41FF3917D0F4
:1058500005EB40000123868032465146281D07F0A3
:105860001DF8012332464946281D07F017F8E07B52
:1058700002280DD000231849A2884C31281D22E0AF
:1058800024B0E521BDE8F04714A20420FEF7DEBFF6
:105890000123F0E70023A2885146001D13E00023F6
:1058A0000D490546A2885031001D06F0F7FF207A09
:1058B0000221B1EB101F01D2012300E000230649B1
:1058C000A2885431281D24B0BDE8F04706F0E6BF99
:1058D00024B0BDE8F0870000147E00202E2E5C2E40
:1058E0002E5C2E2E5C2E2E5C2E2E5C2E2E5C2E2EF2
:1058F0005C636F6D706F6E656E74735C626C655C1B
:10590000636F6D6D6F6E5C626C655F636F6E6E5F13
:1059100073746174652E630010B5044607480078FF
:1059200000280AD0204602F0AFF9204607F0C8F957
:105930002046BDE8104001F00FBE10BDD07200201F
:105940002DE9F041254D07460C46288809780326A5
:1059500006EB004079B1012932D002293CD120A1C7
:1059600004F09AF928887A8806EB0040BDE8F041F7
:105970001FA104F095B926A104F08EF9618804F105
:105980000E02384600F070F820B126A240F23461D1
:10599000FEF75CFF384600F057F920B121A240F233
:1059A0003761FEF753FF288822A106EB004004F080
:1059B00073F92C4901200870BDE8F04101F052B89C
:1059C0007888FEF709FB002806D0227B7888A1683A
:1059D000BDE8F04104F0C4BCBDE8F08120740020B3
:1059E000446973636F6E6E65637465642E000000B6
:1059F000646973636F6E6E656374656420636F6E54
:105A00006E5F68616E646C65202564200000000094
:105A1000446973636F7665727920636F6D706C652E
:105A200074652E002E2E5C2E2E5C2E2E5C6D616910
:105A30006E2E6300436F6E6E656374656420746FD1
:105A4000206465766963652077697468204E6F729B
:105A500064696320554152542053657276696365C9
:105A60002E000000F05B002048B141802AB151882F
:105A7000C1801188818091880181002070470E20AB
:105A80007047000030B5114B0D4604000FCB85B0B8
:105A90008DE80F0018D0BDB12146684662DF0028AE
:105AA00010D120788DF812000120ADF810004FF6CB
:105AB000FF7060802868E0600020A080208104A83A
:105AC000FFF7F8FC05B030BD0E20FBE744E3020011
:105AD00010B5024686B008002ED0002A2CD041888E
:105AE0004FF6FF73994202D09488A14224D11488C2
:105AF000112C14D0392C1FD1818800291CD0538936
:105B00008B4219D1C168002916D001218DF80010EF
:105B100002F110010291917B8DF80C1009E092883E
:105B20008A4209D1C168002906D002218DF80010EF
:105B30004380C2686946904706B010BD30B585B055
:105B40000C46054614216846FDF76AFD207804F1ED
:105B50000E01002830D1A08801282DD1A0792A7803
:105B6000904229D1002217E002EBC20031F8103038
:105B7000022B02D0032B0ED105E001EB400000897F
:105B8000ADF8120007E001EB40000389ADF80E30DC
:105B90004089ADF81000521C207A9042E4D8E868A1
:105BA000002809D06088ADF8020000208DF80000C0
:105BB000EA6869462846904705B030BD3EB5030007
:105BC0000BD013480224522A008804EB004006D967
:105BD00010A104F061F807203EBD0E203EBD5C8898
:105BE000A4F57F45FF3D0DD00F4831C88DE8310049
:105BF00018890291ADF80200ADF806205888694670
:105C00009CDF3EBD09A104F047F808203EBD00001E
:105C1000D8730020436F6E74656E7420746F6F20AC
:105C20006C6F6E672E00000060E30200436F6E6EC3
:105C3000656374696F6E2068616E646C6520696E5F
:105C400076616C69642E00001FB5010019D0488888
:105C5000A0F57F42FF3A16D0C988A1B101228DF884
:105C60000C200A4B00228DF80D20D3E90423CDE946
:105C70000023ADF8021003A9029169469CDF04B02D
:105C800010BD0E20FBE70820F9E7000044E3020006
:105C900030B5174B0D4604000FCB85B08DE80F00D3
:105CA00023D015B34FF6FF70A0822868A0610020B2
:105CB000A0752146684662DF002814D120788DF84F
:105CC00012000120ADF81000A21C04A9A0DF0028DA
:105CD00009D12946204606F066FC002803D1294652
:105CE000204607F065FC05B030BD0E20FBE7000044
:105CF0007CE302007FB5002917D0002815D0028868
:105D0000102A0DD0112A0DD0502A0FD0572A0CD1AD
:105D10001A4B1868D3E902238DE80F0089692AE03D
:105D2000808801E04FF6FF7088827FBD01910C46AC
:105D3000821DC3880989002512308B4202D1518906
:105D400002290CD0A1898B42EFD1A1690029ECD0A6
:105D500002905089ADF80C008DF800500AE000F078
:105D600053F818B10120A075022001E0A5750320A9
:105D70008DF80000A169684688477FBD6CE302008A
:105D800070B586B00C46054614216846FDF748FC00
:105D9000207804F10E01002834D1A088A0F57F42BC
:105DA000123A2FD1A0792A7890422BD100226FF499
:105DB0007F4317E002EBC20031F81060F61802D002
:105DC000012E0ED105E001EB40000089ADF8120074
:105DD00007E001EB40000689ADF80E604089ADF8A0
:105DE0001000521C207A9042E4D8E868002809D0BC
:105DF0006088ADF8020000208DF80000EA6869466E
:105E00002846904706B070BD007800F0010070474A
:105E100008B504F0ABF920B10D4A40F2C741FEF7D6
:105E200015FD002000906946012004F01FF820B104
:105E3000074A40F2CD41FEF709FD684604F0C2F87A
:105E4000002804D0024A40F2D141FEF7FFFC08BD11
:105E500064450200092916D2DFE801F00508150B98
:105E6000150E15151100114607480AE0114607489E
:105E700007E01146064804E01146064801E01146D5
:105E80000548FDF749BC7047AE7A0020427A0020F1
:105E9000217B0020D47B0020DF79002010B58EB05C
:105EA00004463A208DF8000000218DF801100B20E7
:105EB0008DF8020001208DF803008DF80410CDF854
:105EC0000510ADF8091032208DF80B108DF80C007C
:105ED0000C210DF10100FDF7A1FD8DF80D000E2242
:105EE0006946204606F00EFE0EB010BD0649095C5C
:105EF0004FF0A040D0F81005C84010F0010000D0CD
:105F0000012080F0010070476CE1020007490B5C42
:105F10004FF0A041D1F804250120984020EA020367
:105F2000C1F808351040C1F80C05704768E102005F
:105F30000249085C012103F084BD000068E1020011
:105F40000249085C002103F07CBD000068E102000A
:105F50000649095C4FF0A040D0F80405C84010F095
:105F6000010000D0012080F00100704768E10200CC
:105F70007CB50024084E25460122305D00950023A3
:105F80001146019503F003FD641C042CF4D3BDE815
:105F90007C4000F003B8000068E1020010B5002466
:105FA0002046FFF7C5FF641C042CF9D310BD10B5C3
:105FB00000242046FFF7C4FF641C042CF9D310BD55
:105FC00010B50246064B4FF0FF3000215C5C944256
:105FD00001D1084610BD491C0429F7D310BD0000AB
:105FE0006CE1020070B50C4E0C004FF00005306003
:105FF0000BD0012000F05AF808B1022004E0002084
:1060000000F054F800B10B202070706810B9FEF752
:10601000B1FA0546284670BD847200202DE9F0478C
:106020000D468146FFF7CCFF0446042836D2DFF840
:1060300074801B481C4EA8F10C0725B3012D0ED00F
:10604000022D2BD104EB440030444578002D25D09F
:10605000B968002922D02846BDE8F047084704EB7C
:106060004401755C0E44717849B10E4A4FF4004109
:10607000093A8068FEF78CFC08B987F80390B1787C
:1060800008F80410E2E78068FEF7C6FC04EB440160
:10609000314418F804008D78A842D7D0BDE8F087C5
:1060A00070E1020080720020987D0020FFF71EBF83
:1060B00070B50023042810D20D4D00EB4004012AD6
:1060C00002D101290CD00022094E00EB40003044DF
:1060D00061B1012906D0022906D00723184670BDF8
:1060E0000E30C2B22A55F9E74270F7E78270F5E741
:1060F000987D002070B506461E480024C0E9016165
:10610000B00720D50025012211462846FFF7D0FF11
:106110006D1C0446042D02D2002CF4D013E094B977
:1061200040F2666204211448FEF7B8FA04000AD16E
:10613000FEF7A2FA040006D10F48104A0021001F02
:10614000FEF7EAFB0446F00701D0FFF711FF74B930
:1061500009480B4A00210C38FEF7DEFB040006D18B
:106160000548084A01210838FEF7D6FB04462046B8
:1061700070BD0000747200207CE10200B96302006F
:10618000AD810200674602002DE9F05F6A4C0546CA
:1061900000266078B34618B184F801B001F0EEFF34
:1061A000664F4FF47A694FF4C87A4FF00108182D02
:1061B00062D2DFE805F0AC0C0C31404D62676B74C5
:1061C0006B74BE7D7D7D7D7DACAFB2B5BEBE002063
:1061D000FFF7BEFE00284FF0000008D0FFF7A8FE32
:1061E000022D02D14FF4E16008E0484606E0FFF7D7
:1061F000A7FE022D01D1C82000E05046410CC0038B
:106200004FF4FA72801841F100012570520000230A
:10621000FDF7AEF901462AE00020FFF799FE0028BD
:106220004FF0000004D0FFF783FE4FF44870E5E71D
:10623000FFF786FEDFE70020FFF78AFE00284FF019
:10624000000002D0FFF774FECFE7FFF779FED4E736
:106250000020FFF77DFE00284FF0000002D0FFF77E
:1062600067FE01E0FFF76CFE257041F69A110022EF
:106270003868FEF78DFB064646E00020FFF746FE35
:10628000257008E0002051E025703DE084F8018091
:106290000120FFF73BFE002240F6CD41E8E784F8FD
:1062A00001800120FFF732FE00224FF48041DFE73A
:1062B0007868FEF7B1FB0646D5F1110000D02EB18B
:1062C0000220FFF735FE84F802B01DE0012816D940
:1062D00080B2C8214843C117C90341EA5041C003F5
:1062E0004FF4FA72801841F1000152000023FDF7CB
:1062F0003FF9014600227868FEF74AFB0646022075
:10630000FFF71EFE84F802803046BDE8F09F01F0E2
:1063100035FFB9E701F032FFB4E701F02FFF04E0E9
:1063200001F02CFF0020FFF70BFE0120FFF708FE15
:10633000AAE7FFF73CFEA7E77472002070E10200B5
:10634000F8B5871C00208DF800000E460125684630
:10635000FEF726FC124C20683060D4E90001401A98
:10636000A168091ABE1C06E002F07CF9D4E900011C
:10637000401AA168091A491C8E42F5D8A168206804
:10638000084004EB8000C16841F00301C16020684F
:10639000384420609DF80000FEF726FC2846F8BD32
:1063A000A4880020034803C8814201D1012070471E
:1063B00000207047A488002000780221FFF72EBE3D
:1063C0000144491E05E002780B7800F8013B01F812
:1063D00001298842F7D3704705494FF0FF3208285A
:1063E00041F8202002D3084480F84820704700007C
:1063F00054840020F0B54FF0FF3512B10023082679
:1064000001E008230C260C4C05E000BF54F8237073
:106410007F1C04D05B1CB342F8D32846F0BD26187D
:106420005DB286F8305044F82310002AF5D1E11807
:1064300081F84800F1E70000548400200249084434
:1064400090F93000704700005484002008B50246DF
:1064500090F8C6020B4600EB8001C1EB801002EB06
:10646000400092F8C52242B1521ED2B202EBC201E4
:1064700000EB4102518A491C00E0C188ADF80010D0
:106480000089ADF802006946184696DF08BD70B570
:1064900004464FF6FF750A462846AC4208D14FF431
:1064A00080742146104605F04DFCA04209D070BD15
:1064B000FF2CFCD82146104605F037FC08B12046D9
:1064C00070BD284670BD704770B5084C050009D0F6
:1064D00010342168002907D00868206049682846E0
:1064E0008847F6E70834F4E770BD000040840020D8
:1064F0002DE9F05F26484168F1B3DFF898B00E68E7
:106500008146DBF8004087688078E11B21F07F45F9
:10651000ED1CB0B9DFF880804FF48030C8F8440338
:10652000C8F804031120FDF760FD1120FDF768FD98
:106530004FF0010AC8F800A02F2002F0B5FD89F83D
:1065400002A0B54200D23546124BE8193C3320F088
:106550007F401860DBF800105A46091B21F07F418C
:10656000001B20F07F40C91C81420FD910681860C1
:106570002F2002F099FD00E004E0BDE8F05F11205B
:10658000FDF749BDBDE8F05F05F0D6BFBDE8F09F5F
:106590001473002004150140001001402DE9F04162
:1065A00017880646B81D14460D46984202D90C209D
:1065B000BDE8F0813188072206290AD34FF4486CE0
:1065C0004FF6FF73614501D9994202D170880628C0
:1065D00001D21046ECE7604501D99842F9D19942C1
:1065E00003D0984201D08142F3D80520E855208895
:1065F0001221401C80B2208029542088401C80B287
:1066000020804119308807F0B5FA2188084480B20B
:1066100020804119708807F0ADFA21880844208055
:106620000020C5E702A240F21F11FEF70FB90000DB
:106630002E2E5C2E2E5C2E2E5C6D61696E2E6300FC
:1066400038B54A7A0F4B62B100220A7259690029A3
:1066500006D001228DF80020ADF802006846884778
:1066600038BD0A7A62B19B684C68024619462046DA
:10667000FEF78EF90028F3D0BDE8384006F03ABAAC
:106680005B68F1E7F87D0020F0B585B016460F464F
:1066900004461D4614220B496846FCF79AFF0A4837
:1066A0008DF80870ADF80240ADF80A608DF80C5016
:1066B000017800222046FEF7E5FE684600F0B4FBB4
:1066C00005B0F0BD04E30200E07200207047000056
:1066D0002DE9F047314E304D032730884FF0000848
:1066E00095F8802007EB00402DA103F0D9FA314C3A
:1066F00005F18409207838B1012829D0022801D178
:1067000084F80080BDE8F08795F880100029F9D062
:10671000607881421AD909EB8001401C91F802800F
:1067200060703088424607EB004023A103F0B8FABE
:1067300005EB081010F8020C0028E3D1A8F10108BD
:1067400008F0FF00BDE8F047FFF7A8BB01201FE0FD
:1067500030881FA107EB004003F09EFA95F88010E7
:106760000029CFD06078814211D909EB800025A1A2
:10677000857830882A4607EB004003F091FA6D1EB9
:10678000E8B205F078FD6078401C6070BAE702203E
:10679000207084F80180B5E7BC78002020740020C8
:1067A000C1ACBDD3C9E8B1B8D7DCCAFD202564208F
:1067B0000D0A0000627200202D2D2D2D2D2D2D2D66
:1067C0002D2D2D696E64657820203A202564000007
:1067D0002D2D2D2D2D2D2D2D2D2D2D2D2D2D2D2DE9
:1067E0002D2D7265616C2074696D65206461746122
:1067F0002073656E64202D2D2D2D2D2D2D2D2D2DED
:106800002D2D00002D2D2D2D636F6E6E5F68616E36
:10681000646C65202564000010B5044642880C486D
:1068200003211346008801EB00400AA103F03FFA60
:106830006088184901EB001021461038FFF77EF9F7
:1068400021461448BDE810409C30FFF799BA00007B
:106850002074002063616C6C20746F20626C655F33
:106860006C62735F6F6E5F64625F646973635F65C0
:10687000767420666F7220696E7374616E63652032
:10688000256420616E64206C696E6B2030782578F9
:1068900021000000E47600207FB50C4610B10120F5
:1068A00004B070BD2079002638B141F61D5501288D
:1068B0001BD0022826D00F20F2E70220207102967A
:1068C0000396E0680190694601A805F075FD50B196
:1068D00002988188E18000882081BDF8001002982C
:1068E00005F0E8FDDCE70A20DAE70A4B6A460021FA
:1068F000A01D05F01DFD38B1064918398E61CE6125
:106900000A28CDD12846CBE702488188019805F0B6
:10691000D1FDF5E7407300202DE9F843054690F8D6
:10692000C6020F4600EB8001C1EB801005EB40066C
:1069300095F8C542914604EBC40006EB400132795C
:10694000601C0A31904226D16B460022284601F095
:10695000DFFB18B310E0401EA04201D1002004E08C
:1069600004EBC40006EB40001C30804602466B4638
:10697000284601F0CDFB30B100203870694648460A
:1069800097DFBDE8F88395F8C5024146401C641CBA
:1069900085F8C502E4B23079A042DCD80120387015
:1069A0000020EEE72DE9F04100260125144C22E0FD
:1069B0006068226900EBC607387805FA00F11142D9
:1069C00017D08A43226102F0BDFC02463878E368A2
:1069D00005FA00F1194002FA00F3994209D17978D9
:1069E000012901D0012100E0002151407A6802B163
:1069F0009047761CF6B220788642D9D3BDE8F08164
:106A000000730020024A02EB001000F8061C7047D9
:106A1000BC780020034A002102EB001000F8021CA1
:106A200070470000BC780020034A012102EB0010EF
:106A300000F8021C70470000BC780020084A10B51E
:106A400002EB00120B2102F8061C054A4FF6FF73F9
:106A5000843202EB800424F8023C02F8201010BDBE
:106A6000BC780020044991F88000082802D2401C1C
:106A700081F8800070470000BC7800200F4A02EBCC
:106A8000001010F8060C0B2816D0092814D2DFE8E5
:106A900000F00507130A130D13130F00084809E04F
:106AA00007486C3806E00648733003E0054801E00B
:106AB0000348CF38FDF79EB870470000BC7800202F
:106AC000AE7A0020D47B00202DE9F047894690F86B
:106AD000C612904601EB8102C2EB811100EB410727
:106AE000384605F003FD06002FD0194CA068062893
:106AF0002BD2184D762205EBC0103946A0F8028043
:106B0000001DFCF766FD0027B9F1000F04D0A06856
:106B100005EBC010077004E0A168022005EBC1116D
:106B20000870A06805EBC011401CCE67A060E1684A
:106B300088420AD1002604E005EBC610C16F8847E1
:106B4000761CE0688642F7D3A760BDE8F0870000B6
:106B500094720020E47E002070B50E4690F8C612B4
:106B6000154601EB8102C2EB8111A0B000EB4100A0
:106B700005F0BCFC040009D07C2205496846FCF7FE
:106B800028FDADF8025068460196A04720B070BDC0
:106B90009CE1020070B50E4604464FF43371FCF7D9
:106BA0003FFD11480025A4F8CA62856084F8C952E7
:106BB0000E4884F8C65284F8C55200682060224608
:106BC0000121304694DF0121112806D0002809D187
:106BD00084F8C71284F8C85203E084F8C71284F816
:106BE000C812002070BD000094720020CC7E0020EE
:106BF0000E4910B50A784C780023A24212D0521CDC
:106C0000D2B20A70022A00D10B70084A0B780C32FB
:106C100052F8232002608868104420F07F4088608A
:106C2000012010BD0360002010BD0000147300207F
:106C300013460A460021FFF727BD00002DE9F8435F
:106C4000104D0F4680461E4691466946286802F060
:106C5000B6F8040014D01C21FCF7E2FC01202071DE
:106C6000C4F81490380BC4F80080C4E90260694687
:106C7000286802F0C5F805F0CFFA0020BDE8F883D7
:106C80000420FBE7B0E3020010B503780022072BD5
:106C900006D2DFE803F005040610202930000A7050
:106CA00010BD01230B7003898B818388CB81C06861
:106CB00088600A7410BD02220A7002898A81828863
:106CC000CA81C2688A60807D062802D000200874CC
:106CD00010BD0120FBE703220A70C2888A81028965
:106CE000CA81C068886010BD04230B70C088888189
:106CF000CA818A6010BD0520087010BD70B5064DB0
:106D00000646002455F8241009B130468847641C13
:106D1000042CF7D370BD00003086002030B5044647
:106D2000006885B00D46806800281CD01421684694
:106D3000FCF776FC0195A0680490207910B1012839
:106D40000DD104E001208DF80000206904E002204C
:106D50008DF80000E06800030290606903902068ED
:106D600081686846884705B030BD70B586B0154665
:106D70000C00064619D0112C17D0082C15D0142160
:106D80006846FCF74DFCADF80260304601F0A2F811
:106D9000ADF804000D2C0AD0862C1CD007208DF8ED
:106DA00000000294684600F04DF806B070BD032064
:106DB0008DF8000025B12878C00701D0012000E03F
:106DC00002208DF8080000208DF80C0041F201101F
:106DD000ADF80A00E6E706208DF80000E2E70000C3
:106DE00010B50446408801F075F8A080024801689B
:106DF0002046BDE810400847AC7200202DE9F04164
:106E000007460024064E074D05E000BF56F8241043
:106E100038468847641CE8788442F7DBBDE8F08197
:106E2000F4830020D072002010B50446408801F0A1
:106E300051F8A080024801682046BDE8104008478C
:106E4000D8E20200014909680847000040E3020057
:106E500070B586B0044614216846FCF7E1FBA089B2
:106E60000026A0F54040ADF8040020782D4D0628FE
:106E700035D2DFE800F0340303032E4EA08900F082
:106E8000DAF9012130B9E08943F6FE72A0F54040FD
:106E9000904224D8A07B8DF808002078032810D0D9
:106EA0005FF000008DF80900A0680390606850B1A1
:106EB00009208DF8000060680490684604F0DCFA50
:106EC0000DE00120EEE708208DF800008DF810108D
:106ED000F3E7A08900F0AFF908B1E08938B168782C
:106EE000002802D06E7004F0F7FB06B070BD606839
:106EF00038B10B208DF800006E70AE7004F0ECFB22
:106F0000DBE70A208DF80000BDF8040004F074FCF3
:106F1000F2E713208DF800004FF6FF70ADF8040083
:106F2000CBE70000BC72002038B504460E4800785C
:106F3000A8B1A4F57F40FF380FD0684605F0A6F849
:106F400078B10521017001210171C480684605F006
:106F5000ABF805F051F9002038BD042038BD0220FF
:106F600038BD082038BD0000487300200C4808B523
:106F7000007888B1684605F089F878B1062101707B
:106F8000684605F091F80748017809B101210173BD
:106F900005F032F9002008BD022008BD082008BD18
:106FA00048730020F4860020F0B589B014216846AB
:106FB000FCF736FB2C4C207818B16846FFF79EFE94
:106FC00050E0201D012105AAFCF730F9B8BB4FF0B5
:106FD000102041690004026940694B1C01D100FB8B
:106FE00002F1224800220161A1F54051C16020490F
:106FF00002F0FBFB002820D11F481C238C221D49D6
:10700000006801F0C9FE03F0EBFF050014D0022D6B
:1070100012D000270126062D12D006A805F036F85A
:1070200088B106700C2D18D2DFE805F0170F170F86
:1070300017161716171113110B2009B0F0BD11E028
:1070400026706760B9E70820F7E7077105E00321BC
:1070500000E00221017100E0067106A805F024F8A5
:1070600005F0CAF80020E8E7487300208873002084
:10707000C0E302004086002098E3020038B5040017
:1070800014D0694605F098F9A0B1BDF8000000EBF6
:107090008001094800EB8100C16849B1A17A39B18A
:1070A000C168491EC1600020A07238BD052038BDEE
:1070B000062038BD0A2038BDCC8600201FB501A9A6
:1070C000684605F035F904B010BD07B513460A4609
:1070D0006946002005F02CF90EBD07B513460A4697
:1070E0000021684605F024F90EBD20B119B10068F1
:1070F0000860002070470520704700007CB50D46F1
:10710000040019D0C5B1694605F056F9B0B1BDF813
:1071100000000B4900EB800001EB8000012101AA77
:107120000C306668FCF7A9F82E6060680C30686067
:107130000120A07200207CBD05207CBD0A207CBD02
:10714000CC86002018B10323002206F0C7BE05201C
:1071500070470223002206F0C1BE12B1022306F0DE
:10716000BDBE052070470000094908B50A69042A18
:107170000BD0084A096942F8210005480121103066
:107180006A46FCF77AF8002008BD0C2008BD000014
:10719000287300203086002038B5044609480D4683
:1071A000007858B164B16946284606F091FF00287E
:1071B00003D1BDF800102180658038BD022038BDA4
:1071C000052038BD4873002010B504460E480078ED
:1071D00098B1A4B12188022913D80C4A01EB81008F
:1071E00002EB800260885289C31C934209D806F0E2
:1071F00063FF00202080608010BD022010BD0520AC
:1072000010BD042010BD000048730020CC86002073
:10721000826883881A4003689A5C0A708168491CF6
:1072200081607047C26883881A4003689954C168B6
:10723000491CC160704743F6FE71A0F5404088428A
:1072400001D8012070470020704710B5044600782F
:10725000182802D1FEF7DCF8207010BD10B50446E6
:107260000078182802D1FEF7D3F8207010BD000076
:1072700070B51346002206461546862902D011290C
:1072800002D002E0012200E001250D4C73B1A1798A
:10729000FEF7F8F82A4661793046FEF7F3F8002247
:1072A000A1783046FEF7EEF8002203E0A178FEF761
:1072B000E9F82A4661783046BDE87040FEF7E2B84A
:1072C000E8720020406804F0F7BE00000EB516A179
:1072D0009DF8080020F00F00401C20F0F000103056
:1072E0008DF808000C2202A87CDF20B1124A40F27F
:1072F0002B51FDF7ABFA0020009001900621ADF86C
:107300000400ADF800104FF4C8701821ADF8060065
:10731000ADF8021068467ADF002804D0064A40F231
:107320003551FDF793FA0EBD534F4D5055544F4E06
:107330005F30384100000000644502000888A0F575
:107340002061773907D104480321008801EB004010
:1073500002A102F0A1BC70472074002041545420C7
:107360004D54552065786368616E676520636F6D65
:10737000706C657465642E0070B508B1012070BD35
:10738000194C0025207B08B1257301E000F0A0F81E
:107390002078082826D2DFE800F02504080C102504
:1073A0001420BDE8704000F021B8BDE8704000F046
:1073B0007DB8BDE8704000F05FB8BDE8704000F0F7
:1073C0003BB86088084900EB8000283901EB800059
:1073D0004068BDE8704003F0E3BD6560BDE8704003
:1073E00003F0ECBD0F2070BDF48600201149F0B40D
:1073F0008A1C00200346A1F128050C18A67A4EB17C
:10740000A37200EB800405EB8404E66816B9247CC3
:10741000012C0AD0401C80B20228EED30B704B80A6
:107420004B60F0BC41F61D5070471080F0BC00F07E
:107430003DB80000F48600200C48418801EB810231
:10744000A0F1280101EB8201CA6852B10521017047
:10745000074802218180016800230122054802F0CB
:107460009DB9042202704968F6E70000F486002006
:10747000507300208873002038B50A490848032457
:107480000B684268898803EB810153880470DB1C18
:1074900000201B0400909B0B034802F045FA38BD06
:1074A000F48600205073002088730020074910B52F
:1074B0004888091D04F0D0FF18B1BDE81040FFF75F
:1074C000DBBFBDE81040FFF7B7BF0000F486002027
:1074D000F0B51F481F490125067802248B88A0F1CA
:1074E0002802082E19D2DFE806F00418181B222FF4
:1074F0002F170189491C01810021418080F80C105F
:1075000001EB810312F8233043B100234418491CD6
:1075100089B2A3720229F3D30570F0BD0123F5E708
:1075200042685288D21C1A448A800470F0BD468892
:107530000D6806EB860602EB860256680E60556003
:1075400013818C80062100E007210170F0BD00004E
:10755000F48600205073002030B501888588224CC5
:1075600085B0502924D0522902D0542932D103E0C9
:10757000284601F021F82DE014221C496846FCF74A
:1075800028F8ADF80250284600F0A4FCADF804003D
:1075900000F04EFA002261792846FDF773FF0022C1
:1075A00021792846FDF76EFF6846FFF719FC11E0C8
:1075B000017B01290ED1817A01290BD10089A0F527
:1075C0002451023906D10121284601F029F8A0787A
:1075D00004F0B6F9E07804F0B3F9207905B0BDE81D
:1075E000304004F0ADB90000A472002054E2020063
:1075F00010B50446007800280FD1608800F0DCFF49
:10760000608800F0BDFA002807D004496088012294
:107610000979BDE81040FDF735BF10BDA472002008
:1076200010B5124C00202070FDF7F2FEA070FDF79F
:10763000EFFEE070FDF7ECFE2071FDF7E9FE6071F2
:10764000A17818290FD0E17818290CD021791829B0
:1076500009D0182807D00121601C04F05FFB01202D
:107660002070002010BD032010BD0000A472002077
:107670002DE9F04192B000F0F3F96846FDF798FE6D
:1076800000246E460D4D4FF6FF780DE006EB4407E3
:10769000B88800F01FFC404504D1B8880122297940
:1076A000FDF7F0FE641CA4B20098A042EED8287941
:1076B00004F046F912B0BDE8F0810000A472002089
:1076C0007CB5044600781C4D08282FD1607A38BB61
:1076D000207A4FF6FF7601280DD0072802D008281F
:1076E00024D11EE0A08800F033FBB0421ED001215F
:1076F00000F096FF1AE0A0886A46012103F0B4FD6D
:1077000070B90198007858B1A08800F021FBB04210
:107710000CD001222979FDF7B5FE287904F010F983
:1077200004E005480021401C04F033FBA878BDE8C4
:107730007C4004F005B90000A472002010B5044696
:107740000A4841782046FDF787FE68B108480021C5
:1077500001EB410200EB82025288A24201D1C8B281
:1077600010BD491C1429F3D3FF2010BDB6720020B0
:10777000E48100207047000070B5094D094E0024D7
:1077800004EB440005EB800071784088FDF764FE4F
:1077900020B1641C142CF3D3FF2070BDE0B270BD87
:1077A000E4810020B67200202DE9F0410324504D01
:1077B000DDF818801F46092979D2DFE801F005239A
:1077C0007834785278787A0011464A4800F094FF6D
:1077D00006462888324604EB004047A102F060FAD2
:1077E000082E64D8434842462A3800EB8606B01C6F
:1077F0003946FBF7EEFE2888B6F9022004EB00407C
:1078000044A171E011464A4800F076FF08284ED89E
:1078100047494246213901EB40003946BDE8F04175
:10782000401CFBF7D6BE1146424800F065FF0646F5
:107830002888324604EB00403FA102F031FA082EBE
:1078400035D83C4806EB460131380E18701C4246CC
:107850003946FBF7BEFE2888727804EB00403DA154
:1078600042E01146434800F047FF0646288832466A
:1078700004EB004040A102F013FA082E17D83D484F
:1078800006EB4601713800EB8106701C4246394612
:10789000FBF79FFE09E0F0193DA14278288804EB30
:1078A000004002F0FDF97F1CFFB20C2FF3D3BDE8BE
:1078B000F08111463A4800F01FFF064628883246FC
:1078C00004EB004037A102F0EBF9082EEFD8344862
:1078D000424619380644701C3946FBF77AFE288860
:1078E000727804EB004036A1BDE8F04102F0D8B94F
:1078F00020740020AE7A00202D2D2D2D2D2D2D2D24
:107900002D2D7261723331322068616E646C652096
:10791000256400002D2D2D2D2D2D2D2D2D2D726149
:1079200072333132646174612030782530327800EE
:10793000427A0020217B00202D2D2D2D2D2D2D2D47
:107940002D2D6375727461696E2068616E646C655B
:10795000202564002D2D2D2D2D2D2D2D2D2D6375E4
:10796000727461696E2064617461203078253032F0
:1079700078000000D47B00202D2D2D2D2D2D2D2DB8
:107980002D2D706D692068616E646C652025640022
:10799000706D696461746120307825303278000040
:1079A000DF7900202D2D2D2D2D2D2D2D2D2D455FF9
:1079B0003039412068616E646C65202564000000E8
:1079C0002D2D2D2D2D2D2D2D2D2D6461746120300B
:1079D00078253032780000002DE9F041124E07463C
:1079E0000125BD403068FDF717F800280DD10F4C78
:1079F0002069284207D1384601F0A4FC0028E0683D
:107A000005D0284304E0A8432061BDE8F081A843E5
:107A1000E060206928432061A1683068BDE8F0413A
:107A20000022FCF7B5BF000090E3020000730020C5
:107A30001CB5054AD2E90212CDE9001200226946BE
:107A400003F037FC1CBD00006CE2020003484FF657
:107A5000FF7181800121017000207047B072002009
:107A600010B54FF6FF7003F0B7FB03498880BDE8FF
:107A7000104005F077B80000B07200202DE9FC41FD
:107A8000804600F027FA002403250127A0F57F4156
:107A90002646FF3908D06A46082103F0E5FB18B9ED
:107AA0000198841D8688056832462B46214640464B
:107AB000A9DF042804D0082804D00B2808D002E04D
:107AC000112000E00020002F00D10B20BDE8FC8138
:107AD0000027A80701D50125E6E73443F5D00024A7
:107AE00026460325E0E72DE9FC41804600F0F2F947
:107AF0000646A0F57F40FF380ED001252A466D1CB2
:107B00000027ADB26B460821304603F0D7FB0400D6
:107B100006D0072C25D025E043F20200BDE8FC8109
:107B2000019903230A1D0B604046891DAADF04004A
:107B300004D00C2C09D0052C09D009E032460821CC
:107B4000104603F051FC04460CE0012700E000243D
:107B50000821304603F034FC00B10324002FCDD1BE
:107B600000E00C242046D9E704488088A0F57F4136
:107B7000FF3901D004F0F6BF70470000B07200205A
:107B80000EB502A9019100F0A5F96A46012103F0A2
:107B90006BFB08B100200EBD019800780EBD0000FF
:107BA0002DE9F04107464FF6FF760A48ABDF10B1EA
:107BB0000320BDE8F081074C43F20305A41E3246C2
:107BC00061883846A7DFA842F3D16088401C6080F6
:107BD000F5E70000B2720020428800EB82020C320E
:107BE0008A4201D9022070478188A1F57F42FF3A7D
:107BF00003D0008808B100207047012070478842F8
:107C000004D20068401C01D001207047002070475A
:107C10003EB5027802230C46B3EB520F17D1B0F8F1
:107C20000110ADF80010C1788DF802108188ADF810
:107C3000041080798DF8060002AA01A92046FCF7FD
:107C4000E9FC032202A96846FBF7FCFC08B100200E
:107C50003EBD01203EBD000010B50C46FFF76EFD95
:107C6000FF280CD0074900EB400001EB8000416881
:107C700021600189A180807AA071002010BD0520BB
:107C800010BD0000E481002070B5018892B0102979
:107C900059D1011D34226846FBF79BFC9DF8040076
:107CA0004FF6FF76032134466D46B1EB500F2AD0D4
:107CB00003F050FC9DF8040040080ED001280CD0C1
:107CC000022820D118E00F99281D1131FCF7EDFB97
:107CD00018B100BFBDF8344015E00EAA0DA9072069
:107CE00003F00CFC0028EED10DE00F99281D491C73
:107CF000FFF78EFF0028EDD10EAA0DA9072003F093
:107D0000FDFB0028F1D1BDF80000291D00F0EEFFB9
:107D1000B44218D0BDF80000214600F0C5F8BDF807
:107D20000000ADF836000020ADF83840074E8DF861
:107D300034000DAD044600BF56F82410284688478D
:107D4000641C022CF8D312B070BD000080E2020067
:107D5000094A002101EB410332F82330834205D167
:107D600001EB410002EB800040887047491C142958
:107D7000F0D34FF6FF707047E48100203EB50C460B
:107D8000054603F0E7FB0BE0BDF80000A04207D07A
:107D90002846029900F02EF810B1BDF800003EBD53
:107DA00001AA6946072003F0A9FB0028ECD14FF691
:107DB000FF703EBD10B50D4C18200D4A60700020BC
:107DC0004FF6FF7100EB400302EB8303401C598028
:107DD0001428F7D3FDF71CFB6070182803D001208E
:107DE0002070002010BD032010BD0000B6720020DE
:107DF000E48100202DE9F0410C46054600F1110711
:107E000001F111061022491C401CFBF71BFC48B96C
:107E1000681C00F0A3F928B1601C00F09FF908B1BC
:107E2000012400E0002431463846FCF73EFB3B7855
:107E30000222B2EB530F0CD00321B1EB530F08D049
:107E40003378B2EB530F04D0B1EB530F01D00121C3
:107E500000E00021084201D18C4302D00120BDE89E
:107E6000F0810020FBE7018811B9421892780AB12D
:107E700001207047491C0829F7D30020704710B52E
:107E80000C460346FFF7EFFF00280AD01888218828
:107E9000884205D10822A11C981CFBF7D3FB08B12E
:107EA000002010BD012010BD03F0FABC70B50446DF
:107EB000FFF74EFF0546204603F0D9F94FF6FF7154
:107EC00004468D4203D014B9284603F0E9FC20464D
:107ED00070BD000010B5FFF731FCFF2805D0044944
:107EE00000EB400031F8200010BD4FF6FF7010BDD0
:107EF000E48100203EB5044603F02CFB0EE001991E
:107F000020464631FFF7BBFF28B9019920462A31A8
:107F1000FFF7B5FF10B1BDF808003EBD6A4602A9E3
:107F2000072003F0EBFA0028E9D14FF6FF703EBDC1
:107F300038B504460A4801216A46FBF729FA68B9B0
:107F40000848606002F04EF905491C238C22087431
:107F500004488C39001F006800F01EFF002038BD67
:107F6000A0870020B4E302002DE9F0412D4F002549
:107F700018B17D600120BDE8F0810879012258B177
:107F8000294E01280CD0274C4FF002080834022853
:107F900021D0032842D128E00A7103F00FF83BE01A
:107FA0005FF0000000EB800116F82110022908D0D4
:107FB000401C80B20228F5D33A707D6041F61D5016
:107FC000D9E700EB800006F8205006EB80004068FF
:107FD00002F0E6FF20E00D71A4F8048000230122E6
:107FE0001248216801F0DAFB16E00D71206802F0FA
:107FF000D7FF0D4923682831498801EB810206EB40
:108000008201D1F804C0C4F800C04B60A3880B8182
:10801000A4F8048006F822500028ACD07D600E2021
:10802000A9E7000048730020CC8600208873002058
:108030000146034802888A4200D0002070470000B1
:10804000E47D002070B50E460446007918494FF4CF
:10805000A27501EB4010017F2068A1B14FF4887137
:1080600002F078F94FF49071206802F073F94FF440
:108070009271206802F06EF92946206802F06AF9D0
:108080000C49206809E04FF48E7102F052F929463C
:10809000206802F04EF908492068C0F804132068EF
:1080A00001F09EF83146BDE8704001F07DB8000057
:1080B000AC84002010030200800002000248007A15
:1080C000002800D001207047A0870020F0B58488E8
:1080D000A518944200D82246A41AC288D6189A42FB
:1080E00000D81346D21A4B880788BB420CD340886D
:1080F000834209D88888A04206D3A84204D8C888F9
:10810000904201D3B04201D90020F0BD0120F0BD62
:1081100010B509892AB1D088491C814218D10020A4
:1081200010BD90F8C62202EB8204C4EB821200EB71
:10813000420212899142F2D0491C198090F8C6126D
:1081400001EB8102C2EB811100EB4100008902E0EA
:108150001980D088401E5880012010BD0021425C4B
:108160000AB101207047491C1029F8D3002070473C
:10817000800701D000207047012070470A4810B5E1
:10818000807860B1002401E0022C06D02046FDF783
:10819000CFFE641C042CF7D310BD0324F6E7BDE822
:1081A0001040FDF7FBBE0000747200200348017907
:1081B000C90702D00078FDF7E7BF7047747200204E
:1081C00006490120086006480168C1F30041002902
:1081D000FAD1044900208870704700000C0000406C
:1081E000180400404084002055210180172141805F
:1081F000002101714171592181711B21C1717047A9
:108200002DE9FE4F2A4D984691460F00824601D037
:1082100000260DE0684600F095FD6A4600215046B4
:1082200002F091FF2878009E10B99DF8090098B1DE
:108230004A463146504604F0A1FE0446014600225B
:108240005046FFF715F8112C1AD008DC74B3082C2F
:108250002CD00D2C09D129E00520BDE8FE8F862CFD
:108260001AD0A4F54050023820D00325B8F1000FF1
:1082700004D0324621465046FEF777FD2846ECE70B
:108280003A4629795046FDF7FDF84A46E9785046C6
:10829000FDF7F8F80025E9E73A4629795046FDF759
:1082A000F1F84A46E9785046FDF7ECF82546DDE757
:1082B000E87200207CB50D4606466A46072128462E
:1082C00002F0D2FF040005D0052C0FD0112C1DD0D8
:1082D00003241BE0019C94F84400183410F00100C2
:1082E00001D0019C34340CB110B106E011240DE032
:1082F00004F11200FFF7B7FD38B1224604F1120174
:10830000304685DF04000FD000E00B24002100225E
:10831000304604F0A9FB4CB1002200232946304628
:1083200004F086FB20467CBD0121F0E70122F4E742
:108330002DE9FC4716000D4681464FF002084FF02C
:10834000000710D03078C00720D04FF6FF744FF0F0
:108350000108A54203D102F07DFF05460127A54291
:1083600006D1032417E0002148467EDF04461BE0C7
:108370006B4601220721284602F0A0FF04000AD123
:108380000721284603F044F8040004D1314648464A
:108390007EDF04001CD00721284603F011F818B135
:1083A000052801D0032404E0042C01D084B100E0AE
:1083B000112400214246484604F056FB54B10022E5
:1083C0003B462946484604F033FB2046BDE8FC877F
:1083D0000121EFE70122F3E72DE9F041204F0E469E
:1083E000154604463978FDF737F8002835D0204681
:1083F00002F084FE50B32046FFF76CFD8046204615
:10840000B978FDF729F808B1012700E002272046D6
:1084100003F058F90028404602D0FFF747FD0DE071
:10842000A8F57F41FF3909D0072102F0C9FF0100FB
:1084300004D0052902D0204604F080FB2B463246AA
:1084400039462046BDE8F041FEF71EB92A463146BE
:108450002046BDE8F041FEF7EBBBBDE8F08100002F
:10846000E07200202DE9F04391B08146FCF7E6FF71
:10847000002820D06846FCF79BFF00246E4617E0DA
:1084800006EB44054946A888FCF7E6FF78B10B4F98
:10849000A888F978FCF7E0FF8046A8883979FCF7CE
:1084A000DBFF0146A88801234246FFF7A9FE641CB2
:1084B0000098A042E4D811B0BDE8F083E872002033
:1084C0002DE9F047394E002780463D46DFF8E09021
:1084D000D6F804A057E003D00446D0F81C8035E05D
:1084E00099F8002002EB4201521CD2B289F8002018
:1084F00009EBC10199F80230091D9A4201D189F8AE
:10850000005048680A780446012A12D0022A02D094
:10851000032A3BD108E004F0ADFF00B10127257428
:1085200034E00574C06900E070680028F9D170601B
:108530002CE0207C50BB88686060C868A060086937
:10854000E0604869A061F07800B165606268B16878
:10855000184B501A20F07F40984202D2A16808447C
:1085600006E0881AA16820F07F40814202D9081AEB
:10857000206000E0256065600120A5602074204631
:10858000E56104F059FFB8F10000A4D199F800109A
:1085900099F801008142A3D117B97168514502D001
:1085A0000120BDE8F0870020FBE7000014730020E5
:1085B0000C850020FFFF7F0030B585B00546002404
:1085C00014216846FBF72CF8A5F57F40ADF8025062
:1085D000FF3815D02846FFF751FA98B10B2815D06F
:1085E000112811D0A0F54051023903D00146284688
:1085F00004F090FA09482246C1782846FCF742FF69
:1086000005B030BD0E2002E00124F3E70F208DF805
:1086100000006846FEF7E4FBECE70000A4720020CF
:108620000A4602498978FCF72DBF0000A472002099
:10863000F8B5054600780C46002620420FD10020F0
:108640008DF800006846FCF7ABFA2878204202D18A
:108650002043287001269DF80000FCF7C5FA30463B
:10866000F8BD000070B588B0214800F0D4FB204868
:10867000001F064600F0CFFB1E4DD5E9014105E085
:10868000C0F3891202EB9050641C044404EA010018
:1086900005EB8000C0688207F2D000200DF10802CF
:1086A00004EA010305EB8303641CDB6842F8203015
:1086B000401C0228F4D3029800F00300012808D0DF
:1086C00002280AD10298032101EB905004EB900498
:1086D00003E00298C0F3831004443046002101AA4D
:1086E000FAF7FFFE002800D06C6008B070BD0000F3
:1086F000BC8C0020A48800202DE9F04104460F46E0
:1087000000250846FBF767F94FF6FF7100B17CB909
:108710000846BDE8F0816019062286783946C6EB26
:10872000C60020440A30FAF78DFF30B16D1CEDB25F
:108730002078A842EFD83846EBE7C6EBC6002044C5
:10874000077CF8E78AB0002001F0DAFA20B1784A15
:1087500040F2E651FCF77AF801F0A4F904F000FECB
:10876000182274496846FAF734FF73480690734933
:108770004FF48070CDE9070109900723704A06A9DC
:108780006846FCF795F920B1694A40F24371FCF75D
:108790005DF800210320FDF7ADFC20B1644A40F2F2
:1087A0001251FCF753F869460020FDF71BFC20B17D
:1087B0005F4A40F21551FCF749F89DF80000022885
:1087C0007DD00026FDF724FBFEF780FD5D495E4865
:1087D00000F094FB20B1564A40F24A51FCF736F8BB
:1087E0005521594800F07EFB20B1514A40F24D51CD
:1087F000FCF72CF81C216846FAF712FF00204FF412
:108800002031CDE900014FF47021032502918DF84C
:108810000C504FF6FF710590ADF80E104B4801213A
:1088200006908DF810106846FCF78EFD20B1404A86
:1088300040F26551FCF70AF84548FCF75BFE20B1B1
:108840003B4A40F28E51FCF701F803F037F83E4FF7
:1088500040480024AC3F40F28768009007EB0410CA
:108860006946FDF70FF918B1314A4146FBF7EEFFB3
:10887000641CE4B2082CF1D33748009032486946B2
:108880002C38FDF705FA20B1294A40F2EF61FBF7D9
:10889000DDFFFBF78BFE3148FBF71AFC04F04CFDC3
:1088A0002F4C96B120882FA105EB004001F0F4F980
:1088B00003F07EFB58B11E4A40F2035100E002E093
:1088C000FBF7C4FF03E001267CE7FBF72AFE2088C4
:1088D00028A105EB004001F0DFF9FBF731FE154C54
:1088E0000022243C4FF480312068FCF751F820B17D
:1088F0000F4A40F25271FBF7A9FF00224FF4A47116
:108900006068FCF745F820B1094A40F25671FBF760
:108910009DFF40F2256400BF01F0C6F80028FBD19E
:108920003EDF0028F8D0024A2146FBF78FFFF3E72D
:108930006445020050E10200E2740020E27500206C
:10894000A9D602003D730200907700202566020040
:10895000196802004159020091A50200193802006D
:1089600020740020457261736520626F6E6473210C
:108970000000000052656C6179206578616D706C53
:108980006520737461727465642E000070B51446BE
:1089900082880E4605462088111D0144921C99428A
:1089A00001D8FE2A01D90C2070BD521C32542088F7
:1089B000FF21401C80B2208031542088401C80B2AE
:1089C00020808119288805F0D5F82188084480B2D4
:1089D0002080AA8842B1A96841B13044FAF7F9FD74
:1089E0002088A98808442080002070BD072070BD21
:1089F0002DE9F043814660480324604E8BB000EBC4
:108A0000021006293CD2DFE801F0033CAE6CAE86D2
:108A100050F8101D00918088ADF804006946584850
:108A2000FFF76AFEC7B200254FEA0D08308818F834
:108A3000053004EB00402A4652A101F038F96D1CC4
:108A4000EDB2062DF2D330883A4604EB004051A136
:108A500001F026F94A482A3800EB87004188ADF832
:108A60000F1000798DF8110000208DF80800009893
:108A7000CDF80900BDF80400ADF80D008DF82840D0
:108A800071E050F8101D00918088ADF8040069462F
:108A90004548FFF731FE01218DF808100099CDF807
:108AA0000910BDF80410ADF80D1002218DF8281042
:108AB0003D49C0B2213901EB40000025B0F801006A
:108AC000ADF80F0002AF78192A46C379308837A174
:108AD00004EB004001F0EBF86D1CEDB2022DF2D377
