:020000040002F8
:1030000080860020153402001D3402001F340200A7
:1030100021340200233402002534020000000000A5
:103020000000000000000000000000002734020043
:1030300029340200000000002B3402002D3402006D
:10304000A93702002F340200493B02002F3402004E
:103050002F3402002F340200D13502002F34020039
:103060002F3402002F3402002F3402002F340200CC
:103070002F3402002F3402002F3402002F340200BC
:103080002F340200013802002F3402002F340200D6
:10309000253802002F340200293802002F340200A4
:1030A0002F3402002F3402002F3402002F3402008C
:1030B0002F3402002F340200000000000000000046
:1030C0002F3402002F3402002F3402002F3402006C
:1030D0002F3402002F3402002F34020000000000C1
:1030E00000000000000000000000000000000000E0
:1030F00000000000000000000000000000000000D0
:1031000000000000000000000000000000000000BF
:1031100000000000000000000000000000000000AF
:10312000000000000000000000000000000000009F
:10313000000000000000000000000000000000008F
:10314000000000000000000000000000000000007F
:10315000000000000000000000000000000000006F
:10316000000000000000000000000000000000005F
:10317000000000000000000000000000000000004F
:10318000000000000000000000000000000000003F
:10319000000000000000000000000000000000002F
:1031A000000000000000000000000000000000001F
:1031B000000000000000000000000000000000000F
:1031C00000000000000000000000000000000000FF
:1031D00000000000000000000000000000000000EF
:1031E00000000000000000000000000000000000DF
:1031F00000000000000000000000000000000000CF
:10320000DFF80CD000F0A6F900480047695302002F
:103210008086002030B450E8012F93B2C489234443
:103220008489A34228BF1B1B0489A34202BFBFF3AA
:103230002F8F002007E0C3EA020340E80134002C8E
:10324000E9D14FF001000A6030BC704750E8012F0F
:10325000C2EA024240E801210029F7D1704730B4A8
:1032600050E8022F1FFAA2F3C488A34202BFBFF3A3
:103270002F8F00200DE0C48923448489A34228BFF6
:103280001B1BC2EA034340E80234002CE8D14FF094
:1032900001000A6030BC704750E8022FC2EA2242A7
:1032A00040E802210029F7D17047034653E8022F76
:1032B000D988B2EB324F4FF0000017BF92B241EA0B
:1032C000014142EA014104E05A68B2EB324F08BFC3
:1032D000012043E80212002AE8D1704730B40446C6
:1032E00054E8000F0D4644E80053002BF8D1156058
:1032F00030BC704730B4044654E8000F40EA010582
:1033000044E80053002BF7D1156030BC704730B44F
:10331000044654E8000F00EA010544E80053002B7E
:10332000F7D1156030BC704730B4044654E8000F44
:1033300080EA010544E80053002BF7D1156030BC4A
:10334000704730B4044654E8000F00EB010544E830
:103350000053002BF7D1156030BC704730B40446E1
:1033600054E8000FA0EB010544E80053002BF7D10F
:10337000156030BC7047000030B4044654E8000FBC
:103380000D4644E80053002BF8D1156030BC70475F
:1033900030B4044654E8000F40EA010544E8005305
:1033A000002BF7D1156030BC704730B4044654E8A8
:1033B000000F00EA010544E80053002BF7D1156027
:1033C00030BC704730B4044654E8000F80EA010571
:1033D00044E80053002BF7D1156030BC704730B47F
:1033E000044654E8000F00EB010544E80053002BAD
:1033F000F7D1156030BC704730B4044654E8000F74
:10340000A0EB010544E80053002BF7D1156030BC58
:10341000704700000648804706480047FEE7FEE781
:10342000FEE7FEE7FEE7FEE7FEE7FEE7FEE7FEE774
:103430002D380200013202002DE9F05F0546002020
:1034400092469B4688460646814640241BE0284615
:1034500041464746224600F06CF853465A46C01A89
:10346000914110D311461846224600F053F82D1A08
:1034700067EB01084F4622460120002100F04AF880
:1034800017EB00094E41201EA4F10104DFDC484681
:1034900031462A464346BDE8F09F00000048704789
:1034A0002480020040EA01039B0703D009E008C919
:1034B000121F08C0042AFAD203E011F8013B00F8F9
:1034C000013B521EF9D27047D2B201E000F8012B45
:1034D000491EFBD270470022F6E710B513460A4694
:1034E00004461946FFF7F0FF204610BD421C10F8B5
:1034F000011B0029FBD1801A704730B5044600201B
:10350000034600E05B1C934203D2E05CCD5C401BB1
:10351000F8D030BD202A04DB203A00FA02F1002066
:1035200070479140C2F1200320FA03F31943904001
:103530007047202A04DB203A21FA02F0002170476C
:1035400021FA02F3D040C2F120029140084319460B
:1035500070470000064C074D06E0E06840F00103AC
:1035600094E8070098471034AC42F6D3FFF74CFEBE
:10357000B8860200D886020070B58C1810F8015B7E
:1035800015F0070301D110F8013B2A1106D110F8FC
:10359000012B03E010F8016B01F8016B5B1EF9D100
:1035A0002B0705D40023521E0DD401F8013BFAE786
:1035B00010F8013BCB1A921C03E013F8015B01F8F1
:1035C000015B521EF9D5A142D8D3002070BD000086
:1035D0002DE9F04700268CB0DFF86091B0464FF43B
:1035E0008075012437460696284602F093FD38B1CF
:1035F000D9F80403204203D0284602F081FD264377
:103600002D1D64007F1CADB2082FEDD34FF4BE74A6
:10361000204602F07FFD48B1204602F071FD46F0E1
:10362000004606AA0121002002F056FD444D16F086
:10363000FF0F15D00127002437420DD009EB84017C
:10364000D1F81005D1F81015C0F3042055F8242046
:10365000C1F3014102B190477F00641C082CEBD3F9
:10366000002E67DA4FF0FF30CDE90880002634469F
:10367000281910F8507F90F9000027F0C008401C6E
:1036800044D009A9404601F0B0FF58B34FEA97195A
:10369000404601F035FA55F820701FB1B9F1030F1B
:1036A00003D00FE0B9F1030F30D108A84FEAD802D8
:1036B00008F00703815C4FF0010C0CFA03FC41EAAF
:1036C0000C0181544FF0A04101EB8800D0F80007B5
:1036D00006A9C0F3014A404601F087FF18B1BAF1CC
:1036E000020F03D012E0BAF1030F0FD1B9F1030FAB
:1036F00008D1BAF1020F1BD00221404602F0D0FCE3
:10370000761CF6B217B149464046B847641C042CF3
:10371000AED3002E0ED06A460121002002F0DCFC60
:1037200006990098884205D00690089809909DE770
:103730000321E2E70CB0BDE8F08700000060004024
:10374000005F002000F01F0201219140400980002D
:1037500000F1E020C0F88012704700F01F02012144
:1037600091404009800000F1E020C0F8001170474E
:1037700000F01F02012191404009800000F1E0208B
:10378000C0F8001270474907090E002806DA00F059
:103790000F0000F1E02080F8141D704700F1E020D8
:1037A00080F80014704700002DE9F0414FF4807755
:1037B000384601F0E9FF0124104EA50748B138460C
:1037C00001F0E9FF0120C5F808037470002001F042
:1037D000C1F94FF48277384601F0D6FF00280BD0AC
:1037E000384601F0D8FF0220C5F80803B470BDE8E0
:1037F000F041012001F0AEB9BDE8F081EC5E00209F
:1038000007480021C0F84011C0F84411C0F8481121
:10381000C0F84C11C0F80011C0F8041104F016B83B
:103820000010014003F060BF03F04EB9F0B5B54899
:103830000023021D0178101D01254FF08054062938
:103840000BD11678360708D10678C6F30316032E77
:1038500006D0042E04D0052E02D0062907D00EE093
:10386000B4F82463A84FC6F304263E6002E016783D
:10387000360704D10678C6F30316032E02D00629B4
:1038800004D00FE0A24FA14E7E670EE016783607F7
:1038900008D10678C6F30316032E06D0042E04D0F2
:1038A000052E02D0062907D00EE0D4F84462994FC5
:1038B000C6F342363E6002E01678360704D1067839
:1038C000C6F30316032E02D0062906D011E0924E4D
:1038D000376827F0807737600EE01678360708D112
:1038E0000678C6F30316032E06D0042E04D0052E48
:1038F00002D006290AD011E04FF08046C6F80C31FC
:10390000C6F81031834E361F336002E01678360752
:1039100004D10678C6F30316032E02D0062905D07B
:103920000CE07C4F032664373E600AE016783607C9
:1039300004D10678C6F30316032E02D006290DD053
:1039400014E0764F05263E60744E78363560734E2F
:10395000083633603F263F1D3E6002E0167836078A
:1039600004D10678C6F30316052E02D0062957D0D7
:1039700062E06B4E36686B4F3E60694E361D3668AE
:103980003F1D3E60664E083636683F1D3E60644E01
:103990000C3636683F1D3E60614E103636683F1D5E
:1039A0003E605F4E143636683F1D3E605C4E1836F2
:1039B00036685C4F20373E60594E1C3636683F1DD6
:1039C0003E60574E203636683F1D3E60544E2436CA
:1039D00036683F1D3E60524E283636683F1D3E60B9
:1039E0004F4E2C3636683F1D3E604D4E30363668A1
:1039F0004C4F40373E604A4E343636683F1D3E607D
:103A0000474E383636683F1D3E60454E3C36366878
:103A10003F1D3E60424E403636683F1D3E6002E02C
:103A20001678360708D10678C6F30316032E06D09B
:103A3000042E04D0052E02D0062907D019E0D4F8B0
:103A40005812394A01F04F01116002E0117809075C
:103A50000FD10078C0F30310032803D0042801D04D
:103A6000052806D131480168C90702D06FF001016D
:103A70000160D4F83001062808D1D4F834010628B2
:103A800004D12B48016841F48061016022487438F8
:103A9000016841F470010160BFF34F8FBFF36F8F76
:103AA0004FF01021D1F80002002803DBD1F8040206
:103AB000002822DA1F4A15601F480468002CFCD039
:103AC0001524C1F800420568002DFCD0C1F804425D
:103AD00001680029FCD0136001680029FCD0BFF305
:103AE0004F8F0D48F0380168144A01F4E06111432A
:103AF0000160BFF34F8F00BFFDE712491048086017
:103B0000F0BD0000E00F00F0403501400DF0ADBA0F
:103B100000C007403C050040FCED00E010560040AE
:103B20000404001020C50040E40E004000040040E2
:103B30003C17004004E5014000E401400400FA05A0
:103B40000090D003BC5800200448017F044800299D
:103B5000024901D003F0B3BF03F022BF585F002039
:103B60000020004002E008C8121F08C1002AFAD154
:103B700070477047002001E001C1121F002AFBD1ED
:103B8000704700000121202803DA814005480140E8
:103B900003E0402802DA2038814009B10120704753
:103BA00000207047FC06FFBD082806D228B1012876
:103BB00003D0042801D0012070470020704770B561
:103BC00000230D884C680DE0E618E15C76788642AB
:103BD00006D1E018801C491E50601180002070BD85
:103BE0000B445B1C9D42EFD8052070BD10B501222F
:103BF0000221002000F0C4FD08B1072810D10722DF
:103C00000221012000F0BCFD08B1072808D10021E5
:103C10000A22084600F0B4FD08B1072800D10020B0
:103C200010BD000070B50024084D05E0686810F86C
:103C3000340001F063FE641C28788442F6D3044803
:103C40000068BDE8704000F017B900002858002057
:103C5000907D020070B50024064D06E068680121E1
:103C600010F8340001F06EFE641C28788442F5D30D
:103C7000002070BD28580020F8B515460C460646B1
:103C8000052A01D20720F8BD01F042FF18B901F062
:103C900011FF0028F7D1104900204E600C70C1E9D7
:103CA00002500E4D08610DE006EBC40069680091FA
:103CB00081788DF801100078094A694601F094FE78
:103CC0000028E0D1641EE4B2EED2BDE8F840054A17
:103CD0000021024800F050B828580020907D0200D2
:103CE000E14E0200C94C020002F098FC02F0EEFA2C
:103CF0000028FBD1104C0121208801EB00400FA1CE
:103D000002F0DCFB10480068C00700D000BE20882D
:103D1000022101EB00400DA102F0D0FBBFF34F8F59
:103D20000948E43801680D4A01F4E061114301607B
:103D3000BFF34F8F00BFFDE7145900204661746147
:103D40006C206572726F7200F0ED00E0537973744D
:103D5000656D207265736574000000000400FA054B
:103D60000EB500210091CDE901106A4644F2010030
:103D7000FFF7BAFF0EBD0000074B9B7823B12AB1B5
:103D800020B10068037C1BB10820704707207047F2
:103D90004174426100207047985F002070B503F0C5
:103DA00097FA104800240B21047044700E4D817066
:103DB00014206C602C706C70FFF7C4FC0721142079
:103DC000FFF7E1FC1420FFF7C8FC08480460072156
:103DD0001120FFF7D8FC0548001F0068A8600020EC
:103DE00070BD0000985F00203C580020081501407D
:103DF0002DE9FC47DFF8789099F8023073B368B387
:103E0000052902D20720BDE8FC87436933B3437C10
:103E1000012B25D0002704460025884616468DF83C
:103E20000050684600F038F801A803F01BFFC8B145
:103E3000012101700F4944600968C0E90218C0E916
:103E400004769DF8040089F801009DF8000000F058
:103E500047F81420FFF78CFC2846D4E70820D2E767
:103E60000F46D8E704259DF8000000F039F8F3E785
:103E7000985F0020041501400649897839B130B1B6
:103E8000416921B100210174022103F0BBBC08206B
:103E900070470000985F002030B5EFF3108172B6D4
:103EA0000D4A9468012324B10370002900D162B641
:103EB00030BD93604FF0E023D3F88051074C25408C
:103EC0001560C3F88041D3F8844154605A17C3F891
:103ED000842100220270E8E7A4600020FC06FFBDF8
:103EE0000B498A68002A11D000280FD1EFF3108007
:103EF00072B60B684FF0E022C2F800314B68C2F88E
:103F0000043100228A60002800D162B670470000A8
:103F1000A46000202DE9F041064608680C46411CCB
:103F20004FF0A0474FF0010506D005FA00F1C7F8A1
:103F30000815206802F0AAF86068411C02D0002130
:103F400002F09BF83079204901EB4010A169007F15
:103F500000283068C0F8241525D0607D227D3168A6
:103F60001043C1F86C05D4E900123068C0F80C1594
:103F7000C0F8142524E0A068411C02D0002102F002
:103F80007CF8E068411C05D08540C7F80855E0681A
:103F900002F07CF8D4E902123068C0F80825C0F8B5
:103FA0001015BDE8F081607D217D32680843C2F8BC
:103FB0006C05D4E900123068C0F81425C0F80C155F
:103FC000207D0128D7D0ECE7585F0020B8210148B8
:103FD000FFF781BA7C5A0020FFF7F8BF0249C86C8E
:103FE000896C084003F0C4BA7C5A002070B540B117
:103FF0000C4D297839B1044603F04EF928B1002060
:1040000070BD0E2070BD082070BDE868062807D27C
:104010000549226801EB8001401C0A60E860EEE778
:10402000042070BD10580020345B002040B10549C9
:1040300000220123CA600B70C1E9010210467047DB
:104040000E2070471058002070B504002DD00029B4
:104050002BD020480078002827D020880D46112832
:1040600015D0302804D0322807D033281ED109E0DB
:10407000211D284602F0B0FF18E0211D284602F05D
:1040800021FE13E0211D284602F0F4FE0EE0A08878
:10409000B5F8CA12884209D1002085F8C70285F810
:1040A000C8024FF6FF70A5F8CA0270BD95F8C802A5
:1040B0000028FAD020883028F7D34F28F5D8A088D8
:1040C000B5F8CA128842F0D12846BDE8704000F029
:1040D00091BE00001058002048B1084A137843B13F
:1040E000D26832B190F8C7222AB1112070470E2051
:1040F00070470820704700F07DBE00001058002077
:1041000038B50188041D1F2969D011DC3F4A4FF0E2
:1041100003031029128803EB024513D0112946D05E
:104120001B2969D01D2967D1BDE8384002F07ABD4E
:10413000212958D03B2960D056295DD18088132190
:1041400076DF5DE02288284631A102F0BBF92088A5
:10415000082802D30020FFF703FE218839480022F7
:1041600000EB011000F076F908B1FFF7F9FD2188A6
:10417000B320354A484302EB8000FFF7ADFF11281A
:1041800002D008B1FFF7ECFD012000F05FFAFFF765
:1041900025FF08284FF0000005D000F057FABDE8D1
:1041A000384003F0D9B8BDE8384000F047BA237969
:1041B0002288284625A102F08CF9FFF70FFF38B9B5
:1041C000FFF730FD08B1FFF7CBFD012000F036FA14
:1041D00003F0C2F8BDE83840002000F037BA20886C
:1041E000211D75DF0CE000210091808869468FDF7A
:1041F000002801D0FFF7B4FD38BD8088132176DF99
:104200000028F9D0BDE83840FFF7AABD14590020B6
:10421000436F6E6E656374696F6E20307825782009
:1042200065737461626C69736865642C2073746172
:104230007274696E6720444220646973636F7665A7
:1042400072792E0090590020984100204C42532052
:1042500063656E7472616C206C696E6B20307825BA
:104260007820646973636F6E6E656374656420287B
:10427000726561736F6E3A203078257829000000EE
:1042800010B51A4C0188606810290ED011292BD165
:10429000401E606028D1FFF7A9FC002824D02168C7
:1042A000002921D0BDE810400847D0B900210122E3
:1042B000084600F065FA08B107280FD1072202214D
:1042C000012000F05DFA08B1072807D1042202217D
:1042D000002000F055FA20B1072802D0216801B172
:1042E00088476068401C606010BD000008580020CE
:1042F0002DE9F047044603883F480122A4B000F1AD
:10430000480A102B09D0112B54D01A2B70D1217AC6
:10431000B2EB111F53D2012352E0D0E911218A439D
:104320000546011D12A803F0FEF8442212A901A8B7
:10433000FFF7B8F8DFF8C0900026374609F14409C6
:104340000DF104080AE000BF08EB46001D22838837
:104350004946281D009703F0ABF8761C0198B0423F
:10436000F2D8686CA688C04303F0C4F8A0F57F417A
:10437000FF3917D005EB40000123868032465146B5
:10438000281D03F004F9012332464946281D03F095
:10439000FEF8E07B02280BD000231749A2884C319D
:1043A000281D20E024B00420BDE8F047FFF7D8BC6A
:1043B0000123F2E70023A2885146001D13E00023E9
:1043C0000D490546A2885031001D03F0E0F8207A1F
:1043D0000221B1EB101F01D2012300E000230649A6
:1043E000A2885431281D24B0BDE8F04703F0CFB8AF
:1043F00024B0BDE8F08700007C5A002070B518B3E7
:104400000288A2F57F41FF391CD0104C4388104D23
:10441000206800EB8001401C00F00700206005EBE5
:10442000810102204B81C881081D086100248C8114
:104430000120087208714C710A80887003F040FAFC
:10444000204670BD082070BD0E2070BD2058002091
:104450004C5E002040B1018022B11168C0F802100A
:104460009188C180002070470E20704730B5134DF1
:10447000040085B02DCD8DE82D001DD0E1B1086878
:10448000D0B100206080A080E0804FF6FF702080D7
:104490000868A06004F10C01684662DF002809D1B9
:1044A000207B8DF8120041F22350ADF8100004A8D3
:1044B000FFF79CFD05B030BD0E20FBE77C7D0200C0
:1044C0000EB5002921D000281FD00288112A25D03E
:1044D000382A1BD0392A18D10A460988838899427C
:1044E00013D14189938899420FD1C18901290CD1F7
:1044F00002218DF800101188ADF80210007C8DF8B3
:10450000040093686946104698470EBD0988808864
:104510008142FAD1BDE80E4003F0D2B90A88808802
:104520008242F2D14FF6FF700880002048808880D8
:10453000C8800EBD70B518B30288A2F57F43FF3B5B
:104540001CD0104C104D236803EB83025B1C03F05E
:104550000703236005EB8202C38853810123D381C3
:10456000141D1461002494810224147211710088B6
:104570001080937003F0A4F9002070BD082070BD76
:104580000E2070BD205800204C5E00203EB50A78F9
:10459000002A40D18A88A2F5A853233B3BD18A79CF
:1045A000037B9A4237D101228DF800204A88ADF86A
:1045B0000220002218E000BF02EBC20301EB43031C
:1045C00033F80E4F04F6DC24B4F5005405D0012C6A
:1045D00009D11B89ADF8083005E01C89ADF806400B
:1045E0005B89ADF80430521C0B7A9342E4D8018801
:1045F000A1F57F42FF3A0BD0C18849B9818839B90A
:10460000418829B90199C0F80210BDF80810C1808D
:104610008268694690473EBD07490B5C4FF0A04158
:10462000D1F804250120984020EA0203C1F808359A
:104630001040C1F80C057047B27C02000249085CCA
:10464000012101F03EBD0000B27C02000249085C7D
:10465000002101F036BD0000B27C02000649095C71
:104660004FF0A040D0F80405C84010F0010000D081
:10467000012080F001007047B27C02007CB500246C
:10468000084E25460122305D009500231146019514
:1046900001F0B4FC641C042CF4D3BDE87C4000F0B1
:1046A00003B80000B27C020010B500242046FFF7DA
:1046B000C5FF641C042CF9D310BD10B5002420469E
:1046C000FFF7C4FF641C042CF9D310BD10B50246DB
:1046D000064B4FF0FF3000215C5C944201D108464C
:1046E00010BD491C0429F7D310BD0000B67C0200A0
:1046F0002DE9F0470D468146FFF7E8FF0446042800
:1047000036D2DFF874801B481C4EA8F10C0725B385
:10471000012D0ED0022D2BD104EB440030444578FE
:10472000002D25D0B968002922D02846BDE8F047E1
:10473000084704EB4401755C0E44717849B10E4A98
:104740004FF40041093A8068FFF752FB08B987F837
:104750000390B17808F80410E2E78068FFF78CFB5B
:1047600004EB4401314418F804008D78A842D7D0F6
:10477000BDE8F087BC7C020004580020505A00209D
:1047800070B50023042810D20D4D00EB4004012A1F
:1047900002D101290CD00022094E00EB4000304428
:1047A00061B1012906D0022906D00723184670BD41
:1047B0000E30C2B22A55F9E74270F7E78270F5E78A
:1047C000505A0020044A014600201279D20702D034
:1047D000084600F003B87047F85700202DE9F05F55
:1047E0006A4C054600266078B34618B184F801B0DB
:1047F00000F0BEFC664F4FF47A694FF4C87A4FF070
:104800000108182D62D2DFE805F0AC0C0C31404DE8
:1048100062676B746B74BE7D7D7D7D7DACAFB2B520
:10482000BEBE0020FFF71AFF00284FF0000008D09E
:10483000FFF704FF022D02D14FF4E16008E0484683
:1048400006E0FFF703FF022D01D1C82000E050462B
:10485000410CC0034FF4FA72801841F10001257039
:1048600052000023FEF7E8FD01462AE00020FFF792
:10487000F5FE00284FF0000004D0FFF7DFFE4FF4F4
:104880004870E5E7FFF7E2FEDFE70020FFF7E6FE0E
:1048900000284FF0000002D0FFF7D0FECFE7FFF76F
:1048A000D5FED4E70020FFF7D9FE00284FF0000026
:1048B00002D0FFF7C3FE01E0FFF7C8FE257041F606
:1048C0009A1100223868FFF793FA064646E0002066
:1048D000FFF7A2FE257008E0002051E025703DE0C2
:1048E00084F801800120FFF797FE002240F6CD41B9
:1048F000E8E784F801800120FFF78EFE00224FF4E4
:104900008041DFE77868FFF7B7FA0646D5F1110076
:1049100000D02EB10220FFF791FE84F802B01DE016
:10492000012816D980B2C8214843C117C90341EAFA
:104930005041C0034FF4FA72801841F10001520057
:104940000023FEF779FD014600227868FFF750FA50
:1049500006460220FFF77AFE84F802803046BDE862
:10496000F09F00F005FCB9E700F002FCB4E700F0AE
:10497000FFFB04E000F0FCFB0020FFF767FE0120D6
:10498000FFF764FEAAE7FFF798FEA7E7F8570020B5
:10499000BC7C0200F8B5871C00208DF800000E4694
:1049A00001256846FFF778FA124C20683060D4E998
:1049B0000001401AA168091ABE1C06E000F08AFC3A
:1049C000D4E90001401AA168091A491C8E42F5D8A1
:1049D000A1682068084004EB8000C16841F0030131
:1049E000C1602068384420609DF80000FFF778FA25
:1049F0002846F8BD6062002030B482680468531C09
:104A00008360A154D0E901128A4202D330BC01F084
:104A10008EB930BC70470000034803C8814201D101
:104A20000120704700207047606200202DE9F041AE
:104A30000D460D2803D0BDE8F041FFF791B90F4EA8
:104A4000002443F2020700BF06EB04102946FFF7DB
:104A500071FD18B1B84201D008280DD1641C082C92
:104A6000F2D307482A4603210088BDE8F04101EB54
:104A7000004004A101F026BDBDE8F081905900205E
:104A8000145900204C4253207772697465204C45BC
:104A900044207374617465202564000005494FF05B
:104AA000FF32082841F8202002D3084480F848202B
:104AB00070470000005F0020F0B54FF0FF3512B1E5
:104AC0000023082601E008230C260C4C05E000BF5B
:104AD00054F823707F1C04D05B1CB342F8D32846E3
:104AE000F0BD26185DB286F8305044F82310002A35
:104AF000F5D1E11881F84800F1E70000005F0020DF
:104B00000249084490F9300070470000005F00201F
:104B100008B5024690F8C6020B4600EB8001C1EBD7
:104B2000801002EB400092F8C52242B1521ED2B270
:104B300002EBC20100EB4102518A491C00E0C1882E
:104B4000ADF800100089ADF802006946184696DFFE
:104B500008BD000070B5084C050009D0103421686C
:104B6000002907D008682060496828468847F6E78A
:104B70000834F4E770BD0000EC5E00202DE9F05F22
:104B800026484168F1B3DFF898B00E688146DBF83B
:104B9000004087688078E11B21F07F45ED1CB0B9AB
:104BA000DFF880804FF48030C8F84403C8F804036D
:104BB0001120FEF7C7FD1120FEF7CFFD4FF0010ACF
:104BC000C8F800A02F2000F0EFFD89F802A0B54240
:104BD00000D23546124BE8193C3320F07F40186074
:104BE000DBF800105A46091B21F07F41001B20F022
:104BF0007F40C91C81420FD9106818602F2000F037
:104C0000D3FD00E004E0BDE8F05F1120FEF7B0BD89
:104C1000BDE8F05F02F05CBBBDE8F09F3C580020AF
:104C200004150140001001404188034A02EB0112C3
:104C300001461046FFF7AABC905900202DE9F84321
:104C4000054690F8C6020F4600EB8001C1EB8010CC
:104C500005EB400695F8C542914604EBC40006EB0F
:104C600040013279601C0A31904226D16B46002205
:104C7000284600F0F1F918B310E0401EA04201D11F
:104C8000002004E004EBC40006EB40001C3080462A
:104C900002466B46284600F0DFF930B1002038703C
:104CA0006946484697DFBDE8F88395F8C502414656
:104CB000401C641C85F8C502E4B23079A042DCD8FF
:104CC000012038700020EEE72DE9F0410026012593
:104CD000144C22E06068226900EBC607387805FAB8
:104CE00000F1114217D08A43226100F0D9FE02463A
:104CF0003878E36805FA00F1194002FA00F39942A6
:104D000009D17978012901D0012100E00021514029
:104D10007A6802B19047761CF6B220788642D9D3E1
:104D2000BDE8F081285800202DE9F047894690F829
:104D3000C612904601EB8102C2EB811100EB4107E4
:104D4000384602F0A9FA06002FD0194CA0680628B0
:104D50002BD2184D762205EBC0103946A0F8028000
:104D6000001DFEF79FFB0027B9F1000F04D0A068DB
:104D700005EBC010077004E0A168022005EBC1112B
:104D80000870A06805EBC011401CCE67A060E16808
:104D900088420AD1002604E005EBC610C16F88479F
:104DA000761CE0688642F7D3A760BDE8F087000074
:104DB000105800204C5B002070B50E4690F8C612CB
:104DC000154601EB8102C2EB8111A0B000EB41005E
:104DD00002F062FA040009D07C2205496846FEF719
:104DE00061FBADF8025068460196A04720B070BD47
:104DF000E87C020070B50E4604464FF43371FEF7AE
:104E00006AFB11480025A4F8CA62856084F8C9527B
:104E10000E4884F8C65284F8C552006820602246C5
:104E20000121304694DF0121112806D0002809D144
:104E300084F8C71284F8C85203E084F8C71284F8D3
:104E4000C812002070BD000010580020345B002004
:104E50000E4910B50A784C780023A24212D0521C99
:104E6000D2B20A70022A00D10B70084A0B780C32B9
:104E700052F8232002608868104420F07F40886048
:104E8000012010BD0360002010BD00003C58002030
:104E900030B50446006885B00D46806800281CD0F7
:104EA00014216846FEF717FB0195A068049020794D
:104EB00010B101280DD104E001208DF80000206917
:104EC00004E002208DF80000E068000302906069B1
:104ED0000390206881686846884705B030BD0000AF
:104EE0002DE9F041124E07460125BD403068FEF71E
:104EF000C3FF00280DD10F4C2069284207D1384646
:104F000000F0CEFD0028E06805D0284304E0A84367
:104F10002061BDE8F081A843E0602069284320615A
:104F2000A1683068BDE8F0410022FEF761BF0000D3
:104F3000907D0200285800202DE9FC5F0E0083467A
:104F4000DDE90C47C6F1000098469246814600D440
:104F50000846012503E000BF90FBFAF06D1C5045A8
:104F6000FADAA84500D9454624B1002E01DB7807BE
:104F700000D5641EB80702D5B8F1000F0AD0F807B3
:104F800008D13CB1A54205D220215846641EFFF746
:104F900033FDF6E7002E02DA4E462D2102E07807B7
:104FA00003D52B215846FFF727FD07F00300022801
:104FB0000BD1B8F1000F08D13CB1A54205D2302188
:104FC0005846641EFFF718FDF6E7CDE90047434653
:104FD00052463146584602F0EBFDBDE8FC9F00000A
:104FE00070B50E460446007918494FF4A27501EBDE
:104FF0004010017F2068A1B14FF4887101F00CFED0
:105000004FF49071206801F007FE4FF49271206810
:1050100001F002FE2946206801F0FEFD0C492068DF
:1050200009E04FF48E7101F0E6FD2946206801F099
:10503000E2FD08492068C0F80413206800F05BFC1A
:105040003146BDE8704000F03ABC0000585F0020D7
:10505000100302008000020010B509892AB1D0882F
:10506000491C814218D1002010BD90F8C62202EBE5
:105070008204C4EB821200EB420212899142F2D008
:10508000491C198090F8C61201EB8102C2EB811114
:1050900000EB4100008902E01980D088401E588052
:1050A000012010BD70B5054617480C460A7803214B
:1050B0000088012A01EB00400FD0022A23D1237976
:1050C000628812A101F005FA207900284FF0020051
:1050D00015D0BDE87040FFF7B9BA628817A101F09A
:1050E000F1F9FEF7B7FD08B1FEF73AFE2846FFF7E3
:1050F00085F9002807D0BDE87040FEF731BEBDE855
:105100007040FFF79BBA70BD145900204C696E6B5C
:1051100020307825782C20427574746F6E2073745B
:10512000617465206368616E676564206F6E2070CE
:1051300065657220746F2030782578004C454420D6
:10514000427574746F6E207365727669636520644E
:105150006973636F7665726564206F6E20636F6E2E
:105160006E5F68616E646C652030782578000000A1
:105170000A4810B5807860B1002401E0022C06D006
:105180002046FFF75BFA641C042CF7D310BD032400
:10519000F6E7BDE81040FFF787BA0000F857002097
:1051A00006490120086006480168C1F30041002952
:1051B000FAD1044900208870704700000C000040BC
:1051C00018040040EC5E002017210180418000217E
:1051D000017141711B218171C17170472DE9F04747
:1051E000394E002780463D46DFF8E090D6F804A00F
:1051F00057E003D00446D0F81C8035E099F8002031
:1052000002EB4201521CD2B289F8002009EBC10125
:1052100099F80230091D9A4201D189F80050486876
:105220000A780446012A12D0022A02D0032A3BD16E
:1052300008E002F0B7FA00B10127257434E00574E4
:10524000C06900E070680028F9D170602CE0207C13
:1052500050BB88686060C868A0600869E060486901
:10526000A061F07800B165606268B168184B501AAF
:1052700020F07F40984202D2A168084406E0881AD4
:10528000A16820F07F40814202D9081A206000E026
:10529000256065600120A56020742046E56102F06C
:1052A00063FAB8F10000A4D199F8001099F8010050
:1052B0008142A3D117B97168514502D00120BDE8E0
:1052C000F0870020FBE700003C580020985F00209A
:1052D000FFFF7F0070B588B0214800F02DF920480D
:1052E000001F064600F028F91E4DD5E9014105E0F2
:1052F000C0F3891202EB9050641C044404EA0100DC
:1053000005EB8000C0688207F2D000200DF1080292
:1053100004EA010305EB8303641CDB6842F82030D8
:10532000401C0228F4D3029800F00300012808D0A2
:1053300002280AD10298032101EB905004EB90045B
:1053400003E00298C0F3831004443046002101AA10
:10535000FEF72BF8002800D06C6008B070BD00008C
:10536000786600206062002008B5002001F010F986
:1053700008B1FEF7F5FC00F09BFFFEF70FFD08B14A
:10538000FEF7EEFCFFF77AF940F266620121284849
:10539000FEF772FC08B1FEF7E3FC01F05FFB08B119
:1053A000FEF7DEFC002000906946012001F01EFAA5
:1053B00008B1FEF7D5FC684601F09EFA08B1FEF789
:1053C000CFFC00211B4800F018F908B1FEF7C8FC1B
:1053D0001948FEF72BFE08B1FEF7C2FC154D174821
:1053E00000244C35CDF8000005EB04106946FFF7AA
:1053F0003DF808B1FEF7B4FC641C082CF4D3FEF7AA
:10540000EBFD0F480321008801EB00400DA101F0E6
:1054100055F801F0A1FF0020FFF718F900F056FF42
:105420000028FBD13EDF0028F8D0FEF799FCF5E715
:105430009041002044590020294C0200A550020050
:10544000145900204D756C74696C696E6B20657819
:10545000616D706C6520737461727465642E0000F8
:105460002DE9F047C7880446181D16468946B0FB4B
:10547000F7F1B0FBF7F207FB12009A193A44D21C7D
:10548000B2FBF7F2DDF820A001E02468491E0029F4
:10549000FBD13D1A8846B54216D818E0BAF1000F84
:1054A00005D0211809EB08002A46091D04E0204414
:1054B00009EB08012A46001DFDF7F4FF00202468CF
:1054C000761BA844B74201D9354600E03D46002E80
:1054D000E4D1BDE8F087000030B5024669B101F0C3
:1054E00085F80021084C0BE001EB410304EB83033A
:1054F00015685B88AB4202D11160002030BD491CA9
:105500008142F1D3052030BDC058002010B50A8873
:1055100049888A4203D1FDF7BFFE012010BD00205B
:1055200010BD70B50C460546FDF799FE002802D067
:1055300061882868084470BD08B501216A46FDF7F6
:1055400027FF009808BD38B5044600258DF80050A7
:105550006846FEF7A1FC21686268086890420ED98F
:10556000401E08600178238AE26801FB0325227A45
:105570002168101AC0B20A79824200D208719DF8DF
:105580000000FEF7ADFC284638BD38B505460020C2
:105590008DF800000C466846FEF77EFCE868298A14
:1055A000201AB0FBF1F12A681068431C13600170E7
:1055B0009DF80000FEF794FC38BD10B530B1017ABB
:1055C00042680368891AC9B21A6006E00E2010BD4D
:1055D00003681A68541C1C601170491EC9B2F7D2C6
:1055E000006800210171084610BDC20800F00703E1
:1055F0000120895C98400840704770B5040010D0C5
:105600001720A164208060801B202071002504EBFE
:10561000C500801DFFF7D8FD6D1C082DF7D30020B5
:1056200070BD0E2070BD00002DE9F047858890B058
:105630000C46082D7ED20188DFF83C910026DFF869
:105640003CA14FF0010824293ED006DC102909D0E6
:1056500011290CD0232972D152E03A290DD05529B5
:105660006DD12CE00146204601F0B6FB67E004EB6B
:10567000C500801DFFF7A8FD61E0294604EBC107C6
:10568000408937F8062F824200D8104678801728C4
:1056900000D217207880A06C70B1787960B1D9E918
:1056A0000020CDE90020ADF802107888ADF80400A4
:1056B000A26C2046694690477E713E713FE00146EC
:1056C000204601F04FFC3AE0011D34226846FDF708
:1056D000E9FEBDF80000BDF8042004EBC0014A73E8
:1056E000A26C42B3D9E90432CDE90D32ADF83600EF
:1056F000487B8DF83800A26C20460DA990471EE02B
:105700000096019630F8041F04EBC1020179127B68
:105710008A4200D21146ADF80010ADF802100088A0
:105720000022694690DF020009D0BAF8001008EBA9
:10573000014001E01CE002E0114900F0C3FE04EB6F
:10574000C504A07A002813D0E18828469EDF020015
:105750000BD0112A0CD0BAF8001010B008EB0140A1
:10576000BDE8F047074900F0ADBEA67284F80B8093
:1057700010B0BDE8F0870000647D0200CC58002026
:10578000B08002002880020000F1804000680028FC
:1057900000D00120704708B500F180400021016071
:1057A0000068009008BD000000283ED01F49204A34
:1057B000096800BF00BF00BF00BF00BF00BF00BF3F
:1057C00000BF91422FD000BF00BF00BF00BF00BF8D
:1057D00000BF00BF00BF00BF00BF00BF00BF00BFD1
:1057E00000BF00BF00BF00BF00BF00BF00BF00BFC1
:1057F00000BF00BF00BF00BF00BF00BF00BF00BFB1
:1058000000BF00BF00BF00BF00BF00BF00BF00BFA0
:1058100000BF00BF00BF00BF00BF00BF00BF00BF90
:1058200000BF00BF00BF0138C3D17047BC58002083
:105830000024F40070B50F4C0025207808B18525B0
:1058400016E00021A16061602161E1604FF0E0207D
:10585000D0F80001012610F0010F03D1072100202C
:1058600000F02DF801F042F908B9034806602670EF
:10587000284670BDEC5E00201805004008B50020E9
:105880008DF800006846FEF707FB0648C168491E10
:10589000C160C06808B9FFF783FC9DF80000FEF7FF
:1058A0001FFB08BDEC5E002000F01F0201219140AB
:1058B0004009800000F1E020C0F8801170474907DE
:1058C000090E002806DA00F00F0202F1E02282F849
:1058D000141D03E000F1E02282F8001400F01F0222
:1058E000012191404009800000F1E020C0F88012C1
:1058F000C0F800117047000B40B2704710B5044665
:1059000001F0DEFB28B12046BDE81040002100F088
:10591000C7BB204601F0E0FB00280FD02046FFF770
:10592000EFF8074A02EB8001D1F8103523F00103AC
:10593000C1F8103501218140C2F8081310BD0000E4
:10594000006000402DE9F0418846054601F0B8FBB3
:10595000234E002828461AD0FFF7D2F8304490F89A
:1059600048008009032802D001280ED007E04FF03C
:10597000A040D0F81005E84010F0010F05D0032139
:105980002846BDE8F04100F08BBB0221F8E701F0AA
:10599000A3FB002822D02846FFF7B2F804464FF4B4
:1059A000807000EB84000F4F81B207EB8400D0F8C9
:1059B000102542F00102C0F81025084600F0A0FBB7
:1059C000B8F1000F0AD02846FFF79AF856F82000E1
:1059D000002803D00120A040C7F80403BDE8F081EF
:1059E000005F0020006000402DE9FC41DFF8A4804A
:1059F000044608EB0400002790F930001346C01756
:105A00000E46401C01D0082741E0F2781946204696
:105A1000FFF752F80546401C38D0B07850B14FF02F
:105A2000A04000EB8400D0F8001721F00201C0F87C
:105A3000001707E000217378204600910A46019183
:105A400000F0EEFAF078C0B11348317800EB850031
:105A5000D0F81025114B1A40C0F810254FF4F85219
:105A60004FF4403302EA042203EA01410A43D0F82A
:105A700010150A43C0F8102509E008EB050032783C
:105A800010F8481F41EA8211017000E004273846EF
:105A9000BDE8FC81005F002000600040FFE0FCFFEB
:105AA0004FF0A041D1F81015C14011F0010000D015
:105AB0000120704770B5144D95F8540008B10820C6
:105AC00070BD0020411E2A18401CC0B282F8301060
:105AD0002028F8D300242046FEF7E0FF641CE4B23F
:105AE0000C2CF8D307210620FFF7E9FE4FF4BE7017
:105AF00000F006FB05494FF00040C1F80403012007
:105B000085F85400002070BD005F00200060004058
:105B1000034890F85400002800D00120704700008E
:105B2000005F00200121B1EB507F01D101207047BF
:105B3000002070472DE9F04105460079164F904648
:105B400007EB40140E46E07E10B10820BDE8F0815E
:105B5000707F20772846FEF7DDF95FEA0800606075
:105B60003169216003D0317F2846FFF739FA28795F
:105B700007EB4010007F0028286801D0082100E0D2
:105B80000421C0F800150020E0752076A0750121E1
:105B9000E176A076DAE70000585F00202DE9F047B3
:105BA000054600793F4E904606EB40140F46207F95
:105BB00018B10846FFF7B6FF30B1284600F074F878
:105BC00020B11120BDE8F0871020FBE784F8168093
:105BD000A7600027A78228794FF0010806EB401440
:105BE0003E46207F0028286825D04FF4907949460A
:105BF00001F012F84FF4AC7A5146286801F00CF825
:105C00002868A17DA268C0F84425C0F84815286816
:105C1000C0F808806068F0B94946286800F0F7FFCE
:105C200080465146286800F0F2FF58EA0001F3D0A0
:105C300058BBA7750FE04FF48E7A514600F0DBFF9A
:105C40002868C0F808802146286801F05DFE616878
:105C50004FF4807089B13046B4E75146286800F0AF
:105C6000C5FF10B9A08A4845F7D1A08A484505D09C
:105C70002146286801F048FE00E08146A08AA17D07
:105C80008842EAD3A08A484501D10F26D1E7514680
:105C9000286800F0ABFF0028F9D02868C0F80C8015
:105CA000C7E70000585F00200079044901EB40106D
:105CB000807D002800D0012070470000585F002040
:105CC00070B5044600791149002601EB40152068A3
:105CD0002A7FC0F80065686888B1207901EB401020
:105CE000007F0028206801D0094901E008498C396B
:105CF000C0F808132068FFF7FEFDFFF7D5FD20462A
:105D000001F0F6F9EE766E6070BD0000585F00207D
:105D1000100302000FB408B50399002904D004AAA7
:105D200000926A4600F00FF801B05DF814FB10B560
:105D300082680446002A05D0D4E904032168984704
:105D40000020A06010BD2DE9FC4791460C00804664
:105D500076D014F8011B39B125290ED04046FEF744
:105D60004BFE20780028F4D198F80C00002867D06A
:105D70004046BDE8FC47FFF7DABF0020012221784A
:105D80002B291BD02D2902D0302908D102E040F068
:105D9000010001E040F00200641C002AEFD1002560
:105DA0002A290ED02178A1F130020A2A11D205EB5E
:105DB000850201EB4205641C303DF1E740F0040030
:105DC000EAE7D9F800100B1DC9F800300968641C17
:105DD0000D44217800232E290BD114F8011FA1F1C5
:105DE00030020A2A05D203EB830201EB4203303B67
:105DF000F3E76C290DD068290BD0692921D00BDC81
:105E0000252918D0582931D063290ED0642915D1FD
:105E100017E014F8011FECE7702969D0732932D01C
:105E200075291BD0782909D120E0D9F80000011D7F
:105E3000C9F8001001784046FEF7DEFD641C90E7CB
:105E40006CE0D9F800100A1DC9F800200968CDE9F6
:105E500000500A224046FFF76FF8EFE7D9F800102C
:105E60000A1DC9F8002009680A2206E0D9F80010C6
:105E70000A1DC9F8002009681022CDE900504046EB
:105E800001F096FEDAE7D9F8001000270A1DC9F8DC
:105E900000200E68C00705D112E04046761C7F1C2A
:105EA000FEF7AAFD31780029F7D104E02021404611
:105EB0006D1EFEF7A1FDBD42C0D9002DF6D1BDE794
:105EC0004EB13046FDF712FB074604E02021404664
:105ED0006D1EFEF791FDBD4206D9002DF6D103E0FF
:105EE0004046761CFEF788FD31780029F8D1A5E7F9
:105EF000D9F80000011DC9F800100568302140469E
:105F0000FEF77AFD78214046FEF776FD0820002155
:105F1000CDE90001034610222946B0E7BDE8FC8721
:105F2000044801214174007A08B100207047012023
:105F3000704700003C610020012801D0032808D1EF
:105F40000449002201284A7400D00020087401F09E
:105F500057B970473C61002070B5254C0246207A45
:105F6000012837D0022841D122480023022A0068A4
:105F700002D0032A2ED11BE0E360017911B101297F
:105F800028D10DE0D0E90565711B4FF48056B14270
:105F900000D33146294481614569A9420ED019E0F8
:105FA0000169491C01614269914213D1237217E0D2
:105FB000E168491CE16008290CD9E3602372022AD8
:105FC0000ED00D21FEF764FF0B480A49091D006839
:105FD000FFF79CFA607C28B1BDE8704000F08CBDF2
:105FE0000021EFE7BDE8704001F00AB970BD000084
:105FF0003C61002050580020A87D020070B541EAA5
:106000004201DDE904564FF0A04441EA830141EA30
:10601000052104EB800041EA0641C0F8001770BD7D
:1060200070B541EA4201DDE904564FF0A04441EA6F
:10603000830141EA052104EB800041EA0641C0F8F2
:10604000001770BD70B541EA4201DDE904564FF01A
:10605000A04441EA830141EA052104EB800041EAC2
:106060000641C0F8001770BD1CB5002100910B4619
:1060700001220191FFF7E6FF1CBD1CB500220B4673
:10608000009211460192FFF7DDFF1CBD1CB50021F7
:1060900000910B46012201911146FFF7D3FF1CBD71
:1060A0004FF0A04202EB8000D0F8002722F44032EB
:1060B000C0F80027D0F8002742EA0141C0F80017D5
:1060C000704701224FF0A043824011B1C3F8082568
:1060D0007047C3F80C25704718B5084B6C4601444F
:1060E0001B68009306E000BF54F82030D3F8103549
:1060F000401C08C28142F7D818BD00008C7D020008
:10610000034908B50844002101600068009008BDFB
:106110000060004002494058012800D0002070472C
:106120000060004030B5124B01460020D3F8104407
:10613000224609E0157A854205D1401C0A28F7DB82
:106140004FF0FF3030BD5268002AF3D1421CF9D025
:106150000872D3F810242AB152684A60D3F8102488
:10616000516030BD0022C3F810144A6030BD0000F9
:1061700060620020F0B595B01C4615460F460846F3
:106180001A9E00F003FB182109A8FDF7A4F90E964A
:10619000CDE909540023082203A9384600F010FB7A
:1061A000059806900498ADF81C0000208DF820009A
:1061B0000398082600F00300012802D002281DD011
:1061C0003CE003983346850AC0F3C2008DF81E00F8
:1061D00003980FA9C0F380008DF81F000398C0F347
:1061E0008314A200384600F0EBFA09A8009006AB31
:1061F00022460FA9284600F025FA1FE00398840DD7
:10620000C0F3C2008DF81E000398C0F380008DF823
:106210001F00082C01D2254600E0082533462A46F7
:106220000FA9384600F0CCFA2E44641B09AB06AA2D
:1062300029460FA800F056F9002CEAD1384600F0A4
:10624000AEFA15B0F0BD7047012001F081BB00002F
:1062500010B50448FFF734FDBDE81040002001F000
:1062600077BB00005C58002008B5034A0092402329
:10627000024AFFF77FFF08BD9D75020060610020A4
:106280000A4A012902EBC00007D0022907D00329DE
:1062900007D0042907D0002070470220704704204F
:1062A000704700797047407970470000D886020037
:1062B00010B5FFF7C9FF04210348FFF733FF024978
:1062C0000120487210BD0000645800202DE9F04FF5
:1062D0008DB0FEF7A1FB18B100200DB0BDE8F08F26
:1062E00074480021C0F81814BFF34F8FD0E901465D
:1062F00004EA060100EB81014FF000090AE000BF4B
:10630000C1F3891202EB9151641C0C4404EA0601AA
:1063100000EB8101C9688A07F2D0002103AA8046F8
:1063200004EA060008EB8000641CC06842F8210003
:10633000491C43460229F3D3039800F003000228C6
:1063400006D0012803984FD0C04380077ED0ACE030
:1063500003985022810D8A46B2EB905F00D85021FD
:106360000D4665F39F5003900831534800F0C5F97E
:1063700007006CD000F00AFA4B46082203A9384601
:1063800000F024FA04EA0601701A8000001D09F1E9
:10639000080B854221D9474E0C3630B1C2B208EB0A
:1063A0008101281A91460C3104E03146EAB20026F8
:1063B00091463046C5B25B46384600F007FA0BEB13
:1063C00009032EB12A4631464FEA070000F0FEF9D4
:1063D0000AF1030004EB90043BE008EB81015B460B
:1063E0002A4638460C31F1E7C0F38310062800D363
:1063F0000620039960F38911C1F38310801C039177
:1064000081002D4800F079F907004ED000F0BEF968
:106410004B46082203A9384600F0D8F909F10809CB
:1064200000250DE004EA060008EB80014B4604223B
:1064300038460C31641C00F0C9F909F104096D1CDF
:106440000398C0F38310A842ECD801E00BE02CE0E5
:106450005FB3D8F81054D8F81804464690B13846BF
:1064600000F09DF921E0D3F8180400283FF435AF7F
:106470001BE0687A012804D1296828460A68394651
:1064800090476D68002DF4D1384600F088F900205F
:106490008DF800006846FDF7FFFCD6F8180400B937
:1064A00074609DF80000FDF71BFDFEF7B5FA80F063
:1064B000010012E760620020E87E020000231A4615
:1064C00001F0CAB808B5012300926A4601F0C4F889
:1064D00008BD1CB5CDE9002302236A4601F0BCF8D3
:1064E0001CBD00002DE9F0470E4680461C46924632
:1064F00008293ED894F80C900020207319461046C5
:1065000000F050FE0025B54206D218F805201AA169
:106510002046FFF7FFFB03E019A12046FFF7FAFB37
:106520006D1C082DEFD317A12046FFF7F3FB0025C4
:10653000B54210D218F80570FCF7B0FF0068C05DD6
:1065400010F03E0F01D03A4600E02E220EA1204668
:10655000FFF7E0FB03E00DA12046FFF7DBFB6D1C1E
:10656000082DE5D301222146504600F0FDFD84F8B8
:106570000C90BDE8F0870000202530327800000044
:10658000202020007C000000256300002000000087
:10659000114810B5FF218160002101604160C0F801
:1065A0001814C0F8141480F81C140C4800F0F5F806
:1065B00000280FD10A480B490B4B401AC108002094
:1065C00005E000BF00EB400223F82200401C884297
:1065D000F8D3002010BD000060620020E87E0200B9
:1065E00030870200D8860200C058002002480349C4
:1065F000401AC0087047000030870200D8860200A9
:1066000013B56846FEF768FF08B100201CBD0248BC
:10661000009950F831001CBDD886020070B50848BA
:106620000125D0F8104480F81C5405E065722168FB
:106630002046496888476468002CF7D170BD000087
:10664000606200202DE9FF4781460C9D00200C462A
:106650002F7B2873984616462946184600F0A2FD5F
:10666000072E42D2DFE806F004090F161F2A360073
:1066700049462846FFF74EFB37E049462846226840
:10668000FFF748FB31E0D4E9002349462846FFF7ED
:1066900041FB2AE0A0680090D4E90023494628463F
:1066A000FFF738FB21E0D4E90201CDE90001D4E98C
:1066B000002349462846FFF72DFB16E004F10800A9
:1066C00007C88DE80700D4E9002349462846FFF7AC
:1066D00021FB0AE004F108000FC88DE80F00D4E99F
:1066E000002349462846FFF715FB0022294640466D
:1066F00000F03AFD2F73BDE8FF872DE9F041058AD0
:1067000080462D1F4819C01CB0FBF5F0C6B24046AC
:10671000FEF719FF040019D00020207101206071DC
:10672000E58000272546761EC4F800800BE0404631
:10673000FEF709FF60B16179491C61712860054667
:106740007F1CC0F80080B742F1D32046BDE8F0813D
:10675000204600F002F80020F8E72DE9F0414579E5
:1067600001466B1E002201E00968521C9A42FBD3CD
:106770000F680146002605E038460C68FEF705FF65
:106780002146761CAE42F7D3BDE8F08108B5012161
:106790006A46001DFCF7D5FD08BDFEF70EBF38B5F3
:1067A0000446001D01216A46FCF7D8FD009810F050
:1067B000FF0F04D12046BDE83840FFF7CEBF38BDFB
:1067C00038B501240094FEF74BFE38BD38B50024DF
:1067D0000094FEF745FE38BD20B103490968016009
:1067E000002070470E207047747F02002DE9FE43A1
:1067F00002460E460846FFF7EFFF00286ED1002440
:106800000094019403208DF800204FF00808ADF8A3
:10681000040002948DF8028069462020326869DF06
:106820002F4F012540B100F0D7F9024638882D4995
:1068300005EB0040FFF746FE00948DF800408DF810
:106840000180019402948DF802506946402032681C
:1068500069DF40B100F0C0F902463888224905EBF3
:106860000040FFF72FFE0094019402948DF8005031
:1068700069460120326869DF48B100F0ADF9398816
:10688000024605EB014319491846FFF71BFE4FF47A
:10689000B0600090019402946946A120326869DFDB
:1068A00040B100F099F902463888114905EB0040E3
:1068B000FFF708FE0094019402948DF800406946A9
:1068C000A020326869DF40B100F086F902463888BE
:1068D000084905EB0040FFF7F5FD0020BDE8FE8309
:1068E0002C590020BC850200048602001C85020091
:1068F00068850200C88402002DE9F0410446D0F802
:1069000000E060DF2368144D0646734515D02888E3
:10691000022707EB0040724610A1FFF7DAFDF806E8
:10692000D0F80C012168800200F10050421A28883A
:1069300016A107EB0040FFF7C5FD56B1304600F049
:106940004BF902462888012101EB004018A1FFF70E
:10695000B9FD3046BDE8F0812C59002052414D2050
:1069600073746172747320617420307825782C20E0
:1069700063616E2062652061646A7573746564206A
:10698000746F20307825782E0000000052414D2091
:1069900073697A652063616E2062652061646A753F
:1069A0007374656420746F20307825782E000000A1
:1069B00073645F626C655F656E61626C6528292037
:1069C00072657475726E65642025732E0000000078
:1069D00030B593B05FF03805ADF8445011A903A865
:1069E00061DF30B1052816D013B0BDE83040FDF7A7
:1069F000B7B903AC0949684600F0AAF807E000BF40
:106A0000D0E9002120469047684600F0B8F8029887
:106A10000028E1D0F4E713B030BD0000787F020019
:106A200010B50D4C2078A0B10120A07000F012FD2F
:106A300011280CD0022000F025FD11DF002807D11D
:106A40002070A07000F0C4FD032000F01BFD0020AA
:106A500010BD082010BD0000B858002038B5174CF4
:106A6000207808B1082038BD0125A570002000F06D
:106A7000F1FC112820D0002000F004FD104811493D
:106A800000680090684610DF0028ECD12570A070E7
:106A900060700721162000F091FC08B1FDF760F945
:106AA0000721152000F08AFC08B1FDF759F900F024
:106AB000ABFD012000F0E6FC002038BDB8580020F6
:106AC0000C7F0200E93C02000EB50749684600F061
:106AD0003FF805E0D0E900108847684600F04FF81D
:106AE00002980028F6D10EBD287F020001480078E8
:106AF00070470000B85800200548817819B1007827
:106B000018B1FFF78DBF08207047FFF7A7BF00003F
:106B1000B85800201FB5684648DF30B1052814D0AA
:106B200004B0BDE81040FDF71BB9084901A800F00A
:106B30000FF806E0D0E900210098904701A800F086
:106B40001EF803980028E6D0F4E71FBD947F0200EA
:106B5000016009684160AFF3008010B5D0E9002101
:106B60005368994201D1002104E0D1E90034A342E5
:106B700002D01946816010BD08314160F0E781689C
:106B800000290BD0026892680A44826041684B6811
:106B90009A4203D108314160FFF7DFBF7047000020
:106BA0000C4A10B502F1F0030EE0991AC91001EB7E
:106BB000D171491002EBC1010C68844201D90B4626
:106BC00002E005D201F108029A42EED3002010BD86
:106BD000486810BDCC7D020000B5FFF7E1FF00283A
:106BE00000D1014800BD0000B87D020040580028D7
:106BF00000D00120704708B5002242504058009054
:106C000008BDD0F80403084000D001207047405868
:106C1000002800D00120704708B50022425040589B
:106C2000009008BD10B586B000F1180100F108040D
:106C30000491C07D01AAC008ADF80C0003A9092089
:106C4000FCF7BDFF30B101AA03A90820FCF7B7FF8C
:106C500000281DD10F48FCF749FC002818D0BDF8CA
:106C600004200C480299FCF748FC002810D1094A7E
:106C70000123083AA2F1080120468CDF020007D068
:106C800005480121008801EB004004A1FFF71AFC30
:106C900006B010BDA47C020014590020436F6E6E34
:106CA000656374696F6E20526571756573742046F3
:106CB00061696C65642C20726561736F6E20256458
:106CC000000000002DE9F84F05460C460888B5F88D
:106CD000CA12884259D195F8C602DFF8F8A000EB35
:106CE0008001C1EB801005EB400160884FF0030983
:106CF0004FF00008F0BBE6880879A21DF3B250FA05
:106D000086F6062E01D8034400E006230B71002608
:106D10001CE000BF00EBC00306EB860702EB470751
:106D200001EB4303D7F802C0C3F80AC0D7F806C086
:106D3000C3F80EC07F895F82A3F81480A3F8168081
:106D4000A3F81880401CA3F81A80761C0B798342A4
:106D5000E0D895F8C62200EBC00002EB8203C3EB3B
:106D6000821205EB420231F81000128990420ED2D5
:106D7000087900E00BE0062809D085F8C5022188D3
:106D80002846FDF7C5FE01000AD1BDE8F88F85F859
:106D9000C582228869462846FDF750FF01000BD0C6
:106DA00085F8C78222882846FEF706F88AF8009000
:106DB0002188AAF80210E8E79DF800000028E4D036
:106DC000228801212846FDF7AFFF2188284600F0E0
:106DD00039F9DAE74C5B00202DE9FC418E88027915
:106DE00000EBC605AC1D2A73C97B012902D002291C
:106DF00004D101E0008800E040882080218860887C
:106E00000127DFF8648081420CD930469EDF020002
:106E100025D0112A25D0B8F80000144907EB00400E
:106E2000FFF750FBA079E179884216D90020009045
:106E30000190287BADF80000287BADF8020000220D
:106E40006946304690DF030007D0B8F800003246AC
:106E500007EB00400649FFF73CFBBDE8FC8167718A
:106E6000E0E72771DEE70000CC5800202880020010
:106E7000F8800200F8B505460C460888B5F8CA1235
:106E800088425DD195F8C602A61D00EB8001C1EBDA
:106E9000801005EB400395F8C502618800EBC00047
:106EA00003EB40000A3039B329E000BF01EB410297
:106EB00006EB42029788B7F5245F0CD06FF4245C90
:106EC00017EB0C070AD0012F02D0072F0BD108E0D7
:106ED0005288428107E05288828104E05288C28150
:106EE00001E05288028242892AB182891AB1C2899C
:106EF0000AB1028A1AB9491C32888A42D6D80026B9
:106F00008DF8006095F8C5021979401C884203D1BC
:106F100001208DF8000018E085F8C5022288694636
:106F20002846FDF78BFE01000BD085F8C76222884A
:106F30002846FDF741FF0A4803210170218841805E
:106F4000F8BD9DF800000028FAD0228801212846CB
:106F5000FDF7EAFE2188284600F074F8F8BD00002D
:106F60004C5B00207CB506468D88C88806EBC504BE
:106F7000A41D172800D217202188814200D8084676
:106F800060800020207121882846ADDF020007D0F4
:106F90000E480121008801EB00400D49FFF792FAED
:106FA0006079002810D1B06C00280DD00948D0E9D4
:106FB0000210CDE90010ADF802506088ADF8040071
:106FC000B26C6946304690477CBD0000CC5800202A
:106FD0006C800200647D020070B505460C4690F896
:106FE000C602228800EB8001C1EB801005EB400156
:106FF000B5F8CA02824222D1608848B100212846F1
:10700000FDF792FE21882846BDE8704000F01AB8CE
:10701000A2680A60E068C1F8060021882846FDF7EA
:1070200077FD01000BD0002085F8C7022288284692
:10703000FDF7C2FE0248032101702188418070BD26
:107040004C5B00202DE9F041044690F8C9020E4641
:10705000401C1949C0B284F8C902C9680327174DFA
:107060004FF0000E884224D284F8C5E294F8C6029C
:10707000401CC0B200EB8001C1EB801104EB410267
:1070800084F8C602A5F1180101EB80000121006817
:10709000106082F804E0304694DF010007D084F8E5
:1070A000C7E232462046FDF787FE2F706E80BDE8AE
:1070B000F08184F8C7E2F8E7105800204C5B00200C
:1070C0000449084490F93000082801DB012070478A
:1070D00000207047005F00200449084490F9300008
:1070E000082801D20120704700207047005F00206F
:1070F00070B5034600791B4901EB40101968027F07
:107100004FF0FF30002AD1F80C25D1F81465D1F8E2
:107110000855D1F8104504D0C1F80C05C1F8140584
:1071200003E0C1F81405C1F80C051968C1F8080599
:10713000C1F81005501C02D01046FEF795FF701CD8
:1071400002D03046FEF790FF601C02D02046FEF7CA
:107150008BFF681C04D02846BDE87040FEF784BF52
:1071600070BD0000585F002010B50C46C17949B1D0
:107170001AB109A12046FEF7CDFD2046BDE810401A
:10718000FEF7D5BD007A0028F3D0044804A10268B8
:107190002046FEF7BFFDECE70D0A000094580020E2
:1071A0002573000070B50446C0790D4600281CD137
:1071B000207A50B1A179A088FFF762F80B4951F805
:1071C00020200BA12846FEF7A5FDA0880021FFF78F
:1071D00017FA03460549A079143951F820202846AA
:1071E000BDE8704003A1FEF795BD70BD9458002026
:1071F000257300003C25733E2025733A20000000D3
:107200002DE9F041214C0025214E207A012730B98B
:107210002048311D0068FEF784F9306038B1022043
:1072200020723168087928B101281ED116E0656006
:10723000BDE8F081D1E90503C01A4FF480529042B5
:1072400000D31046B7EB900F01D2820800E0012274
:107250000869C9681844194429DF03E0D1E903012A
:10726000084428DF38B111280ED003213068FDF71B
:107270000FFE2572DBE7207C0028D9D1BDE8F04164
:1072800000210220FEF768BE2772D1E73C61002092
:1072900050580020A87D020070B50C4B00210A4A0E
:1072A000DC680DE002EB81058678AD78B54206D149
:1072B00032F821500688B54201D1586870BD491C8A
:1072C000A142EFD3002070BD345B00201058002095
:1072D00070B5012670044FF0E0210025C1F880014F
:1072E000084C4010C4F84803C4F8080366602F2017
:1072F000FEF75AFAA660044C2F20A560FEF754FA58
:10730000A57070BD001001403C58002070B50546C6
:10731000C87D0C4600284FF4847128460AD0FFF738
:107320006AFCD5F81805627EE1688854607E401CCE
:10733000607670BDFFF75FFCD5F8180570BD1FB50E
:1073400001238DF800308DF808100192D0E9001269
:10735000684690471FBD000010B58BDF0C48032125
:107360000C4A008801EB00400BA1FFF7ABF809487D
:1073700010388ADF08B1FCF7F3FC0120FDF722FA90
:10738000002803D0BDE81040FCF7EABC10BD0000A7
:1073900014590020A47C020053746172742073633A
:1073A000616E6E696E6720666F72206465766963D0
:1073B00065206E616D652025732E000070B50D4649
:1073C0000446FCF7DFFB70B12846FCF7EDFB68B123
:1073D0006807000E002C0CDA04F00F0101F1E02127
:1073E00081F8140D09E042F2010070BD42F2020082
:1073F00070BD04F1E02484F80004002070BD00009A
:1074000038B50021012558B101280ED003280BD131
:1074100007210020FEF753FABDE83840FEF72EBAE8
:107420004FF0E020C0F8805138BD8DF8001068465C
:10743000FCF732FD064C207808B9FEF7FBF9E0684E
:10744000401CE060A5709DF80000FCF749FD38BDC8
:10745000EC5E00203EB5044609496846FFF778FB1C
:1074600008E000BFD0E900212046904730B16846CF
:10747000FFF785FB02980028F4D13EBD11203EBDE8
:10748000107F02003EB5044608496846FFF760FBDE
:1074900007E000BFD0E90021204690476846FFF78B
:1074A0006EFB02980028F5D13EBD00001C7F020053
:1074B00070B50028049D18D0002916D0002A14D0D9
:1074C0005FF0000430F814609E420FD100200123C9
:1074D000A34008E001EB800426680DB11E4300E0E4
:1074E0009E43401C26609042F4D370BD641C202C47
:1074F000E8D370BD70B5054600242146284600F04B
:107500000AF808B1204670BD641CA4B2202CF4D344
:107510004FF6FF7070BD01228A40024201D0012067
:107520007047002070472DE9F04192B080464FF03F
:10753000000017460D00009012D000246E46A1B244
:107540003846FFF7E8FF40B1009935F8140006EB24
:10755000410188800098401C0090641C202CEED3D0
:10756000442269464046FBF79DFF12B0BDE8F0811A
:1075700070B5002506462C46A1B23046FFF7CBFF7A
:1075800000B16D1C641C202CF6D3284670BD08B5D4
:10759000009313460122FFF78BFF08BD10B5084C7E
:1075A0000020D2B22070201DFEF7F8FA08B1FCF7D7
:1075B000D7FB6078002802D021780029FAD010BDCE
:1075C00058580020002801D1FDF7C4BA70470000C8
:1075D00010B51620FCF7D6FA48B10A4882684FF475
:1075E000800152B1016821F48001016010BDBDE845
:1075F000104042F20100FCF7B3BB4FF0E020C0F8AE
:10760000801110BDA460002010B51620FCF7BAFA56
:1076100080B10F4890F800044009FCF7C5FA60B14A
:107620000C4882684FF480016AB1016841F480011E
:10763000016010BD42F2010001E042F20200BDE82B
:107640001040FCF78DBB4FF0E020C0F8001110BDDA
:1076500016E000E0A46000202DE9F843214C8846A4
:10766000054691461F4669461846A668FDF792F9F9
:1076700070B30098811C00220AE000BF01EA060CEA
:1076800059F8223004EB8C0C491C521CCCF80C30FD
:10769000BA42F3D30246401C304004EB80002B0C6E
:1076A000C36002EA060004EB8002E80652F80C0F01
:1076B00002D540F0040001E020F0040065F3C500AD
:1076C00067F3891068F39F2020F00300401C1060CE
:1076D00094F81C0402E000BFFEF7F8FD0028FBD17F
:1076E000BDE8F883606200202DE9F84F1D4C0025AD
:1076F0006846D4E901A6FDF7ABFB002738B30023A9
:10770000009A61681CE0D1F800C00846944503D98E
:10771000ACEB02020A6015E0A2EB0C0263440760C6
:10772000D0F80CC0C1698146BCF1000F08D006EB4F
:10773000030828F07F48C0E9018CC9F81C500546B1
:107740000029E0D128466160FDF748FD03E02846A6
:10775000FDF744FD10B15046FDF710FAE770BDE8A3
:10776000F88F00003C5800200D4B10B5596831B11E
:1077700002680C68A24204D8A21A0A60C16158606B
:1077800010BD0B4603E00B46C969121B21B10C6802
:107790009442F8D3A41A0C600260C161D86110BD94
:1077A0003C5800202DE9F041144E77683D462C46A8
:1077B00003E0844204D02546E469002CF9D11BE0A3
:1077C000D4B1A5420BD1F869706040B90C490120D1
:1077D00088600021B160F0702F20FDF7E5FF21687F
:1077E000E069E86110B10268114401607068874285
:1077F00002D00120BDE8F0810020FBE73C580020CA
:10780000001001407CB5064600240D468DF800406E
:107810006846FCF741FB01A800F024FA70B105703E
:10782000094946609DF8040048709DF80000FCF787
:1078300057FB1420FBF79CFF20467CBD04249DF8D9
:107840000000FCF74DFBF7E7985F00202DE9F041C1
:10785000194D6C68002C2CD0184800270068A968C6
:10786000B846401A20F07F462068B0420CD8214626
:10787000361A0744E469087C20B181F810808869D1
:1078800049698847002CEFD129786878814206D170
:10789000401CC0B26870022801D185F801800648FA
:1078A00069780C3040F82170BDE8F0411420FBF7F6
:1078B0005FBFBDE8F08100003C5800200415014086
:1078C00010B50F4CD4E90010884211D000EB8002B3
:1078D0000C4800EB82018B785BB130F82200083154
:1078E0009CDF002804D12079401C00F00700606074
:1078F00010BD30F82200898800229ADFF1E70000ED
:10790000205800204C5E002070B50C4605464FF410
:107910008E71FFF770F9A18AA068415CA08A401CB3
:10792000A082C5F81C1570BD1FB500228DF800207F
:107930008DF80810816801918275D0E900126846BF
:1079400090471FBD0149012008707047585800201A
:1079500010B588B0044620220E496846FBF7A2FD08
:1079600006200090C01F0190029003904FF0EB7032
:1079700006900CB1084A00E0002269460748FEF76D
:10798000D9F808B1FCF7ECF90448001F447008B0BE
:1079900010BD0000C87E0200457902005C5800203E
:1079A0002DE9FF470C4605464FF40071FFF729F912
:1079B00001274FF40178002618B34FF49279494615
:1079C0002846FFF713F9E0B149462846FFF713F9B7
:1079D000C5F80883A07E00B96F6002208DF8000012
:1079E000D5F88004C5F880040390E07D8DF8080088
:1079F000E0680190E6752676D4E900126846904763
:107A000027E004212846FFF7FCF810B34FF48471F7
:107A10002846FFF7EBF8E0B121462846FFF776FC51
:107A2000E07D617E884214D1207E38B1617EE268BB
:107A3000E0752069E0602676667607E0A07E00B9F2
:107A40006F60C5F80883E675617EE2682046FFF73F
:107A500076FC4FF48E7841462846FFF7C7F888B188
:107A6000A08AA17D884204D221462846FFF74CFF18
:107A700008E041462846FFF7BEF8A17D11B1204637
:107A8000FFF752FF4FF4A27841462846FFF7AEF8C1
:107A9000002812D041462846FFF7ADF8A07E00B17D
:107AA0002F60E07D002808D0E675617EE26804B0B2
:107AB0002046BDE8F047FFF742BCBDE8FF872DE94F
:107AC000FF410C464FF4927705463946FFF79FF881
:107AD0000026C0B139462846FFF79EF802208DF8EF
:107AE0000000D5F88004C5F880040390D5F83C0563
:107AF0008DF80800E0680190E6752676D4E900125A
:107B00006846904724E04FF4887739462846FFF7C7
:107B10007EF8E8B139462846FFF77EF8D5F83C05EF
:107B2000C1B2E07D884213D1207E60B1E268D5F811
:107B3000000220F02000C5F80002207EE0752069D8
:107B4000E060267601E0E675E2682046FFF7F7FB85
:107B50004FF4A27739462846FFF759F868B13946FD
:107B60002846FFF759F8E07D38B1E675D5F83C05B1
:107B7000E268C1B22046FFF7E2FB4FF4907631464F
:107B80002846FFF744F800280FD031462846FFF773
:107B900043F8A07D002808D0D5F84C0504B0C1B248
:107BA0002046BDE8F041FFF7BFBEBDE8FF81000001
:107BB0002DE9F05F8346DDE90A4A994690460D4675
:107BC0000846012703E000BFB0FBF8F07F1C4045EA
:107BD000FAD2B94500D94F465FEACA7012D18CB1CA
:107BE0005FEA8A7002D5B9F1000F01D0202607E0C4
:107BF000302605E031465846641EFCF7FDFE0CB108
:107C0000A742F7D35FF00106B9F1010F02D9A9F13C
:107C1000010903E0B5FBF6F0404502D306FB08F688
:107C2000F2E7DFF83C9000BFB5FBF6F000FB16551D
:107C300019F800105846FCF7DFFEB6FBF8F6002EE8
:107C4000F2D15FEACA7009D0002C07D0A74205D252
:107C500020215846641EFCF7CFFEF5E7BDE8F09FF3
:107C6000987D02000A494A788B78521CD2B293421E
:107C700000D100220B78934201D10020704702709E
:107C8000487800EB400001EBC000001D7047000089
:107C9000985F00200000A0005000000006001800BF
:107CA000000090014E6F726469635F426C696E6B95
:107CB0007900111213140D0E0F100000105A00203D
:107CC000305A00205C5A00200D000300F1460200EB
:107CD0000E000300F14602000F000300F14602000F
:107CE00010000300F1460200010000000000000047
:107CF0000000000000000000000000000000000084
:107D00000000000000000000000000000000000073
:107D10000000000000000000000000000000000063
:107D20000000000000000000000000000000000053
:107D30000000000000000000000000000000000043
:107D40000000000000000000000000000000000033
:107D50000000000000000000000000000000000023
:107D600000000000770A000000000000770A000011
:107D7000000000007ADA00000000000023D1BCEA15
:107D80005F782315DEEF12120000000000000050A3
:107D9000785F00200300000030313233343536374D
:107DA00038394142434445465061002000100000EC
:107DB0000400000001000000556E6B6E6F776E20AE
:107DC0006572726F7220636F6465000000000000CE
:107DD0003084020001000000F08202000200000076
:107DE00070810200030000006483020004000000B0
:107DF000B883020005000000B08202000600000007
:107E00005082020007000000A0830200080000006A
:107E1000C482020009000000108302000A00000072
:107E2000188402000B000000588102000C000000C2
:107E3000DC8202000D0000003C8402000E00000005
:107E4000908302000F000000CC83020010000000AD
:107E50000084020011000000508402008000000035
:107E60009082020081000000148202008200000063
:107E7000D481020083000000B4810200840000006D
:107E8000F081020085000000688202008600000088
:107E90007883020090000000308202009100000010
:107EA0009481020000820000E08302000182000051
:107EB0002C830200028200004883020069620200F3
:107EC0005162020047620200FFFFFFFFFFFFFFFF5A
:107ED000FFFFFFFFFFFFFFFF0000000000000000AA
:107EE0000000D601070100007858002070580020DB
:107EF00078580020A061002018000000D087020000
:107F0000D887020000000000000000000100000708
:107F1000FC7E02000C7F020008000000347F02009B
:107F2000447F020008000000447F0200547F0200EA
:107F300008000000F8870200088802000000000026
:107F400000000000E8870200F8870200000000003F
:107F500000000000308702003887020038870200E6
:107F60008887020088870200C8870200C88702004D
:107F7000D087020090410020547F0200747F0200ED
:107F800008000000D8870200E88702000000000017
:107F900000000000847F0200947F020008000000BF
:107FA000004040404040404040404141414141400C
:107FB00040404040404040404040404040404040C1
:107FC0004005020202020202020202020202020250
:107FD0000220202020202020202020020202020255
:107FE00002029090909090901010101010101010AD
:107FF00010101010101010101010101002020202B9
:1080000002028888888888880808080808080808FC
:1080100008080808080808080808080802020202F8
:1080200040000000A17F020073645F626C655F67BF
:10803000617474635F65786368616E67655F6D74B2
:10804000755F726571756573742829207265747522
:10805000726E656420756E65787065637465642002
:1080600076616C756520307825782E0073645F62C8
:108070006C655F67617474735F65786368616E6770
:10808000655F6D74755F7265706C79282920726503
:108090007475726E656420756E657870656374655D
:1080A000642076616C756520307825782E0000009C
:1080B00073645F626C655F6761705F646174615F68
:1080C0006C656E6774685F757064617465282920DB
:1080D000287265706C79292072657475726E65649A
:1080E00020756E65787065637465642076616C7563
:1080F0006520307825782E0073645F626C655F6759
:1081000061705F646174615F6C656E6774685F75F0
:1081100070646174652829202872657175657374AF
:1081200029206F6E20636F6E6E656374696F6E20B9
:10813000307825782072657475726E656420756E6E
:1081400065787065637465642076616C7565203050
:108150007825782E000000004E52465F4552524F5F
:10816000525F494E56414C49445F444154410000DE
:108170004E52465F4552524F525F534F465444450C
:10818000564943455F4E4F545F454E41424C45442E
:10819000000000004E52465F4552524F525F464526
:1081A00041545552455F4E4F545F454E41424C45F8
:1081B000440000004E52465F4552524F525F4D55AB
:1081C0005445585F554E4C4F434B5F4641494C45D3
:1081D000440000004E52465F4552524F525F4D558B
:1081E0005445585F4C4F434B5F4641494C45440012
:1081F0004E52465F4552524F525F4D555445585F5F
:10820000434F4E445F494E49545F4641494C4544B3
:10821000000000004E52465F4552524F525F4D558E
:108220005445585F494E49545F4641494C454400C6
:108230004E52465F4552524F525F4150495F4E4F3A
:10824000545F494D504C454D454E54454400000047
:108250004E52465F4552524F525F4E4F545F5355F8
:1082600050504F52544544004E52465F4552524F73
:10827000525F4D4F44554C455F414C524541445926
:108280005F494E495449414C495A45440000000059
:108290004E52465F4552524F525F4D4F44554C45EA
:1082A0005F4E4F545F494E495449414C5A45440032
:1082B0004E52465F4552524F525F4E4F545F464FAB
:1082C000554E44004E52465F4552524F525F494E02
:1082D00056414C49445F5354415445004E52465F09
:1082E0004552524F525F444154415F53495A4500F1
:1082F0004E52465F4552524F525F5356435F48417C
:108300004E444C45525F4D495353494E470000007F
:108310004E52465F4552524F525F494E56414C496C
:10832000445F4C454E475448000000004E52465FA3
:108330004552524F525F4452565F5457495F45521F
:10834000525F414E41434B004E52465F4552524FA1
:10835000525F4452565F5457495F4552525F444EF4
:1083600041434B004E52465F4552524F525F494E79
:108370005445524E414C00004E52465F4552524FBA
:10838000525F53544F524147455F46554C4C000095
:108390004E52465F4552524F525F4E554C4C000074
:1083A0004E52465F4552524F525F494E56414C49DC
:1083B000445F504152414D004E52465F4552524F2C
:1083C000525F4E4F5F4D454D000000004E52465FDC
:1083D0004552524F525F464F5242494444454E0027
:1083E0004E52465F4552524F525F4452565F545769
:1083F000495F4552525F4F56455252554E0000005C
:108400004E52465F4552524F525F494E56414C497B
:10841000445F4144445200004E52465F4552524F21
:10842000525F494E56414C49445F464C41475300C8
:108430004E52465F53554343455353004E52465F99
:108440004552524F525F54494D454F55540000001C
:108450004E52465F4552524F525F425553590000AB
:108460007761726E696E670064656275670000000F
:108470001B5B313B33306D001B5B306D0000000037
:108480001B5B313B33316D001B5B313B33326D0085
:108490001B5B313B33336D001B5B313B33346D0071
:1084A0001B5B313B33356D001B5B313B33366D005D
:1084B0001B5B313B33376D00696E666F0000000057
:1084C0006572726F7200000073645F626C655F6357
:1084D00066675F73657428292072657475726E65AE
:1084E00064202573207768656E20617474656D70F3
:1084F00074696E6720746F2073657420424C455F09
:1085000047415454535F4346475F5345525649438E
:10851000455F4348414E4745442E000073645F6207
:108520006C655F6366675F73657428292072657484
:1085300075726E6564202573207768656E2061749E
:1085400074656D7074696E6720746F207365742034
:10855000424C455F434F4D4D4F4E5F4346475F563C
:10856000535F555549442E0073645F626C655F63C9
:1085700066675F73657428292072657475726E650D
:1085800064202573207768656E20617474656D7052
:1085900074696E6720746F2073657420424C455F68
:1085A00047415454535F4346475F415454525F54CC
:1085B00041425F53495A452E0000000073645F62D8
:1085C0006C655F6366675F736574282920726574E4
:1085D00075726E6564202573207768656E206174FE
:1085E00074656D7074696E6720746F207365742094
:1085F000424C455F434F4E4E5F4346475F474150B5
:108600002E00000073645F626C655F6366675F7372
:10861000657428292072657475726E6564202573EF
:10862000207768656E20617474656D7074696E671B
:1086300020746F2073657420424C455F4741505F42
:108640004346475F524F4C455F434F554E542E00B3
:10865000626C655F64625F6469736300626C655F2E
:108660006761747400000000626C655F6C62735F28
:1086700063000000636C6F636B0000006770696FDC
:1086800074650000756172740000000062616C6CBA
:108690006F630000617070006E72665F73646800E3
:1086A0006E72665F7364685F626C65006E72665FAF
:1086B0007364685F736F6300088802009041002054
:1086C000B417000078350200788802004459002071
:1086D0003C2D0000743B02005086020000000300A5
:1086E0005C860200000003006886020000000300B0
:1086F00074860200000000007C860200000000007A
:1087000084860200000000008C8602000000000049
:108710009486020000000300988602000000030017
:10872000A086020000000300AC86020000000300E7
:10873000F1420200000000002956020044590020C6
:108740004940020098410020494002006444002052
:10875000494002003047002049400200FC49002007
:1087600049400200C84C002049400200944F0020BC
:108770004940020060520020494002002C55002070
:108780008142020000000000C14402009059002014
:10879000C1440200A0590020C1440200B059002089
:1087A000C1440200C0590020C1440200D059002039
:1087B000C1440200E0590020C1440200F0590020E9
:1087C000C1440200005A00200141020000000000E4
:1087D000215F020000000000C575020000000000DB
:1087E000595F020000000000D16902000000000093
:1087F000156B020000000000017402000000000080
:10880000395F020000000000120D120304FF2D4A20
:108810000201FF01CD03FFFFFF01FF01FF01FF0187
:10882000FF01FF01FF01FF01FF01FF01FF01FF0148
:10883000FF01FF01FF01FF01FF01FF01FF01FFD168
:1088400012204240041DBC7E0214C084021A60043F
:108850001AB8041A68041A78041A70041A80041AE0
:1088600088041A90041A98041AA0041AA8041AB0CA
:088870000451048490D00300C0
:0400000500023201C2
:00000001FF
